{"contracts/PlayerSessionTracker.sol":{"PlayerSessionTracker":{"abi":[{"inputs":[],"stateMutability":"nonpayable","type":"constructor"},{"anonymous":false,"inputs":[{"indexed":true,"internalType":"string","name":"identifier","type":"string"},{"indexed":false,"internalType":"uint256","name":"timestamp","type":"uint256"}],"name":"NewPlayerRegistered","type":"event"},{"anonymous":false,"inputs":[{"indexed":true,"internalType":"uint256","name":"sessionId","type":"uint256"},{"indexed":true,"internalType":"string","name":"identifier","type":"string"},{"indexed":false,"internalType":"address","name":"playerAddress","type":"address"},{"indexed":false,"internalType":"string","name":"sessionType","type":"string"},{"indexed":false,"internalType":"uint256","name":"timestamp","type":"uint256"}],"name":"SessionRecorded","type":"event"},{"inputs":[],"name":"emergencyWithdraw","outputs":[],"stateMutability":"nonpayable","type":"function"},{"inputs":[{"internalType":"string","name":"_identifier","type":"string"}],"name":"getLastSessionTime","outputs":[{"internalType":"uint256","name":"","type":"uint256"}],"stateMutability":"view","type":"function"},{"inputs":[{"internalType":"string","name":"_identifier","type":"string"}],"name":"getPlayerSessionCount","outputs":[{"internalType":"uint256","name":"","type":"uint256"}],"stateMutability":"view","type":"function"},{"inputs":[{"internalType":"string","name":"_identifier","type":"string"}],"name":"getPlayerSessionIds","outputs":[{"internalType":"uint256[]","name":"","type":"uint256[]"}],"stateMutability":"view","type":"function"},{"inputs":[{"internalType":"uint256","name":"_sessionId","type":"uint256"}],"name":"getSession","outputs":[{"internalType":"address","name":"playerAddress","type":"address"},{"internalType":"string","name":"identifier","type":"string"},{"internalType":"uint256","name":"timestamp","type":"uint256"},{"internalType":"string","name":"sessionType","type":"string"},{"internalType":"uint256","name":"currency","type":"uint256"},{"internalType":"uint256","name":"bestScore","type":"uint256"}],"stateMutability":"view","type":"function"},{"inputs":[],"name":"getStats","outputs":[{"internalType":"uint256","name":"_totalSessions","type":"uint256"},{"internalType":"uint256","name":"_totalUniquePlayers","type":"uint256"},{"internalType":"address","name":"_owner","type":"address"}],"stateMutability":"view","type":"function"},{"inputs":[{"internalType":"string","name":"_identifier","type":"string"}],"name":"hasPlayed","outputs":[{"internalType":"bool","name":"","type":"bool"}],"stateMutability":"view","type":"function"},{"inputs":[{"internalType":"string","name":"","type":"string"}],"name":"hasPlayedBefore","outputs":[{"internalType":"bool","name":"","type":"bool"}],"stateMutability":"view","type":"function"},{"inputs":[{"internalType":"string","name":"","type":"string"}],"name":"lastSessionTime","outputs":[{"internalType":"uint256","name":"","type":"uint256"}],"stateMutability":"view","type":"function"},{"inputs":[],"name":"owner","outputs":[{"internalType":"address","name":"","type":"address"}],"stateMutability":"view","type":"function"},{"inputs":[{"internalType":"string","name":"","type":"string"},{"internalType":"uint256","name":"","type":"uint256"}],"name":"playerSessions","outputs":[{"internalType":"uint256","name":"","type":"uint256"}],"stateMutability":"view","type":"function"},{"inputs":[{"internalType":"string","name":"_identifier","type":"string"},{"internalType":"address","name":"_playerAddress","type":"address"},{"internalType":"string","name":"_sessionType","type":"string"},{"internalType":"uint256","name":"_currency","type":"uint256"},{"internalType":"uint256","name":"_bestScore","type":"uint256"}],"name":"recordSession","outputs":[{"internalType":"uint256","name":"","type":"uint256"}],"stateMutability":"nonpayable","type":"function"},{"inputs":[{"internalType":"uint256","name":"","type":"uint256"}],"name":"sessions","outputs":[{"internalType":"address","name":"playerAddress","type":"address"},{"internalType":"string","name":"identifier","type":"string"},{"internalType":"uint256","name":"timestamp","type":"uint256"},{"internalType":"string","name":"sessionType","type":"string"},{"internalType":"uint256","name":"currency","type":"uint256"},{"internalType":"uint256","name":"bestScore","type":"uint256"},{"internalType":"bool","name":"exists","type":"bool"}],"stateMutability":"view","type":"function"},{"inputs":[],"name":"totalSessions","outputs":[{"internalType":"uint256","name":"","type":"uint256"}],"stateMutability":"view","type":"function"},{"inputs":[],"name":"totalUniquePlayers","outputs":[{"internalType":"uint256","name":"","type":"uint256"}],"stateMutability":"view","type":"function"},{"inputs":[{"internalType":"address","name":"_newOwner","type":"address"}],"name":"transferOwnership","outputs":[],"stateMutability":"nonpayable","type":"function"}],"evm":{"bytecode":{"linkReferences":{},"object":"608060405234801561001057600080fd5b50600080546001600160a01b03191633178155600181905560025561104e8061003a6000396000f3fe608060405234801561001057600080fd5b50600436106101005760003560e01c806383c4b7a311610097578063c59d484711610066578063c59d484714610275578063cab3f44b146102a2578063db2e21bc146102b5578063f2fde38b146102bf57600080fd5b806383c4b7a3146101fb5780638a609155146102215780638da5cb5b1461022a578063a61c74771461025557600080fd5b80634b18db51116100d35780634b18db51146101a1578063564ce014146101b45780635f3c49b9146101c75780636f5db0b5146101f257600080fd5b8063213ea5161461010557806326d5c4d81461012b57806331f0f1221461013e578063402ff0db1461017c575b600080fd5b610118610113366004610b7e565b6102d2565b6040519081526020015b60405180910390f35b610118610139366004610bdf565b610312565b61016c61014c366004610c65565b805160208183018101805160058252928201919093012091525460ff1681565b6040519015158152602001610122565b61018f61018a366004610ca2565b61058e565b60405161012296959493929190610d0b565b6101186101af366004610c65565b61079b565b6101186101c2366004610c65565b6107c3565b6101186101d5366004610c65565b805160208183018101805160068252928201919093012091525481565b61011860015481565b61020e610209366004610ca2565b6107eb565b6040516101229796959493929190610d5d565b61011860025481565b60005461023d906001600160a01b031681565b6040516001600160a01b039091168152602001610122565b610268610263366004610c65565b610945565b6040516101229190610dbb565b6001546002546000546040805193845260208401929092526001600160a01b031690820152606001610122565b61016c6102b0366004610c65565b6109b5565b6102bd6109e0565b005b6102bd6102cd366004610dff565b610a47565b815160208184018101805160048252928201918501919091209190528054829081106102fd57600080fd5b90600052602060002001600091509150505481565b600080546001600160a01b031633146103465760405162461bcd60e51b815260040161033d90610e21565b60405180910390fd5b6005866040516103569190610e58565b9081526040519081900360200190205460ff166103fd57600160058760405161037f9190610e58565b908152604051908190036020019020805491151560ff19909216919091179055600280549060006103af83610e74565b9190505550856040516103c29190610e58565b604051908190038120428252907f03f11f703b9e4e12a29666143017b23022d6b952c9b706099b8df37745417b8c9060200160405180910390a25b600180546040805160e0810182526001600160a01b03898116825260208083018c81524284860152606084018b9052608084018a905260a0840189905260c0840187905260008681526003909252939020825181546001600160a01b0319169216919091178155915192939092908201906104789082610f24565b5060408201516002820155606082015160038201906104979082610f24565b50608082015160048281019190915560a0830151600583015560c0909201516006909101805460ff19169115159190911790556040516104d8908990610e58565b90815260405190819003602090810182208054600181018255600091825291902001829055429060069061050d908a90610e58565b908152604051908190036020019020556001805490600061052d83610e74565b9190505550866040516105409190610e58565b6040518091039020817f034d3fff747bc720ea32de3e74da9ca2cace399e255f2b8e57d73f393012fe4688884260405161057c93929190610fe4565b60405180910390a39695505050505050565b600060606000606060008060015487106105e35760405162461bcd60e51b815260206004820152601660248201527514d95cdcda5bdb88191bd95cc81b9bdd08195e1a5cdd60521b604482015260640161033d565b6000878152600360209081526040808320815160e0810190925280546001600160a01b03168252600181018054929391929184019161062190610e9b565b80601f016020809104026020016040519081016040528092919081815260200182805461064d90610e9b565b801561069a5780601f1061066f5761010080835404028352916020019161069a565b820191906000526020600020905b81548152906001019060200180831161067d57829003601f168201915b50505050508152602001600282015481526020016003820180546106bd90610e9b565b80601f01602080910402602001604051908101604052809291908181526020018280546106e990610e9b565b80156107365780601f1061070b57610100808354040283529160200191610736565b820191906000526020600020905b81548152906001019060200180831161071957829003601f168201915b50505091835250506004820154602080830191909152600583015460408084019190915260069093015460ff1615156060928301528351908401519284015191840151608085015160a090950151919d939c50919a5090985091965090945092505050565b60006006826040516107ad9190610e58565b9081526020016040518091039020549050919050565b60006004826040516107d59190610e58565b9081526040519081900360200190205492915050565b600360205260009081526040902080546001820180546001600160a01b03909216929161081790610e9b565b80601f016020809104026020016040519081016040528092919081815260200182805461084390610e9b565b80156108905780601f1061086557610100808354040283529160200191610890565b820191906000526020600020905b81548152906001019060200180831161087357829003601f168201915b5050505050908060020154908060030180546108ab90610e9b565b80601f01602080910402602001604051908101604052809291908181526020018280546108d790610e9b565b80156109245780601f106108f957610100808354040283529160200191610924565b820191906000526020600020905b81548152906001019060200180831161090757829003601f168201915b50505050600483015460058401546006909401549293909290915060ff1687565b60606004826040516109579190610e58565b90815260408051918290036020908101832080548083028501830190935282845291908301828280156109a957602002820191906000526020600020905b815481526020019060010190808311610995575b50505050509050919050565b60006005826040516109c79190610e58565b9081526040519081900360200190205460ff1692915050565b6000546001600160a01b03163314610a0a5760405162461bcd60e51b815260040161033d90610e21565b600080546040516001600160a01b03909116914780156108fc02929091818181858888f19350505050158015610a44573d6000803e3d6000fd5b50565b6000546001600160a01b03163314610a715760405162461bcd60e51b815260040161033d90610e21565b6001600160a01b038116610ab95760405162461bcd60e51b815260206004820152600f60248201526e496e76616c6964206164647265737360881b604482015260640161033d565b600080546001600160a01b0319166001600160a01b0392909216919091179055565b634e487b7160e01b600052604160045260246000fd5b600082601f830112610b0257600080fd5b813567ffffffffffffffff80821115610b1d57610b1d610adb565b604051601f8301601f19908116603f01168101908282118183101715610b4557610b45610adb565b81604052838152866020858801011115610b5e57600080fd5b836020870160208301376000602085830101528094505050505092915050565b60008060408385031215610b9157600080fd5b823567ffffffffffffffff811115610ba857600080fd5b610bb485828601610af1565b95602094909401359450505050565b80356001600160a01b0381168114610bda57600080fd5b919050565b600080600080600060a08688031215610bf757600080fd5b853567ffffffffffffffff80821115610c0f57600080fd5b610c1b89838a01610af1565b9650610c2960208901610bc3565b95506040880135915080821115610c3f57600080fd5b50610c4c88828901610af1565b9598949750949560608101359550608001359392505050565b600060208284031215610c7757600080fd5b813567ffffffffffffffff811115610c8e57600080fd5b610c9a84828501610af1565b949350505050565b600060208284031215610cb457600080fd5b5035919050565b60005b83811015610cd6578181015183820152602001610cbe565b50506000910152565b60008151808452610cf7816020860160208601610cbb565b601f01601f19169290920160200192915050565b6001600160a01b038716815260c060208201819052600090610d2f90830188610cdf565b8660408401528281036060840152610d478187610cdf565b6080840195909552505060a00152949350505050565b6001600160a01b038816815260e060208201819052600090610d8190830189610cdf565b8760408401528281036060840152610d998188610cdf565b6080840196909652505060a0810192909252151560c090910152949350505050565b6020808252825182820181905260009190848201906040850190845b81811015610df357835183529284019291840191600101610dd7565b50909695505050505050565b600060208284031215610e1157600080fd5b610e1a82610bc3565b9392505050565b60208082526018908201527f4f6e6c79206f776e65722063616e2063616c6c20746869730000000000000000604082015260600190565b60008251610e6a818460208701610cbb565b9190910192915050565b600060018201610e9457634e487b7160e01b600052601160045260246000fd5b5060010190565b600181811c90821680610eaf57607f821691505b602082108103610ecf57634e487b7160e01b600052602260045260246000fd5b50919050565b601f821115610f1f57600081815260208120601f850160051c81016020861015610efc5750805b601f850160051c820191505b81811015610f1b57828155600101610f08565b5050505b505050565b815167ffffffffffffffff811115610f3e57610f3e610adb565b610f5281610f4c8454610e9b565b84610ed5565b602080601f831160018114610f875760008415610f6f5750858301515b600019600386901b1c1916600185901b178555610f1b565b600085815260208120601f198616915b82811015610fb657888601518255948401946001909101908401610f97565b5085821015610fd45787850151600019600388901b60f8161c191681555b5050505050600190811b01905550565b6001600160a01b038416815260606020820181905260009061100890830185610cdf565b905082604083015294935050505056fea264697066735822122064bba06cec95837e78afd6429e2c49fb8aff3307fe0777b2a40a3b65625dd1fb64736f6c63430008140033","opcodes":"PUSH1 0x80 PUSH1 0x40 MSTORE CALLVALUE DUP1 ISZERO PUSH2 0x10 JUMPI PUSH1 0x0 DUP1 REVERT JUMPDEST POP PUSH1 0x0 DUP1 SLOAD PUSH1 0x1 PUSH1 0x1 PUSH1 0xA0 SHL SUB NOT AND CALLER OR DUP2 SSTORE PUSH1 0x1 DUP2 SWAP1 SSTORE PUSH1 0x2 SSTORE PUSH2 0x104E DUP1 PUSH2 0x3A PUSH1 0x0 CODECOPY PUSH1 0x0 RETURN INVALID PUSH1 0x80 PUSH1 0x40 MSTORE CALLVALUE DUP1 ISZERO PUSH2 0x10 JUMPI PUSH1 0x0 DUP1 REVERT JUMPDEST POP PUSH1 0x4 CALLDATASIZE LT PUSH2 0x100 JUMPI PUSH1 0x0 CALLDATALOAD PUSH1 0xE0 SHR DUP1 PUSH4 0x83C4B7A3 GT PUSH2 0x97 JUMPI DUP1 PUSH4 0xC59D4847 GT PUSH2 0x66 JUMPI DUP1 PUSH4 0xC59D4847 EQ PUSH2 0x275 JUMPI DUP1 PUSH4 0xCAB3F44B EQ PUSH2 0x2A2 JUMPI DUP1 PUSH4 0xDB2E21BC EQ PUSH2 0x2B5 JUMPI DUP1 PUSH4 0xF2FDE38B EQ PUSH2 0x2BF JUMPI PUSH1 0x0 DUP1 REVERT JUMPDEST DUP1 PUSH4 0x83C4B7A3 EQ PUSH2 0x1FB JUMPI DUP1 PUSH4 0x8A609155 EQ PUSH2 0x221 JUMPI DUP1 PUSH4 0x8DA5CB5B EQ PUSH2 0x22A JUMPI DUP1 PUSH4 0xA61C7477 EQ PUSH2 0x255 JUMPI PUSH1 0x0 DUP1 REVERT JUMPDEST DUP1 PUSH4 0x4B18DB51 GT PUSH2 0xD3 JUMPI DUP1 PUSH4 0x4B18DB51 EQ PUSH2 0x1A1 JUMPI DUP1 PUSH4 0x564CE014 EQ PUSH2 0x1B4 JUMPI DUP1 PUSH4 0x5F3C49B9 EQ PUSH2 0x1C7 JUMPI DUP1 PUSH4 0x6F5DB0B5 EQ PUSH2 0x1F2 JUMPI PUSH1 0x0 DUP1 REVERT JUMPDEST DUP1 PUSH4 0x213EA516 EQ PUSH2 0x105 JUMPI DUP1 PUSH4 0x26D5C4D8 EQ PUSH2 0x12B JUMPI DUP1 PUSH4 0x31F0F122 EQ PUSH2 0x13E JUMPI DUP1 PUSH4 0x402FF0DB EQ PUSH2 0x17C JUMPI JUMPDEST PUSH1 0x0 DUP1 REVERT JUMPDEST PUSH2 0x118 PUSH2 0x113 CALLDATASIZE PUSH1 0x4 PUSH2 0xB7E JUMP JUMPDEST PUSH2 0x2D2 JUMP JUMPDEST PUSH1 0x40 MLOAD SWAP1 DUP2 MSTORE PUSH1 0x20 ADD JUMPDEST PUSH1 0x40 MLOAD DUP1 SWAP2 SUB SWAP1 RETURN JUMPDEST PUSH2 0x118 PUSH2 0x139 CALLDATASIZE PUSH1 0x4 PUSH2 0xBDF JUMP JUMPDEST PUSH2 0x312 JUMP JUMPDEST PUSH2 0x16C PUSH2 0x14C CALLDATASIZE PUSH1 0x4 PUSH2 0xC65 JUMP JUMPDEST DUP1 MLOAD PUSH1 0x20 DUP2 DUP4 ADD DUP2 ADD DUP1 MLOAD PUSH1 0x5 DUP3 MSTORE SWAP3 DUP3 ADD SWAP2 SWAP1 SWAP4 ADD KECCAK256 SWAP2 MSTORE SLOAD PUSH1 0xFF AND DUP2 JUMP JUMPDEST PUSH1 0x40 MLOAD SWAP1 ISZERO ISZERO DUP2 MSTORE PUSH1 0x20 ADD PUSH2 0x122 JUMP JUMPDEST PUSH2 0x18F PUSH2 0x18A CALLDATASIZE PUSH1 0x4 PUSH2 0xCA2 JUMP JUMPDEST PUSH2 0x58E JUMP JUMPDEST PUSH1 0x40 MLOAD PUSH2 0x122 SWAP7 SWAP6 SWAP5 SWAP4 SWAP3 SWAP2 SWAP1 PUSH2 0xD0B JUMP JUMPDEST PUSH2 0x118 PUSH2 0x1AF CALLDATASIZE PUSH1 0x4 PUSH2 0xC65 JUMP JUMPDEST PUSH2 0x79B JUMP JUMPDEST PUSH2 0x118 PUSH2 0x1C2 CALLDATASIZE PUSH1 0x4 PUSH2 0xC65 JUMP JUMPDEST PUSH2 0x7C3 JUMP JUMPDEST PUSH2 0x118 PUSH2 0x1D5 CALLDATASIZE PUSH1 0x4 PUSH2 0xC65 JUMP JUMPDEST DUP1 MLOAD PUSH1 0x20 DUP2 DUP4 ADD DUP2 ADD DUP1 MLOAD PUSH1 0x6 DUP3 MSTORE SWAP3 DUP3 ADD SWAP2 SWAP1 SWAP4 ADD KECCAK256 SWAP2 MSTORE SLOAD DUP2 JUMP JUMPDEST PUSH2 0x118 PUSH1 0x1 SLOAD DUP2 JUMP JUMPDEST PUSH2 0x20E PUSH2 0x209 CALLDATASIZE PUSH1 0x4 PUSH2 0xCA2 JUMP JUMPDEST PUSH2 0x7EB JUMP JUMPDEST PUSH1 0x40 MLOAD PUSH2 0x122 SWAP8 SWAP7 SWAP6 SWAP5 SWAP4 SWAP3 SWAP2 SWAP1 PUSH2 0xD5D JUMP JUMPDEST PUSH2 0x118 PUSH1 0x2 SLOAD DUP2 JUMP JUMPDEST PUSH1 0x0 SLOAD PUSH2 0x23D SWAP1 PUSH1 0x1 PUSH1 0x1 PUSH1 0xA0 SHL SUB AND DUP2 JUMP JUMPDEST PUSH1 0x40 MLOAD PUSH1 0x1 PUSH1 0x1 PUSH1 0xA0 SHL SUB SWAP1 SWAP2 AND DUP2 MSTORE PUSH1 0x20 ADD PUSH2 0x122 JUMP JUMPDEST PUSH2 0x268 PUSH2 0x263 CALLDATASIZE PUSH1 0x4 PUSH2 0xC65 JUMP JUMPDEST PUSH2 0x945 JUMP JUMPDEST PUSH1 0x40 MLOAD PUSH2 0x122 SWAP2 SWAP1 PUSH2 0xDBB JUMP JUMPDEST PUSH1 0x1 SLOAD PUSH1 0x2 SLOAD PUSH1 0x0 SLOAD PUSH1 0x40 DUP1 MLOAD SWAP4 DUP5 MSTORE PUSH1 0x20 DUP5 ADD SWAP3 SWAP1 SWAP3 MSTORE PUSH1 0x1 PUSH1 0x1 PUSH1 0xA0 SHL SUB AND SWAP1 DUP3 ADD MSTORE PUSH1 0x60 ADD PUSH2 0x122 JUMP JUMPDEST PUSH2 0x16C PUSH2 0x2B0 CALLDATASIZE PUSH1 0x4 PUSH2 0xC65 JUMP JUMPDEST PUSH2 0x9B5 JUMP JUMPDEST PUSH2 0x2BD PUSH2 0x9E0 JUMP JUMPDEST STOP JUMPDEST PUSH2 0x2BD PUSH2 0x2CD CALLDATASIZE PUSH1 0x4 PUSH2 0xDFF JUMP JUMPDEST PUSH2 0xA47 JUMP JUMPDEST DUP2 MLOAD PUSH1 0x20 DUP2 DUP5 ADD DUP2 ADD DUP1 MLOAD PUSH1 0x4 DUP3 MSTORE SWAP3 DUP3 ADD SWAP2 DUP6 ADD SWAP2 SWAP1 SWAP2 KECCAK256 SWAP2 SWAP1 MSTORE DUP1 SLOAD DUP3 SWAP1 DUP2 LT PUSH2 0x2FD JUMPI PUSH1 0x0 DUP1 REVERT JUMPDEST SWAP1 PUSH1 0x0 MSTORE PUSH1 0x20 PUSH1 0x0 KECCAK256 ADD PUSH1 0x0 SWAP2 POP SWAP2 POP POP SLOAD DUP2 JUMP JUMPDEST PUSH1 0x0 DUP1 SLOAD PUSH1 0x1 PUSH1 0x1 PUSH1 0xA0 SHL SUB AND CALLER EQ PUSH2 0x346 JUMPI PUSH1 0x40 MLOAD PUSH3 0x461BCD PUSH1 0xE5 SHL DUP2 MSTORE PUSH1 0x4 ADD PUSH2 0x33D SWAP1 PUSH2 0xE21 JUMP JUMPDEST PUSH1 0x40 MLOAD DUP1 SWAP2 SUB SWAP1 REVERT JUMPDEST PUSH1 0x5 DUP7 PUSH1 0x40 MLOAD PUSH2 0x356 SWAP2 SWAP1 PUSH2 0xE58 JUMP JUMPDEST SWAP1 DUP2 MSTORE PUSH1 0x40 MLOAD SWAP1 DUP2 SWAP1 SUB PUSH1 0x20 ADD SWAP1 KECCAK256 SLOAD PUSH1 0xFF AND PUSH2 0x3FD JUMPI PUSH1 0x1 PUSH1 0x5 DUP8 PUSH1 0x40 MLOAD PUSH2 0x37F SWAP2 SWAP1 PUSH2 0xE58 JUMP JUMPDEST SWAP1 DUP2 MSTORE PUSH1 0x40 MLOAD SWAP1 DUP2 SWAP1 SUB PUSH1 0x20 ADD SWAP1 KECCAK256 DUP1 SLOAD SWAP2 ISZERO ISZERO PUSH1 0xFF NOT SWAP1 SWAP3 AND SWAP2 SWAP1 SWAP2 OR SWAP1 SSTORE PUSH1 0x2 DUP1 SLOAD SWAP1 PUSH1 0x0 PUSH2 0x3AF DUP4 PUSH2 0xE74 JUMP JUMPDEST SWAP2 SWAP1 POP SSTORE POP DUP6 PUSH1 0x40 MLOAD PUSH2 0x3C2 SWAP2 SWAP1 PUSH2 0xE58 JUMP JUMPDEST PUSH1 0x40 MLOAD SWAP1 DUP2 SWAP1 SUB DUP2 KECCAK256 TIMESTAMP DUP3 MSTORE SWAP1 PUSH32 0x3F11F703B9E4E12A29666143017B23022D6B952C9B706099B8DF37745417B8C SWAP1 PUSH1 0x20 ADD PUSH1 0x40 MLOAD DUP1 SWAP2 SUB SWAP1 LOG2 JUMPDEST PUSH1 0x1 DUP1 SLOAD PUSH1 0x40 DUP1 MLOAD PUSH1 0xE0 DUP2 ADD DUP3 MSTORE PUSH1 0x1 PUSH1 0x1 PUSH1 0xA0 SHL SUB DUP10 DUP2 AND DUP3 MSTORE PUSH1 0x20 DUP1 DUP4 ADD DUP13 DUP2 MSTORE TIMESTAMP DUP5 DUP7 ADD MSTORE PUSH1 0x60 DUP5 ADD DUP12 SWAP1 MSTORE PUSH1 0x80 DUP5 ADD DUP11 SWAP1 MSTORE PUSH1 0xA0 DUP5 ADD DUP10 SWAP1 MSTORE PUSH1 0xC0 DUP5 ADD DUP8 SWAP1 MSTORE PUSH1 0x0 DUP7 DUP2 MSTORE PUSH1 0x3 SWAP1 SWAP3 MSTORE SWAP4 SWAP1 KECCAK256 DUP3 MLOAD DUP2 SLOAD PUSH1 0x1 PUSH1 0x1 PUSH1 0xA0 SHL SUB NOT AND SWAP3 AND SWAP2 SWAP1 SWAP2 OR DUP2 SSTORE SWAP2 MLOAD SWAP3 SWAP4 SWAP1 SWAP3 SWAP1 DUP3 ADD SWAP1 PUSH2 0x478 SWAP1 DUP3 PUSH2 0xF24 JUMP JUMPDEST POP PUSH1 0x40 DUP3 ADD MLOAD PUSH1 0x2 DUP3 ADD SSTORE PUSH1 0x60 DUP3 ADD MLOAD PUSH1 0x3 DUP3 ADD SWAP1 PUSH2 0x497 SWAP1 DUP3 PUSH2 0xF24 JUMP JUMPDEST POP PUSH1 0x80 DUP3 ADD MLOAD PUSH1 0x4 DUP3 DUP2 ADD SWAP2 SWAP1 SWAP2 SSTORE PUSH1 0xA0 DUP4 ADD MLOAD PUSH1 0x5 DUP4 ADD SSTORE PUSH1 0xC0 SWAP1 SWAP3 ADD MLOAD PUSH1 0x6 SWAP1 SWAP2 ADD DUP1 SLOAD PUSH1 0xFF NOT AND SWAP2 ISZERO ISZERO SWAP2 SWAP1 SWAP2 OR SWAP1 SSTORE PUSH1 0x40 MLOAD PUSH2 0x4D8 SWAP1 DUP10 SWAP1 PUSH2 0xE58 JUMP JUMPDEST SWAP1 DUP2 MSTORE PUSH1 0x40 MLOAD SWAP1 DUP2 SWAP1 SUB PUSH1 0x20 SWAP1 DUP2 ADD DUP3 KECCAK256 DUP1 SLOAD PUSH1 0x1 DUP2 ADD DUP3 SSTORE PUSH1 0x0 SWAP2 DUP3 MSTORE SWAP2 SWAP1 KECCAK256 ADD DUP3 SWAP1 SSTORE TIMESTAMP SWAP1 PUSH1 0x6 SWAP1 PUSH2 0x50D SWAP1 DUP11 SWAP1 PUSH2 0xE58 JUMP JUMPDEST SWAP1 DUP2 MSTORE PUSH1 0x40 MLOAD SWAP1 DUP2 SWAP1 SUB PUSH1 0x20 ADD SWAP1 KECCAK256 SSTORE PUSH1 0x1 DUP1 SLOAD SWAP1 PUSH1 0x0 PUSH2 0x52D DUP4 PUSH2 0xE74 JUMP JUMPDEST SWAP2 SWAP1 POP SSTORE POP DUP7 PUSH1 0x40 MLOAD PUSH2 0x540 SWAP2 SWAP1 PUSH2 0xE58 JUMP JUMPDEST PUSH1 0x40 MLOAD DUP1 SWAP2 SUB SWAP1 KECCAK256 DUP2 PUSH32 0x34D3FFF747BC720EA32DE3E74DA9CA2CACE399E255F2B8E57D73F393012FE46 DUP9 DUP9 TIMESTAMP PUSH1 0x40 MLOAD PUSH2 0x57C SWAP4 SWAP3 SWAP2 SWAP1 PUSH2 0xFE4 JUMP JUMPDEST PUSH1 0x40 MLOAD DUP1 SWAP2 SUB SWAP1 LOG3 SWAP7 SWAP6 POP POP POP POP POP POP JUMP JUMPDEST PUSH1 0x0 PUSH1 0x60 PUSH1 0x0 PUSH1 0x60 PUSH1 0x0 DUP1 PUSH1 0x1 SLOAD DUP8 LT PUSH2 0x5E3 JUMPI PUSH1 0x40 MLOAD PUSH3 0x461BCD PUSH1 0xE5 SHL DUP2 MSTORE PUSH1 0x20 PUSH1 0x4 DUP3 ADD MSTORE PUSH1 0x16 PUSH1 0x24 DUP3 ADD MSTORE PUSH22 0x14D95CDCDA5BDB88191BD95CC81B9BDD08195E1A5CDD PUSH1 0x52 SHL PUSH1 0x44 DUP3 ADD MSTORE PUSH1 0x64 ADD PUSH2 0x33D JUMP JUMPDEST PUSH1 0x0 DUP8 DUP2 MSTORE PUSH1 0x3 PUSH1 0x20 SWAP1 DUP2 MSTORE PUSH1 0x40 DUP1 DUP4 KECCAK256 DUP2 MLOAD PUSH1 0xE0 DUP2 ADD SWAP1 SWAP3 MSTORE DUP1 SLOAD PUSH1 0x1 PUSH1 0x1 PUSH1 0xA0 SHL SUB AND DUP3 MSTORE PUSH1 0x1 DUP2 ADD DUP1 SLOAD SWAP3 SWAP4 SWAP2 SWAP3 SWAP2 DUP5 ADD SWAP2 PUSH2 0x621 SWAP1 PUSH2 0xE9B JUMP JUMPDEST DUP1 PUSH1 0x1F ADD PUSH1 0x20 DUP1 SWAP2 DIV MUL PUSH1 0x20 ADD PUSH1 0x40 MLOAD SWAP1 DUP2 ADD PUSH1 0x40 MSTORE DUP1 SWAP3 SWAP2 SWAP1 DUP2 DUP2 MSTORE PUSH1 0x20 ADD DUP3 DUP1 SLOAD PUSH2 0x64D SWAP1 PUSH2 0xE9B JUMP JUMPDEST DUP1 ISZERO PUSH2 0x69A JUMPI DUP1 PUSH1 0x1F LT PUSH2 0x66F JUMPI PUSH2 0x100 DUP1 DUP4 SLOAD DIV MUL DUP4 MSTORE SWAP2 PUSH1 0x20 ADD SWAP2 PUSH2 0x69A JUMP JUMPDEST DUP3 ADD SWAP2 SWAP1 PUSH1 0x0 MSTORE PUSH1 0x20 PUSH1 0x0 KECCAK256 SWAP1 JUMPDEST DUP2 SLOAD DUP2 MSTORE SWAP1 PUSH1 0x1 ADD SWAP1 PUSH1 0x20 ADD DUP1 DUP4 GT PUSH2 0x67D JUMPI DUP3 SWAP1 SUB PUSH1 0x1F AND DUP3 ADD SWAP2 JUMPDEST POP POP POP POP POP DUP2 MSTORE PUSH1 0x20 ADD PUSH1 0x2 DUP3 ADD SLOAD DUP2 MSTORE PUSH1 0x20 ADD PUSH1 0x3 DUP3 ADD DUP1 SLOAD PUSH2 0x6BD SWAP1 PUSH2 0xE9B JUMP JUMPDEST DUP1 PUSH1 0x1F ADD PUSH1 0x20 DUP1 SWAP2 DIV MUL PUSH1 0x20 ADD PUSH1 0x40 MLOAD SWAP1 DUP2 ADD PUSH1 0x40 MSTORE DUP1 SWAP3 SWAP2 SWAP1 DUP2 DUP2 MSTORE PUSH1 0x20 ADD DUP3 DUP1 SLOAD PUSH2 0x6E9 SWAP1 PUSH2 0xE9B JUMP JUMPDEST DUP1 ISZERO PUSH2 0x736 JUMPI DUP1 PUSH1 0x1F LT PUSH2 0x70B JUMPI PUSH2 0x100 DUP1 DUP4 SLOAD DIV MUL DUP4 MSTORE SWAP2 PUSH1 0x20 ADD SWAP2 PUSH2 0x736 JUMP JUMPDEST DUP3 ADD SWAP2 SWAP1 PUSH1 0x0 MSTORE PUSH1 0x20 PUSH1 0x0 KECCAK256 SWAP1 JUMPDEST DUP2 SLOAD DUP2 MSTORE SWAP1 PUSH1 0x1 ADD SWAP1 PUSH1 0x20 ADD DUP1 DUP4 GT PUSH2 0x719 JUMPI DUP3 SWAP1 SUB PUSH1 0x1F AND DUP3 ADD SWAP2 JUMPDEST POP POP POP SWAP2 DUP4 MSTORE POP POP PUSH1 0x4 DUP3 ADD SLOAD PUSH1 0x20 DUP1 DUP4 ADD SWAP2 SWAP1 SWAP2 MSTORE PUSH1 0x5 DUP4 ADD SLOAD PUSH1 0x40 DUP1 DUP5 ADD SWAP2 SWAP1 SWAP2 MSTORE PUSH1 0x6 SWAP1 SWAP4 ADD SLOAD PUSH1 0xFF AND ISZERO ISZERO PUSH1 0x60 SWAP3 DUP4 ADD MSTORE DUP4 MLOAD SWAP1 DUP5 ADD MLOAD SWAP3 DUP5 ADD MLOAD SWAP2 DUP5 ADD MLOAD PUSH1 0x80 DUP6 ADD MLOAD PUSH1 0xA0 SWAP1 SWAP6 ADD MLOAD SWAP2 SWAP14 SWAP4 SWAP13 POP SWAP2 SWAP11 POP SWAP1 SWAP9 POP SWAP2 SWAP7 POP SWAP1 SWAP5 POP SWAP3 POP POP POP JUMP JUMPDEST PUSH1 0x0 PUSH1 0x6 DUP3 PUSH1 0x40 MLOAD PUSH2 0x7AD SWAP2 SWAP1 PUSH2 0xE58 JUMP JUMPDEST SWAP1 DUP2 MSTORE PUSH1 0x20 ADD PUSH1 0x40 MLOAD DUP1 SWAP2 SUB SWAP1 KECCAK256 SLOAD SWAP1 POP SWAP2 SWAP1 POP JUMP JUMPDEST PUSH1 0x0 PUSH1 0x4 DUP3 PUSH1 0x40 MLOAD PUSH2 0x7D5 SWAP2 SWAP1 PUSH2 0xE58 JUMP JUMPDEST SWAP1 DUP2 MSTORE PUSH1 0x40 MLOAD SWAP1 DUP2 SWAP1 SUB PUSH1 0x20 ADD SWAP1 KECCAK256 SLOAD SWAP3 SWAP2 POP POP JUMP JUMPDEST PUSH1 0x3 PUSH1 0x20 MSTORE PUSH1 0x0 SWAP1 DUP2 MSTORE PUSH1 0x40 SWAP1 KECCAK256 DUP1 SLOAD PUSH1 0x1 DUP3 ADD DUP1 SLOAD PUSH1 0x1 PUSH1 0x1 PUSH1 0xA0 SHL SUB SWAP1 SWAP3 AND SWAP3 SWAP2 PUSH2 0x817 SWAP1 PUSH2 0xE9B JUMP JUMPDEST DUP1 PUSH1 0x1F ADD PUSH1 0x20 DUP1 SWAP2 DIV MUL PUSH1 0x20 ADD PUSH1 0x40 MLOAD SWAP1 DUP2 ADD PUSH1 0x40 MSTORE DUP1 SWAP3 SWAP2 SWAP1 DUP2 DUP2 MSTORE PUSH1 0x20 ADD DUP3 DUP1 SLOAD PUSH2 0x843 SWAP1 PUSH2 0xE9B JUMP JUMPDEST DUP1 ISZERO PUSH2 0x890 JUMPI DUP1 PUSH1 0x1F LT PUSH2 0x865 JUMPI PUSH2 0x100 DUP1 DUP4 SLOAD DIV MUL DUP4 MSTORE SWAP2 PUSH1 0x20 ADD SWAP2 PUSH2 0x890 JUMP JUMPDEST DUP3 ADD SWAP2 SWAP1 PUSH1 0x0 MSTORE PUSH1 0x20 PUSH1 0x0 KECCAK256 SWAP1 JUMPDEST DUP2 SLOAD DUP2 MSTORE SWAP1 PUSH1 0x1 ADD SWAP1 PUSH1 0x20 ADD DUP1 DUP4 GT PUSH2 0x873 JUMPI DUP3 SWAP1 SUB PUSH1 0x1F AND DUP3 ADD SWAP2 JUMPDEST POP POP POP POP POP SWAP1 DUP1 PUSH1 0x2 ADD SLOAD SWAP1 DUP1 PUSH1 0x3 ADD DUP1 SLOAD PUSH2 0x8AB SWAP1 PUSH2 0xE9B JUMP JUMPDEST DUP1 PUSH1 0x1F ADD PUSH1 0x20 DUP1 SWAP2 DIV MUL PUSH1 0x20 ADD PUSH1 0x40 MLOAD SWAP1 DUP2 ADD PUSH1 0x40 MSTORE DUP1 SWAP3 SWAP2 SWAP1 DUP2 DUP2 MSTORE PUSH1 0x20 ADD DUP3 DUP1 SLOAD PUSH2 0x8D7 SWAP1 PUSH2 0xE9B JUMP JUMPDEST DUP1 ISZERO PUSH2 0x924 JUMPI DUP1 PUSH1 0x1F LT PUSH2 0x8F9 JUMPI PUSH2 0x100 DUP1 DUP4 SLOAD DIV MUL DUP4 MSTORE SWAP2 PUSH1 0x20 ADD SWAP2 PUSH2 0x924 JUMP JUMPDEST DUP3 ADD SWAP2 SWAP1 PUSH1 0x0 MSTORE PUSH1 0x20 PUSH1 0x0 KECCAK256 SWAP1 JUMPDEST DUP2 SLOAD DUP2 MSTORE SWAP1 PUSH1 0x1 ADD SWAP1 PUSH1 0x20 ADD DUP1 DUP4 GT PUSH2 0x907 JUMPI DUP3 SWAP1 SUB PUSH1 0x1F AND DUP3 ADD SWAP2 JUMPDEST POP POP POP POP PUSH1 0x4 DUP4 ADD SLOAD PUSH1 0x5 DUP5 ADD SLOAD PUSH1 0x6 SWAP1 SWAP5 ADD SLOAD SWAP3 SWAP4 SWAP1 SWAP3 SWAP1 SWAP2 POP PUSH1 0xFF AND DUP8 JUMP JUMPDEST PUSH1 0x60 PUSH1 0x4 DUP3 PUSH1 0x40 MLOAD PUSH2 0x957 SWAP2 SWAP1 PUSH2 0xE58 JUMP JUMPDEST SWAP1 DUP2 MSTORE PUSH1 0x40 DUP1 MLOAD SWAP2 DUP3 SWAP1 SUB PUSH1 0x20 SWAP1 DUP2 ADD DUP4 KECCAK256 DUP1 SLOAD DUP1 DUP4 MUL DUP6 ADD DUP4 ADD SWAP1 SWAP4 MSTORE DUP3 DUP5 MSTORE SWAP2 SWAP1 DUP4 ADD DUP3 DUP3 DUP1 ISZERO PUSH2 0x9A9 JUMPI PUSH1 0x20 MUL DUP3 ADD SWAP2 SWAP1 PUSH1 0x0 MSTORE PUSH1 0x20 PUSH1 0x0 KECCAK256 SWAP1 JUMPDEST DUP2 SLOAD DUP2 MSTORE PUSH1 0x20 ADD SWAP1 PUSH1 0x1 ADD SWAP1 DUP1 DUP4 GT PUSH2 0x995 JUMPI JUMPDEST POP POP POP POP POP SWAP1 POP SWAP2 SWAP1 POP JUMP JUMPDEST PUSH1 0x0 PUSH1 0x5 DUP3 PUSH1 0x40 MLOAD PUSH2 0x9C7 SWAP2 SWAP1 PUSH2 0xE58 JUMP JUMPDEST SWAP1 DUP2 MSTORE PUSH1 0x40 MLOAD SWAP1 DUP2 SWAP1 SUB PUSH1 0x20 ADD SWAP1 KECCAK256 SLOAD PUSH1 0xFF AND SWAP3 SWAP2 POP POP JUMP JUMPDEST PUSH1 0x0 SLOAD PUSH1 0x1 PUSH1 0x1 PUSH1 0xA0 SHL SUB AND CALLER EQ PUSH2 0xA0A JUMPI PUSH1 0x40 MLOAD PUSH3 0x461BCD PUSH1 0xE5 SHL DUP2 MSTORE PUSH1 0x4 ADD PUSH2 0x33D SWAP1 PUSH2 0xE21 JUMP JUMPDEST PUSH1 0x0 DUP1 SLOAD PUSH1 0x40 MLOAD PUSH1 0x1 PUSH1 0x1 PUSH1 0xA0 SHL SUB SWAP1 SWAP2 AND SWAP2 SELFBALANCE DUP1 ISZERO PUSH2 0x8FC MUL SWAP3 SWAP1 SWAP2 DUP2 DUP2 DUP2 DUP6 DUP9 DUP9 CALL SWAP4 POP POP POP POP ISZERO DUP1 ISZERO PUSH2 0xA44 JUMPI RETURNDATASIZE PUSH1 0x0 DUP1 RETURNDATACOPY RETURNDATASIZE PUSH1 0x0 REVERT JUMPDEST POP JUMP JUMPDEST PUSH1 0x0 SLOAD PUSH1 0x1 PUSH1 0x1 PUSH1 0xA0 SHL SUB AND CALLER EQ PUSH2 0xA71 JUMPI PUSH1 0x40 MLOAD PUSH3 0x461BCD PUSH1 0xE5 SHL DUP2 MSTORE PUSH1 0x4 ADD PUSH2 0x33D SWAP1 PUSH2 0xE21 JUMP JUMPDEST PUSH1 0x1 PUSH1 0x1 PUSH1 0xA0 SHL SUB DUP2 AND PUSH2 0xAB9 JUMPI PUSH1 0x40 MLOAD PUSH3 0x461BCD PUSH1 0xE5 SHL DUP2 MSTORE PUSH1 0x20 PUSH1 0x4 DUP3 ADD MSTORE PUSH1 0xF PUSH1 0x24 DUP3 ADD MSTORE PUSH15 0x496E76616C69642061646472657373 PUSH1 0x88 SHL PUSH1 0x44 DUP3 ADD MSTORE PUSH1 0x64 ADD PUSH2 0x33D JUMP JUMPDEST PUSH1 0x0 DUP1 SLOAD PUSH1 0x1 PUSH1 0x1 PUSH1 0xA0 SHL SUB NOT AND PUSH1 0x1 PUSH1 0x1 PUSH1 0xA0 SHL SUB SWAP3 SWAP1 SWAP3 AND SWAP2 SWAP1 SWAP2 OR SWAP1 SSTORE JUMP JUMPDEST PUSH4 0x4E487B71 PUSH1 0xE0 SHL PUSH1 0x0 MSTORE PUSH1 0x41 PUSH1 0x4 MSTORE PUSH1 0x24 PUSH1 0x0 REVERT JUMPDEST PUSH1 0x0 DUP3 PUSH1 0x1F DUP4 ADD SLT PUSH2 0xB02 JUMPI PUSH1 0x0 DUP1 REVERT JUMPDEST DUP2 CALLDATALOAD PUSH8 0xFFFFFFFFFFFFFFFF DUP1 DUP3 GT ISZERO PUSH2 0xB1D JUMPI PUSH2 0xB1D PUSH2 0xADB JUMP JUMPDEST PUSH1 0x40 MLOAD PUSH1 0x1F DUP4 ADD PUSH1 0x1F NOT SWAP1 DUP2 AND PUSH1 0x3F ADD AND DUP2 ADD SWAP1 DUP3 DUP3 GT DUP2 DUP4 LT OR ISZERO PUSH2 0xB45 JUMPI PUSH2 0xB45 PUSH2 0xADB JUMP JUMPDEST DUP2 PUSH1 0x40 MSTORE DUP4 DUP2 MSTORE DUP7 PUSH1 0x20 DUP6 DUP9 ADD ADD GT ISZERO PUSH2 0xB5E JUMPI PUSH1 0x0 DUP1 REVERT JUMPDEST DUP4 PUSH1 0x20 DUP8 ADD PUSH1 0x20 DUP4 ADD CALLDATACOPY PUSH1 0x0 PUSH1 0x20 DUP6 DUP4 ADD ADD MSTORE DUP1 SWAP5 POP POP POP POP POP SWAP3 SWAP2 POP POP JUMP JUMPDEST PUSH1 0x0 DUP1 PUSH1 0x40 DUP4 DUP6 SUB SLT ISZERO PUSH2 0xB91 JUMPI PUSH1 0x0 DUP1 REVERT JUMPDEST DUP3 CALLDATALOAD PUSH8 0xFFFFFFFFFFFFFFFF DUP2 GT ISZERO PUSH2 0xBA8 JUMPI PUSH1 0x0 DUP1 REVERT JUMPDEST PUSH2 0xBB4 DUP6 DUP3 DUP7 ADD PUSH2 0xAF1 JUMP JUMPDEST SWAP6 PUSH1 0x20 SWAP5 SWAP1 SWAP5 ADD CALLDATALOAD SWAP5 POP POP POP POP JUMP JUMPDEST DUP1 CALLDATALOAD PUSH1 0x1 PUSH1 0x1 PUSH1 0xA0 SHL SUB DUP2 AND DUP2 EQ PUSH2 0xBDA JUMPI PUSH1 0x0 DUP1 REVERT JUMPDEST SWAP2 SWAP1 POP JUMP JUMPDEST PUSH1 0x0 DUP1 PUSH1 0x0 DUP1 PUSH1 0x0 PUSH1 0xA0 DUP7 DUP9 SUB SLT ISZERO PUSH2 0xBF7 JUMPI PUSH1 0x0 DUP1 REVERT JUMPDEST DUP6 CALLDATALOAD PUSH8 0xFFFFFFFFFFFFFFFF DUP1 DUP3 GT ISZERO PUSH2 0xC0F JUMPI PUSH1 0x0 DUP1 REVERT JUMPDEST PUSH2 0xC1B DUP10 DUP4 DUP11 ADD PUSH2 0xAF1 JUMP JUMPDEST SWAP7 POP PUSH2 0xC29 PUSH1 0x20 DUP10 ADD PUSH2 0xBC3 JUMP JUMPDEST SWAP6 POP PUSH1 0x40 DUP9 ADD CALLDATALOAD SWAP2 POP DUP1 DUP3 GT ISZERO PUSH2 0xC3F JUMPI PUSH1 0x0 DUP1 REVERT JUMPDEST POP PUSH2 0xC4C DUP9 DUP3 DUP10 ADD PUSH2 0xAF1 JUMP JUMPDEST SWAP6 SWAP9 SWAP5 SWAP8 POP SWAP5 SWAP6 PUSH1 0x60 DUP2 ADD CALLDATALOAD SWAP6 POP PUSH1 0x80 ADD CALLDATALOAD SWAP4 SWAP3 POP POP POP JUMP JUMPDEST PUSH1 0x0 PUSH1 0x20 DUP3 DUP5 SUB SLT ISZERO PUSH2 0xC77 JUMPI PUSH1 0x0 DUP1 REVERT JUMPDEST DUP2 CALLDATALOAD PUSH8 0xFFFFFFFFFFFFFFFF DUP2 GT ISZERO PUSH2 0xC8E JUMPI PUSH1 0x0 DUP1 REVERT JUMPDEST PUSH2 0xC9A DUP5 DUP3 DUP6 ADD PUSH2 0xAF1 JUMP JUMPDEST SWAP5 SWAP4 POP POP POP POP JUMP JUMPDEST PUSH1 0x0 PUSH1 0x20 DUP3 DUP5 SUB SLT ISZERO PUSH2 0xCB4 JUMPI PUSH1 0x0 DUP1 REVERT JUMPDEST POP CALLDATALOAD SWAP2 SWAP1 POP JUMP JUMPDEST PUSH1 0x0 JUMPDEST DUP4 DUP2 LT ISZERO PUSH2 0xCD6 JUMPI DUP2 DUP2 ADD MLOAD DUP4 DUP3 ADD MSTORE PUSH1 0x20 ADD PUSH2 0xCBE JUMP JUMPDEST POP POP PUSH1 0x0 SWAP2 ADD MSTORE JUMP JUMPDEST PUSH1 0x0 DUP2 MLOAD DUP1 DUP5 MSTORE PUSH2 0xCF7 DUP2 PUSH1 0x20 DUP7 ADD PUSH1 0x20 DUP7 ADD PUSH2 0xCBB JUMP JUMPDEST PUSH1 0x1F ADD PUSH1 0x1F NOT AND SWAP3 SWAP1 SWAP3 ADD PUSH1 0x20 ADD SWAP3 SWAP2 POP POP JUMP JUMPDEST PUSH1 0x1 PUSH1 0x1 PUSH1 0xA0 SHL SUB DUP8 AND DUP2 MSTORE PUSH1 0xC0 PUSH1 0x20 DUP3 ADD DUP2 SWAP1 MSTORE PUSH1 0x0 SWAP1 PUSH2 0xD2F SWAP1 DUP4 ADD DUP9 PUSH2 0xCDF JUMP JUMPDEST DUP7 PUSH1 0x40 DUP5 ADD MSTORE DUP3 DUP2 SUB PUSH1 0x60 DUP5 ADD MSTORE PUSH2 0xD47 DUP2 DUP8 PUSH2 0xCDF JUMP JUMPDEST PUSH1 0x80 DUP5 ADD SWAP6 SWAP1 SWAP6 MSTORE POP POP PUSH1 0xA0 ADD MSTORE SWAP5 SWAP4 POP POP POP POP JUMP JUMPDEST PUSH1 0x1 PUSH1 0x1 PUSH1 0xA0 SHL SUB DUP9 AND DUP2 MSTORE PUSH1 0xE0 PUSH1 0x20 DUP3 ADD DUP2 SWAP1 MSTORE PUSH1 0x0 SWAP1 PUSH2 0xD81 SWAP1 DUP4 ADD DUP10 PUSH2 0xCDF JUMP JUMPDEST DUP8 PUSH1 0x40 DUP5 ADD MSTORE DUP3 DUP2 SUB PUSH1 0x60 DUP5 ADD MSTORE PUSH2 0xD99 DUP2 DUP9 PUSH2 0xCDF JUMP JUMPDEST PUSH1 0x80 DUP5 ADD SWAP7 SWAP1 SWAP7 MSTORE POP POP PUSH1 0xA0 DUP2 ADD SWAP3 SWAP1 SWAP3 MSTORE ISZERO ISZERO PUSH1 0xC0 SWAP1 SWAP2 ADD MSTORE SWAP5 SWAP4 POP POP POP POP JUMP JUMPDEST PUSH1 0x20 DUP1 DUP3 MSTORE DUP3 MLOAD DUP3 DUP3 ADD DUP2 SWAP1 MSTORE PUSH1 0x0 SWAP2 SWAP1 DUP5 DUP3 ADD SWAP1 PUSH1 0x40 DUP6 ADD SWAP1 DUP5 JUMPDEST DUP2 DUP2 LT ISZERO PUSH2 0xDF3 JUMPI DUP4 MLOAD DUP4 MSTORE SWAP3 DUP5 ADD SWAP3 SWAP2 DUP5 ADD SWAP2 PUSH1 0x1 ADD PUSH2 0xDD7 JUMP JUMPDEST POP SWAP1 SWAP7 SWAP6 POP POP POP POP POP POP JUMP JUMPDEST PUSH1 0x0 PUSH1 0x20 DUP3 DUP5 SUB SLT ISZERO PUSH2 0xE11 JUMPI PUSH1 0x0 DUP1 REVERT JUMPDEST PUSH2 0xE1A DUP3 PUSH2 0xBC3 JUMP JUMPDEST SWAP4 SWAP3 POP POP POP JUMP JUMPDEST PUSH1 0x20 DUP1 DUP3 MSTORE PUSH1 0x18 SWAP1 DUP3 ADD MSTORE PUSH32 0x4F6E6C79206F776E65722063616E2063616C6C20746869730000000000000000 PUSH1 0x40 DUP3 ADD MSTORE PUSH1 0x60 ADD SWAP1 JUMP JUMPDEST PUSH1 0x0 DUP3 MLOAD PUSH2 0xE6A DUP2 DUP5 PUSH1 0x20 DUP8 ADD PUSH2 0xCBB JUMP JUMPDEST SWAP2 SWAP1 SWAP2 ADD SWAP3 SWAP2 POP POP JUMP JUMPDEST PUSH1 0x0 PUSH1 0x1 DUP3 ADD PUSH2 0xE94 JUMPI PUSH4 0x4E487B71 PUSH1 0xE0 SHL PUSH1 0x0 MSTORE PUSH1 0x11 PUSH1 0x4 MSTORE PUSH1 0x24 PUSH1 0x0 REVERT JUMPDEST POP PUSH1 0x1 ADD SWAP1 JUMP JUMPDEST PUSH1 0x1 DUP2 DUP2 SHR SWAP1 DUP3 AND DUP1 PUSH2 0xEAF JUMPI PUSH1 0x7F DUP3 AND SWAP2 POP JUMPDEST PUSH1 0x20 DUP3 LT DUP2 SUB PUSH2 0xECF JUMPI PUSH4 0x4E487B71 PUSH1 0xE0 SHL PUSH1 0x0 MSTORE PUSH1 0x22 PUSH1 0x4 MSTORE PUSH1 0x24 PUSH1 0x0 REVERT JUMPDEST POP SWAP2 SWAP1 POP JUMP JUMPDEST PUSH1 0x1F DUP3 GT ISZERO PUSH2 0xF1F JUMPI PUSH1 0x0 DUP2 DUP2 MSTORE PUSH1 0x20 DUP2 KECCAK256 PUSH1 0x1F DUP6 ADD PUSH1 0x5 SHR DUP2 ADD PUSH1 0x20 DUP7 LT ISZERO PUSH2 0xEFC JUMPI POP DUP1 JUMPDEST PUSH1 0x1F DUP6 ADD PUSH1 0x5 SHR DUP3 ADD SWAP2 POP JUMPDEST DUP2 DUP2 LT ISZERO PUSH2 0xF1B JUMPI DUP3 DUP2 SSTORE PUSH1 0x1 ADD PUSH2 0xF08 JUMP JUMPDEST POP POP POP JUMPDEST POP POP POP JUMP JUMPDEST DUP2 MLOAD PUSH8 0xFFFFFFFFFFFFFFFF DUP2 GT ISZERO PUSH2 0xF3E JUMPI PUSH2 0xF3E PUSH2 0xADB JUMP JUMPDEST PUSH2 0xF52 DUP2 PUSH2 0xF4C DUP5 SLOAD PUSH2 0xE9B JUMP JUMPDEST DUP5 PUSH2 0xED5 JUMP JUMPDEST PUSH1 0x20 DUP1 PUSH1 0x1F DUP4 GT PUSH1 0x1 DUP2 EQ PUSH2 0xF87 JUMPI PUSH1 0x0 DUP5 ISZERO PUSH2 0xF6F JUMPI POP DUP6 DUP4 ADD MLOAD JUMPDEST PUSH1 0x0 NOT PUSH1 0x3 DUP7 SWAP1 SHL SHR NOT AND PUSH1 0x1 DUP6 SWAP1 SHL OR DUP6 SSTORE PUSH2 0xF1B JUMP JUMPDEST PUSH1 0x0 DUP6 DUP2 MSTORE PUSH1 0x20 DUP2 KECCAK256 PUSH1 0x1F NOT DUP7 AND SWAP2 JUMPDEST DUP3 DUP2 LT ISZERO PUSH2 0xFB6 JUMPI DUP9 DUP7 ADD MLOAD DUP3 SSTORE SWAP5 DUP5 ADD SWAP5 PUSH1 0x1 SWAP1 SWAP2 ADD SWAP1 DUP5 ADD PUSH2 0xF97 JUMP JUMPDEST POP DUP6 DUP3 LT ISZERO PUSH2 0xFD4 JUMPI DUP8 DUP6 ADD MLOAD PUSH1 0x0 NOT PUSH1 0x3 DUP9 SWAP1 SHL PUSH1 0xF8 AND SHR NOT AND DUP2 SSTORE JUMPDEST POP POP POP POP POP PUSH1 0x1 SWAP1 DUP2 SHL ADD SWAP1 SSTORE POP JUMP JUMPDEST PUSH1 0x1 PUSH1 0x1 PUSH1 0xA0 SHL SUB DUP5 AND DUP2 MSTORE PUSH1 0x60 PUSH1 0x20 DUP3 ADD DUP2 SWAP1 MSTORE PUSH1 0x0 SWAP1 PUSH2 0x1008 SWAP1 DUP4 ADD DUP6 PUSH2 0xCDF JUMP JUMPDEST SWAP1 POP DUP3 PUSH1 0x40 DUP4 ADD MSTORE SWAP5 SWAP4 POP POP POP POP JUMP INVALID LOG2 PUSH5 0x6970667358 0x22 SLT KECCAK256 PUSH5 0xBBA06CEC95 DUP4 PUSH31 0x78AFD6429E2C49FB8AFF3307FE0777B2A40A3B65625DD1FB64736F6C634300 ADDMOD EQ STOP CALLER "},"methodIdentifiers":{"emergencyWithdraw()":"db2e21bc","getLastSessionTime(string)":"4b18db51","getPlayerSessionCount(string)":"564ce014","getPlayerSessionIds(string)":"a61c7477","getSession(uint256)":"402ff0db","getStats()":"c59d4847","hasPlayed(string)":"cab3f44b","hasPlayedBefore(string)":"31f0f122","lastSessionTime(string)":"5f3c49b9","owner()":"8da5cb5b","playerSessions(string,uint256)":"213ea516","recordSession(string,address,string,uint256,uint256)":"26d5c4d8","sessions(uint256)":"83c4b7a3","totalSessions()":"6f5db0b5","totalUniquePlayers()":"8a609155","transferOwnership(address)":"f2fde38b"}}}}}