{"contracts/VehicleManager.sol":{"VehicleManager":{"abi":[{"inputs":[],"stateMutability":"nonpayable","type":"constructor"},{"anonymous":false,"inputs":[{"indexed":true,"internalType":"string","name":"identifier","type":"string"},{"indexed":false,"internalType":"uint256","name":"timestamp","type":"uint256"}],"name":"NewPlayer","type":"event"},{"anonymous":false,"inputs":[{"indexed":true,"internalType":"uint256","name":"purchaseId","type":"uint256"},{"indexed":true,"internalType":"string","name":"identifier","type":"string"},{"indexed":false,"internalType":"address","name":"player","type":"address"},{"indexed":false,"internalType":"enum VehicleManager.VehicleType","name":"vehicleType","type":"uint8"},{"indexed":false,"internalType":"uint256","name":"price","type":"uint256"},{"indexed":false,"internalType":"uint256","name":"timestamp","type":"uint256"}],"name":"VehiclePurchased","type":"event"},{"anonymous":false,"inputs":[{"indexed":true,"internalType":"uint256","name":"switchId","type":"uint256"},{"indexed":true,"internalType":"string","name":"identifier","type":"string"},{"indexed":false,"internalType":"address","name":"player","type":"address"},{"indexed":false,"internalType":"enum VehicleManager.VehicleType","name":"fromVehicle","type":"uint8"},{"indexed":false,"internalType":"enum VehicleManager.VehicleType","name":"toVehicle","type":"uint8"},{"indexed":false,"internalType":"uint256","name":"timestamp","type":"uint256"}],"name":"VehicleSwitched","type":"event"},{"inputs":[{"internalType":"string","name":"_identifier","type":"string"}],"name":"getPlayerPurchases","outputs":[{"internalType":"uint256[]","name":"","type":"uint256[]"}],"stateMutability":"view","type":"function"},{"inputs":[{"internalType":"string","name":"_identifier","type":"string"}],"name":"getPlayerSwitches","outputs":[{"internalType":"uint256[]","name":"","type":"uint256[]"}],"stateMutability":"view","type":"function"},{"inputs":[{"internalType":"string","name":"_identifier","type":"string"}],"name":"getPlayerVehicles","outputs":[{"internalType":"bool[5]","name":"","type":"bool[5]"}],"stateMutability":"view","type":"function"},{"inputs":[{"internalType":"uint256","name":"_purchaseId","type":"uint256"}],"name":"getPurchase","outputs":[{"internalType":"address","name":"player","type":"address"},{"internalType":"string","name":"identifier","type":"string"},{"internalType":"enum VehicleManager.VehicleType","name":"vehicleType","type":"uint8"},{"internalType":"uint256","name":"purchasePrice","type":"uint256"},{"internalType":"uint256","name":"timestamp","type":"uint256"}],"stateMutability":"view","type":"function"},{"inputs":[],"name":"getStats","outputs":[{"internalType":"uint256","name":"_totalPurchases","type":"uint256"},{"internalType":"uint256","name":"_totalSwitches","type":"uint256"},{"internalType":"uint256","name":"_totalPlayers","type":"uint256"},{"internalType":"address","name":"_owner","type":"address"}],"stateMutability":"view","type":"function"},{"inputs":[{"internalType":"uint256","name":"_switchId","type":"uint256"}],"name":"getSwitch","outputs":[{"internalType":"address","name":"player","type":"address"},{"internalType":"string","name":"identifier","type":"string"},{"internalType":"enum VehicleManager.VehicleType","name":"fromVehicle","type":"uint8"},{"internalType":"enum VehicleManager.VehicleType","name":"toVehicle","type":"uint8"},{"internalType":"uint256","name":"timestamp","type":"uint256"}],"stateMutability":"view","type":"function"},{"inputs":[{"internalType":"string","name":"","type":"string"}],"name":"hasPlayer","outputs":[{"internalType":"bool","name":"","type":"bool"}],"stateMutability":"view","type":"function"},{"inputs":[],"name":"owner","outputs":[{"internalType":"address","name":"","type":"address"}],"stateMutability":"view","type":"function"},{"inputs":[{"internalType":"string","name":"_identifier","type":"string"},{"internalType":"address","name":"_playerAddress","type":"address"},{"internalType":"enum VehicleManager.VehicleType","name":"_vehicleType","type":"uint8"},{"internalType":"uint256","name":"_purchasePrice","type":"uint256"}],"name":"purchaseVehicle","outputs":[{"internalType":"uint256","name":"","type":"uint256"}],"stateMutability":"nonpayable","type":"function"},{"inputs":[{"internalType":"uint256","name":"","type":"uint256"}],"name":"purchases","outputs":[{"internalType":"address","name":"player","type":"address"},{"internalType":"string","name":"identifier","type":"string"},{"internalType":"enum VehicleManager.VehicleType","name":"vehicleType","type":"uint8"},{"internalType":"uint256","name":"purchasePrice","type":"uint256"},{"internalType":"uint256","name":"timestamp","type":"uint256"}],"stateMutability":"view","type":"function"},{"inputs":[{"internalType":"string","name":"","type":"string"}],"name":"selectedVehicle","outputs":[{"internalType":"enum VehicleManager.VehicleType","name":"","type":"uint8"}],"stateMutability":"view","type":"function"},{"inputs":[{"internalType":"string","name":"_identifier","type":"string"},{"internalType":"address","name":"_playerAddress","type":"address"},{"internalType":"enum VehicleManager.VehicleType","name":"_newVehicle","type":"uint8"}],"name":"switchVehicle","outputs":[{"internalType":"uint256","name":"","type":"uint256"}],"stateMutability":"nonpayable","type":"function"},{"inputs":[{"internalType":"uint256","name":"","type":"uint256"}],"name":"switches","outputs":[{"internalType":"address","name":"player","type":"address"},{"internalType":"string","name":"identifier","type":"string"},{"internalType":"enum VehicleManager.VehicleType","name":"fromVehicle","type":"uint8"},{"internalType":"enum VehicleManager.VehicleType","name":"toVehicle","type":"uint8"},{"internalType":"uint256","name":"timestamp","type":"uint256"}],"stateMutability":"view","type":"function"},{"inputs":[],"name":"totalPlayers","outputs":[{"internalType":"uint256","name":"","type":"uint256"}],"stateMutability":"view","type":"function"},{"inputs":[],"name":"totalPurchases","outputs":[{"internalType":"uint256","name":"","type":"uint256"}],"stateMutability":"view","type":"function"},{"inputs":[{"internalType":"string","name":"","type":"string"}],"name":"totalSwitches","outputs":[{"internalType":"uint256","name":"","type":"uint256"}],"stateMutability":"view","type":"function"},{"inputs":[],"name":"totalSwitches_","outputs":[{"internalType":"uint256","name":"","type":"uint256"}],"stateMutability":"view","type":"function"},{"inputs":[{"internalType":"string","name":"","type":"string"},{"internalType":"enum VehicleManager.VehicleType","name":"","type":"uint8"}],"name":"vehiclesOwned","outputs":[{"internalType":"bool","name":"","type":"bool"}],"stateMutability":"view","type":"function"}],"evm":{"bytecode":{"linkReferences":{},"object":"608060405234801561001057600080fd5b50600b80546001600160a01b031916331790556116a8806100326000396000f3fe608060405234801561001057600080fd5b50600436106101165760003560e01c80638da5cb5b116100a2578063b5e2410e11610071578063b5e2410e146102de578063b7091cfd146102f1578063c59d484714610304578063ce0ba5cd14610339578063f60cdcf61461036757600080fd5b80638da5cb5b1461024b578063962d2eaf1461027657806398fcdee714610289578063a611656c146102d557600080fd5b8063693d0ba2116100e9578063693d0ba2146101a657806377b3a42e146101c6578063825f1276146102015780638392fe3114610225578063881ec10b1461023857600080fd5b8063012640621461011b5780631bef2456146101595780633742a9f7146101795780635962a9411461019d575b600080fd5b61014661012936600461112c565b805160208183018101805160028252928201919093012091525481565b6040519081526020015b60405180910390f35b61016c61016736600461112c565b610370565b6040516101509190611169565b61018c6101873660046111ad565b6103e0565b60405161015095949392919061124e565b61014660075481565b6101b96101b436600461112c565b610531565b6040516101509190611294565b6101f46101d436600461112c565b805160208183018101805160018252928201919093012091525460ff1681565b60405161015091906112c7565b61021461020f3660046111ad565b61065c565b6040516101509594939291906112db565b61018c6102333660046111ad565b6107da565b6102146102463660046111ad565b6108b4565b600b5461025e906001600160a01b031681565b6040516001600160a01b039091168152602001610150565b610146610284366004611356565b61098f565b6102c56102973660046113bc565b8151602081840181018051600080835293830195830195909520949052929092528152604090205460ff1681565b6040519015158152602001610150565b61014660085481565b61016c6102ec36600461112c565b610bdf565b6101466102ff36600461140a565b610bf1565b600754600854600954600b54604080519485526020850193909352918301526001600160a01b03166060820152608001610150565b6102c561034736600461112c565b8051602081830181018051600a8252928201919093012091525460ff1681565b61014660095481565b60606004826040516103829190611468565b90815260408051918290036020908101832080548083028501830190935282845291908301828280156103d457602002820191906000526020600020905b8154815260200190600101908083116103c0575b50505050509050919050565b60006060600080600080600587815481106103fd576103fd611484565b60009182526020918290206040805160a0810190915260059092020180546001600160a01b03168252600181018054929391929184019161043d9061149a565b80601f01602080910402602001604051908101604052809291908181526020018280546104699061149a565b80156104b65780601f1061048b576101008083540402835291602001916104b6565b820191906000526020600020905b81548152906001019060200180831161049957829003601f168201915b5050509183525050600282015460209091019060ff1660048111156104dd576104dd611216565b60048111156104ee576104ee611216565b81526003820154602080830191909152600490920154604091820152825191830151908301516060840151608090940151929b919a509850919650945092505050565b61053961106b565b6040518060a001604052806000846040516105549190611468565b908152604080516020928190038301902060008080529083528181205460ff16151584529051929091019161058a908690611468565b9081526040805160209281900383019020600160009081529083528181205460ff1615158452905192909101916105c2908690611468565b9081526040805160209281900383019020600260009081529083528181205460ff1615158452905192909101916105fa908690611468565b9081526040805160209281900383019020600360009081529083528181205460ff161515845290519290910191610632908690611468565b908152604080516020928190038301902060046000908152925290205460ff161515905292915050565b600060606000806000806006878154811061067957610679611484565b60009182526020918290206040805160a0810190915260049092020180546001600160a01b0316825260018101805492939192918401916106b99061149a565b80601f01602080910402602001604051908101604052809291908181526020018280546106e59061149a565b80156107325780601f1061070757610100808354040283529160200191610732565b820191906000526020600020905b81548152906001019060200180831161071557829003601f168201915b5050509183525050600282015460209091019060ff16600481111561075957610759611216565b600481111561076a5761076a611216565b81526020016002820160019054906101000a900460ff16600481111561079257610792611216565b60048111156107a3576107a3611216565b81526003919091015460209182015281519082015160408301516060840151608090940151929b919a509850919650945092505050565b600581815481106107ea57600080fd5b6000918252602090912060059091020180546001820180546001600160a01b039092169350906108199061149a565b80601f01602080910402602001604051908101604052809291908181526020018280546108459061149a565b80156108925780601f1061086757610100808354040283529160200191610892565b820191906000526020600020905b81548152906001019060200180831161087557829003601f168201915b5050505060028301546003840154600490940154929360ff9091169290915085565b600681815481106108c457600080fd5b6000918252602090912060049091020180546001820180546001600160a01b039092169350906108f39061149a565b80601f016020809104026020016040519081016040528092919081815260200182805461091f9061149a565b801561096c5780601f106109415761010080835404028352916020019161096c565b820191906000526020600020905b81548152906001019060200180831161094f57829003601f168201915b505050506002830154600390930154919260ff8082169361010090920416915085565b6000808360048111156109a4576109a4611216565b036109f65760405162461bcd60e51b815260206004820181905260248201527f4a6565702069732064656661756c742c2063616e6e6f7420707572636861736560448201526064015b60405180910390fd5b610a008585610f36565b600580546040805160a0810182526001600160a01b038816815260208101899052919291908101866004811115610a3957610a39611216565b8152602080820187905242604090920191909152825460018082018555600094855293829020835160059092020180546001600160a01b0319166001600160a01b03909216919091178155908201519192909190820190610a9a9082611523565b50604082015160028201805460ff19166001836004811115610abe57610abe611216565b021790555060608201518160030155608082015181600401555050600386604051610ae99190611468565b9081526040516020918190038201812080546001808201835560009283529382200184905590610b1a908990611468565b90815260200160405180910390206000866004811115610b3c57610b3c611216565b6004811115610b4d57610b4d611216565b815260208101919091526040016000908120805460ff1916921515929092179091556007805491610b7d836115e3565b919050555085604051610b909190611468565b6040518091039020817f512460d6e58280d215dee360d5317341c666799785f40017e87b987e99ed4b3687878742604051610bce949392919061160a565b60405180910390a395945050505050565b60606003826040516103829190611468565b6000610bfd8484610f36565b600084604051610c0d9190611468565b90815260200160405180910390206000836004811115610c2f57610c2f611216565b6004811115610c4057610c40611216565b815260208101919091526040016000205460ff16610c945760405162461bcd60e51b815260206004820152601160248201527015995a1a58db19481b9bdd081bdddb9959607a1b60448201526064016109ed565b6000600185604051610ca69190611468565b9081526040519081900360200190205460ff169050826004811115610ccd57610ccd611216565b816004811115610cdf57610cdf611216565b03610d2c5760405162461bcd60e51b815260206004820152601a60248201527f416c7265616479207573696e6720746869732076656869636c6500000000000060448201526064016109ed565b600680546040805160a0810182526001600160a01b038816815260208101899052919291908101846004811115610d6557610d65611216565b8152602001866004811115610d7c57610d7c611216565b815242602091820152825460018082018555600094855293829020835160049092020180546001600160a01b0319166001600160a01b03909216919091178155908201519192909190820190610dd29082611523565b50604082015160028201805460ff19166001836004811115610df657610df6611216565b0217905550606082015160028201805461ff001916610100836004811115610e2057610e20611216565b0217905550608082015181600301555050600486604051610e419190611468565b9081526040519081900360209081018220805460018181018355600092835292909120018390558591610e75908990611468565b908152604051908190036020019020805460ff19166001836004811115610e9e57610e9e611216565b0217905550600286604051610eb39190611468565b9081526040519081900360200190208054906000610ed0836115e3565b909155505060088054906000610ee5836115e3565b919050555085604051610ef89190611468565b6040518091039020817f5eaa3e210034e02346002c791265f593d2424c5321faa8fa32c84d183f262ad987858842604051610bce9493929190611639565b600a82604051610f469190611468565b9081526040519081900360200190205460ff16611067576001600a83604051610f6f9190611468565b908152604051908190036020019020805491151560ff1990921691909117905560098054906000610f9f836115e3565b91905055506001600083604051610fb69190611468565b90815260408051918290036020908101832060008080529152908120805460ff191693151593909317909255600190610ff0908590611468565b908152604051908190036020019020805460ff1916600183600481111561101957611019611216565b02179055508160405161102c9190611468565b604051908190038120428252907f9c529f0fc3a16860fe293102c3f3b645571379454234a401c75194a9b3f77c3f9060200160405180910390a25b5050565b6040518060a001604052806005906020820280368337509192915050565b634e487b7160e01b600052604160045260246000fd5b600082601f8301126110b057600080fd5b813567ffffffffffffffff808211156110cb576110cb611089565b604051601f8301601f19908116603f011681019082821181831017156110f3576110f3611089565b8160405283815286602085880101111561110c57600080fd5b836020870160208301376000602085830101528094505050505092915050565b60006020828403121561113e57600080fd5b813567ffffffffffffffff81111561115557600080fd5b6111618482850161109f565b949350505050565b6020808252825182820181905260009190848201906040850190845b818110156111a157835183529284019291840191600101611185565b50909695505050505050565b6000602082840312156111bf57600080fd5b5035919050565b60005b838110156111e15781810151838201526020016111c9565b50506000910152565b600081518084526112028160208601602086016111c6565b601f01601f19169290920160200192915050565b634e487b7160e01b600052602160045260246000fd5b6005811061124a57634e487b7160e01b600052602160045260246000fd5b9052565b6001600160a01b038616815260a060208201819052600090611272908301876111ea565b9050611281604083018661122c565b6060820193909352608001529392505050565b60a08101818360005b60058110156112be578151151583526020928301929091019060010161129d565b50505092915050565b602081016112d5828461122c565b92915050565b6001600160a01b038616815260a0602082018190526000906112ff908301876111ea565b905061130e604083018661122c565b61131b606083018561122c565b8260808301529695505050505050565b80356001600160a01b038116811461134257600080fd5b919050565b80356005811061134257600080fd5b6000806000806080858703121561136c57600080fd5b843567ffffffffffffffff81111561138357600080fd5b61138f8782880161109f565b94505061139e6020860161132b565b92506113ac60408601611347565b9396929550929360600135925050565b600080604083850312156113cf57600080fd5b823567ffffffffffffffff8111156113e657600080fd5b6113f28582860161109f565b92505061140160208401611347565b90509250929050565b60008060006060848603121561141f57600080fd5b833567ffffffffffffffff81111561143657600080fd5b6114428682870161109f565b9350506114516020850161132b565b915061145f60408501611347565b90509250925092565b6000825161147a8184602087016111c6565b9190910192915050565b634e487b7160e01b600052603260045260246000fd5b600181811c908216806114ae57607f821691505b6020821081036114ce57634e487b7160e01b600052602260045260246000fd5b50919050565b601f82111561151e57600081815260208120601f850160051c810160208610156114fb5750805b601f850160051c820191505b8181101561151a57828155600101611507565b5050505b505050565b815167ffffffffffffffff81111561153d5761153d611089565b6115518161154b845461149a565b846114d4565b602080601f831160018114611586576000841561156e5750858301515b600019600386901b1c1916600185901b17855561151a565b600085815260208120601f198616915b828110156115b557888601518255948401946001909101908401611596565b50858210156115d35787850151600019600388901b60f8161c191681555b5050505050600190811b01905550565b60006001820161160357634e487b7160e01b600052601160045260246000fd5b5060010190565b6001600160a01b038516815260808101611627602083018661122c565b60408201939093526060015292915050565b6001600160a01b038516815260808101611656602083018661122c565b611663604083018561122c565b8260608301529594505050505056fea2646970667358221220cba4768510d4db29f82164fee145d27b04a72e61fa214c62215c788073cc0a3964736f6c63430008140033","opcodes":"PUSH1 0x80 PUSH1 0x40 MSTORE CALLVALUE DUP1 ISZERO PUSH2 0x10 JUMPI PUSH1 0x0 DUP1 REVERT JUMPDEST POP PUSH1 0xB DUP1 SLOAD PUSH1 0x1 PUSH1 0x1 PUSH1 0xA0 SHL SUB NOT AND CALLER OR SWAP1 SSTORE PUSH2 0x16A8 DUP1 PUSH2 0x32 PUSH1 0x0 CODECOPY PUSH1 0x0 RETURN INVALID PUSH1 0x80 PUSH1 0x40 MSTORE CALLVALUE DUP1 ISZERO PUSH2 0x10 JUMPI PUSH1 0x0 DUP1 REVERT JUMPDEST POP PUSH1 0x4 CALLDATASIZE LT PUSH2 0x116 JUMPI PUSH1 0x0 CALLDATALOAD PUSH1 0xE0 SHR DUP1 PUSH4 0x8DA5CB5B GT PUSH2 0xA2 JUMPI DUP1 PUSH4 0xB5E2410E GT PUSH2 0x71 JUMPI DUP1 PUSH4 0xB5E2410E EQ PUSH2 0x2DE JUMPI DUP1 PUSH4 0xB7091CFD EQ PUSH2 0x2F1 JUMPI DUP1 PUSH4 0xC59D4847 EQ PUSH2 0x304 JUMPI DUP1 PUSH4 0xCE0BA5CD EQ PUSH2 0x339 JUMPI DUP1 PUSH4 0xF60CDCF6 EQ PUSH2 0x367 JUMPI PUSH1 0x0 DUP1 REVERT JUMPDEST DUP1 PUSH4 0x8DA5CB5B EQ PUSH2 0x24B JUMPI DUP1 PUSH4 0x962D2EAF EQ PUSH2 0x276 JUMPI DUP1 PUSH4 0x98FCDEE7 EQ PUSH2 0x289 JUMPI DUP1 PUSH4 0xA611656C EQ PUSH2 0x2D5 JUMPI PUSH1 0x0 DUP1 REVERT JUMPDEST DUP1 PUSH4 0x693D0BA2 GT PUSH2 0xE9 JUMPI DUP1 PUSH4 0x693D0BA2 EQ PUSH2 0x1A6 JUMPI DUP1 PUSH4 0x77B3A42E EQ PUSH2 0x1C6 JUMPI DUP1 PUSH4 0x825F1276 EQ PUSH2 0x201 JUMPI DUP1 PUSH4 0x8392FE31 EQ PUSH2 0x225 JUMPI DUP1 PUSH4 0x881EC10B EQ PUSH2 0x238 JUMPI PUSH1 0x0 DUP1 REVERT JUMPDEST DUP1 PUSH4 0x1264062 EQ PUSH2 0x11B JUMPI DUP1 PUSH4 0x1BEF2456 EQ PUSH2 0x159 JUMPI DUP1 PUSH4 0x3742A9F7 EQ PUSH2 0x179 JUMPI DUP1 PUSH4 0x5962A941 EQ PUSH2 0x19D JUMPI JUMPDEST PUSH1 0x0 DUP1 REVERT JUMPDEST PUSH2 0x146 PUSH2 0x129 CALLDATASIZE PUSH1 0x4 PUSH2 0x112C JUMP JUMPDEST DUP1 MLOAD PUSH1 0x20 DUP2 DUP4 ADD DUP2 ADD DUP1 MLOAD PUSH1 0x2 DUP3 MSTORE SWAP3 DUP3 ADD SWAP2 SWAP1 SWAP4 ADD KECCAK256 SWAP2 MSTORE SLOAD DUP2 JUMP JUMPDEST PUSH1 0x40 MLOAD SWAP1 DUP2 MSTORE PUSH1 0x20 ADD JUMPDEST PUSH1 0x40 MLOAD DUP1 SWAP2 SUB SWAP1 RETURN JUMPDEST PUSH2 0x16C PUSH2 0x167 CALLDATASIZE PUSH1 0x4 PUSH2 0x112C JUMP JUMPDEST PUSH2 0x370 JUMP JUMPDEST PUSH1 0x40 MLOAD PUSH2 0x150 SWAP2 SWAP1 PUSH2 0x1169 JUMP JUMPDEST PUSH2 0x18C PUSH2 0x187 CALLDATASIZE PUSH1 0x4 PUSH2 0x11AD JUMP JUMPDEST PUSH2 0x3E0 JUMP JUMPDEST PUSH1 0x40 MLOAD PUSH2 0x150 SWAP6 SWAP5 SWAP4 SWAP3 SWAP2 SWAP1 PUSH2 0x124E JUMP JUMPDEST PUSH2 0x146 PUSH1 0x7 SLOAD DUP2 JUMP JUMPDEST PUSH2 0x1B9 PUSH2 0x1B4 CALLDATASIZE PUSH1 0x4 PUSH2 0x112C JUMP JUMPDEST PUSH2 0x531 JUMP JUMPDEST PUSH1 0x40 MLOAD PUSH2 0x150 SWAP2 SWAP1 PUSH2 0x1294 JUMP JUMPDEST PUSH2 0x1F4 PUSH2 0x1D4 CALLDATASIZE PUSH1 0x4 PUSH2 0x112C JUMP JUMPDEST DUP1 MLOAD PUSH1 0x20 DUP2 DUP4 ADD DUP2 ADD DUP1 MLOAD PUSH1 0x1 DUP3 MSTORE SWAP3 DUP3 ADD SWAP2 SWAP1 SWAP4 ADD KECCAK256 SWAP2 MSTORE SLOAD PUSH1 0xFF AND DUP2 JUMP JUMPDEST PUSH1 0x40 MLOAD PUSH2 0x150 SWAP2 SWAP1 PUSH2 0x12C7 JUMP JUMPDEST PUSH2 0x214 PUSH2 0x20F CALLDATASIZE PUSH1 0x4 PUSH2 0x11AD JUMP JUMPDEST PUSH2 0x65C JUMP JUMPDEST PUSH1 0x40 MLOAD PUSH2 0x150 SWAP6 SWAP5 SWAP4 SWAP3 SWAP2 SWAP1 PUSH2 0x12DB JUMP JUMPDEST PUSH2 0x18C PUSH2 0x233 CALLDATASIZE PUSH1 0x4 PUSH2 0x11AD JUMP JUMPDEST PUSH2 0x7DA JUMP JUMPDEST PUSH2 0x214 PUSH2 0x246 CALLDATASIZE PUSH1 0x4 PUSH2 0x11AD JUMP JUMPDEST PUSH2 0x8B4 JUMP JUMPDEST PUSH1 0xB SLOAD PUSH2 0x25E SWAP1 PUSH1 0x1 PUSH1 0x1 PUSH1 0xA0 SHL SUB AND DUP2 JUMP JUMPDEST PUSH1 0x40 MLOAD PUSH1 0x1 PUSH1 0x1 PUSH1 0xA0 SHL SUB SWAP1 SWAP2 AND DUP2 MSTORE PUSH1 0x20 ADD PUSH2 0x150 JUMP JUMPDEST PUSH2 0x146 PUSH2 0x284 CALLDATASIZE PUSH1 0x4 PUSH2 0x1356 JUMP JUMPDEST PUSH2 0x98F JUMP JUMPDEST PUSH2 0x2C5 PUSH2 0x297 CALLDATASIZE PUSH1 0x4 PUSH2 0x13BC JUMP JUMPDEST DUP2 MLOAD PUSH1 0x20 DUP2 DUP5 ADD DUP2 ADD DUP1 MLOAD PUSH1 0x0 DUP1 DUP4 MSTORE SWAP4 DUP4 ADD SWAP6 DUP4 ADD SWAP6 SWAP1 SWAP6 KECCAK256 SWAP5 SWAP1 MSTORE SWAP3 SWAP1 SWAP3 MSTORE DUP2 MSTORE PUSH1 0x40 SWAP1 KECCAK256 SLOAD PUSH1 0xFF AND DUP2 JUMP JUMPDEST PUSH1 0x40 MLOAD SWAP1 ISZERO ISZERO DUP2 MSTORE PUSH1 0x20 ADD PUSH2 0x150 JUMP JUMPDEST PUSH2 0x146 PUSH1 0x8 SLOAD DUP2 JUMP JUMPDEST PUSH2 0x16C PUSH2 0x2EC CALLDATASIZE PUSH1 0x4 PUSH2 0x112C JUMP JUMPDEST PUSH2 0xBDF JUMP JUMPDEST PUSH2 0x146 PUSH2 0x2FF CALLDATASIZE PUSH1 0x4 PUSH2 0x140A JUMP JUMPDEST PUSH2 0xBF1 JUMP JUMPDEST PUSH1 0x7 SLOAD PUSH1 0x8 SLOAD PUSH1 0x9 SLOAD PUSH1 0xB SLOAD PUSH1 0x40 DUP1 MLOAD SWAP5 DUP6 MSTORE PUSH1 0x20 DUP6 ADD SWAP4 SWAP1 SWAP4 MSTORE SWAP2 DUP4 ADD MSTORE PUSH1 0x1 PUSH1 0x1 PUSH1 0xA0 SHL SUB AND PUSH1 0x60 DUP3 ADD MSTORE PUSH1 0x80 ADD PUSH2 0x150 JUMP JUMPDEST PUSH2 0x2C5 PUSH2 0x347 CALLDATASIZE PUSH1 0x4 PUSH2 0x112C JUMP JUMPDEST DUP1 MLOAD PUSH1 0x20 DUP2 DUP4 ADD DUP2 ADD DUP1 MLOAD PUSH1 0xA DUP3 MSTORE SWAP3 DUP3 ADD SWAP2 SWAP1 SWAP4 ADD KECCAK256 SWAP2 MSTORE SLOAD PUSH1 0xFF AND DUP2 JUMP JUMPDEST PUSH2 0x146 PUSH1 0x9 SLOAD DUP2 JUMP JUMPDEST PUSH1 0x60 PUSH1 0x4 DUP3 PUSH1 0x40 MLOAD PUSH2 0x382 SWAP2 SWAP1 PUSH2 0x1468 JUMP JUMPDEST SWAP1 DUP2 MSTORE PUSH1 0x40 DUP1 MLOAD SWAP2 DUP3 SWAP1 SUB PUSH1 0x20 SWAP1 DUP2 ADD DUP4 KECCAK256 DUP1 SLOAD DUP1 DUP4 MUL DUP6 ADD DUP4 ADD SWAP1 SWAP4 MSTORE DUP3 DUP5 MSTORE SWAP2 SWAP1 DUP4 ADD DUP3 DUP3 DUP1 ISZERO PUSH2 0x3D4 JUMPI PUSH1 0x20 MUL DUP3 ADD SWAP2 SWAP1 PUSH1 0x0 MSTORE PUSH1 0x20 PUSH1 0x0 KECCAK256 SWAP1 JUMPDEST DUP2 SLOAD DUP2 MSTORE PUSH1 0x20 ADD SWAP1 PUSH1 0x1 ADD SWAP1 DUP1 DUP4 GT PUSH2 0x3C0 JUMPI JUMPDEST POP POP POP POP POP SWAP1 POP SWAP2 SWAP1 POP JUMP JUMPDEST PUSH1 0x0 PUSH1 0x60 PUSH1 0x0 DUP1 PUSH1 0x0 DUP1 PUSH1 0x5 DUP8 DUP2 SLOAD DUP2 LT PUSH2 0x3FD JUMPI PUSH2 0x3FD PUSH2 0x1484 JUMP JUMPDEST PUSH1 0x0 SWAP2 DUP3 MSTORE PUSH1 0x20 SWAP2 DUP3 SWAP1 KECCAK256 PUSH1 0x40 DUP1 MLOAD PUSH1 0xA0 DUP2 ADD SWAP1 SWAP2 MSTORE PUSH1 0x5 SWAP1 SWAP3 MUL ADD DUP1 SLOAD PUSH1 0x1 PUSH1 0x1 PUSH1 0xA0 SHL SUB AND DUP3 MSTORE PUSH1 0x1 DUP2 ADD DUP1 SLOAD SWAP3 SWAP4 SWAP2 SWAP3 SWAP2 DUP5 ADD SWAP2 PUSH2 0x43D SWAP1 PUSH2 0x149A JUMP JUMPDEST DUP1 PUSH1 0x1F ADD PUSH1 0x20 DUP1 SWAP2 DIV MUL PUSH1 0x20 ADD PUSH1 0x40 MLOAD SWAP1 DUP2 ADD PUSH1 0x40 MSTORE DUP1 SWAP3 SWAP2 SWAP1 DUP2 DUP2 MSTORE PUSH1 0x20 ADD DUP3 DUP1 SLOAD PUSH2 0x469 SWAP1 PUSH2 0x149A JUMP JUMPDEST DUP1 ISZERO PUSH2 0x4B6 JUMPI DUP1 PUSH1 0x1F LT PUSH2 0x48B JUMPI PUSH2 0x100 DUP1 DUP4 SLOAD DIV MUL DUP4 MSTORE SWAP2 PUSH1 0x20 ADD SWAP2 PUSH2 0x4B6 JUMP JUMPDEST DUP3 ADD SWAP2 SWAP1 PUSH1 0x0 MSTORE PUSH1 0x20 PUSH1 0x0 KECCAK256 SWAP1 JUMPDEST DUP2 SLOAD DUP2 MSTORE SWAP1 PUSH1 0x1 ADD SWAP1 PUSH1 0x20 ADD DUP1 DUP4 GT PUSH2 0x499 JUMPI DUP3 SWAP1 SUB PUSH1 0x1F AND DUP3 ADD SWAP2 JUMPDEST POP POP POP SWAP2 DUP4 MSTORE POP POP PUSH1 0x2 DUP3 ADD SLOAD PUSH1 0x20 SWAP1 SWAP2 ADD SWAP1 PUSH1 0xFF AND PUSH1 0x4 DUP2 GT ISZERO PUSH2 0x4DD JUMPI PUSH2 0x4DD PUSH2 0x1216 JUMP JUMPDEST PUSH1 0x4 DUP2 GT ISZERO PUSH2 0x4EE JUMPI PUSH2 0x4EE PUSH2 0x1216 JUMP JUMPDEST DUP2 MSTORE PUSH1 0x3 DUP3 ADD SLOAD PUSH1 0x20 DUP1 DUP4 ADD SWAP2 SWAP1 SWAP2 MSTORE PUSH1 0x4 SWAP1 SWAP3 ADD SLOAD PUSH1 0x40 SWAP2 DUP3 ADD MSTORE DUP3 MLOAD SWAP2 DUP4 ADD MLOAD SWAP1 DUP4 ADD MLOAD PUSH1 0x60 DUP5 ADD MLOAD PUSH1 0x80 SWAP1 SWAP5 ADD MLOAD SWAP3 SWAP12 SWAP2 SWAP11 POP SWAP9 POP SWAP2 SWAP7 POP SWAP5 POP SWAP3 POP POP POP JUMP JUMPDEST PUSH2 0x539 PUSH2 0x106B JUMP JUMPDEST PUSH1 0x40 MLOAD DUP1 PUSH1 0xA0 ADD PUSH1 0x40 MSTORE DUP1 PUSH1 0x0 DUP5 PUSH1 0x40 MLOAD PUSH2 0x554 SWAP2 SWAP1 PUSH2 0x1468 JUMP JUMPDEST SWAP1 DUP2 MSTORE PUSH1 0x40 DUP1 MLOAD PUSH1 0x20 SWAP3 DUP2 SWAP1 SUB DUP4 ADD SWAP1 KECCAK256 PUSH1 0x0 DUP1 DUP1 MSTORE SWAP1 DUP4 MSTORE DUP2 DUP2 KECCAK256 SLOAD PUSH1 0xFF AND ISZERO ISZERO DUP5 MSTORE SWAP1 MLOAD SWAP3 SWAP1 SWAP2 ADD SWAP2 PUSH2 0x58A SWAP1 DUP7 SWAP1 PUSH2 0x1468 JUMP JUMPDEST SWAP1 DUP2 MSTORE PUSH1 0x40 DUP1 MLOAD PUSH1 0x20 SWAP3 DUP2 SWAP1 SUB DUP4 ADD SWAP1 KECCAK256 PUSH1 0x1 PUSH1 0x0 SWAP1 DUP2 MSTORE SWAP1 DUP4 MSTORE DUP2 DUP2 KECCAK256 SLOAD PUSH1 0xFF AND ISZERO ISZERO DUP5 MSTORE SWAP1 MLOAD SWAP3 SWAP1 SWAP2 ADD SWAP2 PUSH2 0x5C2 SWAP1 DUP7 SWAP1 PUSH2 0x1468 JUMP JUMPDEST SWAP1 DUP2 MSTORE PUSH1 0x40 DUP1 MLOAD PUSH1 0x20 SWAP3 DUP2 SWAP1 SUB DUP4 ADD SWAP1 KECCAK256 PUSH1 0x2 PUSH1 0x0 SWAP1 DUP2 MSTORE SWAP1 DUP4 MSTORE DUP2 DUP2 KECCAK256 SLOAD PUSH1 0xFF AND ISZERO ISZERO DUP5 MSTORE SWAP1 MLOAD SWAP3 SWAP1 SWAP2 ADD SWAP2 PUSH2 0x5FA SWAP1 DUP7 SWAP1 PUSH2 0x1468 JUMP JUMPDEST SWAP1 DUP2 MSTORE PUSH1 0x40 DUP1 MLOAD PUSH1 0x20 SWAP3 DUP2 SWAP1 SUB DUP4 ADD SWAP1 KECCAK256 PUSH1 0x3 PUSH1 0x0 SWAP1 DUP2 MSTORE SWAP1 DUP4 MSTORE DUP2 DUP2 KECCAK256 SLOAD PUSH1 0xFF AND ISZERO ISZERO DUP5 MSTORE SWAP1 MLOAD SWAP3 SWAP1 SWAP2 ADD SWAP2 PUSH2 0x632 SWAP1 DUP7 SWAP1 PUSH2 0x1468 JUMP JUMPDEST SWAP1 DUP2 MSTORE PUSH1 0x40 DUP1 MLOAD PUSH1 0x20 SWAP3 DUP2 SWAP1 SUB DUP4 ADD SWAP1 KECCAK256 PUSH1 0x4 PUSH1 0x0 SWAP1 DUP2 MSTORE SWAP3 MSTORE SWAP1 KECCAK256 SLOAD PUSH1 0xFF AND ISZERO ISZERO SWAP1 MSTORE SWAP3 SWAP2 POP POP JUMP JUMPDEST PUSH1 0x0 PUSH1 0x60 PUSH1 0x0 DUP1 PUSH1 0x0 DUP1 PUSH1 0x6 DUP8 DUP2 SLOAD DUP2 LT PUSH2 0x679 JUMPI PUSH2 0x679 PUSH2 0x1484 JUMP JUMPDEST PUSH1 0x0 SWAP2 DUP3 MSTORE PUSH1 0x20 SWAP2 DUP3 SWAP1 KECCAK256 PUSH1 0x40 DUP1 MLOAD PUSH1 0xA0 DUP2 ADD SWAP1 SWAP2 MSTORE PUSH1 0x4 SWAP1 SWAP3 MUL ADD DUP1 SLOAD PUSH1 0x1 PUSH1 0x1 PUSH1 0xA0 SHL SUB AND DUP3 MSTORE PUSH1 0x1 DUP2 ADD DUP1 SLOAD SWAP3 SWAP4 SWAP2 SWAP3 SWAP2 DUP5 ADD SWAP2 PUSH2 0x6B9 SWAP1 PUSH2 0x149A JUMP JUMPDEST DUP1 PUSH1 0x1F ADD PUSH1 0x20 DUP1 SWAP2 DIV MUL PUSH1 0x20 ADD PUSH1 0x40 MLOAD SWAP1 DUP2 ADD PUSH1 0x40 MSTORE DUP1 SWAP3 SWAP2 SWAP1 DUP2 DUP2 MSTORE PUSH1 0x20 ADD DUP3 DUP1 SLOAD PUSH2 0x6E5 SWAP1 PUSH2 0x149A JUMP JUMPDEST DUP1 ISZERO PUSH2 0x732 JUMPI DUP1 PUSH1 0x1F LT PUSH2 0x707 JUMPI PUSH2 0x100 DUP1 DUP4 SLOAD DIV MUL DUP4 MSTORE SWAP2 PUSH1 0x20 ADD SWAP2 PUSH2 0x732 JUMP JUMPDEST DUP3 ADD SWAP2 SWAP1 PUSH1 0x0 MSTORE PUSH1 0x20 PUSH1 0x0 KECCAK256 SWAP1 JUMPDEST DUP2 SLOAD DUP2 MSTORE SWAP1 PUSH1 0x1 ADD SWAP1 PUSH1 0x20 ADD DUP1 DUP4 GT PUSH2 0x715 JUMPI DUP3 SWAP1 SUB PUSH1 0x1F AND DUP3 ADD SWAP2 JUMPDEST POP POP POP SWAP2 DUP4 MSTORE POP POP PUSH1 0x2 DUP3 ADD SLOAD PUSH1 0x20 SWAP1 SWAP2 ADD SWAP1 PUSH1 0xFF AND PUSH1 0x4 DUP2 GT ISZERO PUSH2 0x759 JUMPI PUSH2 0x759 PUSH2 0x1216 JUMP JUMPDEST PUSH1 0x4 DUP2 GT ISZERO PUSH2 0x76A JUMPI PUSH2 0x76A PUSH2 0x1216 JUMP JUMPDEST DUP2 MSTORE PUSH1 0x20 ADD PUSH1 0x2 DUP3 ADD PUSH1 0x1 SWAP1 SLOAD SWAP1 PUSH2 0x100 EXP SWAP1 DIV PUSH1 0xFF AND PUSH1 0x4 DUP2 GT ISZERO PUSH2 0x792 JUMPI PUSH2 0x792 PUSH2 0x1216 JUMP JUMPDEST PUSH1 0x4 DUP2 GT ISZERO PUSH2 0x7A3 JUMPI PUSH2 0x7A3 PUSH2 0x1216 JUMP JUMPDEST DUP2 MSTORE PUSH1 0x3 SWAP2 SWAP1 SWAP2 ADD SLOAD PUSH1 0x20 SWAP2 DUP3 ADD MSTORE DUP2 MLOAD SWAP1 DUP3 ADD MLOAD PUSH1 0x40 DUP4 ADD MLOAD PUSH1 0x60 DUP5 ADD MLOAD PUSH1 0x80 SWAP1 SWAP5 ADD MLOAD SWAP3 SWAP12 SWAP2 SWAP11 POP SWAP9 POP SWAP2 SWAP7 POP SWAP5 POP SWAP3 POP POP POP JUMP JUMPDEST PUSH1 0x5 DUP2 DUP2 SLOAD DUP2 LT PUSH2 0x7EA JUMPI PUSH1 0x0 DUP1 REVERT JUMPDEST PUSH1 0x0 SWAP2 DUP3 MSTORE PUSH1 0x20 SWAP1 SWAP2 KECCAK256 PUSH1 0x5 SWAP1 SWAP2 MUL ADD DUP1 SLOAD PUSH1 0x1 DUP3 ADD DUP1 SLOAD PUSH1 0x1 PUSH1 0x1 PUSH1 0xA0 SHL SUB SWAP1 SWAP3 AND SWAP4 POP SWAP1 PUSH2 0x819 SWAP1 PUSH2 0x149A JUMP JUMPDEST DUP1 PUSH1 0x1F ADD PUSH1 0x20 DUP1 SWAP2 DIV MUL PUSH1 0x20 ADD PUSH1 0x40 MLOAD SWAP1 DUP2 ADD PUSH1 0x40 MSTORE DUP1 SWAP3 SWAP2 SWAP1 DUP2 DUP2 MSTORE PUSH1 0x20 ADD DUP3 DUP1 SLOAD PUSH2 0x845 SWAP1 PUSH2 0x149A JUMP JUMPDEST DUP1 ISZERO PUSH2 0x892 JUMPI DUP1 PUSH1 0x1F LT PUSH2 0x867 JUMPI PUSH2 0x100 DUP1 DUP4 SLOAD DIV MUL DUP4 MSTORE SWAP2 PUSH1 0x20 ADD SWAP2 PUSH2 0x892 JUMP JUMPDEST DUP3 ADD SWAP2 SWAP1 PUSH1 0x0 MSTORE PUSH1 0x20 PUSH1 0x0 KECCAK256 SWAP1 JUMPDEST DUP2 SLOAD DUP2 MSTORE SWAP1 PUSH1 0x1 ADD SWAP1 PUSH1 0x20 ADD DUP1 DUP4 GT PUSH2 0x875 JUMPI DUP3 SWAP1 SUB PUSH1 0x1F AND DUP3 ADD SWAP2 JUMPDEST POP POP POP POP PUSH1 0x2 DUP4 ADD SLOAD PUSH1 0x3 DUP5 ADD SLOAD PUSH1 0x4 SWAP1 SWAP5 ADD SLOAD SWAP3 SWAP4 PUSH1 0xFF SWAP1 SWAP2 AND SWAP3 SWAP1 SWAP2 POP DUP6 JUMP JUMPDEST PUSH1 0x6 DUP2 DUP2 SLOAD DUP2 LT PUSH2 0x8C4 JUMPI PUSH1 0x0 DUP1 REVERT JUMPDEST PUSH1 0x0 SWAP2 DUP3 MSTORE PUSH1 0x20 SWAP1 SWAP2 KECCAK256 PUSH1 0x4 SWAP1 SWAP2 MUL ADD DUP1 SLOAD PUSH1 0x1 DUP3 ADD DUP1 SLOAD PUSH1 0x1 PUSH1 0x1 PUSH1 0xA0 SHL SUB SWAP1 SWAP3 AND SWAP4 POP SWAP1 PUSH2 0x8F3 SWAP1 PUSH2 0x149A JUMP JUMPDEST DUP1 PUSH1 0x1F ADD PUSH1 0x20 DUP1 SWAP2 DIV MUL PUSH1 0x20 ADD PUSH1 0x40 MLOAD SWAP1 DUP2 ADD PUSH1 0x40 MSTORE DUP1 SWAP3 SWAP2 SWAP1 DUP2 DUP2 MSTORE PUSH1 0x20 ADD DUP3 DUP1 SLOAD PUSH2 0x91F SWAP1 PUSH2 0x149A JUMP JUMPDEST DUP1 ISZERO PUSH2 0x96C JUMPI DUP1 PUSH1 0x1F LT PUSH2 0x941 JUMPI PUSH2 0x100 DUP1 DUP4 SLOAD DIV MUL DUP4 MSTORE SWAP2 PUSH1 0x20 ADD SWAP2 PUSH2 0x96C JUMP JUMPDEST DUP3 ADD SWAP2 SWAP1 PUSH1 0x0 MSTORE PUSH1 0x20 PUSH1 0x0 KECCAK256 SWAP1 JUMPDEST DUP2 SLOAD DUP2 MSTORE SWAP1 PUSH1 0x1 ADD SWAP1 PUSH1 0x20 ADD DUP1 DUP4 GT PUSH2 0x94F JUMPI DUP3 SWAP1 SUB PUSH1 0x1F AND DUP3 ADD SWAP2 JUMPDEST POP POP POP POP PUSH1 0x2 DUP4 ADD SLOAD PUSH1 0x3 SWAP1 SWAP4 ADD SLOAD SWAP2 SWAP3 PUSH1 0xFF DUP1 DUP3 AND SWAP4 PUSH2 0x100 SWAP1 SWAP3 DIV AND SWAP2 POP DUP6 JUMP JUMPDEST PUSH1 0x0 DUP1 DUP4 PUSH1 0x4 DUP2 GT ISZERO PUSH2 0x9A4 JUMPI PUSH2 0x9A4 PUSH2 0x1216 JUMP JUMPDEST SUB PUSH2 0x9F6 JUMPI PUSH1 0x40 MLOAD PUSH3 0x461BCD PUSH1 0xE5 SHL DUP2 MSTORE PUSH1 0x20 PUSH1 0x4 DUP3 ADD DUP2 SWAP1 MSTORE PUSH1 0x24 DUP3 ADD MSTORE PUSH32 0x4A6565702069732064656661756C742C2063616E6E6F74207075726368617365 PUSH1 0x44 DUP3 ADD MSTORE PUSH1 0x64 ADD JUMPDEST PUSH1 0x40 MLOAD DUP1 SWAP2 SUB SWAP1 REVERT JUMPDEST PUSH2 0xA00 DUP6 DUP6 PUSH2 0xF36 JUMP JUMPDEST PUSH1 0x5 DUP1 SLOAD PUSH1 0x40 DUP1 MLOAD PUSH1 0xA0 DUP2 ADD DUP3 MSTORE PUSH1 0x1 PUSH1 0x1 PUSH1 0xA0 SHL SUB DUP9 AND DUP2 MSTORE PUSH1 0x20 DUP2 ADD DUP10 SWAP1 MSTORE SWAP2 SWAP3 SWAP2 SWAP1 DUP2 ADD DUP7 PUSH1 0x4 DUP2 GT ISZERO PUSH2 0xA39 JUMPI PUSH2 0xA39 PUSH2 0x1216 JUMP JUMPDEST DUP2 MSTORE PUSH1 0x20 DUP1 DUP3 ADD DUP8 SWAP1 MSTORE TIMESTAMP PUSH1 0x40 SWAP1 SWAP3 ADD SWAP2 SWAP1 SWAP2 MSTORE DUP3 SLOAD PUSH1 0x1 DUP1 DUP3 ADD DUP6 SSTORE PUSH1 0x0 SWAP5 DUP6 MSTORE SWAP4 DUP3 SWAP1 KECCAK256 DUP4 MLOAD PUSH1 0x5 SWAP1 SWAP3 MUL ADD DUP1 SLOAD PUSH1 0x1 PUSH1 0x1 PUSH1 0xA0 SHL SUB NOT AND PUSH1 0x1 PUSH1 0x1 PUSH1 0xA0 SHL SUB SWAP1 SWAP3 AND SWAP2 SWAP1 SWAP2 OR DUP2 SSTORE SWAP1 DUP3 ADD MLOAD SWAP2 SWAP3 SWAP1 SWAP2 SWAP1 DUP3 ADD SWAP1 PUSH2 0xA9A SWAP1 DUP3 PUSH2 0x1523 JUMP JUMPDEST POP PUSH1 0x40 DUP3 ADD MLOAD PUSH1 0x2 DUP3 ADD DUP1 SLOAD PUSH1 0xFF NOT AND PUSH1 0x1 DUP4 PUSH1 0x4 DUP2 GT ISZERO PUSH2 0xABE JUMPI PUSH2 0xABE PUSH2 0x1216 JUMP JUMPDEST MUL OR SWAP1 SSTORE POP PUSH1 0x60 DUP3 ADD MLOAD DUP2 PUSH1 0x3 ADD SSTORE PUSH1 0x80 DUP3 ADD MLOAD DUP2 PUSH1 0x4 ADD SSTORE POP POP PUSH1 0x3 DUP7 PUSH1 0x40 MLOAD PUSH2 0xAE9 SWAP2 SWAP1 PUSH2 0x1468 JUMP JUMPDEST SWAP1 DUP2 MSTORE PUSH1 0x40 MLOAD PUSH1 0x20 SWAP2 DUP2 SWAP1 SUB DUP3 ADD DUP2 KECCAK256 DUP1 SLOAD PUSH1 0x1 DUP1 DUP3 ADD DUP4 SSTORE PUSH1 0x0 SWAP3 DUP4 MSTORE SWAP4 DUP3 KECCAK256 ADD DUP5 SWAP1 SSTORE SWAP1 PUSH2 0xB1A SWAP1 DUP10 SWAP1 PUSH2 0x1468 JUMP JUMPDEST SWAP1 DUP2 MSTORE PUSH1 0x20 ADD PUSH1 0x40 MLOAD DUP1 SWAP2 SUB SWAP1 KECCAK256 PUSH1 0x0 DUP7 PUSH1 0x4 DUP2 GT ISZERO PUSH2 0xB3C JUMPI PUSH2 0xB3C PUSH2 0x1216 JUMP JUMPDEST PUSH1 0x4 DUP2 GT ISZERO PUSH2 0xB4D JUMPI PUSH2 0xB4D PUSH2 0x1216 JUMP JUMPDEST DUP2 MSTORE PUSH1 0x20 DUP2 ADD SWAP2 SWAP1 SWAP2 MSTORE PUSH1 0x40 ADD PUSH1 0x0 SWAP1 DUP2 KECCAK256 DUP1 SLOAD PUSH1 0xFF NOT AND SWAP3 ISZERO ISZERO SWAP3 SWAP1 SWAP3 OR SWAP1 SWAP2 SSTORE PUSH1 0x7 DUP1 SLOAD SWAP2 PUSH2 0xB7D DUP4 PUSH2 0x15E3 JUMP JUMPDEST SWAP2 SWAP1 POP SSTORE POP DUP6 PUSH1 0x40 MLOAD PUSH2 0xB90 SWAP2 SWAP1 PUSH2 0x1468 JUMP JUMPDEST PUSH1 0x40 MLOAD DUP1 SWAP2 SUB SWAP1 KECCAK256 DUP2 PUSH32 0x512460D6E58280D215DEE360D5317341C666799785F40017E87B987E99ED4B36 DUP8 DUP8 DUP8 TIMESTAMP PUSH1 0x40 MLOAD PUSH2 0xBCE SWAP5 SWAP4 SWAP3 SWAP2 SWAP1 PUSH2 0x160A JUMP JUMPDEST PUSH1 0x40 MLOAD DUP1 SWAP2 SUB SWAP1 LOG3 SWAP6 SWAP5 POP POP POP POP POP JUMP JUMPDEST PUSH1 0x60 PUSH1 0x3 DUP3 PUSH1 0x40 MLOAD PUSH2 0x382 SWAP2 SWAP1 PUSH2 0x1468 JUMP JUMPDEST PUSH1 0x0 PUSH2 0xBFD DUP5 DUP5 PUSH2 0xF36 JUMP JUMPDEST PUSH1 0x0 DUP5 PUSH1 0x40 MLOAD PUSH2 0xC0D SWAP2 SWAP1 PUSH2 0x1468 JUMP JUMPDEST SWAP1 DUP2 MSTORE PUSH1 0x20 ADD PUSH1 0x40 MLOAD DUP1 SWAP2 SUB SWAP1 KECCAK256 PUSH1 0x0 DUP4 PUSH1 0x4 DUP2 GT ISZERO PUSH2 0xC2F JUMPI PUSH2 0xC2F PUSH2 0x1216 JUMP JUMPDEST PUSH1 0x4 DUP2 GT ISZERO PUSH2 0xC40 JUMPI PUSH2 0xC40 PUSH2 0x1216 JUMP JUMPDEST DUP2 MSTORE PUSH1 0x20 DUP2 ADD SWAP2 SWAP1 SWAP2 MSTORE PUSH1 0x40 ADD PUSH1 0x0 KECCAK256 SLOAD PUSH1 0xFF AND PUSH2 0xC94 JUMPI PUSH1 0x40 MLOAD PUSH3 0x461BCD PUSH1 0xE5 SHL DUP2 MSTORE PUSH1 0x20 PUSH1 0x4 DUP3 ADD MSTORE PUSH1 0x11 PUSH1 0x24 DUP3 ADD MSTORE PUSH17 0x15995A1A58DB19481B9BDD081BDDDB9959 PUSH1 0x7A SHL PUSH1 0x44 DUP3 ADD MSTORE PUSH1 0x64 ADD PUSH2 0x9ED JUMP JUMPDEST PUSH1 0x0 PUSH1 0x1 DUP6 PUSH1 0x40 MLOAD PUSH2 0xCA6 SWAP2 SWAP1 PUSH2 0x1468 JUMP JUMPDEST SWAP1 DUP2 MSTORE PUSH1 0x40 MLOAD SWAP1 DUP2 SWAP1 SUB PUSH1 0x20 ADD SWAP1 KECCAK256 SLOAD PUSH1 0xFF AND SWAP1 POP DUP3 PUSH1 0x4 DUP2 GT ISZERO PUSH2 0xCCD JUMPI PUSH2 0xCCD PUSH2 0x1216 JUMP JUMPDEST DUP2 PUSH1 0x4 DUP2 GT ISZERO PUSH2 0xCDF JUMPI PUSH2 0xCDF PUSH2 0x1216 JUMP JUMPDEST SUB PUSH2 0xD2C JUMPI PUSH1 0x40 MLOAD PUSH3 0x461BCD PUSH1 0xE5 SHL DUP2 MSTORE PUSH1 0x20 PUSH1 0x4 DUP3 ADD MSTORE PUSH1 0x1A PUSH1 0x24 DUP3 ADD MSTORE PUSH32 0x416C7265616479207573696E6720746869732076656869636C65000000000000 PUSH1 0x44 DUP3 ADD MSTORE PUSH1 0x64 ADD PUSH2 0x9ED JUMP JUMPDEST PUSH1 0x6 DUP1 SLOAD PUSH1 0x40 DUP1 MLOAD PUSH1 0xA0 DUP2 ADD DUP3 MSTORE PUSH1 0x1 PUSH1 0x1 PUSH1 0xA0 SHL SUB DUP9 AND DUP2 MSTORE PUSH1 0x20 DUP2 ADD DUP10 SWAP1 MSTORE SWAP2 SWAP3 SWAP2 SWAP1 DUP2 ADD DUP5 PUSH1 0x4 DUP2 GT ISZERO PUSH2 0xD65 JUMPI PUSH2 0xD65 PUSH2 0x1216 JUMP JUMPDEST DUP2 MSTORE PUSH1 0x20 ADD DUP7 PUSH1 0x4 DUP2 GT ISZERO PUSH2 0xD7C JUMPI PUSH2 0xD7C PUSH2 0x1216 JUMP JUMPDEST DUP2 MSTORE TIMESTAMP PUSH1 0x20 SWAP2 DUP3 ADD MSTORE DUP3 SLOAD PUSH1 0x1 DUP1 DUP3 ADD DUP6 SSTORE PUSH1 0x0 SWAP5 DUP6 MSTORE SWAP4 DUP3 SWAP1 KECCAK256 DUP4 MLOAD PUSH1 0x4 SWAP1 SWAP3 MUL ADD DUP1 SLOAD PUSH1 0x1 PUSH1 0x1 PUSH1 0xA0 SHL SUB NOT AND PUSH1 0x1 PUSH1 0x1 PUSH1 0xA0 SHL SUB SWAP1 SWAP3 AND SWAP2 SWAP1 SWAP2 OR DUP2 SSTORE SWAP1 DUP3 ADD MLOAD SWAP2 SWAP3 SWAP1 SWAP2 SWAP1 DUP3 ADD SWAP1 PUSH2 0xDD2 SWAP1 DUP3 PUSH2 0x1523 JUMP JUMPDEST POP PUSH1 0x40 DUP3 ADD MLOAD PUSH1 0x2 DUP3 ADD DUP1 SLOAD PUSH1 0xFF NOT AND PUSH1 0x1 DUP4 PUSH1 0x4 DUP2 GT ISZERO PUSH2 0xDF6 JUMPI PUSH2 0xDF6 PUSH2 0x1216 JUMP JUMPDEST MUL OR SWAP1 SSTORE POP PUSH1 0x60 DUP3 ADD MLOAD PUSH1 0x2 DUP3 ADD DUP1 SLOAD PUSH2 0xFF00 NOT AND PUSH2 0x100 DUP4 PUSH1 0x4 DUP2 GT ISZERO PUSH2 0xE20 JUMPI PUSH2 0xE20 PUSH2 0x1216 JUMP JUMPDEST MUL OR SWAP1 SSTORE POP PUSH1 0x80 DUP3 ADD MLOAD DUP2 PUSH1 0x3 ADD SSTORE POP POP PUSH1 0x4 DUP7 PUSH1 0x40 MLOAD PUSH2 0xE41 SWAP2 SWAP1 PUSH2 0x1468 JUMP JUMPDEST SWAP1 DUP2 MSTORE PUSH1 0x40 MLOAD SWAP1 DUP2 SWAP1 SUB PUSH1 0x20 SWAP1 DUP2 ADD DUP3 KECCAK256 DUP1 SLOAD PUSH1 0x1 DUP2 DUP2 ADD DUP4 SSTORE PUSH1 0x0 SWAP3 DUP4 MSTORE SWAP3 SWAP1 SWAP2 KECCAK256 ADD DUP4 SWAP1 SSTORE DUP6 SWAP2 PUSH2 0xE75 SWAP1 DUP10 SWAP1 PUSH2 0x1468 JUMP JUMPDEST SWAP1 DUP2 MSTORE PUSH1 0x40 MLOAD SWAP1 DUP2 SWAP1 SUB PUSH1 0x20 ADD SWAP1 KECCAK256 DUP1 SLOAD PUSH1 0xFF NOT AND PUSH1 0x1 DUP4 PUSH1 0x4 DUP2 GT ISZERO PUSH2 0xE9E JUMPI PUSH2 0xE9E PUSH2 0x1216 JUMP JUMPDEST MUL OR SWAP1 SSTORE POP PUSH1 0x2 DUP7 PUSH1 0x40 MLOAD PUSH2 0xEB3 SWAP2 SWAP1 PUSH2 0x1468 JUMP JUMPDEST SWAP1 DUP2 MSTORE PUSH1 0x40 MLOAD SWAP1 DUP2 SWAP1 SUB PUSH1 0x20 ADD SWAP1 KECCAK256 DUP1 SLOAD SWAP1 PUSH1 0x0 PUSH2 0xED0 DUP4 PUSH2 0x15E3 JUMP JUMPDEST SWAP1 SWAP2 SSTORE POP POP PUSH1 0x8 DUP1 SLOAD SWAP1 PUSH1 0x0 PUSH2 0xEE5 DUP4 PUSH2 0x15E3 JUMP JUMPDEST SWAP2 SWAP1 POP SSTORE POP DUP6 PUSH1 0x40 MLOAD PUSH2 0xEF8 SWAP2 SWAP1 PUSH2 0x1468 JUMP JUMPDEST PUSH1 0x40 MLOAD DUP1 SWAP2 SUB SWAP1 KECCAK256 DUP2 PUSH32 0x5EAA3E210034E02346002C791265F593D2424C5321FAA8FA32C84D183F262AD9 DUP8 DUP6 DUP9 TIMESTAMP PUSH1 0x40 MLOAD PUSH2 0xBCE SWAP5 SWAP4 SWAP3 SWAP2 SWAP1 PUSH2 0x1639 JUMP JUMPDEST PUSH1 0xA DUP3 PUSH1 0x40 MLOAD PUSH2 0xF46 SWAP2 SWAP1 PUSH2 0x1468 JUMP JUMPDEST SWAP1 DUP2 MSTORE PUSH1 0x40 MLOAD SWAP1 DUP2 SWAP1 SUB PUSH1 0x20 ADD SWAP1 KECCAK256 SLOAD PUSH1 0xFF AND PUSH2 0x1067 JUMPI PUSH1 0x1 PUSH1 0xA DUP4 PUSH1 0x40 MLOAD PUSH2 0xF6F SWAP2 SWAP1 PUSH2 0x1468 JUMP JUMPDEST SWAP1 DUP2 MSTORE PUSH1 0x40 MLOAD SWAP1 DUP2 SWAP1 SUB PUSH1 0x20 ADD SWAP1 KECCAK256 DUP1 SLOAD SWAP2 ISZERO ISZERO PUSH1 0xFF NOT SWAP1 SWAP3 AND SWAP2 SWAP1 SWAP2 OR SWAP1 SSTORE PUSH1 0x9 DUP1 SLOAD SWAP1 PUSH1 0x0 PUSH2 0xF9F DUP4 PUSH2 0x15E3 JUMP JUMPDEST SWAP2 SWAP1 POP SSTORE POP PUSH1 0x1 PUSH1 0x0 DUP4 PUSH1 0x40 MLOAD PUSH2 0xFB6 SWAP2 SWAP1 PUSH2 0x1468 JUMP JUMPDEST SWAP1 DUP2 MSTORE PUSH1 0x40 DUP1 MLOAD SWAP2 DUP3 SWAP1 SUB PUSH1 0x20 SWAP1 DUP2 ADD DUP4 KECCAK256 PUSH1 0x0 DUP1 DUP1 MSTORE SWAP2 MSTORE SWAP1 DUP2 KECCAK256 DUP1 SLOAD PUSH1 0xFF NOT AND SWAP4 ISZERO ISZERO SWAP4 SWAP1 SWAP4 OR SWAP1 SWAP3 SSTORE PUSH1 0x1 SWAP1 PUSH2 0xFF0 SWAP1 DUP6 SWAP1 PUSH2 0x1468 JUMP JUMPDEST SWAP1 DUP2 MSTORE PUSH1 0x40 MLOAD SWAP1 DUP2 SWAP1 SUB PUSH1 0x20 ADD SWAP1 KECCAK256 DUP1 SLOAD PUSH1 0xFF NOT AND PUSH1 0x1 DUP4 PUSH1 0x4 DUP2 GT ISZERO PUSH2 0x1019 JUMPI PUSH2 0x1019 PUSH2 0x1216 JUMP JUMPDEST MUL OR SWAP1 SSTORE POP DUP2 PUSH1 0x40 MLOAD PUSH2 0x102C SWAP2 SWAP1 PUSH2 0x1468 JUMP JUMPDEST PUSH1 0x40 MLOAD SWAP1 DUP2 SWAP1 SUB DUP2 KECCAK256 TIMESTAMP DUP3 MSTORE SWAP1 PUSH32 0x9C529F0FC3A16860FE293102C3F3B645571379454234A401C75194A9B3F77C3F SWAP1 PUSH1 0x20 ADD PUSH1 0x40 MLOAD DUP1 SWAP2 SUB SWAP1 LOG2 JUMPDEST POP POP JUMP JUMPDEST PUSH1 0x40 MLOAD DUP1 PUSH1 0xA0 ADD PUSH1 0x40 MSTORE DUP1 PUSH1 0x5 SWAP1 PUSH1 0x20 DUP3 MUL DUP1 CALLDATASIZE DUP4 CALLDATACOPY POP SWAP2 SWAP3 SWAP2 POP POP JUMP JUMPDEST PUSH4 0x4E487B71 PUSH1 0xE0 SHL PUSH1 0x0 MSTORE PUSH1 0x41 PUSH1 0x4 MSTORE PUSH1 0x24 PUSH1 0x0 REVERT JUMPDEST PUSH1 0x0 DUP3 PUSH1 0x1F DUP4 ADD SLT PUSH2 0x10B0 JUMPI PUSH1 0x0 DUP1 REVERT JUMPDEST DUP2 CALLDATALOAD PUSH8 0xFFFFFFFFFFFFFFFF DUP1 DUP3 GT ISZERO PUSH2 0x10CB JUMPI PUSH2 0x10CB PUSH2 0x1089 JUMP JUMPDEST PUSH1 0x40 MLOAD PUSH1 0x1F DUP4 ADD PUSH1 0x1F NOT SWAP1 DUP2 AND PUSH1 0x3F ADD AND DUP2 ADD SWAP1 DUP3 DUP3 GT DUP2 DUP4 LT OR ISZERO PUSH2 0x10F3 JUMPI PUSH2 0x10F3 PUSH2 0x1089 JUMP JUMPDEST DUP2 PUSH1 0x40 MSTORE DUP4 DUP2 MSTORE DUP7 PUSH1 0x20 DUP6 DUP9 ADD ADD GT ISZERO PUSH2 0x110C JUMPI PUSH1 0x0 DUP1 REVERT JUMPDEST DUP4 PUSH1 0x20 DUP8 ADD PUSH1 0x20 DUP4 ADD CALLDATACOPY PUSH1 0x0 PUSH1 0x20 DUP6 DUP4 ADD ADD MSTORE DUP1 SWAP5 POP POP POP POP POP SWAP3 SWAP2 POP POP JUMP JUMPDEST PUSH1 0x0 PUSH1 0x20 DUP3 DUP5 SUB SLT ISZERO PUSH2 0x113E JUMPI PUSH1 0x0 DUP1 REVERT JUMPDEST DUP2 CALLDATALOAD PUSH8 0xFFFFFFFFFFFFFFFF DUP2 GT ISZERO PUSH2 0x1155 JUMPI PUSH1 0x0 DUP1 REVERT JUMPDEST PUSH2 0x1161 DUP5 DUP3 DUP6 ADD PUSH2 0x109F JUMP JUMPDEST SWAP5 SWAP4 POP POP POP POP JUMP JUMPDEST PUSH1 0x20 DUP1 DUP3 MSTORE DUP3 MLOAD DUP3 DUP3 ADD DUP2 SWAP1 MSTORE PUSH1 0x0 SWAP2 SWAP1 DUP5 DUP3 ADD SWAP1 PUSH1 0x40 DUP6 ADD SWAP1 DUP5 JUMPDEST DUP2 DUP2 LT ISZERO PUSH2 0x11A1 JUMPI DUP4 MLOAD DUP4 MSTORE SWAP3 DUP5 ADD SWAP3 SWAP2 DUP5 ADD SWAP2 PUSH1 0x1 ADD PUSH2 0x1185 JUMP JUMPDEST POP SWAP1 SWAP7 SWAP6 POP POP POP POP POP POP JUMP JUMPDEST PUSH1 0x0 PUSH1 0x20 DUP3 DUP5 SUB SLT ISZERO PUSH2 0x11BF JUMPI PUSH1 0x0 DUP1 REVERT JUMPDEST POP CALLDATALOAD SWAP2 SWAP1 POP JUMP JUMPDEST PUSH1 0x0 JUMPDEST DUP4 DUP2 LT ISZERO PUSH2 0x11E1 JUMPI DUP2 DUP2 ADD MLOAD DUP4 DUP3 ADD MSTORE PUSH1 0x20 ADD PUSH2 0x11C9 JUMP JUMPDEST POP POP PUSH1 0x0 SWAP2 ADD MSTORE JUMP JUMPDEST PUSH1 0x0 DUP2 MLOAD DUP1 DUP5 MSTORE PUSH2 0x1202 DUP2 PUSH1 0x20 DUP7 ADD PUSH1 0x20 DUP7 ADD PUSH2 0x11C6 JUMP JUMPDEST PUSH1 0x1F ADD PUSH1 0x1F NOT AND SWAP3 SWAP1 SWAP3 ADD PUSH1 0x20 ADD SWAP3 SWAP2 POP POP JUMP JUMPDEST PUSH4 0x4E487B71 PUSH1 0xE0 SHL PUSH1 0x0 MSTORE PUSH1 0x21 PUSH1 0x4 MSTORE PUSH1 0x24 PUSH1 0x0 REVERT JUMPDEST PUSH1 0x5 DUP2 LT PUSH2 0x124A JUMPI PUSH4 0x4E487B71 PUSH1 0xE0 SHL PUSH1 0x0 MSTORE PUSH1 0x21 PUSH1 0x4 MSTORE PUSH1 0x24 PUSH1 0x0 REVERT JUMPDEST SWAP1 MSTORE JUMP JUMPDEST PUSH1 0x1 PUSH1 0x1 PUSH1 0xA0 SHL SUB DUP7 AND DUP2 MSTORE PUSH1 0xA0 PUSH1 0x20 DUP3 ADD DUP2 SWAP1 MSTORE PUSH1 0x0 SWAP1 PUSH2 0x1272 SWAP1 DUP4 ADD DUP8 PUSH2 0x11EA JUMP JUMPDEST SWAP1 POP PUSH2 0x1281 PUSH1 0x40 DUP4 ADD DUP7 PUSH2 0x122C JUMP JUMPDEST PUSH1 0x60 DUP3 ADD SWAP4 SWAP1 SWAP4 MSTORE PUSH1 0x80 ADD MSTORE SWAP4 SWAP3 POP POP POP JUMP JUMPDEST PUSH1 0xA0 DUP2 ADD DUP2 DUP4 PUSH1 0x0 JUMPDEST PUSH1 0x5 DUP2 LT ISZERO PUSH2 0x12BE JUMPI DUP2 MLOAD ISZERO ISZERO DUP4 MSTORE PUSH1 0x20 SWAP3 DUP4 ADD SWAP3 SWAP1 SWAP2 ADD SWAP1 PUSH1 0x1 ADD PUSH2 0x129D JUMP JUMPDEST POP POP POP SWAP3 SWAP2 POP POP JUMP JUMPDEST PUSH1 0x20 DUP2 ADD PUSH2 0x12D5 DUP3 DUP5 PUSH2 0x122C JUMP JUMPDEST SWAP3 SWAP2 POP POP JUMP JUMPDEST PUSH1 0x1 PUSH1 0x1 PUSH1 0xA0 SHL SUB DUP7 AND DUP2 MSTORE PUSH1 0xA0 PUSH1 0x20 DUP3 ADD DUP2 SWAP1 MSTORE PUSH1 0x0 SWAP1 PUSH2 0x12FF SWAP1 DUP4 ADD DUP8 PUSH2 0x11EA JUMP JUMPDEST SWAP1 POP PUSH2 0x130E PUSH1 0x40 DUP4 ADD DUP7 PUSH2 0x122C JUMP JUMPDEST PUSH2 0x131B PUSH1 0x60 DUP4 ADD DUP6 PUSH2 0x122C JUMP JUMPDEST DUP3 PUSH1 0x80 DUP4 ADD MSTORE SWAP7 SWAP6 POP POP POP POP POP POP JUMP JUMPDEST DUP1 CALLDATALOAD PUSH1 0x1 PUSH1 0x1 PUSH1 0xA0 SHL SUB DUP2 AND DUP2 EQ PUSH2 0x1342 JUMPI PUSH1 0x0 DUP1 REVERT JUMPDEST SWAP2 SWAP1 POP JUMP JUMPDEST DUP1 CALLDATALOAD PUSH1 0x5 DUP2 LT PUSH2 0x1342 JUMPI PUSH1 0x0 DUP1 REVERT JUMPDEST PUSH1 0x0 DUP1 PUSH1 0x0 DUP1 PUSH1 0x80 DUP6 DUP8 SUB SLT ISZERO PUSH2 0x136C JUMPI PUSH1 0x0 DUP1 REVERT JUMPDEST DUP5 CALLDATALOAD PUSH8 0xFFFFFFFFFFFFFFFF DUP2 GT ISZERO PUSH2 0x1383 JUMPI PUSH1 0x0 DUP1 REVERT JUMPDEST PUSH2 0x138F DUP8 DUP3 DUP9 ADD PUSH2 0x109F JUMP JUMPDEST SWAP5 POP POP PUSH2 0x139E PUSH1 0x20 DUP7 ADD PUSH2 0x132B JUMP JUMPDEST SWAP3 POP PUSH2 0x13AC PUSH1 0x40 DUP7 ADD PUSH2 0x1347 JUMP JUMPDEST SWAP4 SWAP7 SWAP3 SWAP6 POP SWAP3 SWAP4 PUSH1 0x60 ADD CALLDATALOAD SWAP3 POP POP JUMP JUMPDEST PUSH1 0x0 DUP1 PUSH1 0x40 DUP4 DUP6 SUB SLT ISZERO PUSH2 0x13CF JUMPI PUSH1 0x0 DUP1 REVERT JUMPDEST DUP3 CALLDATALOAD PUSH8 0xFFFFFFFFFFFFFFFF DUP2 GT ISZERO PUSH2 0x13E6 JUMPI PUSH1 0x0 DUP1 REVERT JUMPDEST PUSH2 0x13F2 DUP6 DUP3 DUP7 ADD PUSH2 0x109F JUMP JUMPDEST SWAP3 POP POP PUSH2 0x1401 PUSH1 0x20 DUP5 ADD PUSH2 0x1347 JUMP JUMPDEST SWAP1 POP SWAP3 POP SWAP3 SWAP1 POP JUMP JUMPDEST PUSH1 0x0 DUP1 PUSH1 0x0 PUSH1 0x60 DUP5 DUP7 SUB SLT ISZERO PUSH2 0x141F JUMPI PUSH1 0x0 DUP1 REVERT JUMPDEST DUP4 CALLDATALOAD PUSH8 0xFFFFFFFFFFFFFFFF DUP2 GT ISZERO PUSH2 0x1436 JUMPI PUSH1 0x0 DUP1 REVERT JUMPDEST PUSH2 0x1442 DUP7 DUP3 DUP8 ADD PUSH2 0x109F JUMP JUMPDEST SWAP4 POP POP PUSH2 0x1451 PUSH1 0x20 DUP6 ADD PUSH2 0x132B JUMP JUMPDEST SWAP2 POP PUSH2 0x145F PUSH1 0x40 DUP6 ADD PUSH2 0x1347 JUMP JUMPDEST SWAP1 POP SWAP3 POP SWAP3 POP SWAP3 JUMP JUMPDEST PUSH1 0x0 DUP3 MLOAD PUSH2 0x147A DUP2 DUP5 PUSH1 0x20 DUP8 ADD PUSH2 0x11C6 JUMP JUMPDEST SWAP2 SWAP1 SWAP2 ADD SWAP3 SWAP2 POP POP JUMP JUMPDEST PUSH4 0x4E487B71 PUSH1 0xE0 SHL PUSH1 0x0 MSTORE PUSH1 0x32 PUSH1 0x4 MSTORE PUSH1 0x24 PUSH1 0x0 REVERT JUMPDEST PUSH1 0x1 DUP2 DUP2 SHR SWAP1 DUP3 AND DUP1 PUSH2 0x14AE JUMPI PUSH1 0x7F DUP3 AND SWAP2 POP JUMPDEST PUSH1 0x20 DUP3 LT DUP2 SUB PUSH2 0x14CE JUMPI PUSH4 0x4E487B71 PUSH1 0xE0 SHL PUSH1 0x0 MSTORE PUSH1 0x22 PUSH1 0x4 MSTORE PUSH1 0x24 PUSH1 0x0 REVERT JUMPDEST POP SWAP2 SWAP1 POP JUMP JUMPDEST PUSH1 0x1F DUP3 GT ISZERO PUSH2 0x151E JUMPI PUSH1 0x0 DUP2 DUP2 MSTORE PUSH1 0x20 DUP2 KECCAK256 PUSH1 0x1F DUP6 ADD PUSH1 0x5 SHR DUP2 ADD PUSH1 0x20 DUP7 LT ISZERO PUSH2 0x14FB JUMPI POP DUP1 JUMPDEST PUSH1 0x1F DUP6 ADD PUSH1 0x5 SHR DUP3 ADD SWAP2 POP JUMPDEST DUP2 DUP2 LT ISZERO PUSH2 0x151A JUMPI DUP3 DUP2 SSTORE PUSH1 0x1 ADD PUSH2 0x1507 JUMP JUMPDEST POP POP POP JUMPDEST POP POP POP JUMP JUMPDEST DUP2 MLOAD PUSH8 0xFFFFFFFFFFFFFFFF DUP2 GT ISZERO PUSH2 0x153D JUMPI PUSH2 0x153D PUSH2 0x1089 JUMP JUMPDEST PUSH2 0x1551 DUP2 PUSH2 0x154B DUP5 SLOAD PUSH2 0x149A JUMP JUMPDEST DUP5 PUSH2 0x14D4 JUMP JUMPDEST PUSH1 0x20 DUP1 PUSH1 0x1F DUP4 GT PUSH1 0x1 DUP2 EQ PUSH2 0x1586 JUMPI PUSH1 0x0 DUP5 ISZERO PUSH2 0x156E JUMPI POP DUP6 DUP4 ADD MLOAD JUMPDEST PUSH1 0x0 NOT PUSH1 0x3 DUP7 SWAP1 SHL SHR NOT AND PUSH1 0x1 DUP6 SWAP1 SHL OR DUP6 SSTORE PUSH2 0x151A JUMP JUMPDEST PUSH1 0x0 DUP6 DUP2 MSTORE PUSH1 0x20 DUP2 KECCAK256 PUSH1 0x1F NOT DUP7 AND SWAP2 JUMPDEST DUP3 DUP2 LT ISZERO PUSH2 0x15B5 JUMPI DUP9 DUP7 ADD MLOAD DUP3 SSTORE SWAP5 DUP5 ADD SWAP5 PUSH1 0x1 SWAP1 SWAP2 ADD SWAP1 DUP5 ADD PUSH2 0x1596 JUMP JUMPDEST POP DUP6 DUP3 LT ISZERO PUSH2 0x15D3 JUMPI DUP8 DUP6 ADD MLOAD PUSH1 0x0 NOT PUSH1 0x3 DUP9 SWAP1 SHL PUSH1 0xF8 AND SHR NOT AND DUP2 SSTORE JUMPDEST POP POP POP POP POP PUSH1 0x1 SWAP1 DUP2 SHL ADD SWAP1 SSTORE POP JUMP JUMPDEST PUSH1 0x0 PUSH1 0x1 DUP3 ADD PUSH2 0x1603 JUMPI PUSH4 0x4E487B71 PUSH1 0xE0 SHL PUSH1 0x0 MSTORE PUSH1 0x11 PUSH1 0x4 MSTORE PUSH1 0x24 PUSH1 0x0 REVERT JUMPDEST POP PUSH1 0x1 ADD SWAP1 JUMP JUMPDEST PUSH1 0x1 PUSH1 0x1 PUSH1 0xA0 SHL SUB DUP6 AND DUP2 MSTORE PUSH1 0x80 DUP2 ADD PUSH2 0x1627 PUSH1 0x20 DUP4 ADD DUP7 PUSH2 0x122C JUMP JUMPDEST PUSH1 0x40 DUP3 ADD SWAP4 SWAP1 SWAP4 MSTORE PUSH1 0x60 ADD MSTORE SWAP3 SWAP2 POP POP JUMP JUMPDEST PUSH1 0x1 PUSH1 0x1 PUSH1 0xA0 SHL SUB DUP6 AND DUP2 MSTORE PUSH1 0x80 DUP2 ADD PUSH2 0x1656 PUSH1 0x20 DUP4 ADD DUP7 PUSH2 0x122C JUMP JUMPDEST PUSH2 0x1663 PUSH1 0x40 DUP4 ADD DUP6 PUSH2 0x122C JUMP JUMPDEST DUP3 PUSH1 0x60 DUP4 ADD MSTORE SWAP6 SWAP5 POP POP POP POP POP JUMP INVALID LOG2 PUSH5 0x6970667358 0x22 SLT KECCAK256 0xCB LOG4 PUSH23 0x8510D4DB29F82164FEE145D27B04A72E61FA214C62215C PUSH25 0x8073CC0A3964736F6C63430008140033000000000000000000 "},"methodIdentifiers":{"getPlayerPurchases(string)":"b5e2410e","getPlayerSwitches(string)":"1bef2456","getPlayerVehicles(string)":"693d0ba2","getPurchase(uint256)":"3742a9f7","getStats()":"c59d4847","getSwitch(uint256)":"825f1276","hasPlayer(string)":"ce0ba5cd","owner()":"8da5cb5b","purchaseVehicle(string,address,uint8,uint256)":"962d2eaf","purchases(uint256)":"8392fe31","selectedVehicle(string)":"77b3a42e","switchVehicle(string,address,uint8)":"b7091cfd","switches(uint256)":"881ec10b","totalPlayers()":"f60cdcf6","totalPurchases()":"5962a941","totalSwitches(string)":"01264062","totalSwitches_()":"a611656c","vehiclesOwned(string,uint8)":"98fcdee7"}}}}}