{"contracts/EconomyManager.sol":{"EconomyManager":{"abi":[{"inputs":[],"stateMutability":"nonpayable","type":"constructor"},{"anonymous":false,"inputs":[{"indexed":true,"internalType":"string","name":"identifier","type":"string"},{"indexed":false,"internalType":"uint256","name":"oldBalance","type":"uint256"},{"indexed":false,"internalType":"uint256","name":"newBalance","type":"uint256"},{"indexed":false,"internalType":"uint256","name":"timestamp","type":"uint256"}],"name":"BalanceUpdated","type":"event"},{"anonymous":false,"inputs":[{"indexed":true,"internalType":"string","name":"identifier","type":"string"},{"indexed":false,"internalType":"uint256","name":"amount","type":"uint256"},{"indexed":false,"internalType":"uint256","name":"streak","type":"uint256"},{"indexed":false,"internalType":"uint256","name":"timestamp","type":"uint256"}],"name":"DailyRewardClaimed","type":"event"},{"anonymous":false,"inputs":[{"indexed":true,"internalType":"string","name":"identifier","type":"string"},{"indexed":false,"internalType":"uint256","name":"timestamp","type":"uint256"}],"name":"NewPlayer","type":"event"},{"anonymous":false,"inputs":[{"indexed":true,"internalType":"uint256","name":"rewardId","type":"uint256"},{"indexed":true,"internalType":"string","name":"identifier","type":"string"},{"indexed":false,"internalType":"address","name":"playerAddress","type":"address"},{"indexed":false,"internalType":"string","name":"rewardType","type":"string"},{"indexed":false,"internalType":"uint256","name":"amount","type":"uint256"},{"indexed":false,"internalType":"uint256","name":"timestamp","type":"uint256"}],"name":"RewardClaimed","type":"event"},{"anonymous":false,"inputs":[{"indexed":true,"internalType":"uint256","name":"transactionId","type":"uint256"},{"indexed":true,"internalType":"string","name":"identifier","type":"string"},{"indexed":false,"internalType":"address","name":"playerAddress","type":"address"},{"indexed":false,"internalType":"enum EconomyManager.TransactionType","name":"transactionType","type":"uint8"},{"indexed":false,"internalType":"int256","name":"amount","type":"int256"},{"indexed":false,"internalType":"uint256","name":"balanceAfter","type":"uint256"},{"indexed":false,"internalType":"uint256","name":"timestamp","type":"uint256"}],"name":"TransactionRecorded","type":"event"},{"inputs":[],"name":"baseRewardAmount","outputs":[{"internalType":"uint256","name":"","type":"uint256"}],"stateMutability":"view","type":"function"},{"inputs":[{"internalType":"string","name":"_identifier","type":"string"},{"internalType":"address","name":"_playerAddress","type":"address"},{"internalType":"enum EconomyManager.TransactionType[]","name":"_types","type":"uint8[]"},{"internalType":"int256[]","name":"_amounts","type":"int256[]"},{"internalType":"string[]","name":"_descriptions","type":"string[]"}],"name":"batchRecordTransactions","outputs":[{"internalType":"uint256[]","name":"","type":"uint256[]"}],"stateMutability":"nonpayable","type":"function"},{"inputs":[{"internalType":"string","name":"_identifier","type":"string"}],"name":"calculateDailyReward","outputs":[{"internalType":"uint256","name":"rewardAmount","type":"uint256"},{"internalType":"uint256","name":"projectedStreak","type":"uint256"}],"stateMutability":"view","type":"function"},{"inputs":[{"internalType":"string","name":"_identifier","type":"string"},{"internalType":"address","name":"_playerAddress","type":"address"}],"name":"claimDailyReward","outputs":[{"internalType":"uint256","name":"rewardAmount","type":"uint256"},{"internalType":"uint256","name":"newStreak","type":"uint256"}],"stateMutability":"nonpayable","type":"function"},{"inputs":[{"internalType":"string","name":"_identifier","type":"string"},{"internalType":"address","name":"_playerAddress","type":"address"},{"internalType":"string","name":"_rewardId","type":"string"},{"internalType":"uint256","name":"_amount","type":"uint256"},{"internalType":"string","name":"_rewardType","type":"string"}],"name":"claimReward","outputs":[{"internalType":"uint256","name":"","type":"uint256"}],"stateMutability":"nonpayable","type":"function"},{"inputs":[{"internalType":"string","name":"","type":"string"}],"name":"dailyStreaks","outputs":[{"internalType":"uint256","name":"currentStreak","type":"uint256"},{"internalType":"uint256","name":"longestStreak","type":"uint256"},{"internalType":"uint256","name":"lastClaimDate","type":"uint256"},{"internalType":"uint256","name":"totalClaims","type":"uint256"}],"stateMutability":"view","type":"function"},{"inputs":[],"name":"emergencyWithdraw","outputs":[],"stateMutability":"nonpayable","type":"function"},{"inputs":[{"internalType":"string","name":"_identifier","type":"string"}],"name":"getBalance","outputs":[{"internalType":"uint256","name":"","type":"uint256"}],"stateMutability":"view","type":"function"},{"inputs":[{"internalType":"string","name":"_identifier","type":"string"}],"name":"getDailyStreak","outputs":[{"internalType":"uint256","name":"currentStreak","type":"uint256"},{"internalType":"uint256","name":"longestStreak","type":"uint256"},{"internalType":"uint256","name":"lastClaimDate","type":"uint256"},{"internalType":"uint256","name":"totalClaims","type":"uint256"},{"internalType":"bool","name":"canClaimToday","type":"bool"}],"stateMutability":"view","type":"function"},{"inputs":[{"internalType":"string","name":"_identifier","type":"string"}],"name":"getPlayerEconomy","outputs":[{"internalType":"uint256","name":"totalEarned","type":"uint256"},{"internalType":"uint256","name":"totalSpent","type":"uint256"},{"internalType":"uint256","name":"currentBalance","type":"uint256"},{"internalType":"uint256","name":"lastWeekBalance","type":"uint256"},{"internalType":"uint256","name":"lifetimeBalance","type":"uint256"},{"internalType":"uint256","name":"transactionCount","type":"uint256"}],"stateMutability":"view","type":"function"},{"inputs":[{"internalType":"string","name":"_identifier","type":"string"}],"name":"getPlayerRewards","outputs":[{"internalType":"uint256[]","name":"","type":"uint256[]"}],"stateMutability":"view","type":"function"},{"inputs":[{"internalType":"string","name":"_identifier","type":"string"}],"name":"getPlayerTransactions","outputs":[{"internalType":"uint256[]","name":"","type":"uint256[]"}],"stateMutability":"view","type":"function"},{"inputs":[{"internalType":"uint256","name":"_rewardId","type":"uint256"}],"name":"getRewardClaim","outputs":[{"internalType":"address","name":"playerAddress","type":"address"},{"internalType":"string","name":"identifier","type":"string"},{"internalType":"string","name":"rewardId","type":"string"},{"internalType":"uint256","name":"amount","type":"uint256"},{"internalType":"uint256","name":"timestamp","type":"uint256"}],"stateMutability":"view","type":"function"},{"inputs":[],"name":"getStats","outputs":[{"internalType":"uint256","name":"_totalTransactions","type":"uint256"},{"internalType":"uint256","name":"_totalRewardsClaimed","type":"uint256"},{"internalType":"uint256","name":"_totalPlayers","type":"uint256"},{"internalType":"uint256","name":"_totalCurrencyCirculation","type":"uint256"},{"internalType":"address","name":"_owner","type":"address"}],"stateMutability":"view","type":"function"},{"inputs":[{"internalType":"uint256","name":"_transactionId","type":"uint256"}],"name":"getTransaction","outputs":[{"internalType":"address","name":"playerAddress","type":"address"},{"internalType":"string","name":"identifier","type":"string"},{"internalType":"enum EconomyManager.TransactionType","name":"transactionType","type":"uint8"},{"internalType":"int256","name":"amount","type":"int256"},{"internalType":"uint256","name":"balanceAfter","type":"uint256"},{"internalType":"string","name":"description","type":"string"},{"internalType":"uint256","name":"timestamp","type":"uint256"}],"stateMutability":"view","type":"function"},{"inputs":[{"internalType":"string","name":"","type":"string"},{"internalType":"string","name":"","type":"string"}],"name":"hasClaimedReward","outputs":[{"internalType":"bool","name":"","type":"bool"}],"stateMutability":"view","type":"function"},{"inputs":[{"internalType":"string","name":"","type":"string"}],"name":"hasPlayer","outputs":[{"internalType":"bool","name":"","type":"bool"}],"stateMutability":"view","type":"function"},{"inputs":[{"internalType":"string","name":"_identifier","type":"string"},{"internalType":"string","name":"_rewardId","type":"string"}],"name":"hasPlayerClaimedReward","outputs":[{"internalType":"bool","name":"","type":"bool"}],"stateMutability":"view","type":"function"},{"inputs":[],"name":"maxStreakBonus","outputs":[{"internalType":"uint256","name":"","type":"uint256"}],"stateMutability":"view","type":"function"},{"inputs":[],"name":"maxTransactionAmount","outputs":[{"internalType":"uint256","name":"","type":"uint256"}],"stateMutability":"view","type":"function"},{"inputs":[],"name":"minTransactionInterval","outputs":[{"internalType":"uint256","name":"","type":"uint256"}],"stateMutability":"view","type":"function"},{"inputs":[],"name":"owner","outputs":[{"internalType":"address","name":"","type":"address"}],"stateMutability":"view","type":"function"},{"inputs":[{"internalType":"string","name":"","type":"string"}],"name":"playerEconomy","outputs":[{"internalType":"uint256","name":"totalEarned","type":"uint256"},{"internalType":"uint256","name":"totalSpent","type":"uint256"},{"internalType":"uint256","name":"currentBalance","type":"uint256"},{"internalType":"uint256","name":"lastWeekBalance","type":"uint256"},{"internalType":"uint256","name":"lifetimeBalance","type":"uint256"},{"internalType":"uint256","name":"transactionCount","type":"uint256"},{"internalType":"uint256","name":"lastTransactionTime","type":"uint256"},{"internalType":"bool","name":"exists","type":"bool"}],"stateMutability":"view","type":"function"},{"inputs":[{"internalType":"string","name":"_identifier","type":"string"}],"name":"playerExists","outputs":[{"internalType":"bool","name":"","type":"bool"}],"stateMutability":"view","type":"function"},{"inputs":[{"internalType":"string","name":"","type":"string"},{"internalType":"uint256","name":"","type":"uint256"}],"name":"playerRewardIds","outputs":[{"internalType":"uint256","name":"","type":"uint256"}],"stateMutability":"view","type":"function"},{"inputs":[{"internalType":"string","name":"","type":"string"},{"internalType":"uint256","name":"","type":"uint256"}],"name":"playerTransactionIds","outputs":[{"internalType":"uint256","name":"","type":"uint256"}],"stateMutability":"view","type":"function"},{"inputs":[{"internalType":"string","name":"_identifier","type":"string"},{"internalType":"address","name":"_playerAddress","type":"address"},{"internalType":"enum EconomyManager.TransactionType","name":"_transactionType","type":"uint8"},{"internalType":"int256","name":"_amount","type":"int256"},{"internalType":"string","name":"_description","type":"string"}],"name":"recordTransaction","outputs":[{"internalType":"uint256","name":"","type":"uint256"}],"stateMutability":"nonpayable","type":"function"},{"inputs":[{"internalType":"uint256","name":"","type":"uint256"}],"name":"rewardClaims","outputs":[{"internalType":"address","name":"playerAddress","type":"address"},{"internalType":"string","name":"identifier","type":"string"},{"internalType":"string","name":"rewardId","type":"string"},{"internalType":"uint256","name":"amount","type":"uint256"},{"internalType":"uint256","name":"timestamp","type":"uint256"},{"internalType":"bool","name":"exists","type":"bool"}],"stateMutability":"view","type":"function"},{"inputs":[],"name":"streakBonusMultiplier","outputs":[{"internalType":"uint256","name":"","type":"uint256"}],"stateMutability":"view","type":"function"},{"inputs":[],"name":"totalCurrencyCirculation","outputs":[{"internalType":"uint256","name":"","type":"uint256"}],"stateMutability":"view","type":"function"},{"inputs":[],"name":"totalPlayers","outputs":[{"internalType":"uint256","name":"","type":"uint256"}],"stateMutability":"view","type":"function"},{"inputs":[],"name":"totalRewardsClaimed","outputs":[{"internalType":"uint256","name":"","type":"uint256"}],"stateMutability":"view","type":"function"},{"inputs":[],"name":"totalTransactions","outputs":[{"internalType":"uint256","name":"","type":"uint256"}],"stateMutability":"view","type":"function"},{"inputs":[{"internalType":"uint256","name":"","type":"uint256"}],"name":"transactions","outputs":[{"internalType":"address","name":"playerAddress","type":"address"},{"internalType":"string","name":"identifier","type":"string"},{"internalType":"enum EconomyManager.TransactionType","name":"transactionType","type":"uint8"},{"internalType":"int256","name":"amount","type":"int256"},{"internalType":"uint256","name":"balanceAfter","type":"uint256"},{"internalType":"string","name":"description","type":"string"},{"internalType":"uint256","name":"timestamp","type":"uint256"},{"internalType":"bool","name":"exists","type":"bool"}],"stateMutability":"view","type":"function"},{"inputs":[{"internalType":"address","name":"_newOwner","type":"address"}],"name":"transferOwnership","outputs":[],"stateMutability":"nonpayable","type":"function"},{"inputs":[{"internalType":"string","name":"_identifier","type":"string"},{"internalType":"address","name":"_playerAddress","type":"address"},{"internalType":"uint256","name":"_newBalance","type":"uint256"},{"internalType":"string","name":"_reason","type":"string"}],"name":"updateBalance","outputs":[],"stateMutability":"nonpayable","type":"function"},{"inputs":[{"internalType":"string","name":"_identifier","type":"string"},{"internalType":"uint256","name":"_balance","type":"uint256"}],"name":"updateLastWeekBalance","outputs":[],"stateMutability":"nonpayable","type":"function"},{"inputs":[{"internalType":"uint256","name":"_baseReward","type":"uint256"},{"internalType":"uint256","name":"_streakBonus","type":"uint256"},{"internalType":"uint256","name":"_maxBonus","type":"uint256"}],"name":"updateRewardConfig","outputs":[],"stateMutability":"nonpayable","type":"function"},{"inputs":[{"internalType":"uint256","name":"_maxAmount","type":"uint256"},{"internalType":"uint256","name":"_minInterval","type":"uint256"}],"name":"updateTransactionLimits","outputs":[],"stateMutability":"nonpayable","type":"function"}],"evm":{"bytecode":{"linkReferences":{},"object":"60806040526103e8600d556064600e55611388600f55620f4240601055600560115534801561002d57600080fd5b50600080546001600160a01b03191633178155600181905560028190556003819055600455613ad2806100616000396000f3fe608060405234801561001057600080fd5b506004361061023d5760003560e01c80638da5cb5b1161013b578063c8c8ebe4116100b8578063de9e44461161007c578063de9e4446146106a3578063f11f43b2146106b6578063f2fde38b146106bf578063f60cdcf6146106d2578063f8a9dd60146106db57600080fd5b8063c8c8ebe41461061e578063ce0ba5cd14610627578063d416f21314610655578063d7d64f3314610692578063db2e21bc1461069b57600080fd5b8063a34b0f76116100ff578063a34b0f7614610594578063ad31ff891461059d578063b9a60038146105b0578063c36b3aa9146105b9578063c59d4847146105de57600080fd5b80638da5cb5b146104e557806395f81150146105105780639ace38c2146105195780639c1a2893146105405780639ccc67481461054957600080fd5b80633bdd4986116101c957806368dd9d1b1161018d57806368dd9d1b146104655780636f3ba889146104785780637741716c1461048b5780637ebb640a146104af5780638290bde9146104c257600080fd5b80633bdd49861461037a57806347d256de1461041957806348ec94011461042c5780634d69b9741461043f5780635712f5581461045257600080fd5b806333ea3dc81161021057806333ea3dc8146102e45780633578686d1461030a57806338be54f9146103325780633a51d246146103475780633ae7cb061461035a57600080fd5b80630964ae75146102425780630ecad8531461026857806310256b05146102c85780632217674b146102db575b600080fd5b610255610250366004612f4e565b61071b565b6040519081526020015b60405180910390f35b6102a8610276366004612f92565b8051602081830181018051600c8252928201919093012091528054600182015460028301546003909301549192909184565b60408051948552602085019390935291830152606082015260800161025f565b6102556102d6366004612ff1565b61075b565b610255600f5481565b6102f76102f236600461307f565b610c1e565b60405161025f9796959493929190613120565b61031d610318366004613184565b610e6a565b6040805192835260208301919091520161025f565b6103456103403660046131d1565b6112ae565b005b610255610355366004612f92565b61157e565b61036d61036836600461335b565b6115a9565b60405161025f9190613466565b6103dc610388366004612f92565b80516020818301810180516006808352938301929094019190912092905281546001830154600284015460038501546004860154600587015495870154600790970154949693959294919390929160ff1688565b604080519889526020890197909752958701949094526060860192909252608085015260a084015260c0830152151560e08201526101000161025f565b61036d610427366004612f92565b611bef565b61025561043a3660046134aa565b611c5f565b61036d61044d366004612f92565b6121e1565b610345610460366004612f4e565b6121f3565b610255610473366004612f4e565b6122ac565b610345610486366004613515565b6122d7565b61049e61049936600461307f565b61230f565b60405161025f959493929190613541565b6103456104bd36600461358c565b612506565b6104d56104d03660046135ae565b61253b565b604051901515815260200161025f565b6000546104f8906001600160a01b031681565b6040516001600160a01b03909116815260200161025f565b610255600d5481565b61052c61052736600461307f565b612585565b60405161025f989796959493929190613611565b610255600e5481565b6104d56105573660046135ae565b8151602081840181018051600b82529282019482019490942091909352815180830184018051928152908401929093019190912091525460ff1681565b61025560025481565b6104d56105ab366004612f92565b6126ed565b61025560015481565b6105cc6105c736600461307f565b612718565b60405161025f96959493929190613680565b6001546002546003546004546000546040805195865260208601949094529284019190915260608301526001600160a01b0316608082015260a00161025f565b61025560105481565b6104d5610635366004612f92565b805160208183018101805160088252928201919093012091525460ff1681565b610668610663366004612f92565b61286c565b6040805195865260208601949094529284019190915260608301521515608082015260a00161025f565b61025560115481565b6103456128f9565b61031d6106b1366004612f92565b612960565b61025560045481565b6103456106cd3660046136d7565b612a3c565b61025560035481565b6106ee6106e9366004612f92565b612ad0565b604080519687526020870195909552938501929092526060840152608083015260a082015260c00161025f565b8151602081840181018051600782529282019185019190912091905280548290811061074657600080fd5b90600052602060002001600091509150505481565b600080546001600160a01b0316331461078f5760405162461bcd60e51b8152600401610786906136f9565b60405180910390fd5b826000036107d75760405162461bcd60e51b8152602060048201526015602482015274416d6f756e742063616e6e6f74206265207a65726f60581b6044820152606401610786565b601054600084136107f0576107eb84613746565b6107f2565b835b11156108395760405162461bcd60e51b8152602060048201526016602482015275416d6f756e742065786365656473206d6178696d756d60501b6044820152606401610786565b6008866040516108499190613762565b9081526040519081900360200190205460ff1661086c5761086c86614e20612b75565b600060068760405161087e9190613762565b9081526020016040518091039020905060008412156108f85760115481600601546108a9919061377e565b4210156108f85760405162461bcd60e51b815260206004820152601860248201527f5472616e73616374696f6e20746f6f206672657175656e7400000000000000006044820152606401610786565b60028101546000851315610972578482600201600082825461091a919061377e565b909155505081548590839060009061093390849061377e565b925050819055508482600401600082825461094e919061377e565b925050819055508460046000828254610967919061377e565b90915550610a009050565b600061097d86613746565b905080836002015410156109ca5760405162461bcd60e51b8152602060048201526014602482015273496e73756666696369656e742062616c616e636560601b6044820152606401610786565b808360020160008282546109de9190613791565b92505081905550808360010160008282546109f9919061377e565b9091555050505b600282015460015460408051610100810182526001600160a01b038b168152602081018c9052908101896008811115610a3b57610a3b6130e8565b815260208082018a90526040808301869052606083018a9052426080840152600160a090930183905260008581526005835220835181546001600160a01b0319166001600160a01b03909116178155908301519091820190610a9d908261382d565b50604082015160028201805460ff19166001836008811115610ac157610ac16130e8565b0217905550606082015160038201556080820151600482015560a08201516005820190610aee908261382d565b5060c0820151600682015560e0909101516007918201805460ff1916911515919091179055604051610b21908c90613762565b908152604051602091819003820190208054600181018255600091825291812090910182905560058501805491610b57836138ec565b909155505042600685015560018054906000610b72836138ec565b919050555089604051610b859190613762565b6040518091039020817fc9fa5f81f5df11ab387e6fe895b928d540618f9bd047cd5e8f7562073ab4600d8b8b8b8742604051610bc5959493929190613905565b60405180910390a389604051610bdb9190613762565b6040805191829003822085835260208301859052428383015290519091600080516020613a7d833981519152919081900360600190a29998505050505050505050565b600060606000806000606060006001548810610c7c5760405162461bcd60e51b815260206004820152601a60248201527f5472616e73616374696f6e20646f6573206e6f742065786973740000000000006044820152606401610786565b60008881526005602090815260408083208151610100810190925280546001600160a01b031682526001810180549293919291840191610cbb906137a4565b80601f0160208091040260200160405190810160405280929190818152602001828054610ce7906137a4565b8015610d345780601f10610d0957610100808354040283529160200191610d34565b820191906000526020600020905b815481529060010190602001808311610d1757829003601f168201915b5050509183525050600282015460209091019060ff166008811115610d5b57610d5b6130e8565b6008811115610d6c57610d6c6130e8565b81526020016003820154815260200160048201548152602001600582018054610d94906137a4565b80601f0160208091040260200160405190810160405280929190818152602001828054610dc0906137a4565b8015610e0d5780601f10610de257610100808354040283529160200191610e0d565b820191906000526020600020905b815481529060010190602001808311610df057829003601f168201915b5050509183525050600682015460208083019190915260079092015460ff161515604091820152825191830151908301516060840151608085015160a086015160c090960151949f939e50919c509a509850919650945092505050565b6000805481906001600160a01b03163314610e975760405162461bcd60e51b8152600401610786906136f9565b600884604051610ea79190613762565b9081526040519081900360200190205460ff16610eca57610eca84614e20612b75565b6000600c85604051610edc9190613762565b908152602001604051809103902090506000610ef6612d7d565b905081600201548111610f435760405162461bcd60e51b8152602060048201526015602482015274416c726561647920636c61696d656420746f64617960581b6044820152606401610786565b6002820154610f5390600161377e565b8103610f71578154826000610f67836138ec565b9190505550610f76565b600182555b600182015482541115610f8b57815460018301555b6000600e5460018460000154610fa19190613791565b610fab919061393e565b9050600f54811115610fbc5750600f545b80600d54610fca919061377e565b94506000600688604051610fde9190613762565b90815260405190819003602001902060028101805491925087906000611004838561377e565b909155505081548790839060009061101d90849061377e565b9250508190555086826004016000828254611038919061377e565b925050819055508660046000828254611051919061377e565b90915550506002850184905560038501805490600061106f836138ec565b909155505060015460408051610100810182526001600160a01b038b168152602081018c905290810160048152602001898152602001846002015481526020016110bc8860000154612d91565b6040516020016110cc9190613955565b60408051808303601f1901815291815290825242602080840191909152600192820183905260008581526005825291909120835181546001600160a01b0319166001600160a01b0390911617815590830151909182019061112d908261382d565b50604082015160028201805460ff19166001836008811115611151576111516130e8565b0217905550606082015160038201556080820151600482015560a0820151600582019061117e908261382d565b5060c0820151600682015560e0909101516007918201805460ff19169115159190911790556040516111b1908c90613762565b9081526040516020918190038201902080546001810182556000918252918120909101829055600584018054916111e7836138ec565b9091555050600180549060006111fc836138ec565b91905055508960405161120f9190613762565b6040805191829003822088548b845260208401524283830152905190917f39e4f068f478cd08686b9310d1a9771a1cec66838a6e1718be63c490624647dd919081900360600190a2896040516112659190613762565b6040805191829003822060028601548584526020840152428383015290519091600080516020613a7d833981519152919081900360600190a25050925493505050509250929050565b6000546001600160a01b031633146112d85760405162461bcd60e51b8152600401610786906136f9565b6008846040516112e89190613762565b9081526040519081900360200190205460ff1661130e576113098483612b75565b611578565b60006006856040516113209190613762565b90815260405190819003602001902060028101549091506000611343828661399a565b60028401869055905060008113156113a85780836000016000828254611369919061377e565b9250508190555080836004016000828254611384919061377e565b92505081905550806004600082825461139d919061377e565b909155506113d39050565b60008112156113d3576113ba81613746565b8360010160008282546113cd919061377e565b90915550505b60015460408051610100810182526001600160a01b0389168152602081018a905290810160078152602080820185905260408083018a905260608301899052426080840152600160a090930183905260008581526005835220835181546001600160a01b0319166001600160a01b0390911617815590830151909182019061145b908261382d565b50604082015160028201805460ff1916600183600881111561147f5761147f6130e8565b0217905550606082015160038201556080820151600482015560a082015160058201906114ac908261382d565b5060c0820151600682015560e0909101516007918201805460ff19169115159190911790556040516114df908a90613762565b908152604051602091819003820190208054600181018255600091825291812090910182905560058501805491611515836138ec565b90915550506001805490600061152a836138ec565b91905055508760405161153d9190613762565b6040805191829003822085835260208301899052428383015290519091600080516020613a7d833981519152919081900360600190a2505050505b50505050565b60006006826040516115909190613762565b9081526020016040518091039020600201549050919050565b6000546060906001600160a01b031633146115d65760405162461bcd60e51b8152600401610786906136f9565b825184511461161f5760405162461bcd60e51b8152602060048201526015602482015274082e4e4c2f240d8cadccee8d040dad2e6dac2e8c6d605b1b6044820152606401610786565b81518351146116685760405162461bcd60e51b8152602060048201526015602482015274082e4e4c2f240d8cadccee8d040dad2e6dac2e8c6d605b1b6044820152606401610786565b6008866040516116789190613762565b9081526040519081900360200190205460ff1661169b5761169b86614e20612b75565b600084516001600160401b038111156116b6576116b6612e99565b6040519080825280602002602001820160405280156116df578160200160208202803683370190505b50905060006006886040516116f49190613762565b9081526020016040518091039020905060005b8651811015611bdc57858181518110611722576117226139c1565b60200260200101516000036117715760405162461bcd60e51b8152602060048201526015602482015274416d6f756e742063616e6e6f74206265207a65726f60581b6044820152606401610786565b600082600201549050600087838151811061178e5761178e6139c1565b6020026020010151131561186e578682815181106117ae576117ae6139c1565b60200260200101518360020160008282546117c9919061377e565b925050819055508682815181106117e2576117e26139c1565b60200260200101518360000160008282546117fd919061377e565b92505081905550868281518110611816576118166139c1565b6020026020010151836004016000828254611831919061377e565b9250508190555086828151811061184a5761184a6139c1565b602002602001015160046000828254611863919061377e565b909155506119169050565b6000878381518110611882576118826139c1565b602002602001015161189390613746565b905080846002015410156118e05760405162461bcd60e51b8152602060048201526014602482015273496e73756666696369656e742062616c616e636560601b6044820152606401610786565b808460020160008282546118f49190613791565b925050819055508084600101600082825461190f919061377e565b9091555050505b600083600201549050600060015490506040518061010001604052808c6001600160a01b031681526020018d81526020018b8681518110611959576119596139c1565b60200260200101516008811115611972576119726130e8565b81526020018a8681518110611989576119896139c1565b602002602001015181526020018381526020018986815181106119ae576119ae6139c1565b602090810291909101810151825242828201526001604092830181905260008581526005835292909220835181546001600160a01b0319166001600160a01b03909116178155908301519091820190611a07908261382d565b50604082015160028201805460ff19166001836008811115611a2b57611a2b6130e8565b0217905550606082015160038201556080820151600482015560a08201516005820190611a58908261382d565b5060c0820151600682015560e0909101516007918201805460ff1916911515919091179055604051611a8b908e90613762565b908152604051602091819003820190208054600181018255600091825291812090910182905560058601805491611ac1836138ec565b909155505060018054906000611ad6836138ec565b919050555080868581518110611aee57611aee6139c1565b6020026020010181815250508b604051611b089190613762565b6040518091039020817fc9fa5f81f5df11ab387e6fe895b928d540618f9bd047cd5e8f7562073ab4600d8d8d8881518110611b4557611b456139c1565b60200260200101518d8981518110611b5f57611b5f6139c1565b60200260200101518742604051611b7a959493929190613905565b60405180910390a38b604051611b909190613762565b6040805191829003822085835260208301859052428383015290519091600080516020613a7d833981519152919081900360600190a25050508080611bd4906138ec565b915050611707565b5042600690910155905095945050505050565b6060600a82604051611c019190613762565b9081526040805191829003602090810183208054808302850183019093528284529190830182828015611c5357602002820191906000526020600020905b815481526020019060010190808311611c3f575b50505050509050919050565b600080546001600160a01b03163314611c8a5760405162461bcd60e51b8152600401610786906136f9565b600b86604051611c9a9190613762565b908152602001604051809103902084604051611cb69190613762565b9081526040519081900360200190205460ff1615611d0f5760405162461bcd60e51b815260206004820152601660248201527514995dd85c9908185b1c9958591e4818db185a5b595960521b6044820152606401610786565b60008311611d5f5760405162461bcd60e51b815260206004820152601e60248201527f52657761726420616d6f756e74206d75737420626520706f73697469766500006044820152606401610786565b601054831115611daa5760405162461bcd60e51b81526020600482015260166024820152750a4caeec2e4c840c2dadeeadce840e8dede40d0d2ced60531b6044820152606401610786565b600886604051611dba9190613762565b9081526040519081900360200190205460ff16611ddd57611ddd86614e20612b75565b6001600b87604051611def9190613762565b908152602001604051809103902085604051611e0b9190613762565b908152604051908190036020018120805492151560ff1990931692909217909155600090600690611e3d908990613762565b90815260405190819003602001902060028101805491925085906000611e63838561377e565b9091555050815485908390600090611e7c90849061377e565b9250508190555084826004016000828254611e97919061377e565b925050819055508460046000828254611eb0919061377e565b90915550506002546040805160c0810182526001600160a01b038a8116825260208083018d81528385018c9052606084018b9052426080850152600160a085018190526000878152600990935294909120835181546001600160a01b0319169316929092178255519192909190820190611f2a908261382d565b5060408201516002820190611f3f908261382d565b50606082015160038201556080820151600482015560a0909101516005909101805460ff1916911515919091179055604051600a90611f7f908b90613762565b90815260405160209181900382019020805460018101825560009182529181209091018290556002805491611fb3836138ec565b909155505060015460408051610100810182526001600160a01b038b168152602081018c905290810160028152602001888152602001856002015481526020018960405160200161200491906139d7565b60408051808303601f1901815291815290825242602080840191909152600192820183905260008581526005825291909120835181546001600160a01b0319166001600160a01b03909116178155908301519091820190612065908261382d565b50604082015160028201805460ff19166001836008811115612089576120896130e8565b0217905550606082015160038201556080820151600482015560a082015160058201906120b6908261382d565b5060c0820151600682015560e0909101516007918201805460ff19169115159190911790556040516120e9908c90613762565b90815260405160209181900382019020805460018101825560009182529181209091018290556005850180549161211f836138ec565b909155505060018054906000612134836138ec565b9190505550896040516121479190613762565b6040518091039020827f0f11b3dcffdf653c445209fd584fe93ef146816eea38aa6f5a40cf253b837c8a8b898b426040516121859493929190613a07565b60405180910390a38960405161219b9190613762565b6040805191829003822060028701548684526020840152428383015290519091600080516020613a7d833981519152919081900360600190a25098975050505050505050565b6060600782604051611c019190613762565b6000546001600160a01b0316331461221d5760405162461bcd60e51b8152600401610786906136f9565b60088260405161222d9190613762565b9081526040519081900360200190205460ff166122845760405162461bcd60e51b8152602060048201526015602482015274141b185e595c88191bd95cc81b9bdd08195e1a5cdd605a1b6044820152606401610786565b806006836040516122959190613762565b908152604051908190036020019020600301555050565b8151602081840181018051600a82529282019185019190912091905280548290811061074657600080fd5b6000546001600160a01b031633146123015760405162461bcd60e51b8152600401610786906136f9565b600d92909255600e55600f55565b600060608060008060025486106123605760405162461bcd60e51b815260206004820152601560248201527414995dd85c9908191bd95cc81b9bdd08195e1a5cdd605a1b6044820152606401610786565b6000868152600960209081526040808320815160c0810190925280546001600160a01b03168252600181018054929391929184019161239e906137a4565b80601f01602080910402602001604051908101604052809291908181526020018280546123ca906137a4565b80156124175780601f106123ec57610100808354040283529160200191612417565b820191906000526020600020905b8154815290600101906020018083116123fa57829003601f168201915b50505050508152602001600282018054612430906137a4565b80601f016020809104026020016040519081016040528092919081815260200182805461245c906137a4565b80156124a95780601f1061247e576101008083540402835291602001916124a9565b820191906000526020600020905b81548152906001019060200180831161248c57829003601f168201915b50505091835250506003820154602080830191909152600483015460408084019190915260059093015460ff1615156060928301528351908401519284015191840151608090940151909b929a5090985091965090945092505050565b6000546001600160a01b031633146125305760405162461bcd60e51b8152600401610786906136f9565b601091909155601155565b6000600b8360405161254d9190613762565b9081526020016040518091039020826040516125699190613762565b9081526040519081900360200190205460ff1690505b92915050565b600560205260009081526040902080546001820180546001600160a01b0390921692916125b1906137a4565b80601f01602080910402602001604051908101604052809291908181526020018280546125dd906137a4565b801561262a5780601f106125ff5761010080835404028352916020019161262a565b820191906000526020600020905b81548152906001019060200180831161260d57829003601f168201915b505050600284015460038501546004860154600587018054969760ff909416969295509093509061265a906137a4565b80601f0160208091040260200160405190810160405280929190818152602001828054612686906137a4565b80156126d35780601f106126a8576101008083540402835291602001916126d3565b820191906000526020600020905b8154815290600101906020018083116126b657829003601f168201915b50505050600683015460079093015491929160ff16905088565b60006008826040516126ff9190613762565b9081526040519081900360200190205460ff1692915050565b600960205260009081526040902080546001820180546001600160a01b039092169291612744906137a4565b80601f0160208091040260200160405190810160405280929190818152602001828054612770906137a4565b80156127bd5780601f10612792576101008083540402835291602001916127bd565b820191906000526020600020905b8154815290600101906020018083116127a057829003601f168201915b5050505050908060020180546127d2906137a4565b80601f01602080910402602001604051908101604052809291908181526020018280546127fe906137a4565b801561284b5780601f106128205761010080835404028352916020019161284b565b820191906000526020600020905b81548152906001019060200180831161282e57829003601f168201915b50505050600383015460048401546005909401549293909290915060ff1686565b600080600080600080600c876040516128859190613762565b9081526020016040518091039020604051806080016040529081600082015481526020016001820154815260200160028201548152602001600382015481525050905060006128d2612d7d565b604083015183516020850151606090950151909b949a509098509650871094509092505050565b6000546001600160a01b031633146129235760405162461bcd60e51b8152600401610786906136f9565b600080546040516001600160a01b03909116914780156108fc02929091818181858888f1935050505015801561295d573d6000803e3d6000fd5b50565b6000806000600c846040516129759190613762565b9081526020016040518091039020604051806080016040529081600082015481526020016001820154815260200160028201548152602001600382015481525050905060006129c2612d7d565b90506000826040015160016129d7919061377e565b82036129f15782516129ea90600161377e565b90506129f5565b5060015b600e54600090612a06600184613791565b612a10919061393e565b9050600f54811115612a215750600f545b80600d54612a2f919061377e565b9791965090945050505050565b6000546001600160a01b03163314612a665760405162461bcd60e51b8152600401610786906136f9565b6001600160a01b038116612aae5760405162461bcd60e51b815260206004820152600f60248201526e496e76616c6964206164647265737360881b6044820152606401610786565b600080546001600160a01b0319166001600160a01b0392909216919091179055565b6000806000806000806000600688604051612aeb9190613762565b908152604080516020928190038301812061010082018352805480835260018201549483018590526002820154938301849052600382015460608401819052600483015460808501819052600584015460a08601819052600685015460c087015260079094015460ff16151560e090950194909452909d949c50929a509198509650945092505050565b600882604051612b859190613762565b9081526040519081900360200190205460ff16612d79576001600883604051612bae9190613762565b908152604051908190036020019020805491151560ff1990921691909117905560038054906000612bde836138ec565b91905055506040518061010001604052808281526020016000815260200182815260200160008152602001828152602001600081526020016000815260200160011515815250600683604051612c349190613762565b9081526020016040518091039020600082015181600001556020820151816001015560408201518160020155606082015181600301556080820151816004015560a0820151816005015560c0820151816006015560e08201518160070160006101000a81548160ff02191690831515021790555090505060405180608001604052806000815260200160008152602001600081526020016000815250600c83604051612ce09190613762565b9081526020016040518091039020600082015181600001556020820151816001015560408201518160020155606082015181600301559050508060046000828254612d2b919061377e565b9091555050604051612d3e908390613762565b604051908190038120428252907f9c529f0fc3a16860fe293102c3f3b645571379454234a401c75194a9b3f77c3f9060200160405180910390a25b5050565b6000612d8c6201518042613a54565b905090565b606081600003612db85750506040805180820190915260018152600360fc1b602082015290565b8160005b8115612de25780612dcc816138ec565b9150612ddb9050600a83613a54565b9150612dbc565b6000816001600160401b03811115612dfc57612dfc612e99565b6040519080825280601f01601f191660200182016040528015612e26576020820181803683370190505b5090505b8415612e9157612e3b600183613791565b9150612e48600a86613a68565b612e5390603061377e565b60f81b818381518110612e6857612e686139c1565b60200101906001600160f81b031916908160001a905350612e8a600a86613a54565b9450612e2a565b949350505050565b634e487b7160e01b600052604160045260246000fd5b604051601f8201601f191681016001600160401b0381118282101715612ed757612ed7612e99565b604052919050565b600082601f830112612ef057600080fd5b81356001600160401b03811115612f0957612f09612e99565b612f1c601f8201601f1916602001612eaf565b818152846020838601011115612f3157600080fd5b816020850160208301376000918101602001919091529392505050565b60008060408385031215612f6157600080fd5b82356001600160401b03811115612f7757600080fd5b612f8385828601612edf565b95602094909401359450505050565b600060208284031215612fa457600080fd5b81356001600160401b03811115612fba57600080fd5b612e9184828501612edf565b80356001600160a01b0381168114612fdd57600080fd5b919050565b803560098110612fdd57600080fd5b600080600080600060a0868803121561300957600080fd5b85356001600160401b038082111561302057600080fd5b61302c89838a01612edf565b965061303a60208901612fc6565b955061304860408901612fe2565b945060608801359350608088013591508082111561306557600080fd5b5061307288828901612edf565b9150509295509295909350565b60006020828403121561309157600080fd5b5035919050565b60005b838110156130b357818101518382015260200161309b565b50506000910152565b600081518084526130d4816020860160208601613098565b601f01601f19169290920160200192915050565b634e487b7160e01b600052602160045260246000fd5b6009811061311c57634e487b7160e01b600052602160045260246000fd5b9052565b6001600160a01b038816815260e060208201819052600090613144908301896130bc565b61315160408401896130fe565b86606084015285608084015282810360a084015261316f81866130bc565b9150508260c083015298975050505050505050565b6000806040838503121561319757600080fd5b82356001600160401b038111156131ad57600080fd5b6131b985828601612edf565b9250506131c860208401612fc6565b90509250929050565b600080600080608085870312156131e757600080fd5b84356001600160401b03808211156131fe57600080fd5b61320a88838901612edf565b955061321860208801612fc6565b945060408701359350606087013591508082111561323557600080fd5b5061324287828801612edf565b91505092959194509250565b60006001600160401b0382111561326757613267612e99565b5060051b60200190565b600082601f83011261328257600080fd5b813560206132976132928361324e565b612eaf565b82815260059290921b840181019181810190868411156132b657600080fd5b8286015b848110156132d157803583529183019183016132ba565b509695505050505050565b600082601f8301126132ed57600080fd5b813560206132fd6132928361324e565b82815260059290921b8401810191818101908684111561331c57600080fd5b8286015b848110156132d15780356001600160401b0381111561333f5760008081fd5b61334d8986838b0101612edf565b845250918301918301613320565b600080600080600060a0868803121561337357600080fd5b85356001600160401b038082111561338a57600080fd5b61339689838a01612edf565b9650602091506133a7828901612fc6565b95506040880135818111156133bb57600080fd5b8801601f81018a136133cc57600080fd5b80356133da6132928261324e565b81815260059190911b8201840190848101908c8311156133f957600080fd5b928501925b8284101561341e5761340f84612fe2565b825292850192908501906133fe565b9750505050606088013591508082111561343757600080fd5b61344389838a01613271565b9350608088013591508082111561345957600080fd5b50613072888289016132dc565b6020808252825182820181905260009190848201906040850190845b8181101561349e57835183529284019291840191600101613482565b50909695505050505050565b600080600080600060a086880312156134c257600080fd5b85356001600160401b03808211156134d957600080fd5b6134e589838a01612edf565b96506134f360208901612fc6565b9550604088013591508082111561350957600080fd5b61304889838a01612edf565b60008060006060848603121561352a57600080fd5b505081359360208301359350604090920135919050565b6001600160a01b038616815260a060208201819052600090613565908301876130bc565b828103604084015261357781876130bc565b60608401959095525050608001529392505050565b6000806040838503121561359f57600080fd5b50508035926020909101359150565b600080604083850312156135c157600080fd5b82356001600160401b03808211156135d857600080fd5b6135e486838701612edf565b935060208501359150808211156135fa57600080fd5b5061360785828601612edf565b9150509250929050565b6001600160a01b0389168152610100602082018190526000906136368382018b6130bc565b9050613645604084018a6130fe565b87606084015286608084015282810360a084015261366381876130bc565b60c0840195909552505090151560e0909101529695505050505050565b6001600160a01b038716815260c0602082018190526000906136a4908301886130bc565b82810360408401526136b681886130bc565b606084019690965250506080810192909252151560a0909101529392505050565b6000602082840312156136e957600080fd5b6136f282612fc6565b9392505050565b60208082526018908201527f4f6e6c79206f776e65722063616e2063616c6c20746869730000000000000000604082015260600190565b634e487b7160e01b600052601160045260246000fd5b6000600160ff1b820161375b5761375b613730565b5060000390565b60008251613774818460208701613098565b9190910192915050565b8082018082111561257f5761257f613730565b8181038181111561257f5761257f613730565b600181811c908216806137b857607f821691505b6020821081036137d857634e487b7160e01b600052602260045260246000fd5b50919050565b601f82111561382857600081815260208120601f850160051c810160208610156138055750805b601f850160051c820191505b8181101561382457828155600101613811565b5050505b505050565b81516001600160401b0381111561384657613846612e99565b61385a8161385484546137a4565b846137de565b602080601f83116001811461388f57600084156138775750858301515b600019600386901b1c1916600185901b178555613824565b600085815260208120601f198616915b828110156138be5788860151825594840194600190910190840161389f565b50858210156138dc5787850151600019600388901b60f8161c191681555b5050505050600190811b01905550565b6000600182016138fe576138fe613730565b5060010190565b6001600160a01b038616815260a0810161392260208301876130fe565b8460408301528360608301528260808301529695505050505050565b808202811582820484141761257f5761257f613730565b7f4461696c7920726577617264202d2053747265616b3a2000000000000000000081526000825161398d816017850160208701613098565b9190910160170192915050565b81810360008312801583831316838312821617156139ba576139ba613730565b5092915050565b634e487b7160e01b600052603260045260246000fd5b6702932bbb0b9321d160c51b8152600082516139fa816008850160208701613098565b9190910160080192915050565b6001600160a01b0385168152608060208201819052600090613a2b908301866130bc565b6040830194909452506060015292915050565b634e487b7160e01b600052601260045260246000fd5b600082613a6357613a63613a3e565b500490565b600082613a7757613a77613a3e565b50069056fe3c4b9282d08c445480b18e6d0754d85013515bd161334f0404494dd9200ec445a264697066735822122068d32dc43468d58402203b5d855d864c7375124bbe6f14f0ca105ae88d4fd76064736f6c63430008140033","opcodes":"PUSH1 0x80 PUSH1 0x40 MSTORE PUSH2 0x3E8 PUSH1 0xD SSTORE PUSH1 0x64 PUSH1 0xE SSTORE PUSH2 0x1388 PUSH1 0xF SSTORE PUSH3 0xF4240 PUSH1 0x10 SSTORE PUSH1 0x5 PUSH1 0x11 SSTORE CALLVALUE DUP1 ISZERO PUSH2 0x2D JUMPI PUSH1 0x0 DUP1 REVERT JUMPDEST POP PUSH1 0x0 DUP1 SLOAD PUSH1 0x1 PUSH1 0x1 PUSH1 0xA0 SHL SUB NOT AND CALLER OR DUP2 SSTORE PUSH1 0x1 DUP2 SWAP1 SSTORE PUSH1 0x2 DUP2 SWAP1 SSTORE PUSH1 0x3 DUP2 SWAP1 SSTORE PUSH1 0x4 SSTORE PUSH2 0x3AD2 DUP1 PUSH2 0x61 PUSH1 0x0 CODECOPY PUSH1 0x0 RETURN INVALID PUSH1 0x80 PUSH1 0x40 MSTORE CALLVALUE DUP1 ISZERO PUSH2 0x10 JUMPI PUSH1 0x0 DUP1 REVERT JUMPDEST POP PUSH1 0x4 CALLDATASIZE LT PUSH2 0x23D JUMPI PUSH1 0x0 CALLDATALOAD PUSH1 0xE0 SHR DUP1 PUSH4 0x8DA5CB5B GT PUSH2 0x13B JUMPI DUP1 PUSH4 0xC8C8EBE4 GT PUSH2 0xB8 JUMPI DUP1 PUSH4 0xDE9E4446 GT PUSH2 0x7C JUMPI DUP1 PUSH4 0xDE9E4446 EQ PUSH2 0x6A3 JUMPI DUP1 PUSH4 0xF11F43B2 EQ PUSH2 0x6B6 JUMPI DUP1 PUSH4 0xF2FDE38B EQ PUSH2 0x6BF JUMPI DUP1 PUSH4 0xF60CDCF6 EQ PUSH2 0x6D2 JUMPI DUP1 PUSH4 0xF8A9DD60 EQ PUSH2 0x6DB JUMPI PUSH1 0x0 DUP1 REVERT JUMPDEST DUP1 PUSH4 0xC8C8EBE4 EQ PUSH2 0x61E JUMPI DUP1 PUSH4 0xCE0BA5CD EQ PUSH2 0x627 JUMPI DUP1 PUSH4 0xD416F213 EQ PUSH2 0x655 JUMPI DUP1 PUSH4 0xD7D64F33 EQ PUSH2 0x692 JUMPI DUP1 PUSH4 0xDB2E21BC EQ PUSH2 0x69B JUMPI PUSH1 0x0 DUP1 REVERT JUMPDEST DUP1 PUSH4 0xA34B0F76 GT PUSH2 0xFF JUMPI DUP1 PUSH4 0xA34B0F76 EQ PUSH2 0x594 JUMPI DUP1 PUSH4 0xAD31FF89 EQ PUSH2 0x59D JUMPI DUP1 PUSH4 0xB9A60038 EQ PUSH2 0x5B0 JUMPI DUP1 PUSH4 0xC36B3AA9 EQ PUSH2 0x5B9 JUMPI DUP1 PUSH4 0xC59D4847 EQ PUSH2 0x5DE JUMPI PUSH1 0x0 DUP1 REVERT JUMPDEST DUP1 PUSH4 0x8DA5CB5B EQ PUSH2 0x4E5 JUMPI DUP1 PUSH4 0x95F81150 EQ PUSH2 0x510 JUMPI DUP1 PUSH4 0x9ACE38C2 EQ PUSH2 0x519 JUMPI DUP1 PUSH4 0x9C1A2893 EQ PUSH2 0x540 JUMPI DUP1 PUSH4 0x9CCC6748 EQ PUSH2 0x549 JUMPI PUSH1 0x0 DUP1 REVERT JUMPDEST DUP1 PUSH4 0x3BDD4986 GT PUSH2 0x1C9 JUMPI DUP1 PUSH4 0x68DD9D1B GT PUSH2 0x18D JUMPI DUP1 PUSH4 0x68DD9D1B EQ PUSH2 0x465 JUMPI DUP1 PUSH4 0x6F3BA889 EQ PUSH2 0x478 JUMPI DUP1 PUSH4 0x7741716C EQ PUSH2 0x48B JUMPI DUP1 PUSH4 0x7EBB640A EQ PUSH2 0x4AF JUMPI DUP1 PUSH4 0x8290BDE9 EQ PUSH2 0x4C2 JUMPI PUSH1 0x0 DUP1 REVERT JUMPDEST DUP1 PUSH4 0x3BDD4986 EQ PUSH2 0x37A JUMPI DUP1 PUSH4 0x47D256DE EQ PUSH2 0x419 JUMPI DUP1 PUSH4 0x48EC9401 EQ PUSH2 0x42C JUMPI DUP1 PUSH4 0x4D69B974 EQ PUSH2 0x43F JUMPI DUP1 PUSH4 0x5712F558 EQ PUSH2 0x452 JUMPI PUSH1 0x0 DUP1 REVERT JUMPDEST DUP1 PUSH4 0x33EA3DC8 GT PUSH2 0x210 JUMPI DUP1 PUSH4 0x33EA3DC8 EQ PUSH2 0x2E4 JUMPI DUP1 PUSH4 0x3578686D EQ PUSH2 0x30A JUMPI DUP1 PUSH4 0x38BE54F9 EQ PUSH2 0x332 JUMPI DUP1 PUSH4 0x3A51D246 EQ PUSH2 0x347 JUMPI DUP1 PUSH4 0x3AE7CB06 EQ PUSH2 0x35A JUMPI PUSH1 0x0 DUP1 REVERT JUMPDEST DUP1 PUSH4 0x964AE75 EQ PUSH2 0x242 JUMPI DUP1 PUSH4 0xECAD853 EQ PUSH2 0x268 JUMPI DUP1 PUSH4 0x10256B05 EQ PUSH2 0x2C8 JUMPI DUP1 PUSH4 0x2217674B EQ PUSH2 0x2DB JUMPI JUMPDEST PUSH1 0x0 DUP1 REVERT JUMPDEST PUSH2 0x255 PUSH2 0x250 CALLDATASIZE PUSH1 0x4 PUSH2 0x2F4E JUMP JUMPDEST PUSH2 0x71B JUMP JUMPDEST PUSH1 0x40 MLOAD SWAP1 DUP2 MSTORE PUSH1 0x20 ADD JUMPDEST PUSH1 0x40 MLOAD DUP1 SWAP2 SUB SWAP1 RETURN JUMPDEST PUSH2 0x2A8 PUSH2 0x276 CALLDATASIZE PUSH1 0x4 PUSH2 0x2F92 JUMP JUMPDEST DUP1 MLOAD PUSH1 0x20 DUP2 DUP4 ADD DUP2 ADD DUP1 MLOAD PUSH1 0xC DUP3 MSTORE SWAP3 DUP3 ADD SWAP2 SWAP1 SWAP4 ADD KECCAK256 SWAP2 MSTORE DUP1 SLOAD PUSH1 0x1 DUP3 ADD SLOAD PUSH1 0x2 DUP4 ADD SLOAD PUSH1 0x3 SWAP1 SWAP4 ADD SLOAD SWAP2 SWAP3 SWAP1 SWAP2 DUP5 JUMP JUMPDEST PUSH1 0x40 DUP1 MLOAD SWAP5 DUP6 MSTORE PUSH1 0x20 DUP6 ADD SWAP4 SWAP1 SWAP4 MSTORE SWAP2 DUP4 ADD MSTORE PUSH1 0x60 DUP3 ADD MSTORE PUSH1 0x80 ADD PUSH2 0x25F JUMP JUMPDEST PUSH2 0x255 PUSH2 0x2D6 CALLDATASIZE PUSH1 0x4 PUSH2 0x2FF1 JUMP JUMPDEST PUSH2 0x75B JUMP JUMPDEST PUSH2 0x255 PUSH1 0xF SLOAD DUP2 JUMP JUMPDEST PUSH2 0x2F7 PUSH2 0x2F2 CALLDATASIZE PUSH1 0x4 PUSH2 0x307F JUMP JUMPDEST PUSH2 0xC1E JUMP JUMPDEST PUSH1 0x40 MLOAD PUSH2 0x25F SWAP8 SWAP7 SWAP6 SWAP5 SWAP4 SWAP3 SWAP2 SWAP1 PUSH2 0x3120 JUMP JUMPDEST PUSH2 0x31D PUSH2 0x318 CALLDATASIZE PUSH1 0x4 PUSH2 0x3184 JUMP JUMPDEST PUSH2 0xE6A JUMP JUMPDEST PUSH1 0x40 DUP1 MLOAD SWAP3 DUP4 MSTORE PUSH1 0x20 DUP4 ADD SWAP2 SWAP1 SWAP2 MSTORE ADD PUSH2 0x25F JUMP JUMPDEST PUSH2 0x345 PUSH2 0x340 CALLDATASIZE PUSH1 0x4 PUSH2 0x31D1 JUMP JUMPDEST PUSH2 0x12AE JUMP JUMPDEST STOP JUMPDEST PUSH2 0x255 PUSH2 0x355 CALLDATASIZE PUSH1 0x4 PUSH2 0x2F92 JUMP JUMPDEST PUSH2 0x157E JUMP JUMPDEST PUSH2 0x36D PUSH2 0x368 CALLDATASIZE PUSH1 0x4 PUSH2 0x335B JUMP JUMPDEST PUSH2 0x15A9 JUMP JUMPDEST PUSH1 0x40 MLOAD PUSH2 0x25F SWAP2 SWAP1 PUSH2 0x3466 JUMP JUMPDEST PUSH2 0x3DC PUSH2 0x388 CALLDATASIZE PUSH1 0x4 PUSH2 0x2F92 JUMP JUMPDEST DUP1 MLOAD PUSH1 0x20 DUP2 DUP4 ADD DUP2 ADD DUP1 MLOAD PUSH1 0x6 DUP1 DUP4 MSTORE SWAP4 DUP4 ADD SWAP3 SWAP1 SWAP5 ADD SWAP2 SWAP1 SWAP2 KECCAK256 SWAP3 SWAP1 MSTORE DUP2 SLOAD PUSH1 0x1 DUP4 ADD SLOAD PUSH1 0x2 DUP5 ADD SLOAD PUSH1 0x3 DUP6 ADD SLOAD PUSH1 0x4 DUP7 ADD SLOAD PUSH1 0x5 DUP8 ADD SLOAD SWAP6 DUP8 ADD SLOAD PUSH1 0x7 SWAP1 SWAP8 ADD SLOAD SWAP5 SWAP7 SWAP4 SWAP6 SWAP3 SWAP5 SWAP2 SWAP4 SWAP1 SWAP3 SWAP2 PUSH1 0xFF AND DUP9 JUMP JUMPDEST PUSH1 0x40 DUP1 MLOAD SWAP9 DUP10 MSTORE PUSH1 0x20 DUP10 ADD SWAP8 SWAP1 SWAP8 MSTORE SWAP6 DUP8 ADD SWAP5 SWAP1 SWAP5 MSTORE PUSH1 0x60 DUP7 ADD SWAP3 SWAP1 SWAP3 MSTORE PUSH1 0x80 DUP6 ADD MSTORE PUSH1 0xA0 DUP5 ADD MSTORE PUSH1 0xC0 DUP4 ADD MSTORE ISZERO ISZERO PUSH1 0xE0 DUP3 ADD MSTORE PUSH2 0x100 ADD PUSH2 0x25F JUMP JUMPDEST PUSH2 0x36D PUSH2 0x427 CALLDATASIZE PUSH1 0x4 PUSH2 0x2F92 JUMP JUMPDEST PUSH2 0x1BEF JUMP JUMPDEST PUSH2 0x255 PUSH2 0x43A CALLDATASIZE PUSH1 0x4 PUSH2 0x34AA JUMP JUMPDEST PUSH2 0x1C5F JUMP JUMPDEST PUSH2 0x36D PUSH2 0x44D CALLDATASIZE PUSH1 0x4 PUSH2 0x2F92 JUMP JUMPDEST PUSH2 0x21E1 JUMP JUMPDEST PUSH2 0x345 PUSH2 0x460 CALLDATASIZE PUSH1 0x4 PUSH2 0x2F4E JUMP JUMPDEST PUSH2 0x21F3 JUMP JUMPDEST PUSH2 0x255 PUSH2 0x473 CALLDATASIZE PUSH1 0x4 PUSH2 0x2F4E JUMP JUMPDEST PUSH2 0x22AC JUMP JUMPDEST PUSH2 0x345 PUSH2 0x486 CALLDATASIZE PUSH1 0x4 PUSH2 0x3515 JUMP JUMPDEST PUSH2 0x22D7 JUMP JUMPDEST PUSH2 0x49E PUSH2 0x499 CALLDATASIZE PUSH1 0x4 PUSH2 0x307F JUMP JUMPDEST PUSH2 0x230F JUMP JUMPDEST PUSH1 0x40 MLOAD PUSH2 0x25F SWAP6 SWAP5 SWAP4 SWAP3 SWAP2 SWAP1 PUSH2 0x3541 JUMP JUMPDEST PUSH2 0x345 PUSH2 0x4BD CALLDATASIZE PUSH1 0x4 PUSH2 0x358C JUMP JUMPDEST PUSH2 0x2506 JUMP JUMPDEST PUSH2 0x4D5 PUSH2 0x4D0 CALLDATASIZE PUSH1 0x4 PUSH2 0x35AE JUMP JUMPDEST PUSH2 0x253B JUMP JUMPDEST PUSH1 0x40 MLOAD SWAP1 ISZERO ISZERO DUP2 MSTORE PUSH1 0x20 ADD PUSH2 0x25F JUMP JUMPDEST PUSH1 0x0 SLOAD PUSH2 0x4F8 SWAP1 PUSH1 0x1 PUSH1 0x1 PUSH1 0xA0 SHL SUB AND DUP2 JUMP JUMPDEST PUSH1 0x40 MLOAD PUSH1 0x1 PUSH1 0x1 PUSH1 0xA0 SHL SUB SWAP1 SWAP2 AND DUP2 MSTORE PUSH1 0x20 ADD PUSH2 0x25F JUMP JUMPDEST PUSH2 0x255 PUSH1 0xD SLOAD DUP2 JUMP JUMPDEST PUSH2 0x52C PUSH2 0x527 CALLDATASIZE PUSH1 0x4 PUSH2 0x307F JUMP JUMPDEST PUSH2 0x2585 JUMP JUMPDEST PUSH1 0x40 MLOAD PUSH2 0x25F SWAP9 SWAP8 SWAP7 SWAP6 SWAP5 SWAP4 SWAP3 SWAP2 SWAP1 PUSH2 0x3611 JUMP JUMPDEST PUSH2 0x255 PUSH1 0xE SLOAD DUP2 JUMP JUMPDEST PUSH2 0x4D5 PUSH2 0x557 CALLDATASIZE PUSH1 0x4 PUSH2 0x35AE JUMP JUMPDEST DUP2 MLOAD PUSH1 0x20 DUP2 DUP5 ADD DUP2 ADD DUP1 MLOAD PUSH1 0xB DUP3 MSTORE SWAP3 DUP3 ADD SWAP5 DUP3 ADD SWAP5 SWAP1 SWAP5 KECCAK256 SWAP2 SWAP1 SWAP4 MSTORE DUP2 MLOAD DUP1 DUP4 ADD DUP5 ADD DUP1 MLOAD SWAP3 DUP2 MSTORE SWAP1 DUP5 ADD SWAP3 SWAP1 SWAP4 ADD SWAP2 SWAP1 SWAP2 KECCAK256 SWAP2 MSTORE SLOAD PUSH1 0xFF AND DUP2 JUMP JUMPDEST PUSH2 0x255 PUSH1 0x2 SLOAD DUP2 JUMP JUMPDEST PUSH2 0x4D5 PUSH2 0x5AB CALLDATASIZE PUSH1 0x4 PUSH2 0x2F92 JUMP JUMPDEST PUSH2 0x26ED JUMP JUMPDEST PUSH2 0x255 PUSH1 0x1 SLOAD DUP2 JUMP JUMPDEST PUSH2 0x5CC PUSH2 0x5C7 CALLDATASIZE PUSH1 0x4 PUSH2 0x307F JUMP JUMPDEST PUSH2 0x2718 JUMP JUMPDEST PUSH1 0x40 MLOAD PUSH2 0x25F SWAP7 SWAP6 SWAP5 SWAP4 SWAP3 SWAP2 SWAP1 PUSH2 0x3680 JUMP JUMPDEST PUSH1 0x1 SLOAD PUSH1 0x2 SLOAD PUSH1 0x3 SLOAD PUSH1 0x4 SLOAD PUSH1 0x0 SLOAD PUSH1 0x40 DUP1 MLOAD SWAP6 DUP7 MSTORE PUSH1 0x20 DUP7 ADD SWAP5 SWAP1 SWAP5 MSTORE SWAP3 DUP5 ADD SWAP2 SWAP1 SWAP2 MSTORE PUSH1 0x60 DUP4 ADD MSTORE PUSH1 0x1 PUSH1 0x1 PUSH1 0xA0 SHL SUB AND PUSH1 0x80 DUP3 ADD MSTORE PUSH1 0xA0 ADD PUSH2 0x25F JUMP JUMPDEST PUSH2 0x255 PUSH1 0x10 SLOAD DUP2 JUMP JUMPDEST PUSH2 0x4D5 PUSH2 0x635 CALLDATASIZE PUSH1 0x4 PUSH2 0x2F92 JUMP JUMPDEST DUP1 MLOAD PUSH1 0x20 DUP2 DUP4 ADD DUP2 ADD DUP1 MLOAD PUSH1 0x8 DUP3 MSTORE SWAP3 DUP3 ADD SWAP2 SWAP1 SWAP4 ADD KECCAK256 SWAP2 MSTORE SLOAD PUSH1 0xFF AND DUP2 JUMP JUMPDEST PUSH2 0x668 PUSH2 0x663 CALLDATASIZE PUSH1 0x4 PUSH2 0x2F92 JUMP JUMPDEST PUSH2 0x286C JUMP JUMPDEST PUSH1 0x40 DUP1 MLOAD SWAP6 DUP7 MSTORE PUSH1 0x20 DUP7 ADD SWAP5 SWAP1 SWAP5 MSTORE SWAP3 DUP5 ADD SWAP2 SWAP1 SWAP2 MSTORE PUSH1 0x60 DUP4 ADD MSTORE ISZERO ISZERO PUSH1 0x80 DUP3 ADD MSTORE PUSH1 0xA0 ADD PUSH2 0x25F JUMP JUMPDEST PUSH2 0x255 PUSH1 0x11 SLOAD DUP2 JUMP JUMPDEST PUSH2 0x345 PUSH2 0x28F9 JUMP JUMPDEST PUSH2 0x31D PUSH2 0x6B1 CALLDATASIZE PUSH1 0x4 PUSH2 0x2F92 JUMP JUMPDEST PUSH2 0x2960 JUMP JUMPDEST PUSH2 0x255 PUSH1 0x4 SLOAD DUP2 JUMP JUMPDEST PUSH2 0x345 PUSH2 0x6CD CALLDATASIZE PUSH1 0x4 PUSH2 0x36D7 JUMP JUMPDEST PUSH2 0x2A3C JUMP JUMPDEST PUSH2 0x255 PUSH1 0x3 SLOAD DUP2 JUMP JUMPDEST PUSH2 0x6EE PUSH2 0x6E9 CALLDATASIZE PUSH1 0x4 PUSH2 0x2F92 JUMP JUMPDEST PUSH2 0x2AD0 JUMP JUMPDEST PUSH1 0x40 DUP1 MLOAD SWAP7 DUP8 MSTORE PUSH1 0x20 DUP8 ADD SWAP6 SWAP1 SWAP6 MSTORE SWAP4 DUP6 ADD SWAP3 SWAP1 SWAP3 MSTORE PUSH1 0x60 DUP5 ADD MSTORE PUSH1 0x80 DUP4 ADD MSTORE PUSH1 0xA0 DUP3 ADD MSTORE PUSH1 0xC0 ADD PUSH2 0x25F JUMP JUMPDEST DUP2 MLOAD PUSH1 0x20 DUP2 DUP5 ADD DUP2 ADD DUP1 MLOAD PUSH1 0x7 DUP3 MSTORE SWAP3 DUP3 ADD SWAP2 DUP6 ADD SWAP2 SWAP1 SWAP2 KECCAK256 SWAP2 SWAP1 MSTORE DUP1 SLOAD DUP3 SWAP1 DUP2 LT PUSH2 0x746 JUMPI PUSH1 0x0 DUP1 REVERT JUMPDEST SWAP1 PUSH1 0x0 MSTORE PUSH1 0x20 PUSH1 0x0 KECCAK256 ADD PUSH1 0x0 SWAP2 POP SWAP2 POP POP SLOAD DUP2 JUMP JUMPDEST PUSH1 0x0 DUP1 SLOAD PUSH1 0x1 PUSH1 0x1 PUSH1 0xA0 SHL SUB AND CALLER EQ PUSH2 0x78F JUMPI PUSH1 0x40 MLOAD PUSH3 0x461BCD PUSH1 0xE5 SHL DUP2 MSTORE PUSH1 0x4 ADD PUSH2 0x786 SWAP1 PUSH2 0x36F9 JUMP JUMPDEST PUSH1 0x40 MLOAD DUP1 SWAP2 SUB SWAP1 REVERT JUMPDEST DUP3 PUSH1 0x0 SUB PUSH2 0x7D7 JUMPI PUSH1 0x40 MLOAD PUSH3 0x461BCD PUSH1 0xE5 SHL DUP2 MSTORE PUSH1 0x20 PUSH1 0x4 DUP3 ADD MSTORE PUSH1 0x15 PUSH1 0x24 DUP3 ADD MSTORE PUSH21 0x416D6F756E742063616E6E6F74206265207A65726F PUSH1 0x58 SHL PUSH1 0x44 DUP3 ADD MSTORE PUSH1 0x64 ADD PUSH2 0x786 JUMP JUMPDEST PUSH1 0x10 SLOAD PUSH1 0x0 DUP5 SGT PUSH2 0x7F0 JUMPI PUSH2 0x7EB DUP5 PUSH2 0x3746 JUMP JUMPDEST PUSH2 0x7F2 JUMP JUMPDEST DUP4 JUMPDEST GT ISZERO PUSH2 0x839 JUMPI PUSH1 0x40 MLOAD PUSH3 0x461BCD PUSH1 0xE5 SHL DUP2 MSTORE PUSH1 0x20 PUSH1 0x4 DUP3 ADD MSTORE PUSH1 0x16 PUSH1 0x24 DUP3 ADD MSTORE PUSH22 0x416D6F756E742065786365656473206D6178696D756D PUSH1 0x50 SHL PUSH1 0x44 DUP3 ADD MSTORE PUSH1 0x64 ADD PUSH2 0x786 JUMP JUMPDEST PUSH1 0x8 DUP7 PUSH1 0x40 MLOAD PUSH2 0x849 SWAP2 SWAP1 PUSH2 0x3762 JUMP JUMPDEST SWAP1 DUP2 MSTORE PUSH1 0x40 MLOAD SWAP1 DUP2 SWAP1 SUB PUSH1 0x20 ADD SWAP1 KECCAK256 SLOAD PUSH1 0xFF AND PUSH2 0x86C JUMPI PUSH2 0x86C DUP7 PUSH2 0x4E20 PUSH2 0x2B75 JUMP JUMPDEST PUSH1 0x0 PUSH1 0x6 DUP8 PUSH1 0x40 MLOAD PUSH2 0x87E SWAP2 SWAP1 PUSH2 0x3762 JUMP JUMPDEST SWAP1 DUP2 MSTORE PUSH1 0x20 ADD PUSH1 0x40 MLOAD DUP1 SWAP2 SUB SWAP1 KECCAK256 SWAP1 POP PUSH1 0x0 DUP5 SLT ISZERO PUSH2 0x8F8 JUMPI PUSH1 0x11 SLOAD DUP2 PUSH1 0x6 ADD SLOAD PUSH2 0x8A9 SWAP2 SWAP1 PUSH2 0x377E JUMP JUMPDEST TIMESTAMP LT ISZERO PUSH2 0x8F8 JUMPI PUSH1 0x40 MLOAD PUSH3 0x461BCD PUSH1 0xE5 SHL DUP2 MSTORE PUSH1 0x20 PUSH1 0x4 DUP3 ADD MSTORE PUSH1 0x18 PUSH1 0x24 DUP3 ADD MSTORE PUSH32 0x5472616E73616374696F6E20746F6F206672657175656E740000000000000000 PUSH1 0x44 DUP3 ADD MSTORE PUSH1 0x64 ADD PUSH2 0x786 JUMP JUMPDEST PUSH1 0x2 DUP2 ADD SLOAD PUSH1 0x0 DUP6 SGT ISZERO PUSH2 0x972 JUMPI DUP5 DUP3 PUSH1 0x2 ADD PUSH1 0x0 DUP3 DUP3 SLOAD PUSH2 0x91A SWAP2 SWAP1 PUSH2 0x377E JUMP JUMPDEST SWAP1 SWAP2 SSTORE POP POP DUP2 SLOAD DUP6 SWAP1 DUP4 SWAP1 PUSH1 0x0 SWAP1 PUSH2 0x933 SWAP1 DUP5 SWAP1 PUSH2 0x377E JUMP JUMPDEST SWAP3 POP POP DUP2 SWAP1 SSTORE POP DUP5 DUP3 PUSH1 0x4 ADD PUSH1 0x0 DUP3 DUP3 SLOAD PUSH2 0x94E SWAP2 SWAP1 PUSH2 0x377E JUMP JUMPDEST SWAP3 POP POP DUP2 SWAP1 SSTORE POP DUP5 PUSH1 0x4 PUSH1 0x0 DUP3 DUP3 SLOAD PUSH2 0x967 SWAP2 SWAP1 PUSH2 0x377E JUMP JUMPDEST SWAP1 SWAP2 SSTORE POP PUSH2 0xA00 SWAP1 POP JUMP JUMPDEST PUSH1 0x0 PUSH2 0x97D DUP7 PUSH2 0x3746 JUMP JUMPDEST SWAP1 POP DUP1 DUP4 PUSH1 0x2 ADD SLOAD LT ISZERO PUSH2 0x9CA JUMPI PUSH1 0x40 MLOAD PUSH3 0x461BCD PUSH1 0xE5 SHL DUP2 MSTORE PUSH1 0x20 PUSH1 0x4 DUP3 ADD MSTORE PUSH1 0x14 PUSH1 0x24 DUP3 ADD MSTORE PUSH20 0x496E73756666696369656E742062616C616E6365 PUSH1 0x60 SHL PUSH1 0x44 DUP3 ADD MSTORE PUSH1 0x64 ADD PUSH2 0x786 JUMP JUMPDEST DUP1 DUP4 PUSH1 0x2 ADD PUSH1 0x0 DUP3 DUP3 SLOAD PUSH2 0x9DE SWAP2 SWAP1 PUSH2 0x3791 JUMP JUMPDEST SWAP3 POP POP DUP2 SWAP1 SSTORE POP DUP1 DUP4 PUSH1 0x1 ADD PUSH1 0x0 DUP3 DUP3 SLOAD PUSH2 0x9F9 SWAP2 SWAP1 PUSH2 0x377E JUMP JUMPDEST SWAP1 SWAP2 SSTORE POP POP POP JUMPDEST PUSH1 0x2 DUP3 ADD SLOAD PUSH1 0x1 SLOAD PUSH1 0x40 DUP1 MLOAD PUSH2 0x100 DUP2 ADD DUP3 MSTORE PUSH1 0x1 PUSH1 0x1 PUSH1 0xA0 SHL SUB DUP12 AND DUP2 MSTORE PUSH1 0x20 DUP2 ADD DUP13 SWAP1 MSTORE SWAP1 DUP2 ADD DUP10 PUSH1 0x8 DUP2 GT ISZERO PUSH2 0xA3B JUMPI PUSH2 0xA3B PUSH2 0x30E8 JUMP JUMPDEST DUP2 MSTORE PUSH1 0x20 DUP1 DUP3 ADD DUP11 SWAP1 MSTORE PUSH1 0x40 DUP1 DUP4 ADD DUP7 SWAP1 MSTORE PUSH1 0x60 DUP4 ADD DUP11 SWAP1 MSTORE TIMESTAMP PUSH1 0x80 DUP5 ADD MSTORE PUSH1 0x1 PUSH1 0xA0 SWAP1 SWAP4 ADD DUP4 SWAP1 MSTORE PUSH1 0x0 DUP6 DUP2 MSTORE PUSH1 0x5 DUP4 MSTORE KECCAK256 DUP4 MLOAD DUP2 SLOAD PUSH1 0x1 PUSH1 0x1 PUSH1 0xA0 SHL SUB NOT AND PUSH1 0x1 PUSH1 0x1 PUSH1 0xA0 SHL SUB SWAP1 SWAP2 AND OR DUP2 SSTORE SWAP1 DUP4 ADD MLOAD SWAP1 SWAP2 DUP3 ADD SWAP1 PUSH2 0xA9D SWAP1 DUP3 PUSH2 0x382D JUMP JUMPDEST POP PUSH1 0x40 DUP3 ADD MLOAD PUSH1 0x2 DUP3 ADD DUP1 SLOAD PUSH1 0xFF NOT AND PUSH1 0x1 DUP4 PUSH1 0x8 DUP2 GT ISZERO PUSH2 0xAC1 JUMPI PUSH2 0xAC1 PUSH2 0x30E8 JUMP JUMPDEST MUL OR SWAP1 SSTORE POP PUSH1 0x60 DUP3 ADD MLOAD PUSH1 0x3 DUP3 ADD SSTORE PUSH1 0x80 DUP3 ADD MLOAD PUSH1 0x4 DUP3 ADD SSTORE PUSH1 0xA0 DUP3 ADD MLOAD PUSH1 0x5 DUP3 ADD SWAP1 PUSH2 0xAEE SWAP1 DUP3 PUSH2 0x382D JUMP JUMPDEST POP PUSH1 0xC0 DUP3 ADD MLOAD PUSH1 0x6 DUP3 ADD SSTORE PUSH1 0xE0 SWAP1 SWAP2 ADD MLOAD PUSH1 0x7 SWAP2 DUP3 ADD DUP1 SLOAD PUSH1 0xFF NOT AND SWAP2 ISZERO ISZERO SWAP2 SWAP1 SWAP2 OR SWAP1 SSTORE PUSH1 0x40 MLOAD PUSH2 0xB21 SWAP1 DUP13 SWAP1 PUSH2 0x3762 JUMP JUMPDEST SWAP1 DUP2 MSTORE PUSH1 0x40 MLOAD PUSH1 0x20 SWAP2 DUP2 SWAP1 SUB DUP3 ADD SWAP1 KECCAK256 DUP1 SLOAD PUSH1 0x1 DUP2 ADD DUP3 SSTORE PUSH1 0x0 SWAP2 DUP3 MSTORE SWAP2 DUP2 KECCAK256 SWAP1 SWAP2 ADD DUP3 SWAP1 SSTORE PUSH1 0x5 DUP6 ADD DUP1 SLOAD SWAP2 PUSH2 0xB57 DUP4 PUSH2 0x38EC JUMP JUMPDEST SWAP1 SWAP2 SSTORE POP POP TIMESTAMP PUSH1 0x6 DUP6 ADD SSTORE PUSH1 0x1 DUP1 SLOAD SWAP1 PUSH1 0x0 PUSH2 0xB72 DUP4 PUSH2 0x38EC JUMP JUMPDEST SWAP2 SWAP1 POP SSTORE POP DUP10 PUSH1 0x40 MLOAD PUSH2 0xB85 SWAP2 SWAP1 PUSH2 0x3762 JUMP JUMPDEST PUSH1 0x40 MLOAD DUP1 SWAP2 SUB SWAP1 KECCAK256 DUP2 PUSH32 0xC9FA5F81F5DF11AB387E6FE895B928D540618F9BD047CD5E8F7562073AB4600D DUP12 DUP12 DUP12 DUP8 TIMESTAMP PUSH1 0x40 MLOAD PUSH2 0xBC5 SWAP6 SWAP5 SWAP4 SWAP3 SWAP2 SWAP1 PUSH2 0x3905 JUMP JUMPDEST PUSH1 0x40 MLOAD DUP1 SWAP2 SUB SWAP1 LOG3 DUP10 PUSH1 0x40 MLOAD PUSH2 0xBDB SWAP2 SWAP1 PUSH2 0x3762 JUMP JUMPDEST PUSH1 0x40 DUP1 MLOAD SWAP2 DUP3 SWAP1 SUB DUP3 KECCAK256 DUP6 DUP4 MSTORE PUSH1 0x20 DUP4 ADD DUP6 SWAP1 MSTORE TIMESTAMP DUP4 DUP4 ADD MSTORE SWAP1 MLOAD SWAP1 SWAP2 PUSH1 0x0 DUP1 MLOAD PUSH1 0x20 PUSH2 0x3A7D DUP4 CODECOPY DUP2 MLOAD SWAP2 MSTORE SWAP2 SWAP1 DUP2 SWAP1 SUB PUSH1 0x60 ADD SWAP1 LOG2 SWAP10 SWAP9 POP POP POP POP POP POP POP POP POP JUMP JUMPDEST PUSH1 0x0 PUSH1 0x60 PUSH1 0x0 DUP1 PUSH1 0x0 PUSH1 0x60 PUSH1 0x0 PUSH1 0x1 SLOAD DUP9 LT PUSH2 0xC7C JUMPI PUSH1 0x40 MLOAD PUSH3 0x461BCD PUSH1 0xE5 SHL DUP2 MSTORE PUSH1 0x20 PUSH1 0x4 DUP3 ADD MSTORE PUSH1 0x1A PUSH1 0x24 DUP3 ADD MSTORE PUSH32 0x5472616E73616374696F6E20646F6573206E6F74206578697374000000000000 PUSH1 0x44 DUP3 ADD MSTORE PUSH1 0x64 ADD PUSH2 0x786 JUMP JUMPDEST PUSH1 0x0 DUP9 DUP2 MSTORE PUSH1 0x5 PUSH1 0x20 SWAP1 DUP2 MSTORE PUSH1 0x40 DUP1 DUP4 KECCAK256 DUP2 MLOAD PUSH2 0x100 DUP2 ADD SWAP1 SWAP3 MSTORE DUP1 SLOAD PUSH1 0x1 PUSH1 0x1 PUSH1 0xA0 SHL SUB AND DUP3 MSTORE PUSH1 0x1 DUP2 ADD DUP1 SLOAD SWAP3 SWAP4 SWAP2 SWAP3 SWAP2 DUP5 ADD SWAP2 PUSH2 0xCBB SWAP1 PUSH2 0x37A4 JUMP JUMPDEST DUP1 PUSH1 0x1F ADD PUSH1 0x20 DUP1 SWAP2 DIV MUL PUSH1 0x20 ADD PUSH1 0x40 MLOAD SWAP1 DUP2 ADD PUSH1 0x40 MSTORE DUP1 SWAP3 SWAP2 SWAP1 DUP2 DUP2 MSTORE PUSH1 0x20 ADD DUP3 DUP1 SLOAD PUSH2 0xCE7 SWAP1 PUSH2 0x37A4 JUMP JUMPDEST DUP1 ISZERO PUSH2 0xD34 JUMPI DUP1 PUSH1 0x1F LT PUSH2 0xD09 JUMPI PUSH2 0x100 DUP1 DUP4 SLOAD DIV MUL DUP4 MSTORE SWAP2 PUSH1 0x20 ADD SWAP2 PUSH2 0xD34 JUMP JUMPDEST DUP3 ADD SWAP2 SWAP1 PUSH1 0x0 MSTORE PUSH1 0x20 PUSH1 0x0 KECCAK256 SWAP1 JUMPDEST DUP2 SLOAD DUP2 MSTORE SWAP1 PUSH1 0x1 ADD SWAP1 PUSH1 0x20 ADD DUP1 DUP4 GT PUSH2 0xD17 JUMPI DUP3 SWAP1 SUB PUSH1 0x1F AND DUP3 ADD SWAP2 JUMPDEST POP POP POP SWAP2 DUP4 MSTORE POP POP PUSH1 0x2 DUP3 ADD SLOAD PUSH1 0x20 SWAP1 SWAP2 ADD SWAP1 PUSH1 0xFF AND PUSH1 0x8 DUP2 GT ISZERO PUSH2 0xD5B JUMPI PUSH2 0xD5B PUSH2 0x30E8 JUMP JUMPDEST PUSH1 0x8 DUP2 GT ISZERO PUSH2 0xD6C JUMPI PUSH2 0xD6C PUSH2 0x30E8 JUMP JUMPDEST DUP2 MSTORE PUSH1 0x20 ADD PUSH1 0x3 DUP3 ADD SLOAD DUP2 MSTORE PUSH1 0x20 ADD PUSH1 0x4 DUP3 ADD SLOAD DUP2 MSTORE PUSH1 0x20 ADD PUSH1 0x5 DUP3 ADD DUP1 SLOAD PUSH2 0xD94 SWAP1 PUSH2 0x37A4 JUMP JUMPDEST DUP1 PUSH1 0x1F ADD PUSH1 0x20 DUP1 SWAP2 DIV MUL PUSH1 0x20 ADD PUSH1 0x40 MLOAD SWAP1 DUP2 ADD PUSH1 0x40 MSTORE DUP1 SWAP3 SWAP2 SWAP1 DUP2 DUP2 MSTORE PUSH1 0x20 ADD DUP3 DUP1 SLOAD PUSH2 0xDC0 SWAP1 PUSH2 0x37A4 JUMP JUMPDEST DUP1 ISZERO PUSH2 0xE0D JUMPI DUP1 PUSH1 0x1F LT PUSH2 0xDE2 JUMPI PUSH2 0x100 DUP1 DUP4 SLOAD DIV MUL DUP4 MSTORE SWAP2 PUSH1 0x20 ADD SWAP2 PUSH2 0xE0D JUMP JUMPDEST DUP3 ADD SWAP2 SWAP1 PUSH1 0x0 MSTORE PUSH1 0x20 PUSH1 0x0 KECCAK256 SWAP1 JUMPDEST DUP2 SLOAD DUP2 MSTORE SWAP1 PUSH1 0x1 ADD SWAP1 PUSH1 0x20 ADD DUP1 DUP4 GT PUSH2 0xDF0 JUMPI DUP3 SWAP1 SUB PUSH1 0x1F AND DUP3 ADD SWAP2 JUMPDEST POP POP POP SWAP2 DUP4 MSTORE POP POP PUSH1 0x6 DUP3 ADD SLOAD PUSH1 0x20 DUP1 DUP4 ADD SWAP2 SWAP1 SWAP2 MSTORE PUSH1 0x7 SWAP1 SWAP3 ADD SLOAD PUSH1 0xFF AND ISZERO ISZERO PUSH1 0x40 SWAP2 DUP3 ADD MSTORE DUP3 MLOAD SWAP2 DUP4 ADD MLOAD SWAP1 DUP4 ADD MLOAD PUSH1 0x60 DUP5 ADD MLOAD PUSH1 0x80 DUP6 ADD MLOAD PUSH1 0xA0 DUP7 ADD MLOAD PUSH1 0xC0 SWAP1 SWAP7 ADD MLOAD SWAP5 SWAP16 SWAP4 SWAP15 POP SWAP2 SWAP13 POP SWAP11 POP SWAP9 POP SWAP2 SWAP7 POP SWAP5 POP SWAP3 POP POP POP JUMP JUMPDEST PUSH1 0x0 DUP1 SLOAD DUP2 SWAP1 PUSH1 0x1 PUSH1 0x1 PUSH1 0xA0 SHL SUB AND CALLER EQ PUSH2 0xE97 JUMPI PUSH1 0x40 MLOAD PUSH3 0x461BCD PUSH1 0xE5 SHL DUP2 MSTORE PUSH1 0x4 ADD PUSH2 0x786 SWAP1 PUSH2 0x36F9 JUMP JUMPDEST PUSH1 0x8 DUP5 PUSH1 0x40 MLOAD PUSH2 0xEA7 SWAP2 SWAP1 PUSH2 0x3762 JUMP JUMPDEST SWAP1 DUP2 MSTORE PUSH1 0x40 MLOAD SWAP1 DUP2 SWAP1 SUB PUSH1 0x20 ADD SWAP1 KECCAK256 SLOAD PUSH1 0xFF AND PUSH2 0xECA JUMPI PUSH2 0xECA DUP5 PUSH2 0x4E20 PUSH2 0x2B75 JUMP JUMPDEST PUSH1 0x0 PUSH1 0xC DUP6 PUSH1 0x40 MLOAD PUSH2 0xEDC SWAP2 SWAP1 PUSH2 0x3762 JUMP JUMPDEST SWAP1 DUP2 MSTORE PUSH1 0x20 ADD PUSH1 0x40 MLOAD DUP1 SWAP2 SUB SWAP1 KECCAK256 SWAP1 POP PUSH1 0x0 PUSH2 0xEF6 PUSH2 0x2D7D JUMP JUMPDEST SWAP1 POP DUP2 PUSH1 0x2 ADD SLOAD DUP2 GT PUSH2 0xF43 JUMPI PUSH1 0x40 MLOAD PUSH3 0x461BCD PUSH1 0xE5 SHL DUP2 MSTORE PUSH1 0x20 PUSH1 0x4 DUP3 ADD MSTORE PUSH1 0x15 PUSH1 0x24 DUP3 ADD MSTORE PUSH21 0x416C726561647920636C61696D656420746F646179 PUSH1 0x58 SHL PUSH1 0x44 DUP3 ADD MSTORE PUSH1 0x64 ADD PUSH2 0x786 JUMP JUMPDEST PUSH1 0x2 DUP3 ADD SLOAD PUSH2 0xF53 SWAP1 PUSH1 0x1 PUSH2 0x377E JUMP JUMPDEST DUP2 SUB PUSH2 0xF71 JUMPI DUP2 SLOAD DUP3 PUSH1 0x0 PUSH2 0xF67 DUP4 PUSH2 0x38EC JUMP JUMPDEST SWAP2 SWAP1 POP SSTORE POP PUSH2 0xF76 JUMP JUMPDEST PUSH1 0x1 DUP3 SSTORE JUMPDEST PUSH1 0x1 DUP3 ADD SLOAD DUP3 SLOAD GT ISZERO PUSH2 0xF8B JUMPI DUP2 SLOAD PUSH1 0x1 DUP4 ADD SSTORE JUMPDEST PUSH1 0x0 PUSH1 0xE SLOAD PUSH1 0x1 DUP5 PUSH1 0x0 ADD SLOAD PUSH2 0xFA1 SWAP2 SWAP1 PUSH2 0x3791 JUMP JUMPDEST PUSH2 0xFAB SWAP2 SWAP1 PUSH2 0x393E JUMP JUMPDEST SWAP1 POP PUSH1 0xF SLOAD DUP2 GT ISZERO PUSH2 0xFBC JUMPI POP PUSH1 0xF SLOAD JUMPDEST DUP1 PUSH1 0xD SLOAD PUSH2 0xFCA SWAP2 SWAP1 PUSH2 0x377E JUMP JUMPDEST SWAP5 POP PUSH1 0x0 PUSH1 0x6 DUP9 PUSH1 0x40 MLOAD PUSH2 0xFDE SWAP2 SWAP1 PUSH2 0x3762 JUMP JUMPDEST SWAP1 DUP2 MSTORE PUSH1 0x40 MLOAD SWAP1 DUP2 SWAP1 SUB PUSH1 0x20 ADD SWAP1 KECCAK256 PUSH1 0x2 DUP2 ADD DUP1 SLOAD SWAP2 SWAP3 POP DUP8 SWAP1 PUSH1 0x0 PUSH2 0x1004 DUP4 DUP6 PUSH2 0x377E JUMP JUMPDEST SWAP1 SWAP2 SSTORE POP POP DUP2 SLOAD DUP8 SWAP1 DUP4 SWAP1 PUSH1 0x0 SWAP1 PUSH2 0x101D SWAP1 DUP5 SWAP1 PUSH2 0x377E JUMP JUMPDEST SWAP3 POP POP DUP2 SWAP1 SSTORE POP DUP7 DUP3 PUSH1 0x4 ADD PUSH1 0x0 DUP3 DUP3 SLOAD PUSH2 0x1038 SWAP2 SWAP1 PUSH2 0x377E JUMP JUMPDEST SWAP3 POP POP DUP2 SWAP1 SSTORE POP DUP7 PUSH1 0x4 PUSH1 0x0 DUP3 DUP3 SLOAD PUSH2 0x1051 SWAP2 SWAP1 PUSH2 0x377E JUMP JUMPDEST SWAP1 SWAP2 SSTORE POP POP PUSH1 0x2 DUP6 ADD DUP5 SWAP1 SSTORE PUSH1 0x3 DUP6 ADD DUP1 SLOAD SWAP1 PUSH1 0x0 PUSH2 0x106F DUP4 PUSH2 0x38EC JUMP JUMPDEST SWAP1 SWAP2 SSTORE POP POP PUSH1 0x1 SLOAD PUSH1 0x40 DUP1 MLOAD PUSH2 0x100 DUP2 ADD DUP3 MSTORE PUSH1 0x1 PUSH1 0x1 PUSH1 0xA0 SHL SUB DUP12 AND DUP2 MSTORE PUSH1 0x20 DUP2 ADD DUP13 SWAP1 MSTORE SWAP1 DUP2 ADD PUSH1 0x4 DUP2 MSTORE PUSH1 0x20 ADD DUP10 DUP2 MSTORE PUSH1 0x20 ADD DUP5 PUSH1 0x2 ADD SLOAD DUP2 MSTORE PUSH1 0x20 ADD PUSH2 0x10BC DUP9 PUSH1 0x0 ADD SLOAD PUSH2 0x2D91 JUMP JUMPDEST PUSH1 0x40 MLOAD PUSH1 0x20 ADD PUSH2 0x10CC SWAP2 SWAP1 PUSH2 0x3955 JUMP JUMPDEST PUSH1 0x40 DUP1 MLOAD DUP1 DUP4 SUB PUSH1 0x1F NOT ADD DUP2 MSTORE SWAP2 DUP2 MSTORE SWAP1 DUP3 MSTORE TIMESTAMP PUSH1 0x20 DUP1 DUP5 ADD SWAP2 SWAP1 SWAP2 MSTORE PUSH1 0x1 SWAP3 DUP3 ADD DUP4 SWAP1 MSTORE PUSH1 0x0 DUP6 DUP2 MSTORE PUSH1 0x5 DUP3 MSTORE SWAP2 SWAP1 SWAP2 KECCAK256 DUP4 MLOAD DUP2 SLOAD PUSH1 0x1 PUSH1 0x1 PUSH1 0xA0 SHL SUB NOT AND PUSH1 0x1 PUSH1 0x1 PUSH1 0xA0 SHL SUB SWAP1 SWAP2 AND OR DUP2 SSTORE SWAP1 DUP4 ADD MLOAD SWAP1 SWAP2 DUP3 ADD SWAP1 PUSH2 0x112D SWAP1 DUP3 PUSH2 0x382D JUMP JUMPDEST POP PUSH1 0x40 DUP3 ADD MLOAD PUSH1 0x2 DUP3 ADD DUP1 SLOAD PUSH1 0xFF NOT AND PUSH1 0x1 DUP4 PUSH1 0x8 DUP2 GT ISZERO PUSH2 0x1151 JUMPI PUSH2 0x1151 PUSH2 0x30E8 JUMP JUMPDEST MUL OR SWAP1 SSTORE POP PUSH1 0x60 DUP3 ADD MLOAD PUSH1 0x3 DUP3 ADD SSTORE PUSH1 0x80 DUP3 ADD MLOAD PUSH1 0x4 DUP3 ADD SSTORE PUSH1 0xA0 DUP3 ADD MLOAD PUSH1 0x5 DUP3 ADD SWAP1 PUSH2 0x117E SWAP1 DUP3 PUSH2 0x382D JUMP JUMPDEST POP PUSH1 0xC0 DUP3 ADD MLOAD PUSH1 0x6 DUP3 ADD SSTORE PUSH1 0xE0 SWAP1 SWAP2 ADD MLOAD PUSH1 0x7 SWAP2 DUP3 ADD DUP1 SLOAD PUSH1 0xFF NOT AND SWAP2 ISZERO ISZERO SWAP2 SWAP1 SWAP2 OR SWAP1 SSTORE PUSH1 0x40 MLOAD PUSH2 0x11B1 SWAP1 DUP13 SWAP1 PUSH2 0x3762 JUMP JUMPDEST SWAP1 DUP2 MSTORE PUSH1 0x40 MLOAD PUSH1 0x20 SWAP2 DUP2 SWAP1 SUB DUP3 ADD SWAP1 KECCAK256 DUP1 SLOAD PUSH1 0x1 DUP2 ADD DUP3 SSTORE PUSH1 0x0 SWAP2 DUP3 MSTORE SWAP2 DUP2 KECCAK256 SWAP1 SWAP2 ADD DUP3 SWAP1 SSTORE PUSH1 0x5 DUP5 ADD DUP1 SLOAD SWAP2 PUSH2 0x11E7 DUP4 PUSH2 0x38EC JUMP JUMPDEST SWAP1 SWAP2 SSTORE POP POP PUSH1 0x1 DUP1 SLOAD SWAP1 PUSH1 0x0 PUSH2 0x11FC DUP4 PUSH2 0x38EC JUMP JUMPDEST SWAP2 SWAP1 POP SSTORE POP DUP10 PUSH1 0x40 MLOAD PUSH2 0x120F SWAP2 SWAP1 PUSH2 0x3762 JUMP JUMPDEST PUSH1 0x40 DUP1 MLOAD SWAP2 DUP3 SWAP1 SUB DUP3 KECCAK256 DUP9 SLOAD DUP12 DUP5 MSTORE PUSH1 0x20 DUP5 ADD MSTORE TIMESTAMP DUP4 DUP4 ADD MSTORE SWAP1 MLOAD SWAP1 SWAP2 PUSH32 0x39E4F068F478CD08686B9310D1A9771A1CEC66838A6E1718BE63C490624647DD SWAP2 SWAP1 DUP2 SWAP1 SUB PUSH1 0x60 ADD SWAP1 LOG2 DUP10 PUSH1 0x40 MLOAD PUSH2 0x1265 SWAP2 SWAP1 PUSH2 0x3762 JUMP JUMPDEST PUSH1 0x40 DUP1 MLOAD SWAP2 DUP3 SWAP1 SUB DUP3 KECCAK256 PUSH1 0x2 DUP7 ADD SLOAD DUP6 DUP5 MSTORE PUSH1 0x20 DUP5 ADD MSTORE TIMESTAMP DUP4 DUP4 ADD MSTORE SWAP1 MLOAD SWAP1 SWAP2 PUSH1 0x0 DUP1 MLOAD PUSH1 0x20 PUSH2 0x3A7D DUP4 CODECOPY DUP2 MLOAD SWAP2 MSTORE SWAP2 SWAP1 DUP2 SWAP1 SUB PUSH1 0x60 ADD SWAP1 LOG2 POP POP SWAP3 SLOAD SWAP4 POP POP POP POP SWAP3 POP SWAP3 SWAP1 POP JUMP JUMPDEST PUSH1 0x0 SLOAD PUSH1 0x1 PUSH1 0x1 PUSH1 0xA0 SHL SUB AND CALLER EQ PUSH2 0x12D8 JUMPI PUSH1 0x40 MLOAD PUSH3 0x461BCD PUSH1 0xE5 SHL DUP2 MSTORE PUSH1 0x4 ADD PUSH2 0x786 SWAP1 PUSH2 0x36F9 JUMP JUMPDEST PUSH1 0x8 DUP5 PUSH1 0x40 MLOAD PUSH2 0x12E8 SWAP2 SWAP1 PUSH2 0x3762 JUMP JUMPDEST SWAP1 DUP2 MSTORE PUSH1 0x40 MLOAD SWAP1 DUP2 SWAP1 SUB PUSH1 0x20 ADD SWAP1 KECCAK256 SLOAD PUSH1 0xFF AND PUSH2 0x130E JUMPI PUSH2 0x1309 DUP5 DUP4 PUSH2 0x2B75 JUMP JUMPDEST PUSH2 0x1578 JUMP JUMPDEST PUSH1 0x0 PUSH1 0x6 DUP6 PUSH1 0x40 MLOAD PUSH2 0x1320 SWAP2 SWAP1 PUSH2 0x3762 JUMP JUMPDEST SWAP1 DUP2 MSTORE PUSH1 0x40 MLOAD SWAP1 DUP2 SWAP1 SUB PUSH1 0x20 ADD SWAP1 KECCAK256 PUSH1 0x2 DUP2 ADD SLOAD SWAP1 SWAP2 POP PUSH1 0x0 PUSH2 0x1343 DUP3 DUP7 PUSH2 0x399A JUMP JUMPDEST PUSH1 0x2 DUP5 ADD DUP7 SWAP1 SSTORE SWAP1 POP PUSH1 0x0 DUP2 SGT ISZERO PUSH2 0x13A8 JUMPI DUP1 DUP4 PUSH1 0x0 ADD PUSH1 0x0 DUP3 DUP3 SLOAD PUSH2 0x1369 SWAP2 SWAP1 PUSH2 0x377E JUMP JUMPDEST SWAP3 POP POP DUP2 SWAP1 SSTORE POP DUP1 DUP4 PUSH1 0x4 ADD PUSH1 0x0 DUP3 DUP3 SLOAD PUSH2 0x1384 SWAP2 SWAP1 PUSH2 0x377E JUMP JUMPDEST SWAP3 POP POP DUP2 SWAP1 SSTORE POP DUP1 PUSH1 0x4 PUSH1 0x0 DUP3 DUP3 SLOAD PUSH2 0x139D SWAP2 SWAP1 PUSH2 0x377E JUMP JUMPDEST SWAP1 SWAP2 SSTORE POP PUSH2 0x13D3 SWAP1 POP JUMP JUMPDEST PUSH1 0x0 DUP2 SLT ISZERO PUSH2 0x13D3 JUMPI PUSH2 0x13BA DUP2 PUSH2 0x3746 JUMP JUMPDEST DUP4 PUSH1 0x1 ADD PUSH1 0x0 DUP3 DUP3 SLOAD PUSH2 0x13CD SWAP2 SWAP1 PUSH2 0x377E JUMP JUMPDEST SWAP1 SWAP2 SSTORE POP POP JUMPDEST PUSH1 0x1 SLOAD PUSH1 0x40 DUP1 MLOAD PUSH2 0x100 DUP2 ADD DUP3 MSTORE PUSH1 0x1 PUSH1 0x1 PUSH1 0xA0 SHL SUB DUP10 AND DUP2 MSTORE PUSH1 0x20 DUP2 ADD DUP11 SWAP1 MSTORE SWAP1 DUP2 ADD PUSH1 0x7 DUP2 MSTORE PUSH1 0x20 DUP1 DUP3 ADD DUP6 SWAP1 MSTORE PUSH1 0x40 DUP1 DUP4 ADD DUP11 SWAP1 MSTORE PUSH1 0x60 DUP4 ADD DUP10 SWAP1 MSTORE TIMESTAMP PUSH1 0x80 DUP5 ADD MSTORE PUSH1 0x1 PUSH1 0xA0 SWAP1 SWAP4 ADD DUP4 SWAP1 MSTORE PUSH1 0x0 DUP6 DUP2 MSTORE PUSH1 0x5 DUP4 MSTORE KECCAK256 DUP4 MLOAD DUP2 SLOAD PUSH1 0x1 PUSH1 0x1 PUSH1 0xA0 SHL SUB NOT AND PUSH1 0x1 PUSH1 0x1 PUSH1 0xA0 SHL SUB SWAP1 SWAP2 AND OR DUP2 SSTORE SWAP1 DUP4 ADD MLOAD SWAP1 SWAP2 DUP3 ADD SWAP1 PUSH2 0x145B SWAP1 DUP3 PUSH2 0x382D JUMP JUMPDEST POP PUSH1 0x40 DUP3 ADD MLOAD PUSH1 0x2 DUP3 ADD DUP1 SLOAD PUSH1 0xFF NOT AND PUSH1 0x1 DUP4 PUSH1 0x8 DUP2 GT ISZERO PUSH2 0x147F JUMPI PUSH2 0x147F PUSH2 0x30E8 JUMP JUMPDEST MUL OR SWAP1 SSTORE POP PUSH1 0x60 DUP3 ADD MLOAD PUSH1 0x3 DUP3 ADD SSTORE PUSH1 0x80 DUP3 ADD MLOAD PUSH1 0x4 DUP3 ADD SSTORE PUSH1 0xA0 DUP3 ADD MLOAD PUSH1 0x5 DUP3 ADD SWAP1 PUSH2 0x14AC SWAP1 DUP3 PUSH2 0x382D JUMP JUMPDEST POP PUSH1 0xC0 DUP3 ADD MLOAD PUSH1 0x6 DUP3 ADD SSTORE PUSH1 0xE0 SWAP1 SWAP2 ADD MLOAD PUSH1 0x7 SWAP2 DUP3 ADD DUP1 SLOAD PUSH1 0xFF NOT AND SWAP2 ISZERO ISZERO SWAP2 SWAP1 SWAP2 OR SWAP1 SSTORE PUSH1 0x40 MLOAD PUSH2 0x14DF SWAP1 DUP11 SWAP1 PUSH2 0x3762 JUMP JUMPDEST SWAP1 DUP2 MSTORE PUSH1 0x40 MLOAD PUSH1 0x20 SWAP2 DUP2 SWAP1 SUB DUP3 ADD SWAP1 KECCAK256 DUP1 SLOAD PUSH1 0x1 DUP2 ADD DUP3 SSTORE PUSH1 0x0 SWAP2 DUP3 MSTORE SWAP2 DUP2 KECCAK256 SWAP1 SWAP2 ADD DUP3 SWAP1 SSTORE PUSH1 0x5 DUP6 ADD DUP1 SLOAD SWAP2 PUSH2 0x1515 DUP4 PUSH2 0x38EC JUMP JUMPDEST SWAP1 SWAP2 SSTORE POP POP PUSH1 0x1 DUP1 SLOAD SWAP1 PUSH1 0x0 PUSH2 0x152A DUP4 PUSH2 0x38EC JUMP JUMPDEST SWAP2 SWAP1 POP SSTORE POP DUP8 PUSH1 0x40 MLOAD PUSH2 0x153D SWAP2 SWAP1 PUSH2 0x3762 JUMP JUMPDEST PUSH1 0x40 DUP1 MLOAD SWAP2 DUP3 SWAP1 SUB DUP3 KECCAK256 DUP6 DUP4 MSTORE PUSH1 0x20 DUP4 ADD DUP10 SWAP1 MSTORE TIMESTAMP DUP4 DUP4 ADD MSTORE SWAP1 MLOAD SWAP1 SWAP2 PUSH1 0x0 DUP1 MLOAD PUSH1 0x20 PUSH2 0x3A7D DUP4 CODECOPY DUP2 MLOAD SWAP2 MSTORE SWAP2 SWAP1 DUP2 SWAP1 SUB PUSH1 0x60 ADD SWAP1 LOG2 POP POP POP POP JUMPDEST POP POP POP POP JUMP JUMPDEST PUSH1 0x0 PUSH1 0x6 DUP3 PUSH1 0x40 MLOAD PUSH2 0x1590 SWAP2 SWAP1 PUSH2 0x3762 JUMP JUMPDEST SWAP1 DUP2 MSTORE PUSH1 0x20 ADD PUSH1 0x40 MLOAD DUP1 SWAP2 SUB SWAP1 KECCAK256 PUSH1 0x2 ADD SLOAD SWAP1 POP SWAP2 SWAP1 POP JUMP JUMPDEST PUSH1 0x0 SLOAD PUSH1 0x60 SWAP1 PUSH1 0x1 PUSH1 0x1 PUSH1 0xA0 SHL SUB AND CALLER EQ PUSH2 0x15D6 JUMPI PUSH1 0x40 MLOAD PUSH3 0x461BCD PUSH1 0xE5 SHL DUP2 MSTORE PUSH1 0x4 ADD PUSH2 0x786 SWAP1 PUSH2 0x36F9 JUMP JUMPDEST DUP3 MLOAD DUP5 MLOAD EQ PUSH2 0x161F JUMPI PUSH1 0x40 MLOAD PUSH3 0x461BCD PUSH1 0xE5 SHL DUP2 MSTORE PUSH1 0x20 PUSH1 0x4 DUP3 ADD MSTORE PUSH1 0x15 PUSH1 0x24 DUP3 ADD MSTORE PUSH21 0x82E4E4C2F240D8CADCCEE8D040DAD2E6DAC2E8C6D PUSH1 0x5B SHL PUSH1 0x44 DUP3 ADD MSTORE PUSH1 0x64 ADD PUSH2 0x786 JUMP JUMPDEST DUP2 MLOAD DUP4 MLOAD EQ PUSH2 0x1668 JUMPI PUSH1 0x40 MLOAD PUSH3 0x461BCD PUSH1 0xE5 SHL DUP2 MSTORE PUSH1 0x20 PUSH1 0x4 DUP3 ADD MSTORE PUSH1 0x15 PUSH1 0x24 DUP3 ADD MSTORE PUSH21 0x82E4E4C2F240D8CADCCEE8D040DAD2E6DAC2E8C6D PUSH1 0x5B SHL PUSH1 0x44 DUP3 ADD MSTORE PUSH1 0x64 ADD PUSH2 0x786 JUMP JUMPDEST PUSH1 0x8 DUP7 PUSH1 0x40 MLOAD PUSH2 0x1678 SWAP2 SWAP1 PUSH2 0x3762 JUMP JUMPDEST SWAP1 DUP2 MSTORE PUSH1 0x40 MLOAD SWAP1 DUP2 SWAP1 SUB PUSH1 0x20 ADD SWAP1 KECCAK256 SLOAD PUSH1 0xFF AND PUSH2 0x169B JUMPI PUSH2 0x169B DUP7 PUSH2 0x4E20 PUSH2 0x2B75 JUMP JUMPDEST PUSH1 0x0 DUP5 MLOAD PUSH1 0x1 PUSH1 0x1 PUSH1 0x40 SHL SUB DUP2 GT ISZERO PUSH2 0x16B6 JUMPI PUSH2 0x16B6 PUSH2 0x2E99 JUMP JUMPDEST PUSH1 0x40 MLOAD SWAP1 DUP1 DUP3 MSTORE DUP1 PUSH1 0x20 MUL PUSH1 0x20 ADD DUP3 ADD PUSH1 0x40 MSTORE DUP1 ISZERO PUSH2 0x16DF JUMPI DUP2 PUSH1 0x20 ADD PUSH1 0x20 DUP3 MUL DUP1 CALLDATASIZE DUP4 CALLDATACOPY ADD SWAP1 POP JUMPDEST POP SWAP1 POP PUSH1 0x0 PUSH1 0x6 DUP9 PUSH1 0x40 MLOAD PUSH2 0x16F4 SWAP2 SWAP1 PUSH2 0x3762 JUMP JUMPDEST SWAP1 DUP2 MSTORE PUSH1 0x20 ADD PUSH1 0x40 MLOAD DUP1 SWAP2 SUB SWAP1 KECCAK256 SWAP1 POP PUSH1 0x0 JUMPDEST DUP7 MLOAD DUP2 LT ISZERO PUSH2 0x1BDC JUMPI DUP6 DUP2 DUP2 MLOAD DUP2 LT PUSH2 0x1722 JUMPI PUSH2 0x1722 PUSH2 0x39C1 JUMP JUMPDEST PUSH1 0x20 MUL PUSH1 0x20 ADD ADD MLOAD PUSH1 0x0 SUB PUSH2 0x1771 JUMPI PUSH1 0x40 MLOAD PUSH3 0x461BCD PUSH1 0xE5 SHL DUP2 MSTORE PUSH1 0x20 PUSH1 0x4 DUP3 ADD MSTORE PUSH1 0x15 PUSH1 0x24 DUP3 ADD MSTORE PUSH21 0x416D6F756E742063616E6E6F74206265207A65726F PUSH1 0x58 SHL PUSH1 0x44 DUP3 ADD MSTORE PUSH1 0x64 ADD PUSH2 0x786 JUMP JUMPDEST PUSH1 0x0 DUP3 PUSH1 0x2 ADD SLOAD SWAP1 POP PUSH1 0x0 DUP8 DUP4 DUP2 MLOAD DUP2 LT PUSH2 0x178E JUMPI PUSH2 0x178E PUSH2 0x39C1 JUMP JUMPDEST PUSH1 0x20 MUL PUSH1 0x20 ADD ADD MLOAD SGT ISZERO PUSH2 0x186E JUMPI DUP7 DUP3 DUP2 MLOAD DUP2 LT PUSH2 0x17AE JUMPI PUSH2 0x17AE PUSH2 0x39C1 JUMP JUMPDEST PUSH1 0x20 MUL PUSH1 0x20 ADD ADD MLOAD DUP4 PUSH1 0x2 ADD PUSH1 0x0 DUP3 DUP3 SLOAD PUSH2 0x17C9 SWAP2 SWAP1 PUSH2 0x377E JUMP JUMPDEST SWAP3 POP POP DUP2 SWAP1 SSTORE POP DUP7 DUP3 DUP2 MLOAD DUP2 LT PUSH2 0x17E2 JUMPI PUSH2 0x17E2 PUSH2 0x39C1 JUMP JUMPDEST PUSH1 0x20 MUL PUSH1 0x20 ADD ADD MLOAD DUP4 PUSH1 0x0 ADD PUSH1 0x0 DUP3 DUP3 SLOAD PUSH2 0x17FD SWAP2 SWAP1 PUSH2 0x377E JUMP JUMPDEST SWAP3 POP POP DUP2 SWAP1 SSTORE POP DUP7 DUP3 DUP2 MLOAD DUP2 LT PUSH2 0x1816 JUMPI PUSH2 0x1816 PUSH2 0x39C1 JUMP JUMPDEST PUSH1 0x20 MUL PUSH1 0x20 ADD ADD MLOAD DUP4 PUSH1 0x4 ADD PUSH1 0x0 DUP3 DUP3 SLOAD PUSH2 0x1831 SWAP2 SWAP1 PUSH2 0x377E JUMP JUMPDEST SWAP3 POP POP DUP2 SWAP1 SSTORE POP DUP7 DUP3 DUP2 MLOAD DUP2 LT PUSH2 0x184A JUMPI PUSH2 0x184A PUSH2 0x39C1 JUMP JUMPDEST PUSH1 0x20 MUL PUSH1 0x20 ADD ADD MLOAD PUSH1 0x4 PUSH1 0x0 DUP3 DUP3 SLOAD PUSH2 0x1863 SWAP2 SWAP1 PUSH2 0x377E JUMP JUMPDEST SWAP1 SWAP2 SSTORE POP PUSH2 0x1916 SWAP1 POP JUMP JUMPDEST PUSH1 0x0 DUP8 DUP4 DUP2 MLOAD DUP2 LT PUSH2 0x1882 JUMPI PUSH2 0x1882 PUSH2 0x39C1 JUMP JUMPDEST PUSH1 0x20 MUL PUSH1 0x20 ADD ADD MLOAD PUSH2 0x1893 SWAP1 PUSH2 0x3746 JUMP JUMPDEST SWAP1 POP DUP1 DUP5 PUSH1 0x2 ADD SLOAD LT ISZERO PUSH2 0x18E0 JUMPI PUSH1 0x40 MLOAD PUSH3 0x461BCD PUSH1 0xE5 SHL DUP2 MSTORE PUSH1 0x20 PUSH1 0x4 DUP3 ADD MSTORE PUSH1 0x14 PUSH1 0x24 DUP3 ADD MSTORE PUSH20 0x496E73756666696369656E742062616C616E6365 PUSH1 0x60 SHL PUSH1 0x44 DUP3 ADD MSTORE PUSH1 0x64 ADD PUSH2 0x786 JUMP JUMPDEST DUP1 DUP5 PUSH1 0x2 ADD PUSH1 0x0 DUP3 DUP3 SLOAD PUSH2 0x18F4 SWAP2 SWAP1 PUSH2 0x3791 JUMP JUMPDEST SWAP3 POP POP DUP2 SWAP1 SSTORE POP DUP1 DUP5 PUSH1 0x1 ADD PUSH1 0x0 DUP3 DUP3 SLOAD PUSH2 0x190F SWAP2 SWAP1 PUSH2 0x377E JUMP JUMPDEST SWAP1 SWAP2 SSTORE POP POP POP JUMPDEST PUSH1 0x0 DUP4 PUSH1 0x2 ADD SLOAD SWAP1 POP PUSH1 0x0 PUSH1 0x1 SLOAD SWAP1 POP PUSH1 0x40 MLOAD DUP1 PUSH2 0x100 ADD PUSH1 0x40 MSTORE DUP1 DUP13 PUSH1 0x1 PUSH1 0x1 PUSH1 0xA0 SHL SUB AND DUP2 MSTORE PUSH1 0x20 ADD DUP14 DUP2 MSTORE PUSH1 0x20 ADD DUP12 DUP7 DUP2 MLOAD DUP2 LT PUSH2 0x1959 JUMPI PUSH2 0x1959 PUSH2 0x39C1 JUMP JUMPDEST PUSH1 0x20 MUL PUSH1 0x20 ADD ADD MLOAD PUSH1 0x8 DUP2 GT ISZERO PUSH2 0x1972 JUMPI PUSH2 0x1972 PUSH2 0x30E8 JUMP JUMPDEST DUP2 MSTORE PUSH1 0x20 ADD DUP11 DUP7 DUP2 MLOAD DUP2 LT PUSH2 0x1989 JUMPI PUSH2 0x1989 PUSH2 0x39C1 JUMP JUMPDEST PUSH1 0x20 MUL PUSH1 0x20 ADD ADD MLOAD DUP2 MSTORE PUSH1 0x20 ADD DUP4 DUP2 MSTORE PUSH1 0x20 ADD DUP10 DUP7 DUP2 MLOAD DUP2 LT PUSH2 0x19AE JUMPI PUSH2 0x19AE PUSH2 0x39C1 JUMP JUMPDEST PUSH1 0x20 SWAP1 DUP2 MUL SWAP2 SWAP1 SWAP2 ADD DUP2 ADD MLOAD DUP3 MSTORE TIMESTAMP DUP3 DUP3 ADD MSTORE PUSH1 0x1 PUSH1 0x40 SWAP3 DUP4 ADD DUP2 SWAP1 MSTORE PUSH1 0x0 DUP6 DUP2 MSTORE PUSH1 0x5 DUP4 MSTORE SWAP3 SWAP1 SWAP3 KECCAK256 DUP4 MLOAD DUP2 SLOAD PUSH1 0x1 PUSH1 0x1 PUSH1 0xA0 SHL SUB NOT AND PUSH1 0x1 PUSH1 0x1 PUSH1 0xA0 SHL SUB SWAP1 SWAP2 AND OR DUP2 SSTORE SWAP1 DUP4 ADD MLOAD SWAP1 SWAP2 DUP3 ADD SWAP1 PUSH2 0x1A07 SWAP1 DUP3 PUSH2 0x382D JUMP JUMPDEST POP PUSH1 0x40 DUP3 ADD MLOAD PUSH1 0x2 DUP3 ADD DUP1 SLOAD PUSH1 0xFF NOT AND PUSH1 0x1 DUP4 PUSH1 0x8 DUP2 GT ISZERO PUSH2 0x1A2B JUMPI PUSH2 0x1A2B PUSH2 0x30E8 JUMP JUMPDEST MUL OR SWAP1 SSTORE POP PUSH1 0x60 DUP3 ADD MLOAD PUSH1 0x3 DUP3 ADD SSTORE PUSH1 0x80 DUP3 ADD MLOAD PUSH1 0x4 DUP3 ADD SSTORE PUSH1 0xA0 DUP3 ADD MLOAD PUSH1 0x5 DUP3 ADD SWAP1 PUSH2 0x1A58 SWAP1 DUP3 PUSH2 0x382D JUMP JUMPDEST POP PUSH1 0xC0 DUP3 ADD MLOAD PUSH1 0x6 DUP3 ADD SSTORE PUSH1 0xE0 SWAP1 SWAP2 ADD MLOAD PUSH1 0x7 SWAP2 DUP3 ADD DUP1 SLOAD PUSH1 0xFF NOT AND SWAP2 ISZERO ISZERO SWAP2 SWAP1 SWAP2 OR SWAP1 SSTORE PUSH1 0x40 MLOAD PUSH2 0x1A8B SWAP1 DUP15 SWAP1 PUSH2 0x3762 JUMP JUMPDEST SWAP1 DUP2 MSTORE PUSH1 0x40 MLOAD PUSH1 0x20 SWAP2 DUP2 SWAP1 SUB DUP3 ADD SWAP1 KECCAK256 DUP1 SLOAD PUSH1 0x1 DUP2 ADD DUP3 SSTORE PUSH1 0x0 SWAP2 DUP3 MSTORE SWAP2 DUP2 KECCAK256 SWAP1 SWAP2 ADD DUP3 SWAP1 SSTORE PUSH1 0x5 DUP7 ADD DUP1 SLOAD SWAP2 PUSH2 0x1AC1 DUP4 PUSH2 0x38EC JUMP JUMPDEST SWAP1 SWAP2 SSTORE POP POP PUSH1 0x1 DUP1 SLOAD SWAP1 PUSH1 0x0 PUSH2 0x1AD6 DUP4 PUSH2 0x38EC JUMP JUMPDEST SWAP2 SWAP1 POP SSTORE POP DUP1 DUP7 DUP6 DUP2 MLOAD DUP2 LT PUSH2 0x1AEE JUMPI PUSH2 0x1AEE PUSH2 0x39C1 JUMP JUMPDEST PUSH1 0x20 MUL PUSH1 0x20 ADD ADD DUP2 DUP2 MSTORE POP POP DUP12 PUSH1 0x40 MLOAD PUSH2 0x1B08 SWAP2 SWAP1 PUSH2 0x3762 JUMP JUMPDEST PUSH1 0x40 MLOAD DUP1 SWAP2 SUB SWAP1 KECCAK256 DUP2 PUSH32 0xC9FA5F81F5DF11AB387E6FE895B928D540618F9BD047CD5E8F7562073AB4600D DUP14 DUP14 DUP9 DUP2 MLOAD DUP2 LT PUSH2 0x1B45 JUMPI PUSH2 0x1B45 PUSH2 0x39C1 JUMP JUMPDEST PUSH1 0x20 MUL PUSH1 0x20 ADD ADD MLOAD DUP14 DUP10 DUP2 MLOAD DUP2 LT PUSH2 0x1B5F JUMPI PUSH2 0x1B5F PUSH2 0x39C1 JUMP JUMPDEST PUSH1 0x20 MUL PUSH1 0x20 ADD ADD MLOAD DUP8 TIMESTAMP PUSH1 0x40 MLOAD PUSH2 0x1B7A SWAP6 SWAP5 SWAP4 SWAP3 SWAP2 SWAP1 PUSH2 0x3905 JUMP JUMPDEST PUSH1 0x40 MLOAD DUP1 SWAP2 SUB SWAP1 LOG3 DUP12 PUSH1 0x40 MLOAD PUSH2 0x1B90 SWAP2 SWAP1 PUSH2 0x3762 JUMP JUMPDEST PUSH1 0x40 DUP1 MLOAD SWAP2 DUP3 SWAP1 SUB DUP3 KECCAK256 DUP6 DUP4 MSTORE PUSH1 0x20 DUP4 ADD DUP6 SWAP1 MSTORE TIMESTAMP DUP4 DUP4 ADD MSTORE SWAP1 MLOAD SWAP1 SWAP2 PUSH1 0x0 DUP1 MLOAD PUSH1 0x20 PUSH2 0x3A7D DUP4 CODECOPY DUP2 MLOAD SWAP2 MSTORE SWAP2 SWAP1 DUP2 SWAP1 SUB PUSH1 0x60 ADD SWAP1 LOG2 POP POP POP DUP1 DUP1 PUSH2 0x1BD4 SWAP1 PUSH2 0x38EC JUMP JUMPDEST SWAP2 POP POP PUSH2 0x1707 JUMP JUMPDEST POP TIMESTAMP PUSH1 0x6 SWAP1 SWAP2 ADD SSTORE SWAP1 POP SWAP6 SWAP5 POP POP POP POP POP JUMP JUMPDEST PUSH1 0x60 PUSH1 0xA DUP3 PUSH1 0x40 MLOAD PUSH2 0x1C01 SWAP2 SWAP1 PUSH2 0x3762 JUMP JUMPDEST SWAP1 DUP2 MSTORE PUSH1 0x40 DUP1 MLOAD SWAP2 DUP3 SWAP1 SUB PUSH1 0x20 SWAP1 DUP2 ADD DUP4 KECCAK256 DUP1 SLOAD DUP1 DUP4 MUL DUP6 ADD DUP4 ADD SWAP1 SWAP4 MSTORE DUP3 DUP5 MSTORE SWAP2 SWAP1 DUP4 ADD DUP3 DUP3 DUP1 ISZERO PUSH2 0x1C53 JUMPI PUSH1 0x20 MUL DUP3 ADD SWAP2 SWAP1 PUSH1 0x0 MSTORE PUSH1 0x20 PUSH1 0x0 KECCAK256 SWAP1 JUMPDEST DUP2 SLOAD DUP2 MSTORE PUSH1 0x20 ADD SWAP1 PUSH1 0x1 ADD SWAP1 DUP1 DUP4 GT PUSH2 0x1C3F JUMPI JUMPDEST POP POP POP POP POP SWAP1 POP SWAP2 SWAP1 POP JUMP JUMPDEST PUSH1 0x0 DUP1 SLOAD PUSH1 0x1 PUSH1 0x1 PUSH1 0xA0 SHL SUB AND CALLER EQ PUSH2 0x1C8A JUMPI PUSH1 0x40 MLOAD PUSH3 0x461BCD PUSH1 0xE5 SHL DUP2 MSTORE PUSH1 0x4 ADD PUSH2 0x786 SWAP1 PUSH2 0x36F9 JUMP JUMPDEST PUSH1 0xB DUP7 PUSH1 0x40 MLOAD PUSH2 0x1C9A SWAP2 SWAP1 PUSH2 0x3762 JUMP JUMPDEST SWAP1 DUP2 MSTORE PUSH1 0x20 ADD PUSH1 0x40 MLOAD DUP1 SWAP2 SUB SWAP1 KECCAK256 DUP5 PUSH1 0x40 MLOAD PUSH2 0x1CB6 SWAP2 SWAP1 PUSH2 0x3762 JUMP JUMPDEST SWAP1 DUP2 MSTORE PUSH1 0x40 MLOAD SWAP1 DUP2 SWAP1 SUB PUSH1 0x20 ADD SWAP1 KECCAK256 SLOAD PUSH1 0xFF AND ISZERO PUSH2 0x1D0F JUMPI PUSH1 0x40 MLOAD PUSH3 0x461BCD PUSH1 0xE5 SHL DUP2 MSTORE PUSH1 0x20 PUSH1 0x4 DUP3 ADD MSTORE PUSH1 0x16 PUSH1 0x24 DUP3 ADD MSTORE PUSH22 0x14995DD85C9908185B1C9958591E4818DB185A5B5959 PUSH1 0x52 SHL PUSH1 0x44 DUP3 ADD MSTORE PUSH1 0x64 ADD PUSH2 0x786 JUMP JUMPDEST PUSH1 0x0 DUP4 GT PUSH2 0x1D5F JUMPI PUSH1 0x40 MLOAD PUSH3 0x461BCD PUSH1 0xE5 SHL DUP2 MSTORE PUSH1 0x20 PUSH1 0x4 DUP3 ADD MSTORE PUSH1 0x1E PUSH1 0x24 DUP3 ADD MSTORE PUSH32 0x52657761726420616D6F756E74206D75737420626520706F7369746976650000 PUSH1 0x44 DUP3 ADD MSTORE PUSH1 0x64 ADD PUSH2 0x786 JUMP JUMPDEST PUSH1 0x10 SLOAD DUP4 GT ISZERO PUSH2 0x1DAA JUMPI PUSH1 0x40 MLOAD PUSH3 0x461BCD PUSH1 0xE5 SHL DUP2 MSTORE PUSH1 0x20 PUSH1 0x4 DUP3 ADD MSTORE PUSH1 0x16 PUSH1 0x24 DUP3 ADD MSTORE PUSH22 0xA4CAEEC2E4C840C2DADEEADCE840E8DEDE40D0D2CED PUSH1 0x53 SHL PUSH1 0x44 DUP3 ADD MSTORE PUSH1 0x64 ADD PUSH2 0x786 JUMP JUMPDEST PUSH1 0x8 DUP7 PUSH1 0x40 MLOAD PUSH2 0x1DBA SWAP2 SWAP1 PUSH2 0x3762 JUMP JUMPDEST SWAP1 DUP2 MSTORE PUSH1 0x40 MLOAD SWAP1 DUP2 SWAP1 SUB PUSH1 0x20 ADD SWAP1 KECCAK256 SLOAD PUSH1 0xFF AND PUSH2 0x1DDD JUMPI PUSH2 0x1DDD DUP7 PUSH2 0x4E20 PUSH2 0x2B75 JUMP JUMPDEST PUSH1 0x1 PUSH1 0xB DUP8 PUSH1 0x40 MLOAD PUSH2 0x1DEF SWAP2 SWAP1 PUSH2 0x3762 JUMP JUMPDEST SWAP1 DUP2 MSTORE PUSH1 0x20 ADD PUSH1 0x40 MLOAD DUP1 SWAP2 SUB SWAP1 KECCAK256 DUP6 PUSH1 0x40 MLOAD PUSH2 0x1E0B SWAP2 SWAP1 PUSH2 0x3762 JUMP JUMPDEST SWAP1 DUP2 MSTORE PUSH1 0x40 MLOAD SWAP1 DUP2 SWAP1 SUB PUSH1 0x20 ADD DUP2 KECCAK256 DUP1 SLOAD SWAP3 ISZERO ISZERO PUSH1 0xFF NOT SWAP1 SWAP4 AND SWAP3 SWAP1 SWAP3 OR SWAP1 SWAP2 SSTORE PUSH1 0x0 SWAP1 PUSH1 0x6 SWAP1 PUSH2 0x1E3D SWAP1 DUP10 SWAP1 PUSH2 0x3762 JUMP JUMPDEST SWAP1 DUP2 MSTORE PUSH1 0x40 MLOAD SWAP1 DUP2 SWAP1 SUB PUSH1 0x20 ADD SWAP1 KECCAK256 PUSH1 0x2 DUP2 ADD DUP1 SLOAD SWAP2 SWAP3 POP DUP6 SWAP1 PUSH1 0x0 PUSH2 0x1E63 DUP4 DUP6 PUSH2 0x377E JUMP JUMPDEST SWAP1 SWAP2 SSTORE POP POP DUP2 SLOAD DUP6 SWAP1 DUP4 SWAP1 PUSH1 0x0 SWAP1 PUSH2 0x1E7C SWAP1 DUP5 SWAP1 PUSH2 0x377E JUMP JUMPDEST SWAP3 POP POP DUP2 SWAP1 SSTORE POP DUP5 DUP3 PUSH1 0x4 ADD PUSH1 0x0 DUP3 DUP3 SLOAD PUSH2 0x1E97 SWAP2 SWAP1 PUSH2 0x377E JUMP JUMPDEST SWAP3 POP POP DUP2 SWAP1 SSTORE POP DUP5 PUSH1 0x4 PUSH1 0x0 DUP3 DUP3 SLOAD PUSH2 0x1EB0 SWAP2 SWAP1 PUSH2 0x377E JUMP JUMPDEST SWAP1 SWAP2 SSTORE POP POP PUSH1 0x2 SLOAD PUSH1 0x40 DUP1 MLOAD PUSH1 0xC0 DUP2 ADD DUP3 MSTORE PUSH1 0x1 PUSH1 0x1 PUSH1 0xA0 SHL SUB DUP11 DUP2 AND DUP3 MSTORE PUSH1 0x20 DUP1 DUP4 ADD DUP14 DUP2 MSTORE DUP4 DUP6 ADD DUP13 SWAP1 MSTORE PUSH1 0x60 DUP5 ADD DUP12 SWAP1 MSTORE TIMESTAMP PUSH1 0x80 DUP6 ADD MSTORE PUSH1 0x1 PUSH1 0xA0 DUP6 ADD DUP2 SWAP1 MSTORE PUSH1 0x0 DUP8 DUP2 MSTORE PUSH1 0x9 SWAP1 SWAP4 MSTORE SWAP5 SWAP1 SWAP2 KECCAK256 DUP4 MLOAD DUP2 SLOAD PUSH1 0x1 PUSH1 0x1 PUSH1 0xA0 SHL SUB NOT AND SWAP4 AND SWAP3 SWAP1 SWAP3 OR DUP3 SSTORE MLOAD SWAP2 SWAP3 SWAP1 SWAP2 SWAP1 DUP3 ADD SWAP1 PUSH2 0x1F2A SWAP1 DUP3 PUSH2 0x382D JUMP JUMPDEST POP PUSH1 0x40 DUP3 ADD MLOAD PUSH1 0x2 DUP3 ADD SWAP1 PUSH2 0x1F3F SWAP1 DUP3 PUSH2 0x382D JUMP JUMPDEST POP PUSH1 0x60 DUP3 ADD MLOAD PUSH1 0x3 DUP3 ADD SSTORE PUSH1 0x80 DUP3 ADD MLOAD PUSH1 0x4 DUP3 ADD SSTORE PUSH1 0xA0 SWAP1 SWAP2 ADD MLOAD PUSH1 0x5 SWAP1 SWAP2 ADD DUP1 SLOAD PUSH1 0xFF NOT AND SWAP2 ISZERO ISZERO SWAP2 SWAP1 SWAP2 OR SWAP1 SSTORE PUSH1 0x40 MLOAD PUSH1 0xA SWAP1 PUSH2 0x1F7F SWAP1 DUP12 SWAP1 PUSH2 0x3762 JUMP JUMPDEST SWAP1 DUP2 MSTORE PUSH1 0x40 MLOAD PUSH1 0x20 SWAP2 DUP2 SWAP1 SUB DUP3 ADD SWAP1 KECCAK256 DUP1 SLOAD PUSH1 0x1 DUP2 ADD DUP3 SSTORE PUSH1 0x0 SWAP2 DUP3 MSTORE SWAP2 DUP2 KECCAK256 SWAP1 SWAP2 ADD DUP3 SWAP1 SSTORE PUSH1 0x2 DUP1 SLOAD SWAP2 PUSH2 0x1FB3 DUP4 PUSH2 0x38EC JUMP JUMPDEST SWAP1 SWAP2 SSTORE POP POP PUSH1 0x1 SLOAD PUSH1 0x40 DUP1 MLOAD PUSH2 0x100 DUP2 ADD DUP3 MSTORE PUSH1 0x1 PUSH1 0x1 PUSH1 0xA0 SHL SUB DUP12 AND DUP2 MSTORE PUSH1 0x20 DUP2 ADD DUP13 SWAP1 MSTORE SWAP1 DUP2 ADD PUSH1 0x2 DUP2 MSTORE PUSH1 0x20 ADD DUP9 DUP2 MSTORE PUSH1 0x20 ADD DUP6 PUSH1 0x2 ADD SLOAD DUP2 MSTORE PUSH1 0x20 ADD DUP10 PUSH1 0x40 MLOAD PUSH1 0x20 ADD PUSH2 0x2004 SWAP2 SWAP1 PUSH2 0x39D7 JUMP JUMPDEST PUSH1 0x40 DUP1 MLOAD DUP1 DUP4 SUB PUSH1 0x1F NOT ADD DUP2 MSTORE SWAP2 DUP2 MSTORE SWAP1 DUP3 MSTORE TIMESTAMP PUSH1 0x20 DUP1 DUP5 ADD SWAP2 SWAP1 SWAP2 MSTORE PUSH1 0x1 SWAP3 DUP3 ADD DUP4 SWAP1 MSTORE PUSH1 0x0 DUP6 DUP2 MSTORE PUSH1 0x5 DUP3 MSTORE SWAP2 SWAP1 SWAP2 KECCAK256 DUP4 MLOAD DUP2 SLOAD PUSH1 0x1 PUSH1 0x1 PUSH1 0xA0 SHL SUB NOT AND PUSH1 0x1 PUSH1 0x1 PUSH1 0xA0 SHL SUB SWAP1 SWAP2 AND OR DUP2 SSTORE SWAP1 DUP4 ADD MLOAD SWAP1 SWAP2 DUP3 ADD SWAP1 PUSH2 0x2065 SWAP1 DUP3 PUSH2 0x382D JUMP JUMPDEST POP PUSH1 0x40 DUP3 ADD MLOAD PUSH1 0x2 DUP3 ADD DUP1 SLOAD PUSH1 0xFF NOT AND PUSH1 0x1 DUP4 PUSH1 0x8 DUP2 GT ISZERO PUSH2 0x2089 JUMPI PUSH2 0x2089 PUSH2 0x30E8 JUMP JUMPDEST MUL OR SWAP1 SSTORE POP PUSH1 0x60 DUP3 ADD MLOAD PUSH1 0x3 DUP3 ADD SSTORE PUSH1 0x80 DUP3 ADD MLOAD PUSH1 0x4 DUP3 ADD SSTORE PUSH1 0xA0 DUP3 ADD MLOAD PUSH1 0x5 DUP3 ADD SWAP1 PUSH2 0x20B6 SWAP1 DUP3 PUSH2 0x382D JUMP JUMPDEST POP PUSH1 0xC0 DUP3 ADD MLOAD PUSH1 0x6 DUP3 ADD SSTORE PUSH1 0xE0 SWAP1 SWAP2 ADD MLOAD PUSH1 0x7 SWAP2 DUP3 ADD DUP1 SLOAD PUSH1 0xFF NOT AND SWAP2 ISZERO ISZERO SWAP2 SWAP1 SWAP2 OR SWAP1 SSTORE PUSH1 0x40 MLOAD PUSH2 0x20E9 SWAP1 DUP13 SWAP1 PUSH2 0x3762 JUMP JUMPDEST SWAP1 DUP2 MSTORE PUSH1 0x40 MLOAD PUSH1 0x20 SWAP2 DUP2 SWAP1 SUB DUP3 ADD SWAP1 KECCAK256 DUP1 SLOAD PUSH1 0x1 DUP2 ADD DUP3 SSTORE PUSH1 0x0 SWAP2 DUP3 MSTORE SWAP2 DUP2 KECCAK256 SWAP1 SWAP2 ADD DUP3 SWAP1 SSTORE PUSH1 0x5 DUP6 ADD DUP1 SLOAD SWAP2 PUSH2 0x211F DUP4 PUSH2 0x38EC JUMP JUMPDEST SWAP1 SWAP2 SSTORE POP POP PUSH1 0x1 DUP1 SLOAD SWAP1 PUSH1 0x0 PUSH2 0x2134 DUP4 PUSH2 0x38EC JUMP JUMPDEST SWAP2 SWAP1 POP SSTORE POP DUP10 PUSH1 0x40 MLOAD PUSH2 0x2147 SWAP2 SWAP1 PUSH2 0x3762 JUMP JUMPDEST PUSH1 0x40 MLOAD DUP1 SWAP2 SUB SWAP1 KECCAK256 DUP3 PUSH32 0xF11B3DCFFDF653C445209FD584FE93EF146816EEA38AA6F5A40CF253B837C8A DUP12 DUP10 DUP12 TIMESTAMP PUSH1 0x40 MLOAD PUSH2 0x2185 SWAP5 SWAP4 SWAP3 SWAP2 SWAP1 PUSH2 0x3A07 JUMP JUMPDEST PUSH1 0x40 MLOAD DUP1 SWAP2 SUB SWAP1 LOG3 DUP10 PUSH1 0x40 MLOAD PUSH2 0x219B SWAP2 SWAP1 PUSH2 0x3762 JUMP JUMPDEST PUSH1 0x40 DUP1 MLOAD SWAP2 DUP3 SWAP1 SUB DUP3 KECCAK256 PUSH1 0x2 DUP8 ADD SLOAD DUP7 DUP5 MSTORE PUSH1 0x20 DUP5 ADD MSTORE TIMESTAMP DUP4 DUP4 ADD MSTORE SWAP1 MLOAD SWAP1 SWAP2 PUSH1 0x0 DUP1 MLOAD PUSH1 0x20 PUSH2 0x3A7D DUP4 CODECOPY DUP2 MLOAD SWAP2 MSTORE SWAP2 SWAP1 DUP2 SWAP1 SUB PUSH1 0x60 ADD SWAP1 LOG2 POP SWAP9 SWAP8 POP POP POP POP POP POP POP POP JUMP JUMPDEST PUSH1 0x60 PUSH1 0x7 DUP3 PUSH1 0x40 MLOAD PUSH2 0x1C01 SWAP2 SWAP1 PUSH2 0x3762 JUMP JUMPDEST PUSH1 0x0 SLOAD PUSH1 0x1 PUSH1 0x1 PUSH1 0xA0 SHL SUB AND CALLER EQ PUSH2 0x221D JUMPI PUSH1 0x40 MLOAD PUSH3 0x461BCD PUSH1 0xE5 SHL DUP2 MSTORE PUSH1 0x4 ADD PUSH2 0x786 SWAP1 PUSH2 0x36F9 JUMP JUMPDEST PUSH1 0x8 DUP3 PUSH1 0x40 MLOAD PUSH2 0x222D SWAP2 SWAP1 PUSH2 0x3762 JUMP JUMPDEST SWAP1 DUP2 MSTORE PUSH1 0x40 MLOAD SWAP1 DUP2 SWAP1 SUB PUSH1 0x20 ADD SWAP1 KECCAK256 SLOAD PUSH1 0xFF AND PUSH2 0x2284 JUMPI PUSH1 0x40 MLOAD PUSH3 0x461BCD PUSH1 0xE5 SHL DUP2 MSTORE PUSH1 0x20 PUSH1 0x4 DUP3 ADD MSTORE PUSH1 0x15 PUSH1 0x24 DUP3 ADD MSTORE PUSH21 0x141B185E595C88191BD95CC81B9BDD08195E1A5CDD PUSH1 0x5A SHL PUSH1 0x44 DUP3 ADD MSTORE PUSH1 0x64 ADD PUSH2 0x786 JUMP JUMPDEST DUP1 PUSH1 0x6 DUP4 PUSH1 0x40 MLOAD PUSH2 0x2295 SWAP2 SWAP1 PUSH2 0x3762 JUMP JUMPDEST SWAP1 DUP2 MSTORE PUSH1 0x40 MLOAD SWAP1 DUP2 SWAP1 SUB PUSH1 0x20 ADD SWAP1 KECCAK256 PUSH1 0x3 ADD SSTORE POP POP JUMP JUMPDEST DUP2 MLOAD PUSH1 0x20 DUP2 DUP5 ADD DUP2 ADD DUP1 MLOAD PUSH1 0xA DUP3 MSTORE SWAP3 DUP3 ADD SWAP2 DUP6 ADD SWAP2 SWAP1 SWAP2 KECCAK256 SWAP2 SWAP1 MSTORE DUP1 SLOAD DUP3 SWAP1 DUP2 LT PUSH2 0x746 JUMPI PUSH1 0x0 DUP1 REVERT JUMPDEST PUSH1 0x0 SLOAD PUSH1 0x1 PUSH1 0x1 PUSH1 0xA0 SHL SUB AND CALLER EQ PUSH2 0x2301 JUMPI PUSH1 0x40 MLOAD PUSH3 0x461BCD PUSH1 0xE5 SHL DUP2 MSTORE PUSH1 0x4 ADD PUSH2 0x786 SWAP1 PUSH2 0x36F9 JUMP JUMPDEST PUSH1 0xD SWAP3 SWAP1 SWAP3 SSTORE PUSH1 0xE SSTORE PUSH1 0xF SSTORE JUMP JUMPDEST PUSH1 0x0 PUSH1 0x60 DUP1 PUSH1 0x0 DUP1 PUSH1 0x2 SLOAD DUP7 LT PUSH2 0x2360 JUMPI PUSH1 0x40 MLOAD PUSH3 0x461BCD PUSH1 0xE5 SHL DUP2 MSTORE PUSH1 0x20 PUSH1 0x4 DUP3 ADD MSTORE PUSH1 0x15 PUSH1 0x24 DUP3 ADD MSTORE PUSH21 0x14995DD85C9908191BD95CC81B9BDD08195E1A5CDD PUSH1 0x5A SHL PUSH1 0x44 DUP3 ADD MSTORE PUSH1 0x64 ADD PUSH2 0x786 JUMP JUMPDEST PUSH1 0x0 DUP7 DUP2 MSTORE PUSH1 0x9 PUSH1 0x20 SWAP1 DUP2 MSTORE PUSH1 0x40 DUP1 DUP4 KECCAK256 DUP2 MLOAD PUSH1 0xC0 DUP2 ADD SWAP1 SWAP3 MSTORE DUP1 SLOAD PUSH1 0x1 PUSH1 0x1 PUSH1 0xA0 SHL SUB AND DUP3 MSTORE PUSH1 0x1 DUP2 ADD DUP1 SLOAD SWAP3 SWAP4 SWAP2 SWAP3 SWAP2 DUP5 ADD SWAP2 PUSH2 0x239E SWAP1 PUSH2 0x37A4 JUMP JUMPDEST DUP1 PUSH1 0x1F ADD PUSH1 0x20 DUP1 SWAP2 DIV MUL PUSH1 0x20 ADD PUSH1 0x40 MLOAD SWAP1 DUP2 ADD PUSH1 0x40 MSTORE DUP1 SWAP3 SWAP2 SWAP1 DUP2 DUP2 MSTORE PUSH1 0x20 ADD DUP3 DUP1 SLOAD PUSH2 0x23CA SWAP1 PUSH2 0x37A4 JUMP JUMPDEST DUP1 ISZERO PUSH2 0x2417 JUMPI DUP1 PUSH1 0x1F LT PUSH2 0x23EC JUMPI PUSH2 0x100 DUP1 DUP4 SLOAD DIV MUL DUP4 MSTORE SWAP2 PUSH1 0x20 ADD SWAP2 PUSH2 0x2417 JUMP JUMPDEST DUP3 ADD SWAP2 SWAP1 PUSH1 0x0 MSTORE PUSH1 0x20 PUSH1 0x0 KECCAK256 SWAP1 JUMPDEST DUP2 SLOAD DUP2 MSTORE SWAP1 PUSH1 0x1 ADD SWAP1 PUSH1 0x20 ADD DUP1 DUP4 GT PUSH2 0x23FA JUMPI DUP3 SWAP1 SUB PUSH1 0x1F AND DUP3 ADD SWAP2 JUMPDEST POP POP POP POP POP DUP2 MSTORE PUSH1 0x20 ADD PUSH1 0x2 DUP3 ADD DUP1 SLOAD PUSH2 0x2430 SWAP1 PUSH2 0x37A4 JUMP JUMPDEST DUP1 PUSH1 0x1F ADD PUSH1 0x20 DUP1 SWAP2 DIV MUL PUSH1 0x20 ADD PUSH1 0x40 MLOAD SWAP1 DUP2 ADD PUSH1 0x40 MSTORE DUP1 SWAP3 SWAP2 SWAP1 DUP2 DUP2 MSTORE PUSH1 0x20 ADD DUP3 DUP1 SLOAD PUSH2 0x245C SWAP1 PUSH2 0x37A4 JUMP JUMPDEST DUP1 ISZERO PUSH2 0x24A9 JUMPI DUP1 PUSH1 0x1F LT PUSH2 0x247E JUMPI PUSH2 0x100 DUP1 DUP4 SLOAD DIV MUL DUP4 MSTORE SWAP2 PUSH1 0x20 ADD SWAP2 PUSH2 0x24A9 JUMP JUMPDEST DUP3 ADD SWAP2 SWAP1 PUSH1 0x0 MSTORE PUSH1 0x20 PUSH1 0x0 KECCAK256 SWAP1 JUMPDEST DUP2 SLOAD DUP2 MSTORE SWAP1 PUSH1 0x1 ADD SWAP1 PUSH1 0x20 ADD DUP1 DUP4 GT PUSH2 0x248C JUMPI DUP3 SWAP1 SUB PUSH1 0x1F AND DUP3 ADD SWAP2 JUMPDEST POP POP POP SWAP2 DUP4 MSTORE POP POP PUSH1 0x3 DUP3 ADD SLOAD PUSH1 0x20 DUP1 DUP4 ADD SWAP2 SWAP1 SWAP2 MSTORE PUSH1 0x4 DUP4 ADD SLOAD PUSH1 0x40 DUP1 DUP5 ADD SWAP2 SWAP1 SWAP2 MSTORE PUSH1 0x5 SWAP1 SWAP4 ADD SLOAD PUSH1 0xFF AND ISZERO ISZERO PUSH1 0x60 SWAP3 DUP4 ADD MSTORE DUP4 MLOAD SWAP1 DUP5 ADD MLOAD SWAP3 DUP5 ADD MLOAD SWAP2 DUP5 ADD MLOAD PUSH1 0x80 SWAP1 SWAP5 ADD MLOAD SWAP1 SWAP12 SWAP3 SWAP11 POP SWAP1 SWAP9 POP SWAP2 SWAP7 POP SWAP1 SWAP5 POP SWAP3 POP POP POP JUMP JUMPDEST PUSH1 0x0 SLOAD PUSH1 0x1 PUSH1 0x1 PUSH1 0xA0 SHL SUB AND CALLER EQ PUSH2 0x2530 JUMPI PUSH1 0x40 MLOAD PUSH3 0x461BCD PUSH1 0xE5 SHL DUP2 MSTORE PUSH1 0x4 ADD PUSH2 0x786 SWAP1 PUSH2 0x36F9 JUMP JUMPDEST PUSH1 0x10 SWAP2 SWAP1 SWAP2 SSTORE PUSH1 0x11 SSTORE JUMP JUMPDEST PUSH1 0x0 PUSH1 0xB DUP4 PUSH1 0x40 MLOAD PUSH2 0x254D SWAP2 SWAP1 PUSH2 0x3762 JUMP JUMPDEST SWAP1 DUP2 MSTORE PUSH1 0x20 ADD PUSH1 0x40 MLOAD DUP1 SWAP2 SUB SWAP1 KECCAK256 DUP3 PUSH1 0x40 MLOAD PUSH2 0x2569 SWAP2 SWAP1 PUSH2 0x3762 JUMP JUMPDEST SWAP1 DUP2 MSTORE PUSH1 0x40 MLOAD SWAP1 DUP2 SWAP1 SUB PUSH1 0x20 ADD SWAP1 KECCAK256 SLOAD PUSH1 0xFF AND SWAP1 POP JUMPDEST SWAP3 SWAP2 POP POP JUMP JUMPDEST PUSH1 0x5 PUSH1 0x20 MSTORE PUSH1 0x0 SWAP1 DUP2 MSTORE PUSH1 0x40 SWAP1 KECCAK256 DUP1 SLOAD PUSH1 0x1 DUP3 ADD DUP1 SLOAD PUSH1 0x1 PUSH1 0x1 PUSH1 0xA0 SHL SUB SWAP1 SWAP3 AND SWAP3 SWAP2 PUSH2 0x25B1 SWAP1 PUSH2 0x37A4 JUMP JUMPDEST DUP1 PUSH1 0x1F ADD PUSH1 0x20 DUP1 SWAP2 DIV MUL PUSH1 0x20 ADD PUSH1 0x40 MLOAD SWAP1 DUP2 ADD PUSH1 0x40 MSTORE DUP1 SWAP3 SWAP2 SWAP1 DUP2 DUP2 MSTORE PUSH1 0x20 ADD DUP3 DUP1 SLOAD PUSH2 0x25DD SWAP1 PUSH2 0x37A4 JUMP JUMPDEST DUP1 ISZERO PUSH2 0x262A JUMPI DUP1 PUSH1 0x1F LT PUSH2 0x25FF JUMPI PUSH2 0x100 DUP1 DUP4 SLOAD DIV MUL DUP4 MSTORE SWAP2 PUSH1 0x20 ADD SWAP2 PUSH2 0x262A JUMP JUMPDEST DUP3 ADD SWAP2 SWAP1 PUSH1 0x0 MSTORE PUSH1 0x20 PUSH1 0x0 KECCAK256 SWAP1 JUMPDEST DUP2 SLOAD DUP2 MSTORE SWAP1 PUSH1 0x1 ADD SWAP1 PUSH1 0x20 ADD DUP1 DUP4 GT PUSH2 0x260D JUMPI DUP3 SWAP1 SUB PUSH1 0x1F AND DUP3 ADD SWAP2 JUMPDEST POP POP POP PUSH1 0x2 DUP5 ADD SLOAD PUSH1 0x3 DUP6 ADD SLOAD PUSH1 0x4 DUP7 ADD SLOAD PUSH1 0x5 DUP8 ADD DUP1 SLOAD SWAP7 SWAP8 PUSH1 0xFF SWAP1 SWAP5 AND SWAP7 SWAP3 SWAP6 POP SWAP1 SWAP4 POP SWAP1 PUSH2 0x265A SWAP1 PUSH2 0x37A4 JUMP JUMPDEST DUP1 PUSH1 0x1F ADD PUSH1 0x20 DUP1 SWAP2 DIV MUL PUSH1 0x20 ADD PUSH1 0x40 MLOAD SWAP1 DUP2 ADD PUSH1 0x40 MSTORE DUP1 SWAP3 SWAP2 SWAP1 DUP2 DUP2 MSTORE PUSH1 0x20 ADD DUP3 DUP1 SLOAD PUSH2 0x2686 SWAP1 PUSH2 0x37A4 JUMP JUMPDEST DUP1 ISZERO PUSH2 0x26D3 JUMPI DUP1 PUSH1 0x1F LT PUSH2 0x26A8 JUMPI PUSH2 0x100 DUP1 DUP4 SLOAD DIV MUL DUP4 MSTORE SWAP2 PUSH1 0x20 ADD SWAP2 PUSH2 0x26D3 JUMP JUMPDEST DUP3 ADD SWAP2 SWAP1 PUSH1 0x0 MSTORE PUSH1 0x20 PUSH1 0x0 KECCAK256 SWAP1 JUMPDEST DUP2 SLOAD DUP2 MSTORE SWAP1 PUSH1 0x1 ADD SWAP1 PUSH1 0x20 ADD DUP1 DUP4 GT PUSH2 0x26B6 JUMPI DUP3 SWAP1 SUB PUSH1 0x1F AND DUP3 ADD SWAP2 JUMPDEST POP POP POP POP PUSH1 0x6 DUP4 ADD SLOAD PUSH1 0x7 SWAP1 SWAP4 ADD SLOAD SWAP2 SWAP3 SWAP2 PUSH1 0xFF AND SWAP1 POP DUP9 JUMP JUMPDEST PUSH1 0x0 PUSH1 0x8 DUP3 PUSH1 0x40 MLOAD PUSH2 0x26FF SWAP2 SWAP1 PUSH2 0x3762 JUMP JUMPDEST SWAP1 DUP2 MSTORE PUSH1 0x40 MLOAD SWAP1 DUP2 SWAP1 SUB PUSH1 0x20 ADD SWAP1 KECCAK256 SLOAD PUSH1 0xFF AND SWAP3 SWAP2 POP POP JUMP JUMPDEST PUSH1 0x9 PUSH1 0x20 MSTORE PUSH1 0x0 SWAP1 DUP2 MSTORE PUSH1 0x40 SWAP1 KECCAK256 DUP1 SLOAD PUSH1 0x1 DUP3 ADD DUP1 SLOAD PUSH1 0x1 PUSH1 0x1 PUSH1 0xA0 SHL SUB SWAP1 SWAP3 AND SWAP3 SWAP2 PUSH2 0x2744 SWAP1 PUSH2 0x37A4 JUMP JUMPDEST DUP1 PUSH1 0x1F ADD PUSH1 0x20 DUP1 SWAP2 DIV MUL PUSH1 0x20 ADD PUSH1 0x40 MLOAD SWAP1 DUP2 ADD PUSH1 0x40 MSTORE DUP1 SWAP3 SWAP2 SWAP1 DUP2 DUP2 MSTORE PUSH1 0x20 ADD DUP3 DUP1 SLOAD PUSH2 0x2770 SWAP1 PUSH2 0x37A4 JUMP JUMPDEST DUP1 ISZERO PUSH2 0x27BD JUMPI DUP1 PUSH1 0x1F LT PUSH2 0x2792 JUMPI PUSH2 0x100 DUP1 DUP4 SLOAD DIV MUL DUP4 MSTORE SWAP2 PUSH1 0x20 ADD SWAP2 PUSH2 0x27BD JUMP JUMPDEST DUP3 ADD SWAP2 SWAP1 PUSH1 0x0 MSTORE PUSH1 0x20 PUSH1 0x0 KECCAK256 SWAP1 JUMPDEST DUP2 SLOAD DUP2 MSTORE SWAP1 PUSH1 0x1 ADD SWAP1 PUSH1 0x20 ADD DUP1 DUP4 GT PUSH2 0x27A0 JUMPI DUP3 SWAP1 SUB PUSH1 0x1F AND DUP3 ADD SWAP2 JUMPDEST POP POP POP POP POP SWAP1 DUP1 PUSH1 0x2 ADD DUP1 SLOAD PUSH2 0x27D2 SWAP1 PUSH2 0x37A4 JUMP JUMPDEST DUP1 PUSH1 0x1F ADD PUSH1 0x20 DUP1 SWAP2 DIV MUL PUSH1 0x20 ADD PUSH1 0x40 MLOAD SWAP1 DUP2 ADD PUSH1 0x40 MSTORE DUP1 SWAP3 SWAP2 SWAP1 DUP2 DUP2 MSTORE PUSH1 0x20 ADD DUP3 DUP1 SLOAD PUSH2 0x27FE SWAP1 PUSH2 0x37A4 JUMP JUMPDEST DUP1 ISZERO PUSH2 0x284B JUMPI DUP1 PUSH1 0x1F LT PUSH2 0x2820 JUMPI PUSH2 0x100 DUP1 DUP4 SLOAD DIV MUL DUP4 MSTORE SWAP2 PUSH1 0x20 ADD SWAP2 PUSH2 0x284B JUMP JUMPDEST DUP3 ADD SWAP2 SWAP1 PUSH1 0x0 MSTORE PUSH1 0x20 PUSH1 0x0 KECCAK256 SWAP1 JUMPDEST DUP2 SLOAD DUP2 MSTORE SWAP1 PUSH1 0x1 ADD SWAP1 PUSH1 0x20 ADD DUP1 DUP4 GT PUSH2 0x282E JUMPI DUP3 SWAP1 SUB PUSH1 0x1F AND DUP3 ADD SWAP2 JUMPDEST POP POP POP POP PUSH1 0x3 DUP4 ADD SLOAD PUSH1 0x4 DUP5 ADD SLOAD PUSH1 0x5 SWAP1 SWAP5 ADD SLOAD SWAP3 SWAP4 SWAP1 SWAP3 SWAP1 SWAP2 POP PUSH1 0xFF AND DUP7 JUMP JUMPDEST PUSH1 0x0 DUP1 PUSH1 0x0 DUP1 PUSH1 0x0 DUP1 PUSH1 0xC DUP8 PUSH1 0x40 MLOAD PUSH2 0x2885 SWAP2 SWAP1 PUSH2 0x3762 JUMP JUMPDEST SWAP1 DUP2 MSTORE PUSH1 0x20 ADD PUSH1 0x40 MLOAD DUP1 SWAP2 SUB SWAP1 KECCAK256 PUSH1 0x40 MLOAD DUP1 PUSH1 0x80 ADD PUSH1 0x40 MSTORE SWAP1 DUP2 PUSH1 0x0 DUP3 ADD SLOAD DUP2 MSTORE PUSH1 0x20 ADD PUSH1 0x1 DUP3 ADD SLOAD DUP2 MSTORE PUSH1 0x20 ADD PUSH1 0x2 DUP3 ADD SLOAD DUP2 MSTORE PUSH1 0x20 ADD PUSH1 0x3 DUP3 ADD SLOAD DUP2 MSTORE POP POP SWAP1 POP PUSH1 0x0 PUSH2 0x28D2 PUSH2 0x2D7D JUMP JUMPDEST PUSH1 0x40 DUP4 ADD MLOAD DUP4 MLOAD PUSH1 0x20 DUP6 ADD MLOAD PUSH1 0x60 SWAP1 SWAP6 ADD MLOAD SWAP1 SWAP12 SWAP5 SWAP11 POP SWAP1 SWAP9 POP SWAP7 POP DUP8 LT SWAP5 POP SWAP1 SWAP3 POP POP POP JUMP JUMPDEST PUSH1 0x0 SLOAD PUSH1 0x1 PUSH1 0x1 PUSH1 0xA0 SHL SUB AND CALLER EQ PUSH2 0x2923 JUMPI PUSH1 0x40 MLOAD PUSH3 0x461BCD PUSH1 0xE5 SHL DUP2 MSTORE PUSH1 0x4 ADD PUSH2 0x786 SWAP1 PUSH2 0x36F9 JUMP JUMPDEST PUSH1 0x0 DUP1 SLOAD PUSH1 0x40 MLOAD PUSH1 0x1 PUSH1 0x1 PUSH1 0xA0 SHL SUB SWAP1 SWAP2 AND SWAP2 SELFBALANCE DUP1 ISZERO PUSH2 0x8FC MUL SWAP3 SWAP1 SWAP2 DUP2 DUP2 DUP2 DUP6 DUP9 DUP9 CALL SWAP4 POP POP POP POP ISZERO DUP1 ISZERO PUSH2 0x295D JUMPI RETURNDATASIZE PUSH1 0x0 DUP1 RETURNDATACOPY RETURNDATASIZE PUSH1 0x0 REVERT JUMPDEST POP JUMP JUMPDEST PUSH1 0x0 DUP1 PUSH1 0x0 PUSH1 0xC DUP5 PUSH1 0x40 MLOAD PUSH2 0x2975 SWAP2 SWAP1 PUSH2 0x3762 JUMP JUMPDEST SWAP1 DUP2 MSTORE PUSH1 0x20 ADD PUSH1 0x40 MLOAD DUP1 SWAP2 SUB SWAP1 KECCAK256 PUSH1 0x40 MLOAD DUP1 PUSH1 0x80 ADD PUSH1 0x40 MSTORE SWAP1 DUP2 PUSH1 0x0 DUP3 ADD SLOAD DUP2 MSTORE PUSH1 0x20 ADD PUSH1 0x1 DUP3 ADD SLOAD DUP2 MSTORE PUSH1 0x20 ADD PUSH1 0x2 DUP3 ADD SLOAD DUP2 MSTORE PUSH1 0x20 ADD PUSH1 0x3 DUP3 ADD SLOAD DUP2 MSTORE POP POP SWAP1 POP PUSH1 0x0 PUSH2 0x29C2 PUSH2 0x2D7D JUMP JUMPDEST SWAP1 POP PUSH1 0x0 DUP3 PUSH1 0x40 ADD MLOAD PUSH1 0x1 PUSH2 0x29D7 SWAP2 SWAP1 PUSH2 0x377E JUMP JUMPDEST DUP3 SUB PUSH2 0x29F1 JUMPI DUP3 MLOAD PUSH2 0x29EA SWAP1 PUSH1 0x1 PUSH2 0x377E JUMP JUMPDEST SWAP1 POP PUSH2 0x29F5 JUMP JUMPDEST POP PUSH1 0x1 JUMPDEST PUSH1 0xE SLOAD PUSH1 0x0 SWAP1 PUSH2 0x2A06 PUSH1 0x1 DUP5 PUSH2 0x3791 JUMP JUMPDEST PUSH2 0x2A10 SWAP2 SWAP1 PUSH2 0x393E JUMP JUMPDEST SWAP1 POP PUSH1 0xF SLOAD DUP2 GT ISZERO PUSH2 0x2A21 JUMPI POP PUSH1 0xF SLOAD JUMPDEST DUP1 PUSH1 0xD SLOAD PUSH2 0x2A2F SWAP2 SWAP1 PUSH2 0x377E JUMP JUMPDEST SWAP8 SWAP2 SWAP7 POP SWAP1 SWAP5 POP POP POP POP POP JUMP JUMPDEST PUSH1 0x0 SLOAD PUSH1 0x1 PUSH1 0x1 PUSH1 0xA0 SHL SUB AND CALLER EQ PUSH2 0x2A66 JUMPI PUSH1 0x40 MLOAD PUSH3 0x461BCD PUSH1 0xE5 SHL DUP2 MSTORE PUSH1 0x4 ADD PUSH2 0x786 SWAP1 PUSH2 0x36F9 JUMP JUMPDEST PUSH1 0x1 PUSH1 0x1 PUSH1 0xA0 SHL SUB DUP2 AND PUSH2 0x2AAE JUMPI PUSH1 0x40 MLOAD PUSH3 0x461BCD PUSH1 0xE5 SHL DUP2 MSTORE PUSH1 0x20 PUSH1 0x4 DUP3 ADD MSTORE PUSH1 0xF PUSH1 0x24 DUP3 ADD MSTORE PUSH15 0x496E76616C69642061646472657373 PUSH1 0x88 SHL PUSH1 0x44 DUP3 ADD MSTORE PUSH1 0x64 ADD PUSH2 0x786 JUMP JUMPDEST PUSH1 0x0 DUP1 SLOAD PUSH1 0x1 PUSH1 0x1 PUSH1 0xA0 SHL SUB NOT AND PUSH1 0x1 PUSH1 0x1 PUSH1 0xA0 SHL SUB SWAP3 SWAP1 SWAP3 AND SWAP2 SWAP1 SWAP2 OR SWAP1 SSTORE JUMP JUMPDEST PUSH1 0x0 DUP1 PUSH1 0x0 DUP1 PUSH1 0x0 DUP1 PUSH1 0x0 PUSH1 0x6 DUP9 PUSH1 0x40 MLOAD PUSH2 0x2AEB SWAP2 SWAP1 PUSH2 0x3762 JUMP JUMPDEST SWAP1 DUP2 MSTORE PUSH1 0x40 DUP1 MLOAD PUSH1 0x20 SWAP3 DUP2 SWAP1 SUB DUP4 ADD DUP2 KECCAK256 PUSH2 0x100 DUP3 ADD DUP4 MSTORE DUP1 SLOAD DUP1 DUP4 MSTORE PUSH1 0x1 DUP3 ADD SLOAD SWAP5 DUP4 ADD DUP6 SWAP1 MSTORE PUSH1 0x2 DUP3 ADD SLOAD SWAP4 DUP4 ADD DUP5 SWAP1 MSTORE PUSH1 0x3 DUP3 ADD SLOAD PUSH1 0x60 DUP5 ADD DUP2 SWAP1 MSTORE PUSH1 0x4 DUP4 ADD SLOAD PUSH1 0x80 DUP6 ADD DUP2 SWAP1 MSTORE PUSH1 0x5 DUP5 ADD SLOAD PUSH1 0xA0 DUP7 ADD DUP2 SWAP1 MSTORE PUSH1 0x6 DUP6 ADD SLOAD PUSH1 0xC0 DUP8 ADD MSTORE PUSH1 0x7 SWAP1 SWAP5 ADD SLOAD PUSH1 0xFF AND ISZERO ISZERO PUSH1 0xE0 SWAP1 SWAP6 ADD SWAP5 SWAP1 SWAP5 MSTORE SWAP1 SWAP14 SWAP5 SWAP13 POP SWAP3 SWAP11 POP SWAP2 SWAP9 POP SWAP7 POP SWAP5 POP SWAP3 POP POP POP JUMP JUMPDEST PUSH1 0x8 DUP3 PUSH1 0x40 MLOAD PUSH2 0x2B85 SWAP2 SWAP1 PUSH2 0x3762 JUMP JUMPDEST SWAP1 DUP2 MSTORE PUSH1 0x40 MLOAD SWAP1 DUP2 SWAP1 SUB PUSH1 0x20 ADD SWAP1 KECCAK256 SLOAD PUSH1 0xFF AND PUSH2 0x2D79 JUMPI PUSH1 0x1 PUSH1 0x8 DUP4 PUSH1 0x40 MLOAD PUSH2 0x2BAE SWAP2 SWAP1 PUSH2 0x3762 JUMP JUMPDEST SWAP1 DUP2 MSTORE PUSH1 0x40 MLOAD SWAP1 DUP2 SWAP1 SUB PUSH1 0x20 ADD SWAP1 KECCAK256 DUP1 SLOAD SWAP2 ISZERO ISZERO PUSH1 0xFF NOT SWAP1 SWAP3 AND SWAP2 SWAP1 SWAP2 OR SWAP1 SSTORE PUSH1 0x3 DUP1 SLOAD SWAP1 PUSH1 0x0 PUSH2 0x2BDE DUP4 PUSH2 0x38EC JUMP JUMPDEST SWAP2 SWAP1 POP SSTORE POP PUSH1 0x40 MLOAD DUP1 PUSH2 0x100 ADD PUSH1 0x40 MSTORE DUP1 DUP3 DUP2 MSTORE PUSH1 0x20 ADD PUSH1 0x0 DUP2 MSTORE PUSH1 0x20 ADD DUP3 DUP2 MSTORE PUSH1 0x20 ADD PUSH1 0x0 DUP2 MSTORE PUSH1 0x20 ADD DUP3 DUP2 MSTORE PUSH1 0x20 ADD PUSH1 0x0 DUP2 MSTORE PUSH1 0x20 ADD PUSH1 0x0 DUP2 MSTORE PUSH1 0x20 ADD PUSH1 0x1 ISZERO ISZERO DUP2 MSTORE POP PUSH1 0x6 DUP4 PUSH1 0x40 MLOAD PUSH2 0x2C34 SWAP2 SWAP1 PUSH2 0x3762 JUMP JUMPDEST SWAP1 DUP2 MSTORE PUSH1 0x20 ADD PUSH1 0x40 MLOAD DUP1 SWAP2 SUB SWAP1 KECCAK256 PUSH1 0x0 DUP3 ADD MLOAD DUP2 PUSH1 0x0 ADD SSTORE PUSH1 0x20 DUP3 ADD MLOAD DUP2 PUSH1 0x1 ADD SSTORE PUSH1 0x40 DUP3 ADD MLOAD DUP2 PUSH1 0x2 ADD SSTORE PUSH1 0x60 DUP3 ADD MLOAD DUP2 PUSH1 0x3 ADD SSTORE PUSH1 0x80 DUP3 ADD MLOAD DUP2 PUSH1 0x4 ADD SSTORE PUSH1 0xA0 DUP3 ADD MLOAD DUP2 PUSH1 0x5 ADD SSTORE PUSH1 0xC0 DUP3 ADD MLOAD DUP2 PUSH1 0x6 ADD SSTORE PUSH1 0xE0 DUP3 ADD MLOAD DUP2 PUSH1 0x7 ADD PUSH1 0x0 PUSH2 0x100 EXP DUP2 SLOAD DUP2 PUSH1 0xFF MUL NOT AND SWAP1 DUP4 ISZERO ISZERO MUL OR SWAP1 SSTORE POP SWAP1 POP POP PUSH1 0x40 MLOAD DUP1 PUSH1 0x80 ADD PUSH1 0x40 MSTORE DUP1 PUSH1 0x0 DUP2 MSTORE PUSH1 0x20 ADD PUSH1 0x0 DUP2 MSTORE PUSH1 0x20 ADD PUSH1 0x0 DUP2 MSTORE PUSH1 0x20 ADD PUSH1 0x0 DUP2 MSTORE POP PUSH1 0xC DUP4 PUSH1 0x40 MLOAD PUSH2 0x2CE0 SWAP2 SWAP1 PUSH2 0x3762 JUMP JUMPDEST SWAP1 DUP2 MSTORE PUSH1 0x20 ADD PUSH1 0x40 MLOAD DUP1 SWAP2 SUB SWAP1 KECCAK256 PUSH1 0x0 DUP3 ADD MLOAD DUP2 PUSH1 0x0 ADD SSTORE PUSH1 0x20 DUP3 ADD MLOAD DUP2 PUSH1 0x1 ADD SSTORE PUSH1 0x40 DUP3 ADD MLOAD DUP2 PUSH1 0x2 ADD SSTORE PUSH1 0x60 DUP3 ADD MLOAD DUP2 PUSH1 0x3 ADD SSTORE SWAP1 POP POP DUP1 PUSH1 0x4 PUSH1 0x0 DUP3 DUP3 SLOAD PUSH2 0x2D2B SWAP2 SWAP1 PUSH2 0x377E JUMP JUMPDEST SWAP1 SWAP2 SSTORE POP POP PUSH1 0x40 MLOAD PUSH2 0x2D3E SWAP1 DUP4 SWAP1 PUSH2 0x3762 JUMP JUMPDEST PUSH1 0x40 MLOAD SWAP1 DUP2 SWAP1 SUB DUP2 KECCAK256 TIMESTAMP DUP3 MSTORE SWAP1 PUSH32 0x9C529F0FC3A16860FE293102C3F3B645571379454234A401C75194A9B3F77C3F SWAP1 PUSH1 0x20 ADD PUSH1 0x40 MLOAD DUP1 SWAP2 SUB SWAP1 LOG2 JUMPDEST POP POP JUMP JUMPDEST PUSH1 0x0 PUSH2 0x2D8C PUSH3 0x15180 TIMESTAMP PUSH2 0x3A54 JUMP JUMPDEST SWAP1 POP SWAP1 JUMP JUMPDEST PUSH1 0x60 DUP2 PUSH1 0x0 SUB PUSH2 0x2DB8 JUMPI POP POP PUSH1 0x40 DUP1 MLOAD DUP1 DUP3 ADD SWAP1 SWAP2 MSTORE PUSH1 0x1 DUP2 MSTORE PUSH1 0x3 PUSH1 0xFC SHL PUSH1 0x20 DUP3 ADD MSTORE SWAP1 JUMP JUMPDEST DUP2 PUSH1 0x0 JUMPDEST DUP2 ISZERO PUSH2 0x2DE2 JUMPI DUP1 PUSH2 0x2DCC DUP2 PUSH2 0x38EC JUMP JUMPDEST SWAP2 POP PUSH2 0x2DDB SWAP1 POP PUSH1 0xA DUP4 PUSH2 0x3A54 JUMP JUMPDEST SWAP2 POP PUSH2 0x2DBC JUMP JUMPDEST PUSH1 0x0 DUP2 PUSH1 0x1 PUSH1 0x1 PUSH1 0x40 SHL SUB DUP2 GT ISZERO PUSH2 0x2DFC JUMPI PUSH2 0x2DFC PUSH2 0x2E99 JUMP JUMPDEST PUSH1 0x40 MLOAD SWAP1 DUP1 DUP3 MSTORE DUP1 PUSH1 0x1F ADD PUSH1 0x1F NOT AND PUSH1 0x20 ADD DUP3 ADD PUSH1 0x40 MSTORE DUP1 ISZERO PUSH2 0x2E26 JUMPI PUSH1 0x20 DUP3 ADD DUP2 DUP1 CALLDATASIZE DUP4 CALLDATACOPY ADD SWAP1 POP JUMPDEST POP SWAP1 POP JUMPDEST DUP5 ISZERO PUSH2 0x2E91 JUMPI PUSH2 0x2E3B PUSH1 0x1 DUP4 PUSH2 0x3791 JUMP JUMPDEST SWAP2 POP PUSH2 0x2E48 PUSH1 0xA DUP7 PUSH2 0x3A68 JUMP JUMPDEST PUSH2 0x2E53 SWAP1 PUSH1 0x30 PUSH2 0x377E JUMP JUMPDEST PUSH1 0xF8 SHL DUP2 DUP4 DUP2 MLOAD DUP2 LT PUSH2 0x2E68 JUMPI PUSH2 0x2E68 PUSH2 0x39C1 JUMP JUMPDEST PUSH1 0x20 ADD ADD SWAP1 PUSH1 0x1 PUSH1 0x1 PUSH1 0xF8 SHL SUB NOT AND SWAP1 DUP2 PUSH1 0x0 BYTE SWAP1 MSTORE8 POP PUSH2 0x2E8A PUSH1 0xA DUP7 PUSH2 0x3A54 JUMP JUMPDEST SWAP5 POP PUSH2 0x2E2A JUMP JUMPDEST SWAP5 SWAP4 POP POP POP POP JUMP JUMPDEST PUSH4 0x4E487B71 PUSH1 0xE0 SHL PUSH1 0x0 MSTORE PUSH1 0x41 PUSH1 0x4 MSTORE PUSH1 0x24 PUSH1 0x0 REVERT JUMPDEST PUSH1 0x40 MLOAD PUSH1 0x1F DUP3 ADD PUSH1 0x1F NOT AND DUP2 ADD PUSH1 0x1 PUSH1 0x1 PUSH1 0x40 SHL SUB DUP2 GT DUP3 DUP3 LT OR ISZERO PUSH2 0x2ED7 JUMPI PUSH2 0x2ED7 PUSH2 0x2E99 JUMP JUMPDEST PUSH1 0x40 MSTORE SWAP2 SWAP1 POP JUMP JUMPDEST PUSH1 0x0 DUP3 PUSH1 0x1F DUP4 ADD SLT PUSH2 0x2EF0 JUMPI PUSH1 0x0 DUP1 REVERT JUMPDEST DUP2 CALLDATALOAD PUSH1 0x1 PUSH1 0x1 PUSH1 0x40 SHL SUB DUP2 GT ISZERO PUSH2 0x2F09 JUMPI PUSH2 0x2F09 PUSH2 0x2E99 JUMP JUMPDEST PUSH2 0x2F1C PUSH1 0x1F DUP3 ADD PUSH1 0x1F NOT AND PUSH1 0x20 ADD PUSH2 0x2EAF JUMP JUMPDEST DUP2 DUP2 MSTORE DUP5 PUSH1 0x20 DUP4 DUP7 ADD ADD GT ISZERO PUSH2 0x2F31 JUMPI PUSH1 0x0 DUP1 REVERT JUMPDEST DUP2 PUSH1 0x20 DUP6 ADD PUSH1 0x20 DUP4 ADD CALLDATACOPY PUSH1 0x0 SWAP2 DUP2 ADD PUSH1 0x20 ADD SWAP2 SWAP1 SWAP2 MSTORE SWAP4 SWAP3 POP POP POP JUMP JUMPDEST PUSH1 0x0 DUP1 PUSH1 0x40 DUP4 DUP6 SUB SLT ISZERO PUSH2 0x2F61 JUMPI PUSH1 0x0 DUP1 REVERT JUMPDEST DUP3 CALLDATALOAD PUSH1 0x1 PUSH1 0x1 PUSH1 0x40 SHL SUB DUP2 GT ISZERO PUSH2 0x2F77 JUMPI PUSH1 0x0 DUP1 REVERT JUMPDEST PUSH2 0x2F83 DUP6 DUP3 DUP7 ADD PUSH2 0x2EDF JUMP JUMPDEST SWAP6 PUSH1 0x20 SWAP5 SWAP1 SWAP5 ADD CALLDATALOAD SWAP5 POP POP POP POP JUMP JUMPDEST PUSH1 0x0 PUSH1 0x20 DUP3 DUP5 SUB SLT ISZERO PUSH2 0x2FA4 JUMPI PUSH1 0x0 DUP1 REVERT JUMPDEST DUP2 CALLDATALOAD PUSH1 0x1 PUSH1 0x1 PUSH1 0x40 SHL SUB DUP2 GT ISZERO PUSH2 0x2FBA JUMPI PUSH1 0x0 DUP1 REVERT JUMPDEST PUSH2 0x2E91 DUP5 DUP3 DUP6 ADD PUSH2 0x2EDF JUMP JUMPDEST DUP1 CALLDATALOAD PUSH1 0x1 PUSH1 0x1 PUSH1 0xA0 SHL SUB DUP2 AND DUP2 EQ PUSH2 0x2FDD JUMPI PUSH1 0x0 DUP1 REVERT JUMPDEST SWAP2 SWAP1 POP JUMP JUMPDEST DUP1 CALLDATALOAD PUSH1 0x9 DUP2 LT PUSH2 0x2FDD JUMPI PUSH1 0x0 DUP1 REVERT JUMPDEST PUSH1 0x0 DUP1 PUSH1 0x0 DUP1 PUSH1 0x0 PUSH1 0xA0 DUP7 DUP9 SUB SLT ISZERO PUSH2 0x3009 JUMPI PUSH1 0x0 DUP1 REVERT JUMPDEST DUP6 CALLDATALOAD PUSH1 0x1 PUSH1 0x1 PUSH1 0x40 SHL SUB DUP1 DUP3 GT ISZERO PUSH2 0x3020 JUMPI PUSH1 0x0 DUP1 REVERT JUMPDEST PUSH2 0x302C DUP10 DUP4 DUP11 ADD PUSH2 0x2EDF JUMP JUMPDEST SWAP7 POP PUSH2 0x303A PUSH1 0x20 DUP10 ADD PUSH2 0x2FC6 JUMP JUMPDEST SWAP6 POP PUSH2 0x3048 PUSH1 0x40 DUP10 ADD PUSH2 0x2FE2 JUMP JUMPDEST SWAP5 POP PUSH1 0x60 DUP9 ADD CALLDATALOAD SWAP4 POP PUSH1 0x80 DUP9 ADD CALLDATALOAD SWAP2 POP DUP1 DUP3 GT ISZERO PUSH2 0x3065 JUMPI PUSH1 0x0 DUP1 REVERT JUMPDEST POP PUSH2 0x3072 DUP9 DUP3 DUP10 ADD PUSH2 0x2EDF JUMP JUMPDEST SWAP2 POP POP SWAP3 SWAP6 POP SWAP3 SWAP6 SWAP1 SWAP4 POP JUMP JUMPDEST PUSH1 0x0 PUSH1 0x20 DUP3 DUP5 SUB SLT ISZERO PUSH2 0x3091 JUMPI PUSH1 0x0 DUP1 REVERT JUMPDEST POP CALLDATALOAD SWAP2 SWAP1 POP JUMP JUMPDEST PUSH1 0x0 JUMPDEST DUP4 DUP2 LT ISZERO PUSH2 0x30B3 JUMPI DUP2 DUP2 ADD MLOAD DUP4 DUP3 ADD MSTORE PUSH1 0x20 ADD PUSH2 0x309B JUMP JUMPDEST POP POP PUSH1 0x0 SWAP2 ADD MSTORE JUMP JUMPDEST PUSH1 0x0 DUP2 MLOAD DUP1 DUP5 MSTORE PUSH2 0x30D4 DUP2 PUSH1 0x20 DUP7 ADD PUSH1 0x20 DUP7 ADD PUSH2 0x3098 JUMP JUMPDEST PUSH1 0x1F ADD PUSH1 0x1F NOT AND SWAP3 SWAP1 SWAP3 ADD PUSH1 0x20 ADD SWAP3 SWAP2 POP POP JUMP JUMPDEST PUSH4 0x4E487B71 PUSH1 0xE0 SHL PUSH1 0x0 MSTORE PUSH1 0x21 PUSH1 0x4 MSTORE PUSH1 0x24 PUSH1 0x0 REVERT JUMPDEST PUSH1 0x9 DUP2 LT PUSH2 0x311C JUMPI PUSH4 0x4E487B71 PUSH1 0xE0 SHL PUSH1 0x0 MSTORE PUSH1 0x21 PUSH1 0x4 MSTORE PUSH1 0x24 PUSH1 0x0 REVERT JUMPDEST SWAP1 MSTORE JUMP JUMPDEST PUSH1 0x1 PUSH1 0x1 PUSH1 0xA0 SHL SUB DUP9 AND DUP2 MSTORE PUSH1 0xE0 PUSH1 0x20 DUP3 ADD DUP2 SWAP1 MSTORE PUSH1 0x0 SWAP1 PUSH2 0x3144 SWAP1 DUP4 ADD DUP10 PUSH2 0x30BC JUMP JUMPDEST PUSH2 0x3151 PUSH1 0x40 DUP5 ADD DUP10 PUSH2 0x30FE JUMP JUMPDEST DUP7 PUSH1 0x60 DUP5 ADD MSTORE DUP6 PUSH1 0x80 DUP5 ADD MSTORE DUP3 DUP2 SUB PUSH1 0xA0 DUP5 ADD MSTORE PUSH2 0x316F DUP2 DUP7 PUSH2 0x30BC JUMP JUMPDEST SWAP2 POP POP DUP3 PUSH1 0xC0 DUP4 ADD MSTORE SWAP9 SWAP8 POP POP POP POP POP POP POP POP JUMP JUMPDEST PUSH1 0x0 DUP1 PUSH1 0x40 DUP4 DUP6 SUB SLT ISZERO PUSH2 0x3197 JUMPI PUSH1 0x0 DUP1 REVERT JUMPDEST DUP3 CALLDATALOAD PUSH1 0x1 PUSH1 0x1 PUSH1 0x40 SHL SUB DUP2 GT ISZERO PUSH2 0x31AD JUMPI PUSH1 0x0 DUP1 REVERT JUMPDEST PUSH2 0x31B9 DUP6 DUP3 DUP7 ADD PUSH2 0x2EDF JUMP JUMPDEST SWAP3 POP POP PUSH2 0x31C8 PUSH1 0x20 DUP5 ADD PUSH2 0x2FC6 JUMP JUMPDEST SWAP1 POP SWAP3 POP SWAP3 SWAP1 POP JUMP JUMPDEST PUSH1 0x0 DUP1 PUSH1 0x0 DUP1 PUSH1 0x80 DUP6 DUP8 SUB SLT ISZERO PUSH2 0x31E7 JUMPI PUSH1 0x0 DUP1 REVERT JUMPDEST DUP5 CALLDATALOAD PUSH1 0x1 PUSH1 0x1 PUSH1 0x40 SHL SUB DUP1 DUP3 GT ISZERO PUSH2 0x31FE JUMPI PUSH1 0x0 DUP1 REVERT JUMPDEST PUSH2 0x320A DUP9 DUP4 DUP10 ADD PUSH2 0x2EDF JUMP JUMPDEST SWAP6 POP PUSH2 0x3218 PUSH1 0x20 DUP9 ADD PUSH2 0x2FC6 JUMP JUMPDEST SWAP5 POP PUSH1 0x40 DUP8 ADD CALLDATALOAD SWAP4 POP PUSH1 0x60 DUP8 ADD CALLDATALOAD SWAP2 POP DUP1 DUP3 GT ISZERO PUSH2 0x3235 JUMPI PUSH1 0x0 DUP1 REVERT JUMPDEST POP PUSH2 0x3242 DUP8 DUP3 DUP9 ADD PUSH2 0x2EDF JUMP JUMPDEST SWAP2 POP POP SWAP3 SWAP6 SWAP2 SWAP5 POP SWAP3 POP JUMP JUMPDEST PUSH1 0x0 PUSH1 0x1 PUSH1 0x1 PUSH1 0x40 SHL SUB DUP3 GT ISZERO PUSH2 0x3267 JUMPI PUSH2 0x3267 PUSH2 0x2E99 JUMP JUMPDEST POP PUSH1 0x5 SHL PUSH1 0x20 ADD SWAP1 JUMP JUMPDEST PUSH1 0x0 DUP3 PUSH1 0x1F DUP4 ADD SLT PUSH2 0x3282 JUMPI PUSH1 0x0 DUP1 REVERT JUMPDEST DUP2 CALLDATALOAD PUSH1 0x20 PUSH2 0x3297 PUSH2 0x3292 DUP4 PUSH2 0x324E JUMP JUMPDEST PUSH2 0x2EAF JUMP JUMPDEST DUP3 DUP2 MSTORE PUSH1 0x5 SWAP3 SWAP1 SWAP3 SHL DUP5 ADD DUP2 ADD SWAP2 DUP2 DUP2 ADD SWAP1 DUP7 DUP5 GT ISZERO PUSH2 0x32B6 JUMPI PUSH1 0x0 DUP1 REVERT JUMPDEST DUP3 DUP7 ADD JUMPDEST DUP5 DUP2 LT ISZERO PUSH2 0x32D1 JUMPI DUP1 CALLDATALOAD DUP4 MSTORE SWAP2 DUP4 ADD SWAP2 DUP4 ADD PUSH2 0x32BA JUMP JUMPDEST POP SWAP7 SWAP6 POP POP POP POP POP POP JUMP JUMPDEST PUSH1 0x0 DUP3 PUSH1 0x1F DUP4 ADD SLT PUSH2 0x32ED JUMPI PUSH1 0x0 DUP1 REVERT JUMPDEST DUP2 CALLDATALOAD PUSH1 0x20 PUSH2 0x32FD PUSH2 0x3292 DUP4 PUSH2 0x324E JUMP JUMPDEST DUP3 DUP2 MSTORE PUSH1 0x5 SWAP3 SWAP1 SWAP3 SHL DUP5 ADD DUP2 ADD SWAP2 DUP2 DUP2 ADD SWAP1 DUP7 DUP5 GT ISZERO PUSH2 0x331C JUMPI PUSH1 0x0 DUP1 REVERT JUMPDEST DUP3 DUP7 ADD JUMPDEST DUP5 DUP2 LT ISZERO PUSH2 0x32D1 JUMPI DUP1 CALLDATALOAD PUSH1 0x1 PUSH1 0x1 PUSH1 0x40 SHL SUB DUP2 GT ISZERO PUSH2 0x333F JUMPI PUSH1 0x0 DUP1 DUP2 REVERT JUMPDEST PUSH2 0x334D DUP10 DUP7 DUP4 DUP12 ADD ADD PUSH2 0x2EDF JUMP JUMPDEST DUP5 MSTORE POP SWAP2 DUP4 ADD SWAP2 DUP4 ADD PUSH2 0x3320 JUMP JUMPDEST PUSH1 0x0 DUP1 PUSH1 0x0 DUP1 PUSH1 0x0 PUSH1 0xA0 DUP7 DUP9 SUB SLT ISZERO PUSH2 0x3373 JUMPI PUSH1 0x0 DUP1 REVERT JUMPDEST DUP6 CALLDATALOAD PUSH1 0x1 PUSH1 0x1 PUSH1 0x40 SHL SUB DUP1 DUP3 GT ISZERO PUSH2 0x338A JUMPI PUSH1 0x0 DUP1 REVERT JUMPDEST PUSH2 0x3396 DUP10 DUP4 DUP11 ADD PUSH2 0x2EDF JUMP JUMPDEST SWAP7 POP PUSH1 0x20 SWAP2 POP PUSH2 0x33A7 DUP3 DUP10 ADD PUSH2 0x2FC6 JUMP JUMPDEST SWAP6 POP PUSH1 0x40 DUP9 ADD CALLDATALOAD DUP2 DUP2 GT ISZERO PUSH2 0x33BB JUMPI PUSH1 0x0 DUP1 REVERT JUMPDEST DUP9 ADD PUSH1 0x1F DUP2 ADD DUP11 SGT PUSH2 0x33CC JUMPI PUSH1 0x0 DUP1 REVERT JUMPDEST DUP1 CALLDATALOAD PUSH2 0x33DA PUSH2 0x3292 DUP3 PUSH2 0x324E JUMP JUMPDEST DUP2 DUP2 MSTORE PUSH1 0x5 SWAP2 SWAP1 SWAP2 SHL DUP3 ADD DUP5 ADD SWAP1 DUP5 DUP2 ADD SWAP1 DUP13 DUP4 GT ISZERO PUSH2 0x33F9 JUMPI PUSH1 0x0 DUP1 REVERT JUMPDEST SWAP3 DUP6 ADD SWAP3 JUMPDEST DUP3 DUP5 LT ISZERO PUSH2 0x341E JUMPI PUSH2 0x340F DUP5 PUSH2 0x2FE2 JUMP JUMPDEST DUP3 MSTORE SWAP3 DUP6 ADD SWAP3 SWAP1 DUP6 ADD SWAP1 PUSH2 0x33FE JUMP JUMPDEST SWAP8 POP POP POP POP PUSH1 0x60 DUP9 ADD CALLDATALOAD SWAP2 POP DUP1 DUP3 GT ISZERO PUSH2 0x3437 JUMPI PUSH1 0x0 DUP1 REVERT JUMPDEST PUSH2 0x3443 DUP10 DUP4 DUP11 ADD PUSH2 0x3271 JUMP JUMPDEST SWAP4 POP PUSH1 0x80 DUP9 ADD CALLDATALOAD SWAP2 POP DUP1 DUP3 GT ISZERO PUSH2 0x3459 JUMPI PUSH1 0x0 DUP1 REVERT JUMPDEST POP PUSH2 0x3072 DUP9 DUP3 DUP10 ADD PUSH2 0x32DC JUMP JUMPDEST PUSH1 0x20 DUP1 DUP3 MSTORE DUP3 MLOAD DUP3 DUP3 ADD DUP2 SWAP1 MSTORE PUSH1 0x0 SWAP2 SWAP1 DUP5 DUP3 ADD SWAP1 PUSH1 0x40 DUP6 ADD SWAP1 DUP5 JUMPDEST DUP2 DUP2 LT ISZERO PUSH2 0x349E JUMPI DUP4 MLOAD DUP4 MSTORE SWAP3 DUP5 ADD SWAP3 SWAP2 DUP5 ADD SWAP2 PUSH1 0x1 ADD PUSH2 0x3482 JUMP JUMPDEST POP SWAP1 SWAP7 SWAP6 POP POP POP POP POP POP JUMP JUMPDEST PUSH1 0x0 DUP1 PUSH1 0x0 DUP1 PUSH1 0x0 PUSH1 0xA0 DUP7 DUP9 SUB SLT ISZERO PUSH2 0x34C2 JUMPI PUSH1 0x0 DUP1 REVERT JUMPDEST DUP6 CALLDATALOAD PUSH1 0x1 PUSH1 0x1 PUSH1 0x40 SHL SUB DUP1 DUP3 GT ISZERO PUSH2 0x34D9 JUMPI PUSH1 0x0 DUP1 REVERT JUMPDEST PUSH2 0x34E5 DUP10 DUP4 DUP11 ADD PUSH2 0x2EDF JUMP JUMPDEST SWAP7 POP PUSH2 0x34F3 PUSH1 0x20 DUP10 ADD PUSH2 0x2FC6 JUMP JUMPDEST SWAP6 POP PUSH1 0x40 DUP9 ADD CALLDATALOAD SWAP2 POP DUP1 DUP3 GT ISZERO PUSH2 0x3509 JUMPI PUSH1 0x0 DUP1 REVERT JUMPDEST PUSH2 0x3048 DUP10 DUP4 DUP11 ADD PUSH2 0x2EDF JUMP JUMPDEST PUSH1 0x0 DUP1 PUSH1 0x0 PUSH1 0x60 DUP5 DUP7 SUB SLT ISZERO PUSH2 0x352A JUMPI PUSH1 0x0 DUP1 REVERT JUMPDEST POP POP DUP2 CALLDATALOAD SWAP4 PUSH1 0x20 DUP4 ADD CALLDATALOAD SWAP4 POP PUSH1 0x40 SWAP1 SWAP3 ADD CALLDATALOAD SWAP2 SWAP1 POP JUMP JUMPDEST PUSH1 0x1 PUSH1 0x1 PUSH1 0xA0 SHL SUB DUP7 AND DUP2 MSTORE PUSH1 0xA0 PUSH1 0x20 DUP3 ADD DUP2 SWAP1 MSTORE PUSH1 0x0 SWAP1 PUSH2 0x3565 SWAP1 DUP4 ADD DUP8 PUSH2 0x30BC JUMP JUMPDEST DUP3 DUP2 SUB PUSH1 0x40 DUP5 ADD MSTORE PUSH2 0x3577 DUP2 DUP8 PUSH2 0x30BC JUMP JUMPDEST PUSH1 0x60 DUP5 ADD SWAP6 SWAP1 SWAP6 MSTORE POP POP PUSH1 0x80 ADD MSTORE SWAP4 SWAP3 POP POP POP JUMP JUMPDEST PUSH1 0x0 DUP1 PUSH1 0x40 DUP4 DUP6 SUB SLT ISZERO PUSH2 0x359F JUMPI PUSH1 0x0 DUP1 REVERT JUMPDEST POP POP DUP1 CALLDATALOAD SWAP3 PUSH1 0x20 SWAP1 SWAP2 ADD CALLDATALOAD SWAP2 POP JUMP JUMPDEST PUSH1 0x0 DUP1 PUSH1 0x40 DUP4 DUP6 SUB SLT ISZERO PUSH2 0x35C1 JUMPI PUSH1 0x0 DUP1 REVERT JUMPDEST DUP3 CALLDATALOAD PUSH1 0x1 PUSH1 0x1 PUSH1 0x40 SHL SUB DUP1 DUP3 GT ISZERO PUSH2 0x35D8 JUMPI PUSH1 0x0 DUP1 REVERT JUMPDEST PUSH2 0x35E4 DUP7 DUP4 DUP8 ADD PUSH2 0x2EDF JUMP JUMPDEST SWAP4 POP PUSH1 0x20 DUP6 ADD CALLDATALOAD SWAP2 POP DUP1 DUP3 GT ISZERO PUSH2 0x35FA JUMPI PUSH1 0x0 DUP1 REVERT JUMPDEST POP PUSH2 0x3607 DUP6 DUP3 DUP7 ADD PUSH2 0x2EDF JUMP JUMPDEST SWAP2 POP POP SWAP3 POP SWAP3 SWAP1 POP JUMP JUMPDEST PUSH1 0x1 PUSH1 0x1 PUSH1 0xA0 SHL SUB DUP10 AND DUP2 MSTORE PUSH2 0x100 PUSH1 0x20 DUP3 ADD DUP2 SWAP1 MSTORE PUSH1 0x0 SWAP1 PUSH2 0x3636 DUP4 DUP3 ADD DUP12 PUSH2 0x30BC JUMP JUMPDEST SWAP1 POP PUSH2 0x3645 PUSH1 0x40 DUP5 ADD DUP11 PUSH2 0x30FE JUMP JUMPDEST DUP8 PUSH1 0x60 DUP5 ADD MSTORE DUP7 PUSH1 0x80 DUP5 ADD MSTORE DUP3 DUP2 SUB PUSH1 0xA0 DUP5 ADD MSTORE PUSH2 0x3663 DUP2 DUP8 PUSH2 0x30BC JUMP JUMPDEST PUSH1 0xC0 DUP5 ADD SWAP6 SWAP1 SWAP6 MSTORE POP POP SWAP1 ISZERO ISZERO PUSH1 0xE0 SWAP1 SWAP2 ADD MSTORE SWAP7 SWAP6 POP POP POP POP POP POP JUMP JUMPDEST PUSH1 0x1 PUSH1 0x1 PUSH1 0xA0 SHL SUB DUP8 AND DUP2 MSTORE PUSH1 0xC0 PUSH1 0x20 DUP3 ADD DUP2 SWAP1 MSTORE PUSH1 0x0 SWAP1 PUSH2 0x36A4 SWAP1 DUP4 ADD DUP9 PUSH2 0x30BC JUMP JUMPDEST DUP3 DUP2 SUB PUSH1 0x40 DUP5 ADD MSTORE PUSH2 0x36B6 DUP2 DUP9 PUSH2 0x30BC JUMP JUMPDEST PUSH1 0x60 DUP5 ADD SWAP7 SWAP1 SWAP7 MSTORE POP POP PUSH1 0x80 DUP2 ADD SWAP3 SWAP1 SWAP3 MSTORE ISZERO ISZERO PUSH1 0xA0 SWAP1 SWAP2 ADD MSTORE SWAP4 SWAP3 POP POP POP JUMP JUMPDEST PUSH1 0x0 PUSH1 0x20 DUP3 DUP5 SUB SLT ISZERO PUSH2 0x36E9 JUMPI PUSH1 0x0 DUP1 REVERT JUMPDEST PUSH2 0x36F2 DUP3 PUSH2 0x2FC6 JUMP JUMPDEST SWAP4 SWAP3 POP POP POP JUMP JUMPDEST PUSH1 0x20 DUP1 DUP3 MSTORE PUSH1 0x18 SWAP1 DUP3 ADD MSTORE PUSH32 0x4F6E6C79206F776E65722063616E2063616C6C20746869730000000000000000 PUSH1 0x40 DUP3 ADD MSTORE PUSH1 0x60 ADD SWAP1 JUMP JUMPDEST PUSH4 0x4E487B71 PUSH1 0xE0 SHL PUSH1 0x0 MSTORE PUSH1 0x11 PUSH1 0x4 MSTORE PUSH1 0x24 PUSH1 0x0 REVERT JUMPDEST PUSH1 0x0 PUSH1 0x1 PUSH1 0xFF SHL DUP3 ADD PUSH2 0x375B JUMPI PUSH2 0x375B PUSH2 0x3730 JUMP JUMPDEST POP PUSH1 0x0 SUB SWAP1 JUMP JUMPDEST PUSH1 0x0 DUP3 MLOAD PUSH2 0x3774 DUP2 DUP5 PUSH1 0x20 DUP8 ADD PUSH2 0x3098 JUMP JUMPDEST SWAP2 SWAP1 SWAP2 ADD SWAP3 SWAP2 POP POP JUMP JUMPDEST DUP1 DUP3 ADD DUP1 DUP3 GT ISZERO PUSH2 0x257F JUMPI PUSH2 0x257F PUSH2 0x3730 JUMP JUMPDEST DUP2 DUP2 SUB DUP2 DUP2 GT ISZERO PUSH2 0x257F JUMPI PUSH2 0x257F PUSH2 0x3730 JUMP JUMPDEST PUSH1 0x1 DUP2 DUP2 SHR SWAP1 DUP3 AND DUP1 PUSH2 0x37B8 JUMPI PUSH1 0x7F DUP3 AND SWAP2 POP JUMPDEST PUSH1 0x20 DUP3 LT DUP2 SUB PUSH2 0x37D8 JUMPI PUSH4 0x4E487B71 PUSH1 0xE0 SHL PUSH1 0x0 MSTORE PUSH1 0x22 PUSH1 0x4 MSTORE PUSH1 0x24 PUSH1 0x0 REVERT JUMPDEST POP SWAP2 SWAP1 POP JUMP JUMPDEST PUSH1 0x1F DUP3 GT ISZERO PUSH2 0x3828 JUMPI PUSH1 0x0 DUP2 DUP2 MSTORE PUSH1 0x20 DUP2 KECCAK256 PUSH1 0x1F DUP6 ADD PUSH1 0x5 SHR DUP2 ADD PUSH1 0x20 DUP7 LT ISZERO PUSH2 0x3805 JUMPI POP DUP1 JUMPDEST PUSH1 0x1F DUP6 ADD PUSH1 0x5 SHR DUP3 ADD SWAP2 POP JUMPDEST DUP2 DUP2 LT ISZERO PUSH2 0x3824 JUMPI DUP3 DUP2 SSTORE PUSH1 0x1 ADD PUSH2 0x3811 JUMP JUMPDEST POP POP POP JUMPDEST POP POP POP JUMP JUMPDEST DUP2 MLOAD PUSH1 0x1 PUSH1 0x1 PUSH1 0x40 SHL SUB DUP2 GT ISZERO PUSH2 0x3846 JUMPI PUSH2 0x3846 PUSH2 0x2E99 JUMP JUMPDEST PUSH2 0x385A DUP2 PUSH2 0x3854 DUP5 SLOAD PUSH2 0x37A4 JUMP JUMPDEST DUP5 PUSH2 0x37DE JUMP JUMPDEST PUSH1 0x20 DUP1 PUSH1 0x1F DUP4 GT PUSH1 0x1 DUP2 EQ PUSH2 0x388F JUMPI PUSH1 0x0 DUP5 ISZERO PUSH2 0x3877 JUMPI POP DUP6 DUP4 ADD MLOAD JUMPDEST PUSH1 0x0 NOT PUSH1 0x3 DUP7 SWAP1 SHL SHR NOT AND PUSH1 0x1 DUP6 SWAP1 SHL OR DUP6 SSTORE PUSH2 0x3824 JUMP JUMPDEST PUSH1 0x0 DUP6 DUP2 MSTORE PUSH1 0x20 DUP2 KECCAK256 PUSH1 0x1F NOT DUP7 AND SWAP2 JUMPDEST DUP3 DUP2 LT ISZERO PUSH2 0x38BE JUMPI DUP9 DUP7 ADD MLOAD DUP3 SSTORE SWAP5 DUP5 ADD SWAP5 PUSH1 0x1 SWAP1 SWAP2 ADD SWAP1 DUP5 ADD PUSH2 0x389F JUMP JUMPDEST POP DUP6 DUP3 LT ISZERO PUSH2 0x38DC JUMPI DUP8 DUP6 ADD MLOAD PUSH1 0x0 NOT PUSH1 0x3 DUP9 SWAP1 SHL PUSH1 0xF8 AND SHR NOT AND DUP2 SSTORE JUMPDEST POP POP POP POP POP PUSH1 0x1 SWAP1 DUP2 SHL ADD SWAP1 SSTORE POP JUMP JUMPDEST PUSH1 0x0 PUSH1 0x1 DUP3 ADD PUSH2 0x38FE JUMPI PUSH2 0x38FE PUSH2 0x3730 JUMP JUMPDEST POP PUSH1 0x1 ADD SWAP1 JUMP JUMPDEST PUSH1 0x1 PUSH1 0x1 PUSH1 0xA0 SHL SUB DUP7 AND DUP2 MSTORE PUSH1 0xA0 DUP2 ADD PUSH2 0x3922 PUSH1 0x20 DUP4 ADD DUP8 PUSH2 0x30FE JUMP JUMPDEST DUP5 PUSH1 0x40 DUP4 ADD MSTORE DUP4 PUSH1 0x60 DUP4 ADD MSTORE DUP3 PUSH1 0x80 DUP4 ADD MSTORE SWAP7 SWAP6 POP POP POP POP POP POP JUMP JUMPDEST DUP1 DUP3 MUL DUP2 ISZERO DUP3 DUP3 DIV DUP5 EQ OR PUSH2 0x257F JUMPI PUSH2 0x257F PUSH2 0x3730 JUMP JUMPDEST PUSH32 0x4461696C7920726577617264202D2053747265616B3A20000000000000000000 DUP2 MSTORE PUSH1 0x0 DUP3 MLOAD PUSH2 0x398D DUP2 PUSH1 0x17 DUP6 ADD PUSH1 0x20 DUP8 ADD PUSH2 0x3098 JUMP JUMPDEST SWAP2 SWAP1 SWAP2 ADD PUSH1 0x17 ADD SWAP3 SWAP2 POP POP JUMP JUMPDEST DUP2 DUP2 SUB PUSH1 0x0 DUP4 SLT DUP1 ISZERO DUP4 DUP4 SGT AND DUP4 DUP4 SLT DUP3 AND OR ISZERO PUSH2 0x39BA JUMPI PUSH2 0x39BA PUSH2 0x3730 JUMP JUMPDEST POP SWAP3 SWAP2 POP POP JUMP JUMPDEST PUSH4 0x4E487B71 PUSH1 0xE0 SHL PUSH1 0x0 MSTORE PUSH1 0x32 PUSH1 0x4 MSTORE PUSH1 0x24 PUSH1 0x0 REVERT JUMPDEST PUSH8 0x2932BBB0B9321D1 PUSH1 0xC5 SHL DUP2 MSTORE PUSH1 0x0 DUP3 MLOAD PUSH2 0x39FA DUP2 PUSH1 0x8 DUP6 ADD PUSH1 0x20 DUP8 ADD PUSH2 0x3098 JUMP JUMPDEST SWAP2 SWAP1 SWAP2 ADD PUSH1 0x8 ADD SWAP3 SWAP2 POP POP JUMP JUMPDEST PUSH1 0x1 PUSH1 0x1 PUSH1 0xA0 SHL SUB DUP6 AND DUP2 MSTORE PUSH1 0x80 PUSH1 0x20 DUP3 ADD DUP2 SWAP1 MSTORE PUSH1 0x0 SWAP1 PUSH2 0x3A2B SWAP1 DUP4 ADD DUP7 PUSH2 0x30BC JUMP JUMPDEST PUSH1 0x40 DUP4 ADD SWAP5 SWAP1 SWAP5 MSTORE POP PUSH1 0x60 ADD MSTORE SWAP3 SWAP2 POP POP JUMP JUMPDEST PUSH4 0x4E487B71 PUSH1 0xE0 SHL PUSH1 0x0 MSTORE PUSH1 0x12 PUSH1 0x4 MSTORE PUSH1 0x24 PUSH1 0x0 REVERT JUMPDEST PUSH1 0x0 DUP3 PUSH2 0x3A63 JUMPI PUSH2 0x3A63 PUSH2 0x3A3E JUMP JUMPDEST POP DIV SWAP1 JUMP JUMPDEST PUSH1 0x0 DUP3 PUSH2 0x3A77 JUMPI PUSH2 0x3A77 PUSH2 0x3A3E JUMP JUMPDEST POP MOD SWAP1 JUMP INVALID EXTCODECOPY 0x4B SWAP3 DUP3 0xD0 DUP13 PREVRANDAO SLOAD DUP1 0xB1 DUP15 PUSH14 0x754D85013515BD161334F040449 0x4D 0xD9 KECCAK256 0xE 0xC4 GASLIMIT LOG2 PUSH5 0x6970667358 0x22 SLT KECCAK256 PUSH9 0xD32DC43468D5840220 EXTCODESIZE 0x5D DUP6 0x5D DUP7 0x4C PUSH20 0x75124BBE6F14F0CA105AE88D4FD76064736F6C63 NUMBER STOP ADDMOD EQ STOP CALLER "},"methodIdentifiers":{"baseRewardAmount()":"95f81150","batchRecordTransactions(string,address,uint8[],int256[],string[])":"3ae7cb06","calculateDailyReward(string)":"de9e4446","claimDailyReward(string,address)":"3578686d","claimReward(string,address,string,uint256,string)":"48ec9401","dailyStreaks(string)":"0ecad853","emergencyWithdraw()":"db2e21bc","getBalance(string)":"3a51d246","getDailyStreak(string)":"d416f213","getPlayerEconomy(string)":"f8a9dd60","getPlayerRewards(string)":"47d256de","getPlayerTransactions(string)":"4d69b974","getRewardClaim(uint256)":"7741716c","getStats()":"c59d4847","getTransaction(uint256)":"33ea3dc8","hasClaimedReward(string,string)":"9ccc6748","hasPlayer(string)":"ce0ba5cd","hasPlayerClaimedReward(string,string)":"8290bde9","maxStreakBonus()":"2217674b","maxTransactionAmount()":"c8c8ebe4","minTransactionInterval()":"d7d64f33","owner()":"8da5cb5b","playerEconomy(string)":"3bdd4986","playerExists(string)":"ad31ff89","playerRewardIds(string,uint256)":"68dd9d1b","playerTransactionIds(string,uint256)":"0964ae75","recordTransaction(string,address,uint8,int256,string)":"10256b05","rewardClaims(uint256)":"c36b3aa9","streakBonusMultiplier()":"9c1a2893","totalCurrencyCirculation()":"f11f43b2","totalPlayers()":"f60cdcf6","totalRewardsClaimed()":"a34b0f76","totalTransactions()":"b9a60038","transactions(uint256)":"9ace38c2","transferOwnership(address)":"f2fde38b","updateBalance(string,address,uint256,string)":"38be54f9","updateLastWeekBalance(string,uint256)":"5712f558","updateRewardConfig(uint256,uint256,uint256)":"6f3ba889","updateTransactionLimits(uint256,uint256)":"7ebb640a"}}}}}