{
  "_format": "hh-sol-artifact-1",
  "contractName": "VehicleManager",
  "sourceName": "contracts/VehicleManager.sol",
  "abi": [
    {
      "inputs": [],
      "stateMutability": "nonpayable",
      "type": "constructor"
    },
    {
      "anonymous": false,
      "inputs": [
        {
          "indexed": true,
          "internalType": "string",
          "name": "identifier",
          "type": "string"
        },
        {
          "indexed": false,
          "internalType": "uint256",
          "name": "timestamp",
          "type": "uint256"
        }
      ],
      "name": "NewPlayer",
      "type": "event"
    },
    {
      "anonymous": false,
      "inputs": [
        {
          "indexed": true,
          "internalType": "uint256",
          "name": "purchaseId",
          "type": "uint256"
        },
        {
          "indexed": true,
          "internalType": "string",
          "name": "identifier",
          "type": "string"
        },
        {
          "indexed": false,
          "internalType": "address",
          "name": "playerAddress",
          "type": "address"
        },
        {
          "indexed": false,
          "internalType": "enum VehicleManager.VehicleType",
          "name": "vehicleType",
          "type": "uint8"
        },
        {
          "indexed": false,
          "internalType": "uint256",
          "name": "price",
          "type": "uint256"
        },
        {
          "indexed": false,
          "internalType": "uint256",
          "name": "timestamp",
          "type": "uint256"
        }
      ],
      "name": "VehiclePurchased",
      "type": "event"
    },
    {
      "anonymous": false,
      "inputs": [
        {
          "indexed": true,
          "internalType": "uint256",
          "name": "switchId",
          "type": "uint256"
        },
        {
          "indexed": true,
          "internalType": "string",
          "name": "identifier",
          "type": "string"
        },
        {
          "indexed": false,
          "internalType": "address",
          "name": "playerAddress",
          "type": "address"
        },
        {
          "indexed": false,
          "internalType": "enum VehicleManager.VehicleType",
          "name": "fromVehicle",
          "type": "uint8"
        },
        {
          "indexed": false,
          "internalType": "enum VehicleManager.VehicleType",
          "name": "toVehicle",
          "type": "uint8"
        },
        {
          "indexed": false,
          "internalType": "uint256",
          "name": "timestamp",
          "type": "uint256"
        }
      ],
      "name": "VehicleSwitched",
      "type": "event"
    },
    {
      "inputs": [],
      "name": "emergencyWithdraw",
      "outputs": [],
      "stateMutability": "nonpayable",
      "type": "function"
    },
    {
      "inputs": [
        {
          "internalType": "string",
          "name": "_identifier",
          "type": "string"
        }
      ],
      "name": "getPlayerPurchaseCount",
      "outputs": [
        {
          "internalType": "uint256",
          "name": "",
          "type": "uint256"
        }
      ],
      "stateMutability": "view",
      "type": "function"
    },
    {
      "inputs": [
        {
          "internalType": "string",
          "name": "_identifier",
          "type": "string"
        }
      ],
      "name": "getPlayerPurchaseIds",
      "outputs": [
        {
          "internalType": "uint256[]",
          "name": "",
          "type": "uint256[]"
        }
      ],
      "stateMutability": "view",
      "type": "function"
    },
    {
      "inputs": [
        {
          "internalType": "string",
          "name": "_identifier",
          "type": "string"
        }
      ],
      "name": "getPlayerSwitchCount",
      "outputs": [
        {
          "internalType": "uint256",
          "name": "",
          "type": "uint256"
        }
      ],
      "stateMutability": "view",
      "type": "function"
    },
    {
      "inputs": [
        {
          "internalType": "string",
          "name": "_identifier",
          "type": "string"
        }
      ],
      "name": "getPlayerSwitchIds",
      "outputs": [
        {
          "internalType": "uint256[]",
          "name": "",
          "type": "uint256[]"
        }
      ],
      "stateMutability": "view",
      "type": "function"
    },
    {
      "inputs": [
        {
          "internalType": "string",
          "name": "_identifier",
          "type": "string"
        }
      ],
      "name": "getPlayerVehicles",
      "outputs": [
        {
          "internalType": "bool[5]",
          "name": "",
          "type": "bool[5]"
        }
      ],
      "stateMutability": "view",
      "type": "function"
    },
    {
      "inputs": [
        {
          "internalType": "uint256",
          "name": "_purchaseId",
          "type": "uint256"
        }
      ],
      "name": "getPurchase",
      "outputs": [
        {
          "internalType": "address",
          "name": "playerAddress",
          "type": "address"
        },
        {
          "internalType": "string",
          "name": "identifier",
          "type": "string"
        },
        {
          "internalType": "enum VehicleManager.VehicleType",
          "name": "vehicleType",
          "type": "uint8"
        },
        {
          "internalType": "uint256",
          "name": "purchasePrice",
          "type": "uint256"
        },
        {
          "internalType": "uint256",
          "name": "timestamp",
          "type": "uint256"
        }
      ],
      "stateMutability": "view",
      "type": "function"
    },
    {
      "inputs": [
        {
          "internalType": "string",
          "name": "_identifier",
          "type": "string"
        }
      ],
      "name": "getSelectedVehicle",
      "outputs": [
        {
          "internalType": "enum VehicleManager.VehicleType",
          "name": "",
          "type": "uint8"
        }
      ],
      "stateMutability": "view",
      "type": "function"
    },
    {
      "inputs": [],
      "name": "getStats",
      "outputs": [
        {
          "internalType": "uint256",
          "name": "_totalPurchases",
          "type": "uint256"
        },
        {
          "internalType": "uint256",
          "name": "_totalSwitches",
          "type": "uint256"
        },
        {
          "internalType": "uint256",
          "name": "_totalPlayers",
          "type": "uint256"
        },
        {
          "internalType": "address",
          "name": "_owner",
          "type": "address"
        }
      ],
      "stateMutability": "view",
      "type": "function"
    },
    {
      "inputs": [
        {
          "internalType": "uint256",
          "name": "_switchId",
          "type": "uint256"
        }
      ],
      "name": "getSwitch",
      "outputs": [
        {
          "internalType": "address",
          "name": "playerAddress",
          "type": "address"
        },
        {
          "internalType": "string",
          "name": "identifier",
          "type": "string"
        },
        {
          "internalType": "enum VehicleManager.VehicleType",
          "name": "fromVehicle",
          "type": "uint8"
        },
        {
          "internalType": "enum VehicleManager.VehicleType",
          "name": "toVehicle",
          "type": "uint8"
        },
        {
          "internalType": "uint256",
          "name": "timestamp",
          "type": "uint256"
        }
      ],
      "stateMutability": "view",
      "type": "function"
    },
    {
      "inputs": [
        {
          "internalType": "string",
          "name": "",
          "type": "string"
        }
      ],
      "name": "hasPlayer",
      "outputs": [
        {
          "internalType": "bool",
          "name": "",
          "type": "bool"
        }
      ],
      "stateMutability": "view",
      "type": "function"
    },
    {
      "inputs": [],
      "name": "owner",
      "outputs": [
        {
          "internalType": "address",
          "name": "",
          "type": "address"
        }
      ],
      "stateMutability": "view",
      "type": "function"
    },
    {
      "inputs": [
        {
          "internalType": "string",
          "name": "_identifier",
          "type": "string"
        }
      ],
      "name": "playerExists",
      "outputs": [
        {
          "internalType": "bool",
          "name": "",
          "type": "bool"
        }
      ],
      "stateMutability": "view",
      "type": "function"
    },
    {
      "inputs": [
        {
          "internalType": "string",
          "name": "",
          "type": "string"
        },
        {
          "internalType": "uint256",
          "name": "",
          "type": "uint256"
        }
      ],
      "name": "playerPurchaseIds",
      "outputs": [
        {
          "internalType": "uint256",
          "name": "",
          "type": "uint256"
        }
      ],
      "stateMutability": "view",
      "type": "function"
    },
    {
      "inputs": [
        {
          "internalType": "string",
          "name": "",
          "type": "string"
        }
      ],
      "name": "playerSwitchCount",
      "outputs": [
        {
          "internalType": "uint256",
          "name": "",
          "type": "uint256"
        }
      ],
      "stateMutability": "view",
      "type": "function"
    },
    {
      "inputs": [
        {
          "internalType": "string",
          "name": "",
          "type": "string"
        },
        {
          "internalType": "uint256",
          "name": "",
          "type": "uint256"
        }
      ],
      "name": "playerSwitchIds",
      "outputs": [
        {
          "internalType": "uint256",
          "name": "",
          "type": "uint256"
        }
      ],
      "stateMutability": "view",
      "type": "function"
    },
    {
      "inputs": [
        {
          "internalType": "string",
          "name": "_identifier",
          "type": "string"
        },
        {
          "internalType": "address",
          "name": "_playerAddress",
          "type": "address"
        },
        {
          "internalType": "enum VehicleManager.VehicleType",
          "name": "_vehicleType",
          "type": "uint8"
        },
        {
          "internalType": "uint256",
          "name": "_purchasePrice",
          "type": "uint256"
        }
      ],
      "name": "purchaseVehicle",
      "outputs": [
        {
          "internalType": "uint256",
          "name": "",
          "type": "uint256"
        }
      ],
      "stateMutability": "nonpayable",
      "type": "function"
    },
    {
      "inputs": [
        {
          "internalType": "uint256",
          "name": "",
          "type": "uint256"
        }
      ],
      "name": "purchases",
      "outputs": [
        {
          "internalType": "address",
          "name": "playerAddress",
          "type": "address"
        },
        {
          "internalType": "string",
          "name": "identifier",
          "type": "string"
        },
        {
          "internalType": "enum VehicleManager.VehicleType",
          "name": "vehicleType",
          "type": "uint8"
        },
        {
          "internalType": "uint256",
          "name": "purchasePrice",
          "type": "uint256"
        },
        {
          "internalType": "uint256",
          "name": "timestamp",
          "type": "uint256"
        },
        {
          "internalType": "bool",
          "name": "exists",
          "type": "bool"
        }
      ],
      "stateMutability": "view",
      "type": "function"
    },
    {
      "inputs": [
        {
          "internalType": "string",
          "name": "",
          "type": "string"
        }
      ],
      "name": "selectedVehicle",
      "outputs": [
        {
          "internalType": "enum VehicleManager.VehicleType",
          "name": "",
          "type": "uint8"
        }
      ],
      "stateMutability": "view",
      "type": "function"
    },
    {
      "inputs": [
        {
          "internalType": "string",
          "name": "_identifier",
          "type": "string"
        },
        {
          "internalType": "address",
          "name": "_playerAddress",
          "type": "address"
        },
        {
          "internalType": "enum VehicleManager.VehicleType",
          "name": "_newVehicle",
          "type": "uint8"
        }
      ],
      "name": "switchVehicle",
      "outputs": [
        {
          "internalType": "uint256",
          "name": "",
          "type": "uint256"
        }
      ],
      "stateMutability": "nonpayable",
      "type": "function"
    },
    {
      "inputs": [
        {
          "internalType": "uint256",
          "name": "",
          "type": "uint256"
        }
      ],
      "name": "switches",
      "outputs": [
        {
          "internalType": "address",
          "name": "playerAddress",
          "type": "address"
        },
        {
          "internalType": "string",
          "name": "identifier",
          "type": "string"
        },
        {
          "internalType": "enum VehicleManager.VehicleType",
          "name": "fromVehicle",
          "type": "uint8"
        },
        {
          "internalType": "enum VehicleManager.VehicleType",
          "name": "toVehicle",
          "type": "uint8"
        },
        {
          "internalType": "uint256",
          "name": "timestamp",
          "type": "uint256"
        },
        {
          "internalType": "bool",
          "name": "exists",
          "type": "bool"
        }
      ],
      "stateMutability": "view",
      "type": "function"
    },
    {
      "inputs": [],
      "name": "totalPlayers",
      "outputs": [
        {
          "internalType": "uint256",
          "name": "",
          "type": "uint256"
        }
      ],
      "stateMutability": "view",
      "type": "function"
    },
    {
      "inputs": [],
      "name": "totalPurchases",
      "outputs": [
        {
          "internalType": "uint256",
          "name": "",
          "type": "uint256"
        }
      ],
      "stateMutability": "view",
      "type": "function"
    },
    {
      "inputs": [],
      "name": "totalSwitches",
      "outputs": [
        {
          "internalType": "uint256",
          "name": "",
          "type": "uint256"
        }
      ],
      "stateMutability": "view",
      "type": "function"
    },
    {
      "inputs": [
        {
          "internalType": "address",
          "name": "_newOwner",
          "type": "address"
        }
      ],
      "name": "transferOwnership",
      "outputs": [],
      "stateMutability": "nonpayable",
      "type": "function"
    },
    {
      "inputs": [
        {
          "internalType": "string",
          "name": "",
          "type": "string"
        },
        {
          "internalType": "enum VehicleManager.VehicleType",
          "name": "",
          "type": "uint8"
        }
      ],
      "name": "vehiclesOwned",
      "outputs": [
        {
          "internalType": "bool",
          "name": "",
          "type": "bool"
        }
      ],
      "stateMutability": "view",
      "type": "function"
    }
  ],
  "bytecode": "0x608060405234801561001057600080fd5b50600080546001600160a01b0319163317815560018190556002819055600355611beb8061003f6000396000f3fe608060405234801561001057600080fd5b506004361061018e5760003560e01c8063962d2eaf116100de578063ce0ba5cd11610097578063dfef8a6911610071578063dfef8a6914610465578063f2fde38b1461046e578063f60cdcf614610481578063f90773141461048a57600080fd5b8063ce0ba5cd1461041a578063cebbc40614610448578063db2e21bc1461045b57600080fd5b8063962d2eaf1461034b57806398fcdee71461035e578063ad31ff89146103ac578063b7091cfd146103bf578063c3906620146103d2578063c59d4847146103e557600080fd5b80636d7de4321161014b578063825f127611610125578063825f1276146102b25780638392fe31146102d6578063881ec10b146102fb5780638da5cb5b1461032057600080fd5b80636d7de43214610244578063772d26cf1461025757806377b3a42e1461027757600080fd5b8063347b4f091461019357806335f4a0eb146101b95780633742a9f7146101e45780634f0a7af6146102085780635962a9411461021b578063693d0ba214610224575b600080fd5b6101a66101a136600461153c565b61049d565b6040519081526020015b60405180910390f35b6101a66101c7366004611581565b8051602081830181018051600b8252928201919093012091525481565b6101f76101f23660046115be565b6104dd565b6040516101b095949392919061165f565b6101a6610216366004611581565b610682565b6101a660015481565b610237610232366004611581565b6106aa565b6040516101b091906116a5565b6101a6610252366004611581565b6107d5565b61026a610265366004611581565b6107fd565b6040516101b091906116d8565b6102a5610285366004611581565b805160208183018101805160098252928201919093012091525460ff1681565b6040516101b0919061171c565b6102c56102c03660046115be565b61086d565b6040516101b0959493929190611730565b6102e96102e43660046115be565b610a2f565b6040516101b096959493929190611780565b61030e6103093660046115be565b610afd565b6040516101b0969594939291906117d2565b600054610333906001600160a01b031681565b6040516001600160a01b0390911681526020016101b0565b6101a6610359366004611856565b610bce565b61039c61036c3660046118bc565b81516020818401810180516008825292820194820194909420919093529091526000908152604090205460ff1681565b60405190151581526020016101b0565b61039c6103ba366004611581565b610e51565b6101a66103cd36600461190a565b610e7c565b6101a66103e036600461153c565b6111fc565b600154600254600354600054604080519485526020850193909352918301526001600160a01b031660608201526080016101b0565b61039c610428366004611581565b8051602081830181018051600a8252928201919093012091525460ff1681565b61026a610456366004611581565b611227565b610463611239565b005b6101a660025481565b61046361047c366004611968565b6112a0565b6101a660035481565b6102a5610498366004611581565b611334565b815160208184018101805160078252928201918501919091209190528054829081106104c857600080fd5b90600052602060002001600091509150505481565b600060606000806000600154861061053c5760405162461bcd60e51b815260206004820152601760248201527f507572636861736520646f6573206e6f7420657869737400000000000000000060448201526064015b60405180910390fd5b6000868152600460209081526040808320815160c0810190925280546001600160a01b03168252600181018054929391929184019161057a9061198a565b80601f01602080910402602001604051908101604052809291908181526020018280546105a69061198a565b80156105f35780601f106105c8576101008083540402835291602001916105f3565b820191906000526020600020905b8154815290600101906020018083116105d657829003601f168201915b5050509183525050600282015460209091019060ff16600481111561061a5761061a611627565b600481111561062b5761062b611627565b81526003820154602080830191909152600483015460408084019190915260059093015460ff1615156060928301528351908401519284015191840151608090940151909b929a5090985091965090945092505050565b6000600b8260405161069491906119c4565b9081526020016040518091039020549050919050565b6106b261147b565b6040518060a001604052806008846040516106cd91906119c4565b908152604080516020928190038301902060008080529083528190205460ff1615158352519101906008906107039086906119c4565b9081526040805160209281900383019020600160009081529083528190205460ff16151583525191019060089061073b9086906119c4565b9081526040805160209281900383019020600260009081529083528190205460ff1615158352519101906008906107739086906119c4565b9081526040805160209281900383019020600360009081529083528190205460ff1615158352519101906008906107ab9086906119c4565b908152604080516020928190038301902060046000908152925290205460ff161515905292915050565b60006006826040516107e791906119c4565b9081526040519081900360200190205492915050565b606060078260405161080f91906119c4565b908152604080519182900360209081018320805480830285018301909352828452919083018282801561086157602002820191906000526020600020905b81548152602001906001019080831161084d575b50505050509050919050565b60006060600080600060025486106108bf5760405162461bcd60e51b815260206004820152601560248201527414ddda5d18da08191bd95cc81b9bdd08195e1a5cdd605a1b6044820152606401610533565b6000868152600560209081526040808320815160c0810190925280546001600160a01b0316825260018101805492939192918401916108fd9061198a565b80601f01602080910402602001604051908101604052809291908181526020018280546109299061198a565b80156109765780601f1061094b57610100808354040283529160200191610976565b820191906000526020600020905b81548152906001019060200180831161095957829003601f168201915b5050509183525050600282015460209091019060ff16600481111561099d5761099d611627565b60048111156109ae576109ae611627565b81526020016002820160019054906101000a900460ff1660048111156109d6576109d6611627565b60048111156109e7576109e7611627565b8152600382015460208083019190915260049092015460ff161515604091820152825191830151908301516060840151608090940151929b919a509850919650945092505050565b600460205260009081526040902080546001820180546001600160a01b039092169291610a5b9061198a565b80601f0160208091040260200160405190810160405280929190818152602001828054610a879061198a565b8015610ad45780601f10610aa957610100808354040283529160200191610ad4565b820191906000526020600020905b815481529060010190602001808311610ab757829003601f168201915b505050600284015460038501546004860154600590960154949560ff9283169591945092501686565b600560205260009081526040902080546001820180546001600160a01b039092169291610b299061198a565b80601f0160208091040260200160405190810160405280929190818152602001828054610b559061198a565b8015610ba25780601f10610b7757610100808354040283529160200191610ba2565b820191906000526020600020905b815481529060010190602001808311610b8557829003601f168201915b50505060028401546003850154600490950154939460ff80831695610100909304811694509092501686565b600080546001600160a01b03163314610bf95760405162461bcd60e51b8152600401610533906119e0565b6000836004811115610c0d57610c0d611627565b03610c5a5760405162461bcd60e51b815260206004820181905260248201527f4a6565702069732064656661756c742c2063616e6e6f742070757263686173656044820152606401610533565b610c648585611346565b6001546040805160c0810182526001600160a01b038716815260208101889052908101856004811115610c9957610c99611627565b81526020808201869052426040808401919091526001606090930183905260008581526004835220835181546001600160a01b0319166001600160a01b03909116178155908301519091820190610cf09082611a66565b50604082015160028201805460ff19166001836004811115610d1457610d14611627565b0217905550606082015160038201556080820151600482015560a0909101516005909101805460ff1916911515919091179055604051600690610d589088906119c4565b9081526040516020918190038201812080546001808201835560009283529390912001839055600890610d8c9089906119c4565b90815260200160405180910390206000866004811115610dae57610dae611627565b6004811115610dbf57610dbf611627565b815260208101919091526040016000908120805460ff1916921515929092179091556001805491610def83611b26565b919050555085604051610e0291906119c4565b6040518091039020817f512460d6e58280d215dee360d5317341c666799785f40017e87b987e99ed4b3687878742604051610e409493929190611b4d565b60405180910390a395945050505050565b6000600a82604051610e6391906119c4565b9081526040519081900360200190205460ff1692915050565b600080546001600160a01b03163314610ea75760405162461bcd60e51b8152600401610533906119e0565b610eb18484611346565b600884604051610ec191906119c4565b90815260200160405180910390206000836004811115610ee357610ee3611627565b6004811115610ef457610ef4611627565b815260208101919091526040016000205460ff16610f485760405162461bcd60e51b815260206004820152601160248201527015995a1a58db19481b9bdd081bdddb9959607a1b6044820152606401610533565b6000600985604051610f5a91906119c4565b9081526040519081900360200190205460ff169050826004811115610f8157610f81611627565b816004811115610f9357610f93611627565b03610fe05760405162461bcd60e51b815260206004820152601a60248201527f416c7265616479207573696e6720746869732076656869636c650000000000006044820152606401610533565b6002546040805160c0810182526001600160a01b03871681526020810188905290810183600481111561101557611015611627565b815260200185600481111561102c5761102c611627565b8152426020808301919091526001604092830181905260008581526005835292909220835181546001600160a01b0319166001600160a01b0390911617815590830151909182019061107e9082611a66565b50604082015160028201805460ff191660018360048111156110a2576110a2611627565b0217905550606082015160028201805461ff0019166101008360048111156110cc576110cc611627565b02179055506080820151600382015560a0909101516004909101805460ff19169115159190911790556040516007906111069088906119c4565b90815260405190819003602090810182208054600181018255600091825291902001829055849060099061113b9089906119c4565b908152604051908190036020019020805460ff1916600183600481111561116457611164611627565b0217905550600b8660405161117991906119c4565b908152604051908190036020019020805490600061119683611b26565b9091555050600280549060006111ab83611b26565b9190505550856040516111be91906119c4565b6040518091039020817f5eaa3e210034e02346002c791265f593d2424c5321faa8fa32c84d183f262ad987858842604051610e409493929190611b7c565b815160208184018101805160068252928201918501919091209190528054829081106104c857600080fd5b606060068260405161080f91906119c4565b6000546001600160a01b031633146112635760405162461bcd60e51b8152600401610533906119e0565b600080546040516001600160a01b03909116914780156108fc02929091818181858888f1935050505015801561129d573d6000803e3d6000fd5b50565b6000546001600160a01b031633146112ca5760405162461bcd60e51b8152600401610533906119e0565b6001600160a01b0381166113125760405162461bcd60e51b815260206004820152600f60248201526e496e76616c6964206164647265737360881b6044820152606401610533565b600080546001600160a01b0319166001600160a01b0392909216919091179055565b6000600982604051610e6391906119c4565b600a8260405161135691906119c4565b9081526040519081900360200190205460ff16611477576001600a8360405161137f91906119c4565b908152604051908190036020019020805491151560ff19909216919091179055600380549060006113af83611b26565b919050555060016008836040516113c691906119c4565b90815260408051918290036020908101832060008080529152908120805460ff1916931515939093179092556009906114009085906119c4565b908152604051908190036020019020805460ff1916600183600481111561142957611429611627565b02179055508160405161143c91906119c4565b604051908190038120428252907f9c529f0fc3a16860fe293102c3f3b645571379454234a401c75194a9b3f77c3f9060200160405180910390a25b5050565b6040518060a001604052806005906020820280368337509192915050565b634e487b7160e01b600052604160045260246000fd5b600082601f8301126114c057600080fd5b813567ffffffffffffffff808211156114db576114db611499565b604051601f8301601f19908116603f0116810190828211818310171561150357611503611499565b8160405283815286602085880101111561151c57600080fd5b836020870160208301376000602085830101528094505050505092915050565b6000806040838503121561154f57600080fd5b823567ffffffffffffffff81111561156657600080fd5b611572858286016114af565b95602094909401359450505050565b60006020828403121561159357600080fd5b813567ffffffffffffffff8111156115aa57600080fd5b6115b6848285016114af565b949350505050565b6000602082840312156115d057600080fd5b5035919050565b60005b838110156115f25781810151838201526020016115da565b50506000910152565b600081518084526116138160208601602086016115d7565b601f01601f19169290920160200192915050565b634e487b7160e01b600052602160045260246000fd5b6005811061165b57634e487b7160e01b600052602160045260246000fd5b9052565b6001600160a01b038616815260a060208201819052600090611683908301876115fb565b9050611692604083018661163d565b6060820193909352608001529392505050565b60a08101818360005b60058110156116cf57815115158352602092830192909101906001016116ae565b50505092915050565b6020808252825182820181905260009190848201906040850190845b81811015611710578351835292840192918401916001016116f4565b50909695505050505050565b6020810161172a828461163d565b92915050565b6001600160a01b038616815260a060208201819052600090611754908301876115fb565b9050611763604083018661163d565b611770606083018561163d565b8260808301529695505050505050565b6001600160a01b038716815260c0602082018190526000906117a4908301886115fb565b90506117b3604083018761163d565b84606083015283608083015282151560a0830152979650505050505050565b6001600160a01b038716815260c0602082018190526000906117f6908301886115fb565b9050611805604083018761163d565b611812606083018661163d565b83608083015282151560a0830152979650505050505050565b80356001600160a01b038116811461184257600080fd5b919050565b80356005811061184257600080fd5b6000806000806080858703121561186c57600080fd5b843567ffffffffffffffff81111561188357600080fd5b61188f878288016114af565b94505061189e6020860161182b565b92506118ac60408601611847565b9396929550929360600135925050565b600080604083850312156118cf57600080fd5b823567ffffffffffffffff8111156118e657600080fd5b6118f2858286016114af565b92505061190160208401611847565b90509250929050565b60008060006060848603121561191f57600080fd5b833567ffffffffffffffff81111561193657600080fd5b611942868287016114af565b9350506119516020850161182b565b915061195f60408501611847565b90509250925092565b60006020828403121561197a57600080fd5b6119838261182b565b9392505050565b600181811c9082168061199e57607f821691505b6020821081036119be57634e487b7160e01b600052602260045260246000fd5b50919050565b600082516119d68184602087016115d7565b9190910192915050565b60208082526018908201527f4f6e6c79206f776e65722063616e2063616c6c20746869730000000000000000604082015260600190565b601f821115611a6157600081815260208120601f850160051c81016020861015611a3e5750805b601f850160051c820191505b81811015611a5d57828155600101611a4a565b5050505b505050565b815167ffffffffffffffff811115611a8057611a80611499565b611a9481611a8e845461198a565b84611a17565b602080601f831160018114611ac95760008415611ab15750858301515b600019600386901b1c1916600185901b178555611a5d565b600085815260208120601f198616915b82811015611af857888601518255948401946001909101908401611ad9565b5085821015611b165787850151600019600388901b60f8161c191681555b5050505050600190811b01905550565b600060018201611b4657634e487b7160e01b600052601160045260246000fd5b5060010190565b6001600160a01b038516815260808101611b6a602083018661163d565b60408201939093526060015292915050565b6001600160a01b038516815260808101611b99602083018661163d565b611ba6604083018561163d565b8260608301529594505050505056fea26469706673582212205ed226cdd5872db83771116b5e377203400d1675fa06ec5325914777941daeb064736f6c63430008140033",
  "linkReferences": {},
  "deployedLinkReferences": {}
}