{
  "_format": "hh-sol-artifact-1",
  "contractName": "PlayerSessionTracker",
  "sourceName": "contracts/PlayerSessionTracker.sol",
  "abi": [
    {
      "inputs": [],
      "stateMutability": "nonpayable",
      "type": "constructor"
    },
    {
      "anonymous": false,
      "inputs": [
        {
          "indexed": true,
          "internalType": "string",
          "name": "identifier",
          "type": "string"
        },
        {
          "indexed": false,
          "internalType": "uint256",
          "name": "timestamp",
          "type": "uint256"
        }
      ],
      "name": "NewPlayerRegistered",
      "type": "event"
    },
    {
      "anonymous": false,
      "inputs": [
        {
          "indexed": true,
          "internalType": "uint256",
          "name": "sessionId",
          "type": "uint256"
        },
        {
          "indexed": true,
          "internalType": "string",
          "name": "identifier",
          "type": "string"
        },
        {
          "indexed": false,
          "internalType": "address",
          "name": "playerAddress",
          "type": "address"
        },
        {
          "indexed": false,
          "internalType": "string",
          "name": "sessionType",
          "type": "string"
        },
        {
          "indexed": false,
          "internalType": "uint256",
          "name": "timestamp",
          "type": "uint256"
        }
      ],
      "name": "SessionRecorded",
      "type": "event"
    },
    {
      "inputs": [],
      "name": "emergencyWithdraw",
      "outputs": [],
      "stateMutability": "nonpayable",
      "type": "function"
    },
    {
      "inputs": [
        {
          "internalType": "string",
          "name": "_identifier",
          "type": "string"
        }
      ],
      "name": "getLastSessionTime",
      "outputs": [
        {
          "internalType": "uint256",
          "name": "",
          "type": "uint256"
        }
      ],
      "stateMutability": "view",
      "type": "function"
    },
    {
      "inputs": [
        {
          "internalType": "string",
          "name": "_identifier",
          "type": "string"
        }
      ],
      "name": "getPlayerSessionCount",
      "outputs": [
        {
          "internalType": "uint256",
          "name": "",
          "type": "uint256"
        }
      ],
      "stateMutability": "view",
      "type": "function"
    },
    {
      "inputs": [
        {
          "internalType": "string",
          "name": "_identifier",
          "type": "string"
        }
      ],
      "name": "getPlayerSessionIds",
      "outputs": [
        {
          "internalType": "uint256[]",
          "name": "",
          "type": "uint256[]"
        }
      ],
      "stateMutability": "view",
      "type": "function"
    },
    {
      "inputs": [
        {
          "internalType": "uint256",
          "name": "_sessionId",
          "type": "uint256"
        }
      ],
      "name": "getSession",
      "outputs": [
        {
          "internalType": "address",
          "name": "playerAddress",
          "type": "address"
        },
        {
          "internalType": "string",
          "name": "identifier",
          "type": "string"
        },
        {
          "internalType": "uint256",
          "name": "timestamp",
          "type": "uint256"
        },
        {
          "internalType": "string",
          "name": "sessionType",
          "type": "string"
        },
        {
          "internalType": "uint256",
          "name": "currency",
          "type": "uint256"
        },
        {
          "internalType": "uint256",
          "name": "bestScore",
          "type": "uint256"
        }
      ],
      "stateMutability": "view",
      "type": "function"
    },
    {
      "inputs": [],
      "name": "getStats",
      "outputs": [
        {
          "internalType": "uint256",
          "name": "_totalSessions",
          "type": "uint256"
        },
        {
          "internalType": "uint256",
          "name": "_totalUniquePlayers",
          "type": "uint256"
        },
        {
          "internalType": "address",
          "name": "_owner",
          "type": "address"
        }
      ],
      "stateMutability": "view",
      "type": "function"
    },
    {
      "inputs": [
        {
          "internalType": "string",
          "name": "_identifier",
          "type": "string"
        }
      ],
      "name": "hasPlayed",
      "outputs": [
        {
          "internalType": "bool",
          "name": "",
          "type": "bool"
        }
      ],
      "stateMutability": "view",
      "type": "function"
    },
    {
      "inputs": [
        {
          "internalType": "string",
          "name": "",
          "type": "string"
        }
      ],
      "name": "hasPlayedBefore",
      "outputs": [
        {
          "internalType": "bool",
          "name": "",
          "type": "bool"
        }
      ],
      "stateMutability": "view",
      "type": "function"
    },
    {
      "inputs": [
        {
          "internalType": "string",
          "name": "",
          "type": "string"
        }
      ],
      "name": "lastSessionTime",
      "outputs": [
        {
          "internalType": "uint256",
          "name": "",
          "type": "uint256"
        }
      ],
      "stateMutability": "view",
      "type": "function"
    },
    {
      "inputs": [],
      "name": "owner",
      "outputs": [
        {
          "internalType": "address",
          "name": "",
          "type": "address"
        }
      ],
      "stateMutability": "view",
      "type": "function"
    },
    {
      "inputs": [
        {
          "internalType": "string",
          "name": "",
          "type": "string"
        },
        {
          "internalType": "uint256",
          "name": "",
          "type": "uint256"
        }
      ],
      "name": "playerSessions",
      "outputs": [
        {
          "internalType": "uint256",
          "name": "",
          "type": "uint256"
        }
      ],
      "stateMutability": "view",
      "type": "function"
    },
    {
      "inputs": [
        {
          "internalType": "string",
          "name": "_identifier",
          "type": "string"
        },
        {
          "internalType": "address",
          "name": "_playerAddress",
          "type": "address"
        },
        {
          "internalType": "string",
          "name": "_sessionType",
          "type": "string"
        },
        {
          "internalType": "uint256",
          "name": "_currency",
          "type": "uint256"
        },
        {
          "internalType": "uint256",
          "name": "_bestScore",
          "type": "uint256"
        }
      ],
      "name": "recordSession",
      "outputs": [
        {
          "internalType": "uint256",
          "name": "",
          "type": "uint256"
        }
      ],
      "stateMutability": "nonpayable",
      "type": "function"
    },
    {
      "inputs": [
        {
          "internalType": "uint256",
          "name": "",
          "type": "uint256"
        }
      ],
      "name": "sessions",
      "outputs": [
        {
          "internalType": "address",
          "name": "playerAddress",
          "type": "address"
        },
        {
          "internalType": "string",
          "name": "identifier",
          "type": "string"
        },
        {
          "internalType": "uint256",
          "name": "timestamp",
          "type": "uint256"
        },
        {
          "internalType": "string",
          "name": "sessionType",
          "type": "string"
        },
        {
          "internalType": "uint256",
          "name": "currency",
          "type": "uint256"
        },
        {
          "internalType": "uint256",
          "name": "bestScore",
          "type": "uint256"
        },
        {
          "internalType": "bool",
          "name": "exists",
          "type": "bool"
        }
      ],
      "stateMutability": "view",
      "type": "function"
    },
    {
      "inputs": [],
      "name": "totalSessions",
      "outputs": [
        {
          "internalType": "uint256",
          "name": "",
          "type": "uint256"
        }
      ],
      "stateMutability": "view",
      "type": "function"
    },
    {
      "inputs": [],
      "name": "totalUniquePlayers",
      "outputs": [
        {
          "internalType": "uint256",
          "name": "",
          "type": "uint256"
        }
      ],
      "stateMutability": "view",
      "type": "function"
    },
    {
      "inputs": [
        {
          "internalType": "address",
          "name": "_newOwner",
          "type": "address"
        }
      ],
      "name": "transferOwnership",
      "outputs": [],
      "stateMutability": "nonpayable",
      "type": "function"
    }
  ],
  "bytecode": "0x608060405234801561001057600080fd5b50600080546001600160a01b03191633178155600181905560025561104e8061003a6000396000f3fe608060405234801561001057600080fd5b50600436106101005760003560e01c806383c4b7a311610097578063c59d484711610066578063c59d484714610275578063cab3f44b146102a2578063db2e21bc146102b5578063f2fde38b146102bf57600080fd5b806383c4b7a3146101fb5780638a609155146102215780638da5cb5b1461022a578063a61c74771461025557600080fd5b80634b18db51116100d35780634b18db51146101a1578063564ce014146101b45780635f3c49b9146101c75780636f5db0b5146101f257600080fd5b8063213ea5161461010557806326d5c4d81461012b57806331f0f1221461013e578063402ff0db1461017c575b600080fd5b610118610113366004610b7e565b6102d2565b6040519081526020015b60405180910390f35b610118610139366004610bdf565b610312565b61016c61014c366004610c65565b805160208183018101805160058252928201919093012091525460ff1681565b6040519015158152602001610122565b61018f61018a366004610ca2565b61058e565b60405161012296959493929190610d0b565b6101186101af366004610c65565b61079b565b6101186101c2366004610c65565b6107c3565b6101186101d5366004610c65565b805160208183018101805160068252928201919093012091525481565b61011860015481565b61020e610209366004610ca2565b6107eb565b6040516101229796959493929190610d5d565b61011860025481565b60005461023d906001600160a01b031681565b6040516001600160a01b039091168152602001610122565b610268610263366004610c65565b610945565b6040516101229190610dbb565b6001546002546000546040805193845260208401929092526001600160a01b031690820152606001610122565b61016c6102b0366004610c65565b6109b5565b6102bd6109e0565b005b6102bd6102cd366004610dff565b610a47565b815160208184018101805160048252928201918501919091209190528054829081106102fd57600080fd5b90600052602060002001600091509150505481565b600080546001600160a01b031633146103465760405162461bcd60e51b815260040161033d90610e21565b60405180910390fd5b6005866040516103569190610e58565b9081526040519081900360200190205460ff166103fd57600160058760405161037f9190610e58565b908152604051908190036020019020805491151560ff19909216919091179055600280549060006103af83610e74565b9190505550856040516103c29190610e58565b604051908190038120428252907f03f11f703b9e4e12a29666143017b23022d6b952c9b706099b8df37745417b8c9060200160405180910390a25b600180546040805160e0810182526001600160a01b03898116825260208083018c81524284860152606084018b9052608084018a905260a0840189905260c0840187905260008681526003909252939020825181546001600160a01b0319169216919091178155915192939092908201906104789082610f24565b5060408201516002820155606082015160038201906104979082610f24565b50608082015160048281019190915560a0830151600583015560c0909201516006909101805460ff19169115159190911790556040516104d8908990610e58565b90815260405190819003602090810182208054600181018255600091825291902001829055429060069061050d908a90610e58565b908152604051908190036020019020556001805490600061052d83610e74565b9190505550866040516105409190610e58565b6040518091039020817f034d3fff747bc720ea32de3e74da9ca2cace399e255f2b8e57d73f393012fe4688884260405161057c93929190610fe4565b60405180910390a39695505050505050565b600060606000606060008060015487106105e35760405162461bcd60e51b815260206004820152601660248201527514d95cdcda5bdb88191bd95cc81b9bdd08195e1a5cdd60521b604482015260640161033d565b6000878152600360209081526040808320815160e0810190925280546001600160a01b03168252600181018054929391929184019161062190610e9b565b80601f016020809104026020016040519081016040528092919081815260200182805461064d90610e9b565b801561069a5780601f1061066f5761010080835404028352916020019161069a565b820191906000526020600020905b81548152906001019060200180831161067d57829003601f168201915b50505050508152602001600282015481526020016003820180546106bd90610e9b565b80601f01602080910402602001604051908101604052809291908181526020018280546106e990610e9b565b80156107365780601f1061070b57610100808354040283529160200191610736565b820191906000526020600020905b81548152906001019060200180831161071957829003601f168201915b50505091835250506004820154602080830191909152600583015460408084019190915260069093015460ff1615156060928301528351908401519284015191840151608085015160a090950151919d939c50919a5090985091965090945092505050565b60006006826040516107ad9190610e58565b9081526020016040518091039020549050919050565b60006004826040516107d59190610e58565b9081526040519081900360200190205492915050565b600360205260009081526040902080546001820180546001600160a01b03909216929161081790610e9b565b80601f016020809104026020016040519081016040528092919081815260200182805461084390610e9b565b80156108905780601f1061086557610100808354040283529160200191610890565b820191906000526020600020905b81548152906001019060200180831161087357829003601f168201915b5050505050908060020154908060030180546108ab90610e9b565b80601f01602080910402602001604051908101604052809291908181526020018280546108d790610e9b565b80156109245780601f106108f957610100808354040283529160200191610924565b820191906000526020600020905b81548152906001019060200180831161090757829003601f168201915b50505050600483015460058401546006909401549293909290915060ff1687565b60606004826040516109579190610e58565b90815260408051918290036020908101832080548083028501830190935282845291908301828280156109a957602002820191906000526020600020905b815481526020019060010190808311610995575b50505050509050919050565b60006005826040516109c79190610e58565b9081526040519081900360200190205460ff1692915050565b6000546001600160a01b03163314610a0a5760405162461bcd60e51b815260040161033d90610e21565b600080546040516001600160a01b03909116914780156108fc02929091818181858888f19350505050158015610a44573d6000803e3d6000fd5b50565b6000546001600160a01b03163314610a715760405162461bcd60e51b815260040161033d90610e21565b6001600160a01b038116610ab95760405162461bcd60e51b815260206004820152600f60248201526e496e76616c6964206164647265737360881b604482015260640161033d565b600080546001600160a01b0319166001600160a01b0392909216919091179055565b634e487b7160e01b600052604160045260246000fd5b600082601f830112610b0257600080fd5b813567ffffffffffffffff80821115610b1d57610b1d610adb565b604051601f8301601f19908116603f01168101908282118183101715610b4557610b45610adb565b81604052838152866020858801011115610b5e57600080fd5b836020870160208301376000602085830101528094505050505092915050565b60008060408385031215610b9157600080fd5b823567ffffffffffffffff811115610ba857600080fd5b610bb485828601610af1565b95602094909401359450505050565b80356001600160a01b0381168114610bda57600080fd5b919050565b600080600080600060a08688031215610bf757600080fd5b853567ffffffffffffffff80821115610c0f57600080fd5b610c1b89838a01610af1565b9650610c2960208901610bc3565b95506040880135915080821115610c3f57600080fd5b50610c4c88828901610af1565b9598949750949560608101359550608001359392505050565b600060208284031215610c7757600080fd5b813567ffffffffffffffff811115610c8e57600080fd5b610c9a84828501610af1565b949350505050565b600060208284031215610cb457600080fd5b5035919050565b60005b83811015610cd6578181015183820152602001610cbe565b50506000910152565b60008151808452610cf7816020860160208601610cbb565b601f01601f19169290920160200192915050565b6001600160a01b038716815260c060208201819052600090610d2f90830188610cdf565b8660408401528281036060840152610d478187610cdf565b6080840195909552505060a00152949350505050565b6001600160a01b038816815260e060208201819052600090610d8190830189610cdf565b8760408401528281036060840152610d998188610cdf565b6080840196909652505060a0810192909252151560c090910152949350505050565b6020808252825182820181905260009190848201906040850190845b81811015610df357835183529284019291840191600101610dd7565b50909695505050505050565b600060208284031215610e1157600080fd5b610e1a82610bc3565b9392505050565b60208082526018908201527f4f6e6c79206f776e65722063616e2063616c6c20746869730000000000000000604082015260600190565b60008251610e6a818460208701610cbb565b9190910192915050565b600060018201610e9457634e487b7160e01b600052601160045260246000fd5b5060010190565b600181811c90821680610eaf57607f821691505b602082108103610ecf57634e487b7160e01b600052602260045260246000fd5b50919050565b601f821115610f1f57600081815260208120601f850160051c81016020861015610efc5750805b601f850160051c820191505b81811015610f1b57828155600101610f08565b5050505b505050565b815167ffffffffffffffff811115610f3e57610f3e610adb565b610f5281610f4c8454610e9b565b84610ed5565b602080601f831160018114610f875760008415610f6f5750858301515b600019600386901b1c1916600185901b178555610f1b565b600085815260208120601f198616915b82811015610fb657888601518255948401946001909101908401610f97565b5085821015610fd45787850151600019600388901b60f8161c191681555b5050505050600190811b01905550565b6001600160a01b038416815260606020820181905260009061100890830185610cdf565b905082604083015294935050505056fea2646970667358221220e3722e54ccd87161f3960183a00a9887ab8a293ccb67e8ffd0b49adff89e76a564736f6c63430008140033",
  "linkReferences": {},
  "deployedLinkReferences": {}
}