{
  "_format": "hh-sol-artifact-1",
  "contractName": "MissionManager",
  "sourceName": "contracts/MissionManager.sol",
  "abi": [
    {
      "inputs": [],
      "stateMutability": "nonpayable",
      "type": "constructor"
    },
    {
      "anonymous": false,
      "inputs": [
        {
          "indexed": true,
          "internalType": "string",
          "name": "achievementId",
          "type": "string"
        },
        {
          "indexed": true,
          "internalType": "string",
          "name": "identifier",
          "type": "string"
        },
        {
          "indexed": false,
          "internalType": "address",
          "name": "playerAddress",
          "type": "address"
        },
        {
          "indexed": false,
          "internalType": "uint256",
          "name": "timestamp",
          "type": "uint256"
        }
      ],
      "name": "AchievementUnlocked",
      "type": "event"
    },
    {
      "anonymous": false,
      "inputs": [
        {
          "indexed": true,
          "internalType": "uint256",
          "name": "completionId",
          "type": "uint256"
        },
        {
          "indexed": true,
          "internalType": "string",
          "name": "identifier",
          "type": "string"
        },
        {
          "indexed": false,
          "internalType": "string",
          "name": "missionId",
          "type": "string"
        },
        {
          "indexed": false,
          "internalType": "address",
          "name": "playerAddress",
          "type": "address"
        },
        {
          "indexed": false,
          "internalType": "uint256",
          "name": "completedValue",
          "type": "uint256"
        },
        {
          "indexed": false,
          "internalType": "uint256",
          "name": "rewardClaimed",
          "type": "uint256"
        },
        {
          "indexed": false,
          "internalType": "uint256",
          "name": "timestamp",
          "type": "uint256"
        }
      ],
      "name": "MissionCompleted",
      "type": "event"
    },
    {
      "anonymous": false,
      "inputs": [
        {
          "indexed": true,
          "internalType": "string",
          "name": "missionId",
          "type": "string"
        },
        {
          "indexed": false,
          "internalType": "string",
          "name": "name",
          "type": "string"
        },
        {
          "indexed": false,
          "internalType": "enum MissionManager.MissionType",
          "name": "missionType",
          "type": "uint8"
        },
        {
          "indexed": false,
          "internalType": "uint256",
          "name": "targetValue",
          "type": "uint256"
        },
        {
          "indexed": false,
          "internalType": "uint256",
          "name": "rewardAmount",
          "type": "uint256"
        },
        {
          "indexed": false,
          "internalType": "uint256",
          "name": "timestamp",
          "type": "uint256"
        }
      ],
      "name": "MissionCreated",
      "type": "event"
    },
    {
      "anonymous": false,
      "inputs": [
        {
          "indexed": true,
          "internalType": "string",
          "name": "identifier",
          "type": "string"
        },
        {
          "indexed": true,
          "internalType": "string",
          "name": "missionId",
          "type": "string"
        },
        {
          "indexed": false,
          "internalType": "uint256",
          "name": "currentProgress",
          "type": "uint256"
        },
        {
          "indexed": false,
          "internalType": "uint256",
          "name": "targetValue",
          "type": "uint256"
        }
      ],
      "name": "MissionProgressUpdated",
      "type": "event"
    },
    {
      "anonymous": false,
      "inputs": [
        {
          "indexed": true,
          "internalType": "string",
          "name": "identifier",
          "type": "string"
        },
        {
          "indexed": false,
          "internalType": "uint256",
          "name": "timestamp",
          "type": "uint256"
        }
      ],
      "name": "NewPlayer",
      "type": "event"
    },
    {
      "inputs": [
        {
          "internalType": "uint256",
          "name": "",
          "type": "uint256"
        }
      ],
      "name": "achievementIds",
      "outputs": [
        {
          "internalType": "string",
          "name": "",
          "type": "string"
        }
      ],
      "stateMutability": "view",
      "type": "function"
    },
    {
      "inputs": [
        {
          "internalType": "string",
          "name": "",
          "type": "string"
        }
      ],
      "name": "achievements",
      "outputs": [
        {
          "internalType": "string",
          "name": "achievementId",
          "type": "string"
        },
        {
          "internalType": "string",
          "name": "name",
          "type": "string"
        },
        {
          "internalType": "string",
          "name": "description",
          "type": "string"
        },
        {
          "internalType": "uint256",
          "name": "unlockTimestamp",
          "type": "uint256"
        },
        {
          "internalType": "bool",
          "name": "exists",
          "type": "bool"
        }
      ],
      "stateMutability": "view",
      "type": "function"
    },
    {
      "inputs": [
        {
          "internalType": "string",
          "name": "_achievementId",
          "type": "string"
        },
        {
          "internalType": "string",
          "name": "_name",
          "type": "string"
        },
        {
          "internalType": "string",
          "name": "_description",
          "type": "string"
        }
      ],
      "name": "addAchievement",
      "outputs": [
        {
          "internalType": "bool",
          "name": "",
          "type": "bool"
        }
      ],
      "stateMutability": "nonpayable",
      "type": "function"
    },
    {
      "inputs": [
        {
          "internalType": "string",
          "name": "_identifier",
          "type": "string"
        },
        {
          "internalType": "address",
          "name": "_playerAddress",
          "type": "address"
        },
        {
          "internalType": "string[]",
          "name": "_achievementIds",
          "type": "string[]"
        }
      ],
      "name": "batchUnlockAchievements",
      "outputs": [
        {
          "internalType": "bool",
          "name": "",
          "type": "bool"
        }
      ],
      "stateMutability": "nonpayable",
      "type": "function"
    },
    {
      "inputs": [
        {
          "internalType": "string",
          "name": "_identifier",
          "type": "string"
        },
        {
          "internalType": "address",
          "name": "_playerAddress",
          "type": "address"
        },
        {
          "internalType": "string",
          "name": "_missionId",
          "type": "string"
        },
        {
          "internalType": "uint256",
          "name": "_completedValue",
          "type": "uint256"
        }
      ],
      "name": "completeMission",
      "outputs": [
        {
          "internalType": "uint256",
          "name": "",
          "type": "uint256"
        }
      ],
      "stateMutability": "nonpayable",
      "type": "function"
    },
    {
      "inputs": [
        {
          "internalType": "uint256",
          "name": "",
          "type": "uint256"
        }
      ],
      "name": "completions",
      "outputs": [
        {
          "internalType": "address",
          "name": "playerAddress",
          "type": "address"
        },
        {
          "internalType": "string",
          "name": "identifier",
          "type": "string"
        },
        {
          "internalType": "string",
          "name": "missionId",
          "type": "string"
        },
        {
          "internalType": "uint256",
          "name": "completedValue",
          "type": "uint256"
        },
        {
          "internalType": "uint256",
          "name": "rewardClaimed",
          "type": "uint256"
        },
        {
          "internalType": "uint256",
          "name": "timestamp",
          "type": "uint256"
        },
        {
          "internalType": "bool",
          "name": "exists",
          "type": "bool"
        }
      ],
      "stateMutability": "view",
      "type": "function"
    },
    {
      "inputs": [
        {
          "internalType": "string",
          "name": "_missionId",
          "type": "string"
        },
        {
          "internalType": "string",
          "name": "_name",
          "type": "string"
        },
        {
          "internalType": "string",
          "name": "_description",
          "type": "string"
        },
        {
          "internalType": "enum MissionManager.MissionType",
          "name": "_missionType",
          "type": "uint8"
        },
        {
          "internalType": "uint256",
          "name": "_targetValue",
          "type": "uint256"
        },
        {
          "internalType": "uint256",
          "name": "_rewardAmount",
          "type": "uint256"
        }
      ],
      "name": "createMission",
      "outputs": [
        {
          "internalType": "bool",
          "name": "",
          "type": "bool"
        }
      ],
      "stateMutability": "nonpayable",
      "type": "function"
    },
    {
      "inputs": [],
      "name": "emergencyWithdraw",
      "outputs": [],
      "stateMutability": "nonpayable",
      "type": "function"
    },
    {
      "inputs": [
        {
          "internalType": "string",
          "name": "_achievementId",
          "type": "string"
        }
      ],
      "name": "getAchievement",
      "outputs": [
        {
          "internalType": "string",
          "name": "name",
          "type": "string"
        },
        {
          "internalType": "string",
          "name": "description",
          "type": "string"
        },
        {
          "internalType": "uint256",
          "name": "unlockTimestamp",
          "type": "uint256"
        }
      ],
      "stateMutability": "view",
      "type": "function"
    },
    {
      "inputs": [],
      "name": "getAllAchievementIds",
      "outputs": [
        {
          "internalType": "string[]",
          "name": "",
          "type": "string[]"
        }
      ],
      "stateMutability": "view",
      "type": "function"
    },
    {
      "inputs": [],
      "name": "getAllMissionIds",
      "outputs": [
        {
          "internalType": "string[]",
          "name": "",
          "type": "string[]"
        }
      ],
      "stateMutability": "view",
      "type": "function"
    },
    {
      "inputs": [
        {
          "internalType": "uint256",
          "name": "_completionId",
          "type": "uint256"
        }
      ],
      "name": "getCompletion",
      "outputs": [
        {
          "internalType": "address",
          "name": "playerAddress",
          "type": "address"
        },
        {
          "internalType": "string",
          "name": "identifier",
          "type": "string"
        },
        {
          "internalType": "string",
          "name": "missionId",
          "type": "string"
        },
        {
          "internalType": "uint256",
          "name": "completedValue",
          "type": "uint256"
        },
        {
          "internalType": "uint256",
          "name": "rewardClaimed",
          "type": "uint256"
        },
        {
          "internalType": "uint256",
          "name": "timestamp",
          "type": "uint256"
        }
      ],
      "stateMutability": "view",
      "type": "function"
    },
    {
      "inputs": [
        {
          "internalType": "string",
          "name": "_missionId",
          "type": "string"
        }
      ],
      "name": "getMission",
      "outputs": [
        {
          "internalType": "string",
          "name": "name",
          "type": "string"
        },
        {
          "internalType": "string",
          "name": "description",
          "type": "string"
        },
        {
          "internalType": "enum MissionManager.MissionType",
          "name": "missionType",
          "type": "uint8"
        },
        {
          "internalType": "uint256",
          "name": "targetValue",
          "type": "uint256"
        },
        {
          "internalType": "uint256",
          "name": "rewardAmount",
          "type": "uint256"
        },
        {
          "internalType": "bool",
          "name": "isActive",
          "type": "bool"
        }
      ],
      "stateMutability": "view",
      "type": "function"
    },
    {
      "inputs": [
        {
          "internalType": "string",
          "name": "_identifier",
          "type": "string"
        }
      ],
      "name": "getPlayerAchievementCount",
      "outputs": [
        {
          "internalType": "uint256",
          "name": "",
          "type": "uint256"
        }
      ],
      "stateMutability": "view",
      "type": "function"
    },
    {
      "inputs": [
        {
          "internalType": "string",
          "name": "_identifier",
          "type": "string"
        }
      ],
      "name": "getPlayerAchievements",
      "outputs": [
        {
          "internalType": "string[]",
          "name": "",
          "type": "string[]"
        }
      ],
      "stateMutability": "view",
      "type": "function"
    },
    {
      "inputs": [
        {
          "internalType": "string",
          "name": "_identifier",
          "type": "string"
        }
      ],
      "name": "getPlayerCompletedMissionCount",
      "outputs": [
        {
          "internalType": "uint256",
          "name": "",
          "type": "uint256"
        }
      ],
      "stateMutability": "view",
      "type": "function"
    },
    {
      "inputs": [
        {
          "internalType": "string",
          "name": "_identifier",
          "type": "string"
        }
      ],
      "name": "getPlayerCompletions",
      "outputs": [
        {
          "internalType": "uint256[]",
          "name": "",
          "type": "uint256[]"
        }
      ],
      "stateMutability": "view",
      "type": "function"
    },
    {
      "inputs": [
        {
          "internalType": "string",
          "name": "_identifier",
          "type": "string"
        },
        {
          "internalType": "string",
          "name": "_missionId",
          "type": "string"
        }
      ],
      "name": "getPlayerMissionProgress",
      "outputs": [
        {
          "internalType": "uint256",
          "name": "",
          "type": "uint256"
        }
      ],
      "stateMutability": "view",
      "type": "function"
    },
    {
      "inputs": [
        {
          "internalType": "string",
          "name": "_identifier",
          "type": "string"
        },
        {
          "internalType": "string",
          "name": "_missionId",
          "type": "string"
        }
      ],
      "name": "getPlayerMissionStatus",
      "outputs": [
        {
          "internalType": "enum MissionManager.MissionStatus",
          "name": "",
          "type": "uint8"
        }
      ],
      "stateMutability": "view",
      "type": "function"
    },
    {
      "inputs": [
        {
          "internalType": "string",
          "name": "_identifier",
          "type": "string"
        }
      ],
      "name": "getPlayerMissions",
      "outputs": [
        {
          "internalType": "string[]",
          "name": "",
          "type": "string[]"
        }
      ],
      "stateMutability": "view",
      "type": "function"
    },
    {
      "inputs": [],
      "name": "getStats",
      "outputs": [
        {
          "internalType": "uint256",
          "name": "_totalMissions",
          "type": "uint256"
        },
        {
          "internalType": "uint256",
          "name": "_totalCompletions",
          "type": "uint256"
        },
        {
          "internalType": "uint256",
          "name": "_totalAchievements",
          "type": "uint256"
        },
        {
          "internalType": "uint256",
          "name": "_totalPlayers",
          "type": "uint256"
        },
        {
          "internalType": "address",
          "name": "_owner",
          "type": "address"
        }
      ],
      "stateMutability": "view",
      "type": "function"
    },
    {
      "inputs": [
        {
          "internalType": "string",
          "name": "",
          "type": "string"
        },
        {
          "internalType": "string",
          "name": "",
          "type": "string"
        }
      ],
      "name": "hasAchievement",
      "outputs": [
        {
          "internalType": "bool",
          "name": "",
          "type": "bool"
        }
      ],
      "stateMutability": "view",
      "type": "function"
    },
    {
      "inputs": [
        {
          "internalType": "string",
          "name": "",
          "type": "string"
        }
      ],
      "name": "hasPlayer",
      "outputs": [
        {
          "internalType": "bool",
          "name": "",
          "type": "bool"
        }
      ],
      "stateMutability": "view",
      "type": "function"
    },
    {
      "inputs": [
        {
          "internalType": "uint256",
          "name": "",
          "type": "uint256"
        }
      ],
      "name": "missionIds",
      "outputs": [
        {
          "internalType": "string",
          "name": "",
          "type": "string"
        }
      ],
      "stateMutability": "view",
      "type": "function"
    },
    {
      "inputs": [
        {
          "internalType": "string",
          "name": "",
          "type": "string"
        }
      ],
      "name": "missions",
      "outputs": [
        {
          "internalType": "string",
          "name": "missionId",
          "type": "string"
        },
        {
          "internalType": "string",
          "name": "name",
          "type": "string"
        },
        {
          "internalType": "string",
          "name": "description",
          "type": "string"
        },
        {
          "internalType": "enum MissionManager.MissionType",
          "name": "missionType",
          "type": "uint8"
        },
        {
          "internalType": "uint256",
          "name": "targetValue",
          "type": "uint256"
        },
        {
          "internalType": "uint256",
          "name": "rewardAmount",
          "type": "uint256"
        },
        {
          "internalType": "uint256",
          "name": "createdAt",
          "type": "uint256"
        },
        {
          "internalType": "bool",
          "name": "isActive",
          "type": "bool"
        },
        {
          "internalType": "bool",
          "name": "exists",
          "type": "bool"
        }
      ],
      "stateMutability": "view",
      "type": "function"
    },
    {
      "inputs": [],
      "name": "owner",
      "outputs": [
        {
          "internalType": "address",
          "name": "",
          "type": "address"
        }
      ],
      "stateMutability": "view",
      "type": "function"
    },
    {
      "inputs": [
        {
          "internalType": "string",
          "name": "",
          "type": "string"
        },
        {
          "internalType": "uint256",
          "name": "",
          "type": "uint256"
        }
      ],
      "name": "playerAchievements",
      "outputs": [
        {
          "internalType": "string",
          "name": "",
          "type": "string"
        }
      ],
      "stateMutability": "view",
      "type": "function"
    },
    {
      "inputs": [
        {
          "internalType": "string",
          "name": "",
          "type": "string"
        },
        {
          "internalType": "uint256",
          "name": "",
          "type": "uint256"
        }
      ],
      "name": "playerCompletionIds",
      "outputs": [
        {
          "internalType": "uint256",
          "name": "",
          "type": "uint256"
        }
      ],
      "stateMutability": "view",
      "type": "function"
    },
    {
      "inputs": [
        {
          "internalType": "string",
          "name": "_identifier",
          "type": "string"
        }
      ],
      "name": "playerExists",
      "outputs": [
        {
          "internalType": "bool",
          "name": "",
          "type": "bool"
        }
      ],
      "stateMutability": "view",
      "type": "function"
    },
    {
      "inputs": [
        {
          "internalType": "string",
          "name": "_identifier",
          "type": "string"
        },
        {
          "internalType": "string",
          "name": "_achievementId",
          "type": "string"
        }
      ],
      "name": "playerHasAchievement",
      "outputs": [
        {
          "internalType": "bool",
          "name": "",
          "type": "bool"
        }
      ],
      "stateMutability": "view",
      "type": "function"
    },
    {
      "inputs": [
        {
          "internalType": "string",
          "name": "",
          "type": "string"
        },
        {
          "internalType": "string",
          "name": "",
          "type": "string"
        }
      ],
      "name": "playerMissionProgress",
      "outputs": [
        {
          "internalType": "uint256",
          "name": "",
          "type": "uint256"
        }
      ],
      "stateMutability": "view",
      "type": "function"
    },
    {
      "inputs": [
        {
          "internalType": "string",
          "name": "",
          "type": "string"
        },
        {
          "internalType": "string",
          "name": "",
          "type": "string"
        }
      ],
      "name": "playerMissionStatus",
      "outputs": [
        {
          "internalType": "enum MissionManager.MissionStatus",
          "name": "",
          "type": "uint8"
        }
      ],
      "stateMutability": "view",
      "type": "function"
    },
    {
      "inputs": [
        {
          "internalType": "string",
          "name": "",
          "type": "string"
        },
        {
          "internalType": "uint256",
          "name": "",
          "type": "uint256"
        }
      ],
      "name": "playerMissions",
      "outputs": [
        {
          "internalType": "string",
          "name": "",
          "type": "string"
        }
      ],
      "stateMutability": "view",
      "type": "function"
    },
    {
      "inputs": [
        {
          "internalType": "string",
          "name": "_missionId",
          "type": "string"
        }
      ],
      "name": "toggleMissionStatus",
      "outputs": [],
      "stateMutability": "nonpayable",
      "type": "function"
    },
    {
      "inputs": [],
      "name": "totalAchievements",
      "outputs": [
        {
          "internalType": "uint256",
          "name": "",
          "type": "uint256"
        }
      ],
      "stateMutability": "view",
      "type": "function"
    },
    {
      "inputs": [],
      "name": "totalCompletions",
      "outputs": [
        {
          "internalType": "uint256",
          "name": "",
          "type": "uint256"
        }
      ],
      "stateMutability": "view",
      "type": "function"
    },
    {
      "inputs": [],
      "name": "totalMissions",
      "outputs": [
        {
          "internalType": "uint256",
          "name": "",
          "type": "uint256"
        }
      ],
      "stateMutability": "view",
      "type": "function"
    },
    {
      "inputs": [],
      "name": "totalPlayers",
      "outputs": [
        {
          "internalType": "uint256",
          "name": "",
          "type": "uint256"
        }
      ],
      "stateMutability": "view",
      "type": "function"
    },
    {
      "inputs": [
        {
          "internalType": "address",
          "name": "_newOwner",
          "type": "address"
        }
      ],
      "name": "transferOwnership",
      "outputs": [],
      "stateMutability": "nonpayable",
      "type": "function"
    },
    {
      "inputs": [
        {
          "internalType": "string",
          "name": "_identifier",
          "type": "string"
        },
        {
          "internalType": "address",
          "name": "_playerAddress",
          "type": "address"
        },
        {
          "internalType": "string",
          "name": "_achievementId",
          "type": "string"
        }
      ],
      "name": "unlockAchievement",
      "outputs": [
        {
          "internalType": "bool",
          "name": "",
          "type": "bool"
        }
      ],
      "stateMutability": "nonpayable",
      "type": "function"
    },
    {
      "inputs": [
        {
          "internalType": "string",
          "name": "_identifier",
          "type": "string"
        },
        {
          "internalType": "address",
          "name": "_playerAddress",
          "type": "address"
        },
        {
          "internalType": "string",
          "name": "_missionId",
          "type": "string"
        },
        {
          "internalType": "uint256",
          "name": "_currentProgress",
          "type": "uint256"
        }
      ],
      "name": "updateMissionProgress",
      "outputs": [
        {
          "internalType": "bool",
          "name": "",
          "type": "bool"
        }
      ],
      "stateMutability": "nonpayable",
      "type": "function"
    }
  ],
  "bytecode": "0x60806040523480156200001157600080fd5b50600080546001600160a01b031916331781556001819055600281905560038190556004556200004062000046565b6200078b565b620000d86040518060400160405280600e81526020016d41434849455645445f313030304d60901b8152506040518060400160405280600c81526020016b2937b0b2102bb0b93934b7b960a11b8152506040518060400160405280601d81526020017f54726176656c2031303030206d657465727320696e206f6e652072756e000000815250620004b760201b60201c565b6200016c6040518060400160405280600e81526020016d41434849455645445f353030304d60901b8152506040518060400160405280600e81526020016d121a59da1dd85e48131959d95b9960921b8152506040518060400160405280601d81526020017f54726176656c2035303030206d657465727320696e206f6e652072756e000000815250620004b760201b60201c565b620001fa604051806040016040528060098152602001682324a929aa2faba4a760b91b8152506040518060400160405280600d81526020016c466972737420566963746f727960981b8152506040518060400160405280601381526020017f57696e20796f75722066697273742067616d6500000000000000000000000000815250620004b760201b60201c565b620002886040518060400160405280600b81526020016a29a822a2a22fa222a6a7a760a91b8152506040518060400160405280600b81526020016a29b832b2b2102232b6b7b760a91b8152506040518060400160405280601381526020017f5265616368206d6178696d756d20737065656400000000000000000000000000815250620004b760201b60201c565b6200031a6040518060400160405280600981526020016821a7a62622a1aa27a960b91b815250604051806040016040528060118152602001702b32b434b1b6329021b7b63632b1ba37b960791b8152506040518060400160405280601381526020017f556e6c6f636b20616c6c2076656869636c657300000000000000000000000000815250620004b760201b60201c565b620003a66040518060400160405280600a8152602001692924a1a42fa920a1a2a960b11b8152506040518060400160405280600a8152602001692934b1b4102930b1b2b960b11b8152506040518060400160405280601b81526020017f416363756d756c617465203130302c3030302063757272656e63790000000000815250620004b760201b60201c565b62000427604051806040016040528060078152602001662b22aa22a920a760c91b8152506040518060400160405280600e81526020016d2b32ba32b930b710283630bcb2b960911b81525060405180604001604052806011815260200170506c617920666f7220313020686f75727360781b815250620004b760201b60201c565b620004b56040518060400160405280600b81526020016a2822a92322a1aa2fa92aa760a91b8152506040518060400160405280600b81526020016a2832b93332b1ba10293ab760a91b8152506040518060400160405280601d81526020017f436f6d706c65746520612072756e20776974686f75742064616d616765000000815250620004b760201b60201c565b565b6040518060a001604052808481526020018381526020018281526020016000815260200160011515815250600784604051620004f49190620005c1565b9081526040519081900360200190208151819062000513908262000697565b50602082015160018201906200052a908262000697565b506040820151600282019062000541908262000697565b50606082015160038201556080909101516004909101805460ff1916911515919091179055601080546001810182556000919091527f1b6847dc741a1b0cd08d278845f9d819d87b734759afb55fe2de5cb82a9ae67201620005a4848262000697565b5060038054906000620005b78362000763565b9190505550505050565b6000825160005b81811015620005e45760208186018101518583015201620005c8565b506000920191825250919050565b634e487b7160e01b600052604160045260246000fd5b600181811c908216806200061d57607f821691505b6020821081036200063e57634e487b7160e01b600052602260045260246000fd5b50919050565b601f8211156200069257600081815260208120601f850160051c810160208610156200066d5750805b601f850160051c820191505b818110156200068e5782815560010162000679565b5050505b505050565b81516001600160401b03811115620006b357620006b3620005f2565b620006cb81620006c4845462000608565b8462000644565b602080601f831160018114620007035760008415620006ea5750858301515b600019600386901b1c1916600185901b1785556200068e565b600085815260208120601f198616915b82811015620007345788860151825594840194600190910190840162000713565b5085821015620007535787850151600019600388901b60f8161c191681555b5050505050600190811b01905550565b6000600182016200078457634e487b7160e01b600052601160045260246000fd5b5060010190565b613910806200079b6000396000f3fe608060405234801561001057600080fd5b50600436106102535760003560e01c8063a61f983711610146578063d8048d0e116100c3578063e9666b4011610087578063e9666b401461066d578063ed310b741461068f578063f2fde38b146106a2578063f56f83f7146106b5578063f60cdcf6146106c8578063f6b6b408146106d157600080fd5b8063d8048d0e146105fe578063db2e21bc14610611578063de74d7be14610619578063e7ec338714610641578063e95371071461064957600080fd5b8063c298df111161010a578063c298df1114610557578063c42fbed51461056a578063c59d48471461057d578063c8db50d7146105bd578063ce0ba5cd146105d057600080fd5b8063a61f9837146104fb578063ad31ff8914610504578063ba0e752914610517578063bb39f56f1461051f578063bce5468e1461054457600080fd5b8063635cb5a5116101d45780637b3b3dad116101985780637b3b3dad146103fa5780637cf3dca7146104525780637e522646146104655780638da5cb5b146104855780639eee7c0e146104b057600080fd5b8063635cb5a5146103415780636ce2d7cd1461035457806372319ac41461037957806376f8e0ea1461038c57806377eabb40146103d457600080fd5b806335ec61aa1161021b57806335ec61aa146102cf5780633a8f1076146102e2578063444a6836146102eb578063463ddd6e1461030e578063574726f21461032157600080fd5b8063087390ab1461025857806312f24cc41461027e5780631faaa895146102915780632bb1515d146102a65780632f5761ac146102c6575b600080fd5b61026b610266366004612ec9565b6106e4565b6040519081526020015b60405180910390f35b61026b61028c366004612f49565b610729565b6102a461029f366004612fc5565b610d24565b005b6102b96102b4366004612fc5565b610df2565b6040516102759190613002565b61026b60015481565b61026b6102dd366004612fc5565b610e62565b61026b60025481565b6102fe6102f9366004612f49565b610e8a565b6040519015158152602001610275565b6102fe61031c366004613046565b6111e8565b61033461032f36600461313d565b6113c2565b60405161027591906131a6565b61033461034f3660046131c0565b61146e565b610367610362366004612fc5565b6114b5565b6040516102759695949392919061322f565b6103346103873660046131c0565b611799565b61026b61039a366004612ec9565b8151602081840181018051600b82529282019482019490942091909352815180830184018051928152908401929093019190912091525481565b6103e76103e236600461313d565b6117c4565b6040516102759796959493929190613283565b610445610408366004612ec9565b8151602081840181018051600a82529282019482019490942091909352815180830184018051928152908401929093019190912091525460ff1681565b60405161027591906132e2565b6102fe6104603660046132fc565b61191d565b610478610473366004612fc5565b6119d0565b6040516102759190613384565b600054610498906001600160a01b031681565b6040516001600160a01b039091168152602001610275565b6102fe6104be366004612ec9565b8151602081840181018051600e82529282019482019490942091909352815180830184018051928152908401929093019190912091525460ff1681565b61026b60035481565b6102fe610512366004612fc5565b611ac7565b610478611af2565b61053261052d36600461313d565b611bcb565b604051610275969594939291906133e6565b610478610552366004612fc5565b611de7565b610445610565366004612ec9565b611ed3565b61026b610578366004612fc5565b611f1c565b6001546002546003546004546000546040805195865260208601949094529284019190915260608301526001600160a01b0316608082015260a001610275565b6102fe6105cb366004612ec9565b611f2e565b6102fe6105de366004612fc5565b805160208183018101805160088252928201919093012091525460ff1681565b6102fe61060c36600461343b565b611f40565b6102a46121b5565b61062c610627366004612fc5565b61221c565b604051610275999897969594939291906134ec565b610478612410565b61065c610657366004612fc5565b6124e0565b604051610275959493929190613568565b61068061067b366004612fc5565b6126b5565b604051610275939291906135bb565b61033461069d36600461313d565b612946565b6102a46106b03660046135f1565b612956565b61026b6106c33660046131c0565b6129ea565b61026b60045481565b6102fe6106df36600461360c565b612a2a565b6000600b836040516106f69190613653565b9081526020016040518091039020826040516107129190613653565b908152602001604051809103902054905092915050565b600080546001600160a01b0316331461075d5760405162461bcd60e51b81526004016107549061366f565b60405180910390fd5b60058360405161076d9190613653565b9081526040519081900360200190206007015460ff610100909104166107a55760405162461bcd60e51b8152600401610754906136a6565b6002600a866040516107b79190613653565b9081526020016040518091039020846040516107d39190613653565b9081526040519081900360200190205460ff1660038111156107f7576107f7613205565b1415801561085557506003600a866040516108129190613653565b90815260200160405180910390208460405161082e9190613653565b9081526040519081900360200190205460ff16600381111561085257610852613205565b14155b6108a15760405162461bcd60e51b815260206004820152601960248201527f4d697373696f6e20616c726561647920636f6d706c65746564000000000000006044820152606401610754565b6108aa85612c5b565b60006005846040516108bc9190613653565b9081526020016040518091039020604051806101200160405290816000820180546108e6906136d6565b80601f0160208091040260200160405190810160405280929190818152602001828054610912906136d6565b801561095f5780601f106109345761010080835404028352916020019161095f565b820191906000526020600020905b81548152906001019060200180831161094257829003601f168201915b50505050508152602001600182018054610978906136d6565b80601f01602080910402602001604051908101604052809291908181526020018280546109a4906136d6565b80156109f15780601f106109c6576101008083540402835291602001916109f1565b820191906000526020600020905b8154815290600101906020018083116109d457829003601f168201915b50505050508152602001600282018054610a0a906136d6565b80601f0160208091040260200160405190810160405280929190818152602001828054610a36906136d6565b8015610a835780601f10610a5857610100808354040283529160200191610a83565b820191906000526020600020905b815481529060010190602001808311610a6657829003601f168201915b5050509183525050600382015460209091019060ff166008811115610aaa57610aaa613205565b6008811115610abb57610abb613205565b815260048201546020820152600582015460408201526006820154606082015260079091015460ff808216151560808085019190915261010090920416151560a090920191909152810151909150831015610b4d5760405162461bcd60e51b815260206004820152601260248201527115185c99d95d081b9bdd081c995858da195960721b6044820152606401610754565b6002546040805160e0810182526001600160a01b03888116825260208083018b81528385018a90526060840189905260a08781015160808601524290850152600160c085018190526000878152600690935294909120835181546001600160a01b0319169316929092178255519192909190820190610bcc908261375f565b5060408201516002820190610be1908261375f565b50606082015160038201556080820151600482015560a0820151600582015560c0909101516006909101805460ff1916911515919091179055604051600c90610c2b908990613653565b90815260405190819003602090810182208054600181018255600091825291902001829055600290600a90610c61908a90613653565b908152602001604051809103902086604051610c7d9190613653565b908152604051908190036020019020805460ff19166001836003811115610ca657610ca6613205565b021790555060028054906000610cbb8361381f565b919050555086604051610cce9190613653565b6040518091039020817ffc1ee0a86ac18dfa37fb0efcd7f625850c1a011c50738626229b032258e0da6d8789888760a0015142604051610d12959493929190613846565b60405180910390a39695505050505050565b6000546001600160a01b03163314610d4e5760405162461bcd60e51b81526004016107549061366f565b600581604051610d5e9190613653565b9081526040519081900360200190206007015460ff61010090910416610d965760405162461bcd60e51b8152600401610754906136a6565b600581604051610da69190613653565b9081526040519081900360200181206007015460ff161590600590610dcc908490613653565b908152604051908190036020019020600701805491151560ff1990921691909117905550565b6060600c82604051610e049190613653565b9081526040805191829003602090810183208054808302850183019093528284529190830182828015610e5657602002820191906000526020600020905b815481526020019060010190808311610e42575b50505050509050919050565b6000600d82604051610e749190613653565b9081526040519081900360200190205492915050565b600080546001600160a01b03163314610eb55760405162461bcd60e51b81526004016107549061366f565b600583604051610ec59190613653565b9081526040519081900360200190206007015460ff61010090910416610efd5760405162461bcd60e51b8152600401610754906136a6565b600583604051610f0d9190613653565b9081526040519081900360200190206007015460ff16610f675760405162461bcd60e51b81526020600482015260156024820152744d697373696f6e206973206e6f742061637469766560581b6044820152606401610754565b610f7085612c5b565b81600b86604051610f819190613653565b908152602001604051809103902084604051610f9d9190613653565b908152604051908190036020019020556002600a86604051610fbf9190613653565b908152602001604051809103902084604051610fdb9190613653565b9081526040519081900360200190205460ff166003811115610fff57610fff613205565b1415801561105d57506003600a8660405161101a9190613653565b9081526020016040518091039020846040516110369190613653565b9081526040519081900360200190205460ff16600381111561105a5761105a613205565b14155b156111dd576000600a866040516110749190613653565b9081526020016040518091039020846040516110909190613653565b9081526040519081900360200190205460ff1660038111156110b4576110b4613205565b03611152576009856040516110c99190613653565b9081526040516020918190038201902080546001810182556000918252919020016110f4848261375f565b506001600a866040516111079190613653565b9081526020016040518091039020846040516111239190613653565b908152604051908190036020019020805460ff1916600183600381111561114c5761114c613205565b02179055505b826040516111609190613653565b6040518091039020856040516111769190613653565b60405180910390207fc2adb63ed5410b2907f8ca7a279e4dc2afb04435808e4f5cc71aa23e688b5ecc846005876040516111b09190613653565b908152604051908190036020018120600401546111d4928252602082015260400190565b60405180910390a35b506001949350505050565b600080546001600160a01b031633146112135760405162461bcd60e51b81526004016107549061366f565b61121c84612c5b565b60005b82518110156111dd57600083828151811061123c5761123c613886565b602002602001015190506007816040516112569190613653565b9081526040519081900360200190206004015460ff1680156112b45750600e866040516112839190613653565b90815260200160405180910390208160405161129f9190613653565b9081526040519081900360200190205460ff16155b156113af576001600e876040516112cb9190613653565b9081526020016040518091039020826040516112e79190613653565b908152604051908190036020018120805492151560ff1990931692909217909155600d90611316908890613653565b908152604051602091819003820190208054600181018255600091825291902001611341828261375f565b50856040516113509190613653565b6040518091039020816040516113669190613653565b604080519182900382206001600160a01b0389168352426020840152917f6a031cb2fc7f4a611de718a69ad23c722ad1c9673772fdb8064935be3c74093f910160405180910390a35b50806113ba8161381f565b91505061121f565b601081815481106113d257600080fd5b9060005260206000200160009150905080546113ed906136d6565b80601f0160208091040260200160405190810160405280929190818152602001828054611419906136d6565b80156114665780601f1061143b57610100808354040283529160200191611466565b820191906000526020600020905b81548152906001019060200180831161144957829003601f168201915b505050505081565b8151602081840181018051600982529282019185019190912091905280548290811061149957600080fd5b906000526020600020016000915091505080546113ed906136d6565b6060806000806000806005876040516114ce9190613653565b9081526040519081900360200190206007015460ff610100909104166115065760405162461bcd60e51b8152600401610754906136a6565b60006005886040516115189190613653565b908152602001604051809103902060405180610120016040529081600082018054611542906136d6565b80601f016020809104026020016040519081016040528092919081815260200182805461156e906136d6565b80156115bb5780601f10611590576101008083540402835291602001916115bb565b820191906000526020600020905b81548152906001019060200180831161159e57829003601f168201915b505050505081526020016001820180546115d4906136d6565b80601f0160208091040260200160405190810160405280929190818152602001828054611600906136d6565b801561164d5780601f106116225761010080835404028352916020019161164d565b820191906000526020600020905b81548152906001019060200180831161163057829003601f168201915b50505050508152602001600282018054611666906136d6565b80601f0160208091040260200160405190810160405280929190818152602001828054611692906136d6565b80156116df5780601f106116b4576101008083540402835291602001916116df565b820191906000526020600020905b8154815290600101906020018083116116c257829003601f168201915b5050509183525050600382015460209091019060ff16600881111561170657611706613205565b600881111561171757611717613205565b815260048201546020808301919091526005830154604080840191909152600684015460608085019190915260079094015460ff808216151560808087019190915261010090920416151560a094850152918501519085015193850151918501519285015160e090950151909d939c50909a5090985091965090945092505050565b8151602081840181018051600d82529282019185019190912091905280548290811061149957600080fd5b600660205260009081526040902080546001820180546001600160a01b0390921692916117f0906136d6565b80601f016020809104026020016040519081016040528092919081815260200182805461181c906136d6565b80156118695780601f1061183e57610100808354040283529160200191611869565b820191906000526020600020905b81548152906001019060200180831161184c57829003601f168201915b50505050509080600201805461187e906136d6565b80601f01602080910402602001604051908101604052809291908181526020018280546118aa906136d6565b80156118f75780601f106118cc576101008083540402835291602001916118f7565b820191906000526020600020905b8154815290600101906020018083116118da57829003601f168201915b505050506003830154600484015460058501546006909501549394919390925060ff1687565b600080546001600160a01b031633146119485760405162461bcd60e51b81526004016107549061366f565b6007846040516119589190613653565b9081526040519081900360200190206004015460ff16156119bb5760405162461bcd60e51b815260206004820152601a60248201527f416368696576656d656e7420616c7265616479206578697374730000000000006044820152606401610754565b6119c6848484612d14565b5060019392505050565b60606009826040516119e29190613653565b9081526020016040518091039020805480602002602001604051908101604052809291908181526020016000905b82821015611abc578382906000526020600020018054611a2f906136d6565b80601f0160208091040260200160405190810160405280929190818152602001828054611a5b906136d6565b8015611aa85780601f10611a7d57610100808354040283529160200191611aa8565b820191906000526020600020905b815481529060010190602001808311611a8b57829003601f168201915b505050505081526020019060010190611a10565b505050509050919050565b6000600882604051611ad99190613653565b9081526040519081900360200190205460ff1692915050565b6060600f805480602002602001604051908101604052809291908181526020016000905b82821015611bc2578382906000526020600020018054611b35906136d6565b80601f0160208091040260200160405190810160405280929190818152602001828054611b61906136d6565b8015611bae5780601f10611b8357610100808354040283529160200191611bae565b820191906000526020600020905b815481529060010190602001808311611b9157829003601f168201915b505050505081526020019060010190611b16565b50505050905090565b600060608060008060006002548710611c265760405162461bcd60e51b815260206004820152601960248201527f436f6d706c6574696f6e20646f6573206e6f74206578697374000000000000006044820152606401610754565b6000878152600660209081526040808320815160e0810190925280546001600160a01b031682526001810180549293919291840191611c64906136d6565b80601f0160208091040260200160405190810160405280929190818152602001828054611c90906136d6565b8015611cdd5780601f10611cb257610100808354040283529160200191611cdd565b820191906000526020600020905b815481529060010190602001808311611cc057829003601f168201915b50505050508152602001600282018054611cf6906136d6565b80601f0160208091040260200160405190810160405280929190818152602001828054611d22906136d6565b8015611d6f5780601f10611d4457610100808354040283529160200191611d6f565b820191906000526020600020905b815481529060010190602001808311611d5257829003601f168201915b505050505081526020016003820154815260200160048201548152602001600582015481526020016006820160009054906101000a900460ff1615151515815250509050806000015181602001518260400151836060015184608001518560a001519650965096509650965096505091939550919395565b6060600d82604051611df99190613653565b9081526020016040518091039020805480602002602001604051908101604052809291908181526020016000905b82821015611abc578382906000526020600020018054611e46906136d6565b80601f0160208091040260200160405190810160405280929190818152602001828054611e72906136d6565b8015611ebf5780601f10611e9457610100808354040283529160200191611ebf565b820191906000526020600020905b815481529060010190602001808311611ea257829003601f168201915b505050505081526020019060010190611e27565b6000600a83604051611ee59190613653565b908152602001604051809103902082604051611f019190613653565b9081526040519081900360200190205460ff16905092915050565b6000600c82604051610e749190613653565b6000600e83604051611ee59190613653565b600080546001600160a01b03163314611f6b5760405162461bcd60e51b81526004016107549061366f565b600587604051611f7b9190613653565b9081526040519081900360200190206007015460ff6101009091041615611fdd5760405162461bcd60e51b81526020600482015260166024820152754d697373696f6e20616c72656164792065786973747360501b6044820152606401610754565b60405180610120016040528088815260200187815260200186815260200185600881111561200d5761200d613205565b8152602001848152602001838152602001428152602001600115158152602001600115158152506005886040516120449190613653565b90815260405190819003602001902081518190612061908261375f565b5060208201516001820190612076908261375f565b506040820151600282019061208b908261375f565b50606082015160038201805460ff191660018360088111156120af576120af613205565b02179055506080820151600482015560a0820151600582015560c0820151600682015560e0820151600790910180546101009384015161ffff1990911692151561ff00191692909217911515909202179055600f80546001810182556000919091527f8d1108e10bcb7c27dddfc02ed9d693a074039d026cf4ea4240b40f7d581ac8020161213d888261375f565b506001805490600061214e8361381f565b9190505550866040516121619190613653565b60405180910390207fa4b92be18ef1c3fc86442e2dcc255b90ea082c6c5dfa805c92a7c081ae316de587868686426040516121a095949392919061389c565b60405180910390a25060019695505050505050565b6000546001600160a01b031633146121df5760405162461bcd60e51b81526004016107549061366f565b600080546040516001600160a01b03909116914780156108fc02929091818181858888f19350505050158015612219573d6000803e3d6000fd5b50565b8051602081830181018051600582529282019190930120915280548190612242906136d6565b80601f016020809104026020016040519081016040528092919081815260200182805461226e906136d6565b80156122bb5780601f10612290576101008083540402835291602001916122bb565b820191906000526020600020905b81548152906001019060200180831161229e57829003601f168201915b5050505050908060010180546122d0906136d6565b80601f01602080910402602001604051908101604052809291908181526020018280546122fc906136d6565b80156123495780601f1061231e57610100808354040283529160200191612349565b820191906000526020600020905b81548152906001019060200180831161232c57829003601f168201915b50505050509080600201805461235e906136d6565b80601f016020809104026020016040519081016040528092919081815260200182805461238a906136d6565b80156123d75780601f106123ac576101008083540402835291602001916123d7565b820191906000526020600020905b8154815290600101906020018083116123ba57829003601f168201915b5050506003840154600485015460058601546006870154600790970154959660ff93841696929550909350918181169161010090041689565b60606010805480602002602001604051908101604052809291908181526020016000905b82821015611bc2578382906000526020600020018054612453906136d6565b80601f016020809104026020016040519081016040528092919081815260200182805461247f906136d6565b80156124cc5780601f106124a1576101008083540402835291602001916124cc565b820191906000526020600020905b8154815290600101906020018083116124af57829003601f168201915b505050505081526020019060010190612434565b8051602081830181018051600782529282019190930120915280548190612506906136d6565b80601f0160208091040260200160405190810160405280929190818152602001828054612532906136d6565b801561257f5780601f106125545761010080835404028352916020019161257f565b820191906000526020600020905b81548152906001019060200180831161256257829003601f168201915b505050505090806001018054612594906136d6565b80601f01602080910402602001604051908101604052809291908181526020018280546125c0906136d6565b801561260d5780601f106125e25761010080835404028352916020019161260d565b820191906000526020600020905b8154815290600101906020018083116125f057829003601f168201915b505050505090806002018054612622906136d6565b80601f016020809104026020016040519081016040528092919081815260200182805461264e906136d6565b801561269b5780601f106126705761010080835404028352916020019161269b565b820191906000526020600020905b81548152906001019060200180831161267e57829003601f168201915b50505050600383015460049093015491929160ff16905085565b60608060006007846040516126ca9190613653565b9081526040519081900360200190206004015460ff1661272c5760405162461bcd60e51b815260206004820152601a60248201527f416368696576656d656e7420646f6573206e6f742065786973740000000000006044820152606401610754565b600060078560405161273e9190613653565b90815260200160405180910390206040518060a0016040529081600082018054612767906136d6565b80601f0160208091040260200160405190810160405280929190818152602001828054612793906136d6565b80156127e05780601f106127b5576101008083540402835291602001916127e0565b820191906000526020600020905b8154815290600101906020018083116127c357829003601f168201915b505050505081526020016001820180546127f9906136d6565b80601f0160208091040260200160405190810160405280929190818152602001828054612825906136d6565b80156128725780601f1061284757610100808354040283529160200191612872565b820191906000526020600020905b81548152906001019060200180831161285557829003601f168201915b5050505050815260200160028201805461288b906136d6565b80601f01602080910402602001604051908101604052809291908181526020018280546128b7906136d6565b80156129045780601f106128d957610100808354040283529160200191612904565b820191906000526020600020905b8154815290600101906020018083116128e757829003601f168201915b5050509183525050600382015460208083019190915260049092015460ff16151560409182015290820151908201516060909201519097919650945092505050565b600f81815481106113d257600080fd5b6000546001600160a01b031633146129805760405162461bcd60e51b81526004016107549061366f565b6001600160a01b0381166129c85760405162461bcd60e51b815260206004820152600f60248201526e496e76616c6964206164647265737360881b6044820152606401610754565b600080546001600160a01b0319166001600160a01b0392909216919091179055565b8151602081840181018051600c825292820191850191909120919052805482908110612a1557600080fd5b90600052602060002001600091509150505481565b600080546001600160a01b03163314612a555760405162461bcd60e51b81526004016107549061366f565b600782604051612a659190613653565b9081526040519081900360200190206004015460ff16612ac75760405162461bcd60e51b815260206004820152601a60248201527f416368696576656d656e7420646f6573206e6f742065786973740000000000006044820152606401610754565b600e84604051612ad79190613653565b908152602001604051809103902082604051612af39190613653565b9081526040519081900360200190205460ff1615612b535760405162461bcd60e51b815260206004820152601c60248201527f416368696576656d656e7420616c726561647920756e6c6f636b6564000000006044820152606401610754565b612b5c84612c5b565b6001600e85604051612b6e9190613653565b908152602001604051809103902083604051612b8a9190613653565b908152604051908190036020018120805492151560ff1990931692909217909155600d90612bb9908690613653565b908152604051602091819003820190208054600181018255600091825291902001612be4838261375f565b5083604051612bf39190613653565b604051809103902082604051612c099190613653565b604080519182900382206001600160a01b0387168352426020840152917f6a031cb2fc7f4a611de718a69ad23c722ad1c9673772fdb8064935be3c74093f910160405180910390a35060019392505050565b600881604051612c6b9190613653565b9081526040519081900360200190205460ff16612219576001600882604051612c949190613653565b908152604051908190036020019020805491151560ff1990921691909117905560048054906000612cc48361381f565b919050555080604051612cd79190613653565b604051908190038120428252907f9c529f0fc3a16860fe293102c3f3b645571379454234a401c75194a9b3f77c3f9060200160405180910390a250565b6040518060a001604052808481526020018381526020018281526020016000815260200160011515815250600784604051612d4f9190613653565b90815260405190819003602001902081518190612d6c908261375f565b5060208201516001820190612d81908261375f565b5060408201516002820190612d96908261375f565b50606082015160038201556080909101516004909101805460ff1916911515919091179055601080546001810182556000919091527f1b6847dc741a1b0cd08d278845f9d819d87b734759afb55fe2de5cb82a9ae67201612df7848261375f565b5060038054906000612e088361381f565b9190505550505050565b634e487b7160e01b600052604160045260246000fd5b604051601f8201601f1916810167ffffffffffffffff81118282101715612e5157612e51612e12565b604052919050565b600082601f830112612e6a57600080fd5b813567ffffffffffffffff811115612e8457612e84612e12565b612e97601f8201601f1916602001612e28565b818152846020838601011115612eac57600080fd5b816020850160208301376000918101602001919091529392505050565b60008060408385031215612edc57600080fd5b823567ffffffffffffffff80821115612ef457600080fd5b612f0086838701612e59565b93506020850135915080821115612f1657600080fd5b50612f2385828601612e59565b9150509250929050565b80356001600160a01b0381168114612f4457600080fd5b919050565b60008060008060808587031215612f5f57600080fd5b843567ffffffffffffffff80821115612f7757600080fd5b612f8388838901612e59565b9550612f9160208801612f2d565b94506040870135915080821115612fa757600080fd5b50612fb487828801612e59565b949793965093946060013593505050565b600060208284031215612fd757600080fd5b813567ffffffffffffffff811115612fee57600080fd5b612ffa84828501612e59565b949350505050565b6020808252825182820181905260009190848201906040850190845b8181101561303a5783518352928401929184019160010161301e565b50909695505050505050565b60008060006060848603121561305b57600080fd5b833567ffffffffffffffff8082111561307357600080fd5b61307f87838801612e59565b945060209150613090828701612f2d565b93506040860135818111156130a457600080fd5b8601601f810188136130b557600080fd5b8035828111156130c7576130c7612e12565b8060051b6130d6858201612e28565b918252828101850191858101908b8411156130f057600080fd5b86850192505b8383101561312c5782358681111561310e5760008081fd5b61311c8d8983890101612e59565b83525091860191908601906130f6565b809750505050505050509250925092565b60006020828403121561314f57600080fd5b5035919050565b60005b83811015613171578181015183820152602001613159565b50506000910152565b60008151808452613192816020860160208601613156565b601f01601f19169290920160200192915050565b6020815260006131b9602083018461317a565b9392505050565b600080604083850312156131d357600080fd5b823567ffffffffffffffff8111156131ea57600080fd5b6131f685828601612e59565b95602094909401359450505050565b634e487b7160e01b600052602160045260246000fd5b6009811061322b5761322b613205565b9052565b60c08152600061324260c083018961317a565b8281036020840152613254818961317a565b915050613264604083018761321b565b84606083015283608083015282151560a0830152979650505050505050565b6001600160a01b038816815260e0602082018190526000906132a79083018961317a565b82810360408401526132b9818961317a565b9150508560608301528460808301528360a083015282151560c083015298975050505050505050565b60208101600483106132f6576132f6613205565b91905290565b60008060006060848603121561331157600080fd5b833567ffffffffffffffff8082111561332957600080fd5b61333587838801612e59565b9450602086013591508082111561334b57600080fd5b61335787838801612e59565b9350604086013591508082111561336d57600080fd5b5061337a86828701612e59565b9150509250925092565b6000602080830181845280855180835260408601915060408160051b870101925083870160005b828110156133d957603f198886030184526133c785835161317a565b945092850192908501906001016133ab565b5092979650505050505050565b6001600160a01b038716815260c06020820181905260009061340a9083018861317a565b828103604084015261341c818861317a565b60608401969096525050608081019290925260a0909101529392505050565b60008060008060008060c0878903121561345457600080fd5b863567ffffffffffffffff8082111561346c57600080fd5b6134788a838b01612e59565b9750602089013591508082111561348e57600080fd5b61349a8a838b01612e59565b965060408901359150808211156134b057600080fd5b506134bd89828a01612e59565b9450506060870135600981106134d257600080fd5b9598949750929560808101359460a0909101359350915050565b60006101208083526135008184018d61317a565b90508281036020840152613514818c61317a565b90508281036040840152613528818b61317a565b915050613538606083018961321b565b608082019690965260a081019490945260c0840192909252151560e0830152151561010090910152949350505050565b60a08152600061357b60a083018861317a565b828103602084015261358d818861317a565b905082810360408401526135a1818761317a565b606084019590955250509015156080909101529392505050565b6060815260006135ce606083018661317a565b82810360208401526135e0818661317a565b915050826040830152949350505050565b60006020828403121561360357600080fd5b6131b982612f2d565b60008060006060848603121561362157600080fd5b833567ffffffffffffffff8082111561363957600080fd5b61364587838801612e59565b945061335760208701612f2d565b60008251613665818460208701613156565b9190910192915050565b60208082526018908201527f4f6e6c79206f776e65722063616e2063616c6c20746869730000000000000000604082015260600190565b602080825260169082015275135a5cdcda5bdb88191bd95cc81b9bdd08195e1a5cdd60521b604082015260600190565b600181811c908216806136ea57607f821691505b60208210810361370a57634e487b7160e01b600052602260045260246000fd5b50919050565b601f82111561375a57600081815260208120601f850160051c810160208610156137375750805b601f850160051c820191505b8181101561375657828155600101613743565b5050505b505050565b815167ffffffffffffffff81111561377957613779612e12565b61378d8161378784546136d6565b84613710565b602080601f8311600181146137c257600084156137aa5750858301515b600019600386901b1c1916600185901b178555613756565b600085815260208120601f198616915b828110156137f1578886015182559484019460019091019084016137d2565b508582101561380f5787850151600019600388901b60f8161c191681555b5050505050600190811b01905550565b60006001820161383f57634e487b7160e01b600052601160045260246000fd5b5060010190565b60a08152600061385960a083018861317a565b6001600160a01b039690961660208301525060408101939093526060830191909152608090910152919050565b634e487b7160e01b600052603260045260246000fd5b60a0815260006138af60a083018861317a565b90506138be602083018761321b565b846040830152836060830152826080830152969550505050505056fea2646970667358221220b6400d57f5bc1d3da8f792de0cf3a8a83224ffe98b605da4018504c4b2e3e1f264736f6c63430008140033",
  "linkReferences": {},
  "deployedLinkReferences": {}
}